{
  "_format": "hh-sol-artifact-1",
  "contractName": "DAO",
  "sourceName": "contracts/DAO.sol",
  "abi": [
    {
      "inputs": [
        {
          "internalType": "address",
          "name": "_lpAddress",
          "type": "address"
        }
      ],
      "stateMutability": "nonpayable",
      "type": "constructor"
    },
    {
      "anonymous": false,
      "inputs": [
        {
          "indexed": true,
          "internalType": "bytes32",
          "name": "role",
          "type": "bytes32"
        },
        {
          "indexed": true,
          "internalType": "bytes32",
          "name": "previousAdminRole",
          "type": "bytes32"
        },
        {
          "indexed": true,
          "internalType": "bytes32",
          "name": "newAdminRole",
          "type": "bytes32"
        }
      ],
      "name": "RoleAdminChanged",
      "type": "event"
    },
    {
      "anonymous": false,
      "inputs": [
        {
          "indexed": true,
          "internalType": "bytes32",
          "name": "role",
          "type": "bytes32"
        },
        {
          "indexed": true,
          "internalType": "address",
          "name": "account",
          "type": "address"
        },
        {
          "indexed": true,
          "internalType": "address",
          "name": "sender",
          "type": "address"
        }
      ],
      "name": "RoleGranted",
      "type": "event"
    },
    {
      "anonymous": false,
      "inputs": [
        {
          "indexed": true,
          "internalType": "bytes32",
          "name": "role",
          "type": "bytes32"
        },
        {
          "indexed": true,
          "internalType": "address",
          "name": "account",
          "type": "address"
        },
        {
          "indexed": true,
          "internalType": "address",
          "name": "sender",
          "type": "address"
        }
      ],
      "name": "RoleRevoked",
      "type": "event"
    },
    {
      "anonymous": false,
      "inputs": [
        {
          "indexed": false,
          "internalType": "address",
          "name": "voter",
          "type": "address"
        },
        {
          "indexed": false,
          "internalType": "uint256",
          "name": "id",
          "type": "uint256"
        },
        {
          "indexed": false,
          "internalType": "uint256",
          "name": "option",
          "type": "uint256"
        },
        {
          "indexed": false,
          "internalType": "uint256",
          "name": "amount",
          "type": "uint256"
        }
      ],
      "name": "Voted",
      "type": "event"
    },
    {
      "anonymous": false,
      "inputs": [
        {
          "indexed": false,
          "internalType": "uint256",
          "name": "id",
          "type": "uint256"
        },
        {
          "indexed": false,
          "internalType": "uint256",
          "name": "optionID",
          "type": "uint256"
        }
      ],
      "name": "VotingFinished",
      "type": "event"
    },
    {
      "anonymous": false,
      "inputs": [
        {
          "indexed": false,
          "internalType": "uint256",
          "name": "id",
          "type": "uint256"
        },
        {
          "indexed": false,
          "internalType": "uint256",
          "name": "starttime",
          "type": "uint256"
        },
        {
          "indexed": false,
          "internalType": "address",
          "name": "recipient",
          "type": "address"
        },
        {
          "indexed": false,
          "internalType": "bytes",
          "name": "signature",
          "type": "bytes"
        }
      ],
      "name": "VotingStarted",
      "type": "event"
    },
    {
      "inputs": [],
      "name": "CHAIRMAN",
      "outputs": [
        {
          "internalType": "bytes32",
          "name": "",
          "type": "bytes32"
        }
      ],
      "stateMutability": "view",
      "type": "function"
    },
    {
      "inputs": [],
      "name": "DEFAULT_ADMIN_ROLE",
      "outputs": [
        {
          "internalType": "bytes32",
          "name": "",
          "type": "bytes32"
        }
      ],
      "stateMutability": "view",
      "type": "function"
    },
    {
      "inputs": [
        {
          "internalType": "address",
          "name": "_recipient",
          "type": "address"
        },
        {
          "internalType": "bytes",
          "name": "_signature",
          "type": "bytes"
        }
      ],
      "name": "addProposal",
      "outputs": [],
      "stateMutability": "nonpayable",
      "type": "function"
    },
    {
      "inputs": [],
      "name": "debatePeriod",
      "outputs": [
        {
          "internalType": "uint256",
          "name": "",
          "type": "uint256"
        }
      ],
      "stateMutability": "view",
      "type": "function"
    },
    {
      "inputs": [
        {
          "internalType": "uint256",
          "name": "_id",
          "type": "uint256"
        }
      ],
      "name": "finish",
      "outputs": [],
      "stateMutability": "nonpayable",
      "type": "function"
    },
    {
      "inputs": [
        {
          "internalType": "bytes32",
          "name": "role",
          "type": "bytes32"
        }
      ],
      "name": "getRoleAdmin",
      "outputs": [
        {
          "internalType": "bytes32",
          "name": "",
          "type": "bytes32"
        }
      ],
      "stateMutability": "view",
      "type": "function"
    },
    {
      "inputs": [
        {
          "internalType": "bytes32",
          "name": "role",
          "type": "bytes32"
        },
        {
          "internalType": "address",
          "name": "account",
          "type": "address"
        }
      ],
      "name": "grantRole",
      "outputs": [],
      "stateMutability": "nonpayable",
      "type": "function"
    },
    {
      "inputs": [
        {
          "internalType": "bytes32",
          "name": "role",
          "type": "bytes32"
        },
        {
          "internalType": "address",
          "name": "account",
          "type": "address"
        }
      ],
      "name": "hasRole",
      "outputs": [
        {
          "internalType": "bool",
          "name": "",
          "type": "bool"
        }
      ],
      "stateMutability": "view",
      "type": "function"
    },
    {
      "inputs": [],
      "name": "quorumPercent",
      "outputs": [
        {
          "internalType": "uint256",
          "name": "",
          "type": "uint256"
        }
      ],
      "stateMutability": "view",
      "type": "function"
    },
    {
      "inputs": [
        {
          "internalType": "bytes32",
          "name": "role",
          "type": "bytes32"
        },
        {
          "internalType": "address",
          "name": "account",
          "type": "address"
        }
      ],
      "name": "renounceRole",
      "outputs": [],
      "stateMutability": "nonpayable",
      "type": "function"
    },
    {
      "inputs": [
        {
          "internalType": "bytes32",
          "name": "role",
          "type": "bytes32"
        },
        {
          "internalType": "address",
          "name": "account",
          "type": "address"
        }
      ],
      "name": "revokeRole",
      "outputs": [],
      "stateMutability": "nonpayable",
      "type": "function"
    },
    {
      "inputs": [
        {
          "internalType": "address",
          "name": "_stakingAddress",
          "type": "address"
        }
      ],
      "name": "setupStaking",
      "outputs": [],
      "stateMutability": "nonpayable",
      "type": "function"
    },
    {
      "inputs": [],
      "name": "stakingAddress",
      "outputs": [
        {
          "internalType": "address",
          "name": "",
          "type": "address"
        }
      ],
      "stateMutability": "view",
      "type": "function"
    },
    {
      "inputs": [
        {
          "internalType": "bytes4",
          "name": "interfaceId",
          "type": "bytes4"
        }
      ],
      "name": "supportsInterface",
      "outputs": [
        {
          "internalType": "bool",
          "name": "",
          "type": "bool"
        }
      ],
      "stateMutability": "view",
      "type": "function"
    },
    {
      "inputs": [
        {
          "internalType": "address",
          "name": "",
          "type": "address"
        }
      ],
      "name": "unlockTime",
      "outputs": [
        {
          "internalType": "uint256",
          "name": "",
          "type": "uint256"
        }
      ],
      "stateMutability": "view",
      "type": "function"
    },
    {
      "inputs": [
        {
          "internalType": "uint256",
          "name": "_id",
          "type": "uint256"
        },
        {
          "internalType": "uint256",
          "name": "_option",
          "type": "uint256"
        }
      ],
      "name": "vote",
      "outputs": [],
      "stateMutability": "nonpayable",
      "type": "function"
    },
    {
      "inputs": [
        {
          "internalType": "uint256",
          "name": "",
          "type": "uint256"
        }
      ],
      "name": "votings",
      "outputs": [
        {
          "internalType": "bool",
          "name": "finished",
          "type": "bool"
        },
        {
          "internalType": "uint256",
          "name": "startTime",
          "type": "uint256"
        },
        {
          "internalType": "address",
          "name": "initiator",
          "type": "address"
        },
        {
          "internalType": "address",
          "name": "recipient",
          "type": "address"
        },
        {
          "internalType": "bytes",
          "name": "signature",
          "type": "bytes"
        }
      ],
      "stateMutability": "view",
      "type": "function"
    }
  ],
  "bytecode": "0x60806040526203f48060045560336005553480156200001d57600080fd5b50604051620041033803806200410383398181016040528101906200004391906200040e565b620000777fe9483cf5ae1fe49b0d760dcf84d9c4b8f9db5419b06ac6ffd2c0fca212db7e8c60001b6200023e60201b60201c565b620000ab7f070e68651bf372d137c4f3913bd5fc84227abb4ec940ae7a319c1c938e3bdb8160001b6200023e60201b60201c565b620000df7f11696106ee66f8db2fc7eb2552a29bc4b703686258f564c318c0d36e666cd97b60001b6200023e60201b60201c565b620000f46000801b336200024160201b60201c565b620001287f38f9d183ab601e2f1c5c71807c7f883159abe859c10a2de1034b9d0e64af615960001b6200023e60201b60201c565b6200015c7f6664eea401704104ad63a7e11a8e6bfd3bc4799dc903aa512b843143d6ec117560001b6200023e60201b60201c565b6200018e7f5778c2f7d924e55986d549d645f53119b71708389fc2011260c8a657c569fcaa336200024160201b60201c565b620001c27fac14f8aa361cd7cae8b2ea03f934592d651ba5e282f1cf5fc700cf852d96819860001b6200023e60201b60201c565b620001f67fd4a806218f25366144055c8a356c12ede896b00b0458371947f709227f76028660001b6200023e60201b60201c565b80600160006101000a81548173ffffffffffffffffffffffffffffffffffffffff021916908373ffffffffffffffffffffffffffffffffffffffff1602179055505062000440565b50565b6200025382826200033260201b60201c565b6200032e57600160008084815260200190815260200160002060000160008373ffffffffffffffffffffffffffffffffffffffff1673ffffffffffffffffffffffffffffffffffffffff16815260200190815260200160002060006101000a81548160ff021916908315150217905550620002d36200039c60201b60201c565b73ffffffffffffffffffffffffffffffffffffffff168173ffffffffffffffffffffffffffffffffffffffff16837f2f8788117e7eff1d82e926ec794901d17c78024a50270940304540a733656f0d60405160405180910390a45b5050565b600080600084815260200190815260200160002060000160008373ffffffffffffffffffffffffffffffffffffffff1673ffffffffffffffffffffffffffffffffffffffff16815260200190815260200160002060009054906101000a900460ff16905092915050565b600033905090565b600080fd5b600073ffffffffffffffffffffffffffffffffffffffff82169050919050565b6000620003d682620003a9565b9050919050565b620003e881620003c9565b8114620003f457600080fd5b50565b6000815190506200040881620003dd565b92915050565b600060208284031215620004275762000426620003a4565b5b60006200043784828501620003f7565b91505092915050565b613cb380620004506000396000f3fe608060405234801561001057600080fd5b506004361061010b5760003560e01c806391d14854116100a2578063d353a1cb11610071578063d353a1cb146102cc578063d547741f146102e8578063d7b4be2414610304578063ee44a35a14610322578063f81cbd26146103405761010b565b806391d148541461022e578063a217fddf1461025e578063a598d03c1461027c578063b384abef146102b05761010b565b806336568abe116100de57806336568abe146101aa5780633f013425146101c65780635cf16441146101e257806376b467b7146101fe5761010b565b80630114909d1461011057806301ffc9a71461012e578063248a9ca31461015e5780632f2ff15d1461018e575b600080fd5b61011861035e565b6040516101259190612942565b60405180910390f35b610148600480360381019061014391906129bf565b610364565b6040516101559190612a07565b60405180910390f35b61017860048036038101906101739190612a58565b6103de565b6040516101859190612a94565b60405180910390f35b6101a860048036038101906101a39190612b0d565b6103fd565b005b6101c460048036038101906101bf9190612b0d565b61041e565b005b6101e060048036038101906101db9190612b4d565b6104a1565b005b6101fc60048036038101906101f79190612bdf565b610773565b005b61021860048036038101906102139190612b4d565b610cb5565b6040516102259190612942565b60405180910390f35b61024860048036038101906102439190612b0d565b610ccd565b6040516102559190612a07565b60405180910390f35b610266610d37565b6040516102739190612a94565b60405180910390f35b61029660048036038101906102919190612c6b565b610d3e565b6040516102a7959493929190612d40565b60405180910390f35b6102ca60048036038101906102c59190612d9a565b610e59565b005b6102e660048036038101906102e19190612c6b565b6117a9565b005b61030260048036038101906102fd9190612b0d565b612338565b005b61030c612359565b6040516103199190612dda565b60405180910390f35b61032a61237f565b6040516103379190612a94565b60405180910390f35b6103486123a3565b6040516103559190612942565b60405180910390f35b60045481565b60007f7965db0b000000000000000000000000000000000000000000000000000000007bffffffffffffffffffffffffffffffffffffffffffffffffffffffff1916827bffffffffffffffffffffffffffffffffffffffffffffffffffffffff191614806103d757506103d6826123a9565b5b9050919050565b6000806000838152602001908152602001600020600101549050919050565b610406826103de565b61040f81612413565b6104198383612427565b505050565b610426612507565b73ffffffffffffffffffffffffffffffffffffffff168173ffffffffffffffffffffffffffffffffffffffff1614610493576040517f08c379a000000000000000000000000000000000000000000000000000000000815260040161048a90612e78565b60405180910390fd5b61049d828261250f565b5050565b6000801b6104ae81612413565b6104da7f94ae3a97902463aedc43264f57866167eac42b554486ee6e3d05e399d16f2c5b60001b6125f0565b6105067fba0e20a157d0dd510abdaa5b7a3308c071410f882ca9eb2a890a725c35d4ef3e60001b6125f0565b6105327f4d5cb12ed44984878d5e947dfdf8b909c8b540bc57564f404d6498d32057c12160001b6125f0565b61055e7fa3629d20949b65773b76a74cd7a2aaf3b53682c267c58544ae0da8913d15c0a460001b6125f0565b600073ffffffffffffffffffffffffffffffffffffffff16600360009054906101000a900473ffffffffffffffffffffffffffffffffffffffff1673ffffffffffffffffffffffffffffffffffffffff16146105ef576040517f08c379a00000000000000000000000000000000000000000000000000000000081526004016105e690612ee4565b60405180910390fd5b61061b7f810b1e5ff4eab03a5036db087fa9820827c6e1551332945b3fe93c6d9cfb7de060001b6125f0565b6106477f78385d907a4d26fbf33ecdb9efce312b445c20c3c2990682cbf20ac99b56fa5460001b6125f0565b6106737fcd15ae7f406491d63aecd710eced698ee259ddbe9cbdc7338d15a8a02a99c0d160001b6125f0565b81600360006101000a81548173ffffffffffffffffffffffffffffffffffffffff021916908373ffffffffffffffffffffffffffffffffffffffff1602179055506106e07f48309f5a23e72dc3bbceaf7921f1a06a51c1b0f56af8516f42a31ce87863160f60001b6125f0565b61070c7f493c0abd20f6861f931d875153edbc9b908490b1917ceae3afaad4965ae99d1760001b6125f0565b600360009054906101000a900473ffffffffffffffffffffffffffffffffffffffff16600260006101000a81548173ffffffffffffffffffffffffffffffffffffffff021916908373ffffffffffffffffffffffffffffffffffffffff1602179055505050565b7f5778c2f7d924e55986d549d645f53119b71708389fc2011260c8a657c569fcaa61079d81612413565b6107c97fb9e19a16c42a1192abd3273ab6516c4bacad6d2bed1420616a8a47aa25b3eb2f60001b6125f0565b6107f57fde9b90eefc3be63545e9ba65d37587c5c35ea91e24057536751ec755ce923ec160001b6125f0565b6108217f5bca1e8a44771afa2d35dd004be70a5594177daf9cfb1911bb76cc8d058d4ee360001b6125f0565b600084848460405160200161083893929190612f8b565b60405160208183030381529060405280519060200120905061087c7f7905b537fc4089a52028c9976a23efdb90fbdec0eb5f8469062e50f6a703b33960001b6125f0565b6108a87ffb68b559c49f80cadf3995cd86a5ee7f0e4526a0b2eebcfcb58a14ecb436de9960001b6125f0565b6108d47ffbc84cf755f487ff75a56fb2232cef52d5432673ff0580fed78b84d4bde5b6b160001b6125f0565b6007600082815260200190815260200160002060009054906101000a900460ff1615610935576040517f08c379a000000000000000000000000000000000000000000000000000000000815260040161092c90613001565b60405180910390fd5b6109617f2c8bba1e9d1be15a1e728e6326605bbc73ea6b801b8305e07e64649745befc2760001b6125f0565b61098d7f1eda477ed5f29dbc0e384bc5e8b246937fdc2bfabd41ed0e37ed7979ae3e0edf60001b6125f0565b6109b97f52b929acb4b0e642b311809d1d23beee8c6d35f6ad8e0dcda4925cf48d9affff60001b6125f0565b60016007600083815260200190815260200160002060006101000a81548160ff021916908315150217905550610a117ff82259876217d509f0069aa3c02d10667370cd50a399aef2bffd49a0bf50b9af60001b6125f0565b610a3d7f020b42760237879ab3793e7068b12d17a2016ecad0f87279d4d338db854cfaa260001b6125f0565b60096040518060c001604052806000151581526020014281526020013373ffffffffffffffffffffffffffffffffffffffff1681526020018773ffffffffffffffffffffffffffffffffffffffff16815260200186868080601f016020809104026020016040519081016040528093929190818152602001838380828437600081840152601f19601f8201169050808301925050505050505081526020016040518060400160405280600081526020016000815250815250908060018154018082558091505060019003906000526020600020906007020160009091909190915060008201518160000160006101000a81548160ff0219169083151502179055506020820151816001015560408201518160020160006101000a81548173ffffffffffffffffffffffffffffffffffffffff021916908373ffffffffffffffffffffffffffffffffffffffff16021790555060608201518160030160006101000a81548173ffffffffffffffffffffffffffffffffffffffff021916908373ffffffffffffffffffffffffffffffffffffffff1602179055506080820151816004019081610beb919061325c565b5060a082015181600501906002610c039291906128cc565b505050610c327f3828cd64baa18e0a91c955660899062015e1b39a3375b8df9cc8fa1337afb90a60001b6125f0565b610c5e7f1b15f40d423faba067268c14a2ff60244bfb40dcf986c5d7ffa10c15327dbe0e60001b6125f0565b7f7f3fce5632ea976e13d2393f78549c4f13e2b38b246a64e677892991744ae2b76001600980549050610c91919061335d565b42878787604051610ca69594939291906133be565b60405180910390a15050505050565b60066020528060005260406000206000915090505481565b600080600084815260200190815260200160002060000160008373ffffffffffffffffffffffffffffffffffffffff1673ffffffffffffffffffffffffffffffffffffffff16815260200190815260200160002060009054906101000a900460ff16905092915050565b6000801b81565b60098181548110610d4e57600080fd5b90600052602060002090600702016000915090508060000160009054906101000a900460ff16908060010154908060020160009054906101000a900473ffffffffffffffffffffffffffffffffffffffff16908060030160009054906101000a900473ffffffffffffffffffffffffffffffffffffffff1690806004018054610dd69061307f565b80601f0160208091040260200160405190810160405280929190818152602001828054610e029061307f565b8015610e4f5780601f10610e2457610100808354040283529160200191610e4f565b820191906000526020600020905b815481529060010190602001808311610e3257829003601f168201915b5050505050905085565b610e857f5512ecfdca348197e9a6938e5323c717eca4ec71012e106f016133ef9fafce4460001b6125f0565b610eb17fcd367711dab21cb1311e80bf99dea761cc993376f47a5811311b1bd4be5d7a5560001b6125f0565b610edd7f3f9ae1885bfc139ab556a96622ee4f266d825e1cc3f20a84e8b451532e2f3d8560001b6125f0565b610f097fe5d0fe59100d1497222afc43e49c970350252c75fef8c0f59ddb6d27482fd6e660001b6125f0565b6009805490508210610f50576040517f08c379a0000000000000000000000000000000000000000000000000000000008152600401610f4790613458565b60405180910390fd5b610f7c7f50f1f28e0742384901f9211a58e2e31395d5843df8b908b761f411467b062e5760001b6125f0565b610fa87fe63f8e837c6d5c17628e0e0a1211580ca7c5a288922df2ca5db613f37f77937760001b6125f0565b610fd47fc5470e99e7f1ecc98bba529f263e047446c377ef132a2ca3dacaedc1d931a02860001b6125f0565b6110007ffb84d68786c6d1e483d2a25acbcc43c4c239b88f3856a3cb0c1b81937152037860001b6125f0565b6008600083815260200190815260200160002060003373ffffffffffffffffffffffffffffffffffffffff1673ffffffffffffffffffffffffffffffffffffffff16815260200190815260200160002060009054906101000a900460ff161561109e576040517f08c379a0000000000000000000000000000000000000000000000000000000008152600401611095906134c4565b60405180910390fd5b6110ca7ff0fae3843f37f8e66cbb0ca1c0167f51cde36fa3e383b95dbd425fead63c5de760001b6125f0565b6110f67f8b289f2817ee0e1707cd66df3e6ac5b18b9f83a63bd95410658bc04f9210d18960001b6125f0565b6111227f8580b505295d8b486a3452d254ac28430b29a628d5ce25415406b67e14f286bc60001b6125f0565b61114e7f022726b91956be46cafd7e7e8ee8fe1ab3ebf931cd88cf2a902331daa14c59a160001b6125f0565b60098281548110611162576111616134e4565b5b906000526020600020906007020160000160009054906101000a900460ff16156111c1576040517f08c379a00000000000000000000000000000000000000000000000000000000081526004016111b89061355f565b60405180910390fd5b6111ed7f8670b2142f04fa0aa9d4276a6b698c1d9350e0a3b8a3107754308103ee3ec7c560001b6125f0565b6112197f470ac4bb4eabdfdc213ecb83998b1a1f09c94f87098a0cfa2efca1c9aea1610660001b6125f0565b6112457faf1b51efceb01f0d1db11930031703e3a3f5332df086dc2000e65f99c911868560001b6125f0565b6112717f3e06ceddca25b61d896b22aa4105be504bb48e389a52611936c23c0a5b2d7f4360001b6125f0565b4260045460098481548110611289576112886134e4565b5b9060005260206000209060070201600101546112a5919061357f565b116112e5576040517f08c379a00000000000000000000000000000000000000000000000000000000081526004016112dc90613621565b60405180910390fd5b6113117ff4d26c564a5e9cf4f94774869f23fcdea90189aaff765c9dba1388230cfa093960001b6125f0565b61133d7f6e3f1697b253ca186c03220c8d2918992b97379e4c2211bee750c11ea45a955b60001b6125f0565b6113697f130c4e1089ab4bf808a344e8bb415cd725a172bc36338046069dc7bedab61e8060001b6125f0565b6000600260009054906101000a900473ffffffffffffffffffffffffffffffffffffffff1673ffffffffffffffffffffffffffffffffffffffff1663bf135267336040518263ffffffff1660e01b81526004016113c69190612dda565b6020604051808303816000875af11580156113e5573d6000803e3d6000fd5b505050506040513d601f19601f820116820180604052508101906114099190613656565b90506114377fcc7973cc8c77182a5a26c78720115ae0b7bfd6d325491c4b8d1ae19ebec65cec60001b6125f0565b6114637f3d7fba86acd78c5c506d6e4ee8d54c0e01f2b88d8a495de8aa2e71b2e3d9962d60001b6125f0565b61148f7f7b1d3704fee531a6b4a907bc3b5026bdf550a677d0756f22a83cff26872a83e760001b6125f0565b600081116114d2576040517f08c379a00000000000000000000000000000000000000000000000000000000081526004016114c9906136cf565b60405180910390fd5b6114fe7f9ff3c494a9daac713df715431cb6bc1f1871010598b51fd7763496eb012b43c660001b6125f0565b61152a7f6174c295b46ab91d96803e6722039b16c8f3d21d7f29f4a4bc3fa0c65699a57a60001b6125f0565b6115567fb1d716e7484f10a2bda8965e1ebb64a23434f17ceb4b6116554a7fac98dcd0ca60001b6125f0565b60016008600085815260200190815260200160002060003373ffffffffffffffffffffffffffffffffffffffff1673ffffffffffffffffffffffffffffffffffffffff16815260200190815260200160002060006101000a81548160ff0219169083151502179055506115eb7ff690d4b34600cdbe8d2a54596b5fea2f7a1e17b79bf1600ea6b29ad6e92f46fa60001b6125f0565b6116177f322fbfea582e423e411263044ee1d7b3a2da2f186ed76d9c78d1e480498399b360001b6125f0565b806009848154811061162c5761162b6134e4565b5b9060005260206000209060070201600501836002811061164f5761164e6134e4565b5b01600082825461165f919061357f565b925050819055506116927f357aff3f8750aab679bb0b7955f5892a1439546ea780f774b288bcf9a38ea70760001b6125f0565b6116be7f7330c71483fe343a74500030cd3262f1c623395cce32b24fbd5c5c632d1467a360001b6125f0565b600454426116cc919061357f565b600660003373ffffffffffffffffffffffffffffffffffffffff1673ffffffffffffffffffffffffffffffffffffffff1681526020019081526020016000208190555061173b7fc17808c242757931f2441a10398145159710548b07c2cf3e8ebacdcbfdc4863d60001b6125f0565b6117677f92003d84a8c569962187bce72a851807b9dcbc1a64e467bd7711e6d341db22eb60001b6125f0565b7fc32b42768a47a585121e9b8d7a2ab9d3f34c326a192dee11ee1732e3d18313f33384848460405161179c94939291906136ef565b60405180910390a1505050565b6117d57f0e12ddd06d8fbd9a7572de0d43d6efe6f5f8ab21fb6717015f8c8d8f20a4ada760001b6125f0565b6118017f6dcf2b8dca3f97a658bb44969b1574fbf6c6e97468a6a5cc0fec29a1ae8d327460001b6125f0565b61182d7f3d68fae1bb74e212d4d9669bff1727549302256daf92ae6fa44dc73ee4ac8d9460001b6125f0565b6118597f426d161602c43dd2193c7b848c4ce586e69085f49771b16845f9324f0add416860001b6125f0565b600454600982815481106118705761186f6134e4565b5b90600052602060002090600702016001015461188c919061357f565b4210156118ce576040517f08c379a00000000000000000000000000000000000000000000000000000000081526004016118c5906137a6565b60405180910390fd5b6118fa7f76d9574cae220bf0b6533a512e94d1fa5a2502542d0a93fc2b44aadbc25c3c0e60001b6125f0565b6119267f4c31ced7ba6536b381340ccc6c656bd21b09dd8eb5307903cf21392d0903326160001b6125f0565b6119527fc75f2396b58cfc5bd735da34939553f553ff17e7367e572dc9b330e901f8e8b560001b6125f0565b61197e7f1eca317bacb79d46473202a27695089d3f75a4c7bb2337459579d0a9119582ca60001b6125f0565b60098181548110611992576119916134e4565b5b906000526020600020906007020160000160009054906101000a900460ff16156119f1576040517f08c379a00000000000000000000000000000000000000000000000000000000081526004016119e890613812565b60405180910390fd5b611a1d7f0a6629941402231f077193e03de625d8a1fabe1c980b6066c567dffd9249ad5e60001b6125f0565b611a497fdc07a9a9a1a07162fb76347422ae83dc9457b423cbb3af35d64d5e8497ad95dc60001b6125f0565b611a757fa91be9839e26738d80d48df9ba21d42e30dcf22d8ea8a8edd806d8a8aa9e905a60001b6125f0565b600160098281548110611a8b57611a8a6134e4565b5b906000526020600020906007020160000160006101000a81548160ff021916908315150217905550611adf7f286af2ca6512747d7b437d7700350714e025374b5c3beeac44ff34fc2c80698c60001b6125f0565b611b0b7f9eb06dc0269927caf599e1dcae8ee8a8de4d25d8f8668fa2f710b129c6d5dde860001b6125f0565b600060098281548110611b2157611b206134e4565b5b906000526020600020906007020160030160009054906101000a900473ffffffffffffffffffffffffffffffffffffffff1660098381548110611b6757611b666134e4565b5b9060005260206000209060070201600401604051602001611b899291906138b5565b604051602081830303815290604052805190602001209050611bcd7fe6a95a9e8e706fd10ade0e0fbcbaf7a419736cfeb723598b114a7fb89cb292db60001b6125f0565b611bf97f51d3e393b603a84e0033884aa212a8bd76ed803d294d517fcaeb402edffb023860001b6125f0565b60006007600083815260200190815260200160002060006101000a81548160ff021916908315150217905550611c517ffa2748241a1fd9bfb8a655d3a97f2a9d4bda6346d07c1309ca7b72a96fd2f61560001b6125f0565b611c7d7f241abf56cf36a1e1a937bc84d687c5651a9eaa3fcf14836cfd5d70c0bf17fc8760001b6125f0565b6000611cab7f38f8b6387fdd05cc0021909640654a3773a90bd0dd3a30995df18caa72798d9660001b6125f0565b611cd77f8504fc6e2280a70df3d16589c2f39b26eec38b52b68465a38339ec799838263060001b6125f0565b60098381548110611ceb57611cea6134e4565b5b9060005260206000209060070201600501600060028110611d0f57611d0e6134e4565b5b015460098481548110611d2557611d246134e4565b5b9060005260206000209060070201600501600160028110611d4957611d486134e4565b5b0154118015611e7e57506064600554600160009054906101000a900473ffffffffffffffffffffffffffffffffffffffff1673ffffffffffffffffffffffffffffffffffffffff166318160ddd6040518163ffffffff1660e01b8152600401602060405180830381865afa158015611dc5573d6000803e3d6000fd5b505050506040513d601f19601f82011682018060405250810190611de99190613656565b611df391906138dd565b611dfd9190613966565b60098481548110611e1157611e106134e4565b5b9060005260206000209060070201600501600160028110611e3557611e346134e4565b5b015460098581548110611e4b57611e4a6134e4565b5b9060005260206000209060070201600501600060028110611e6f57611e6e6134e4565b5b0154611e7b919061357f565b10155b1561227557611eae7ef34dbd62698f79c0f4bd10533a58c157fc0d4ff02f40d8087e57f41d695a9760001b6125f0565b611eda7f1acbf6a2e1cd0c9296d0f2953efff1472099b3d6f8560c8a1c6c8cf6672afedf60001b6125f0565b611f067fa648b079a27d1e64996d72ddc31b8c5d3543998898418dd2c755e2347536e9b560001b6125f0565b600060098481548110611f1c57611f1b6134e4565b5b906000526020600020906007020160030160009054906101000a900473ffffffffffffffffffffffffffffffffffffffff169050611f7c7f09f7f987ca2cd238d7720e7faa79b2157989c3896391b8de8c9c828ad8d901d460001b6125f0565b611fa87f561591d4d11a04fcb4e1611120393aee8c50e3001457cd623aba95601ca9d93960001b6125f0565b600060098581548110611fbe57611fbd6134e4565b5b90600052602060002090600702016004018054611fda9061307f565b80601f01602080910402602001604051908101604052809291908181526020018280546120069061307f565b80156120535780601f1061202857610100808354040283529160200191612053565b820191906000526020600020905b81548152906001019060200180831161203657829003601f168201915b505050505090506120867f58bd530dae15bdf6fb58b3c14b92db6e3528d46a64df32ad4a780ea7d7318c3660001b6125f0565b6120b27ff3bdb67590d7040dfc761627690012f3ff9e0d5ed52eeb5d91bffaab38cd199b60001b6125f0565b60008273ffffffffffffffffffffffffffffffffffffffff166000836040516120db91906139c8565b60006040518083038185875af1925050503d8060008114612118576040519150601f19603f3d011682016040523d82523d6000602084013e61211d565b606091505b5050905061214d7fcb36b5151a6ffeb00cfd569ccc517db0c97350b6c5faae81059d123d5fe61c7660001b6125f0565b6121797f9c98778e1ed762bd5ed122d226f46826bb5c98ea85dc82ca411c3cbdb581895d60001b6125f0565b6121a57fa6b29a0f1b2a30f067651f5fae8fff4a17428a0538d078df58fa4733bb6767be60001b6125f0565b806121e5576040517f08c379a00000000000000000000000000000000000000000000000000000000081526004016121dc90613a2b565b60405180910390fd5b6122117f43c42718776676847c143d1890d7767840d56c914b02f458761194f314a5956460001b6125f0565b61223d7fce2af2f65332f4fd706a2e99deb959fd7c45f086cc024ee5769836eb87bc719860001b6125f0565b6122697f1d0a23309a3f5e3f799c716d4706806a708f6e43cafb79cc43e640763c97a9c960001b6125f0565b600193505050506122a2565b6122a17f2ba993f7e5bf78d5f13c2a9ebee86ee445cc901366645176be0560f260e63bd260001b6125f0565b5b6122ce7f2710d19a3fb0a2341b23edf3b61d378b668d459d360ced693ba694b06788f6d460001b6125f0565b6122fa7fde5e4cf48de9359ebb62d84d213fdbcbe4b8eb02db4250df4f0bac9f98c0959e60001b6125f0565b7fdddac1677fda47cbbbc403aec4ecd004a9a4f777b6c876510cdd9462e914fea0838260405161232b929190613a4b565b60405180910390a1505050565b612341826103de565b61234a81612413565b612354838361250f565b505050565b600360009054906101000a900473ffffffffffffffffffffffffffffffffffffffff1681565b7f5778c2f7d924e55986d549d645f53119b71708389fc2011260c8a657c569fcaa81565b60055481565b60007f01ffc9a7000000000000000000000000000000000000000000000000000000007bffffffffffffffffffffffffffffffffffffffffffffffffffffffff1916827bffffffffffffffffffffffffffffffffffffffffffffffffffffffff1916149050919050565b6124248161241f612507565b6125f3565b50565b6124318282610ccd565b61250357600160008084815260200190815260200160002060000160008373ffffffffffffffffffffffffffffffffffffffff1673ffffffffffffffffffffffffffffffffffffffff16815260200190815260200160002060006101000a81548160ff0219169083151502179055506124a8612507565b73ffffffffffffffffffffffffffffffffffffffff168173ffffffffffffffffffffffffffffffffffffffff16837f2f8788117e7eff1d82e926ec794901d17c78024a50270940304540a733656f0d60405160405180910390a45b5050565b600033905090565b6125198282610ccd565b156125ec57600080600084815260200190815260200160002060000160008373ffffffffffffffffffffffffffffffffffffffff1673ffffffffffffffffffffffffffffffffffffffff16815260200190815260200160002060006101000a81548160ff021916908315150217905550612591612507565b73ffffffffffffffffffffffffffffffffffffffff168173ffffffffffffffffffffffffffffffffffffffff16837ff6391f5c32d9c69d2a47ea670b442974b53935d1edc7fd64eb21e047a839171b60405160405180910390a45b5050565b50565b6125fd8282610ccd565b61268c576126228173ffffffffffffffffffffffffffffffffffffffff166014612690565b6126308360001c6020612690565b604051602001612641929190613b53565b6040516020818303038152906040526040517f08c379a00000000000000000000000000000000000000000000000000000000081526004016126839190613bc6565b60405180910390fd5b5050565b6060600060028360026126a391906138dd565b6126ad919061357f565b67ffffffffffffffff8111156126c6576126c5613021565b5b6040519080825280601f01601f1916602001820160405280156126f85781602001600182028036833780820191505090505b5090507f3000000000000000000000000000000000000000000000000000000000000000816000815181106127305761272f6134e4565b5b60200101907effffffffffffffffffffffffffffffffffffffffffffffffffffffffffffff1916908160001a9053507f780000000000000000000000000000000000000000000000000000000000000081600181518110612794576127936134e4565b5b60200101907effffffffffffffffffffffffffffffffffffffffffffffffffffffffffffff1916908160001a905350600060018460026127d491906138dd565b6127de919061357f565b90505b600181111561287e577f3031323334353637383961626364656600000000000000000000000000000000600f8616601081106128205761281f6134e4565b5b1a60f81b828281518110612837576128366134e4565b5b60200101907effffffffffffffffffffffffffffffffffffffffffffffffffffffffffffff1916908160001a905350600485901c94508061287790613be8565b90506127e1565b50600084146128c2576040517f08c379a00000000000000000000000000000000000000000000000000000000081526004016128b990613c5d565b60405180910390fd5b8091505092915050565b82600281019282156128fb579160200282015b828111156128fa5782518255916020019190600101906128df565b5b509050612908919061290c565b5090565b5b8082111561292557600081600090555060010161290d565b5090565b6000819050919050565b61293c81612929565b82525050565b60006020820190506129576000830184612933565b92915050565b600080fd5b600080fd5b60007fffffffff0000000000000000000000000000000000000000000000000000000082169050919050565b61299c81612967565b81146129a757600080fd5b50565b6000813590506129b981612993565b92915050565b6000602082840312156129d5576129d461295d565b5b60006129e3848285016129aa565b91505092915050565b60008115159050919050565b612a01816129ec565b82525050565b6000602082019050612a1c60008301846129f8565b92915050565b6000819050919050565b612a3581612a22565b8114612a4057600080fd5b50565b600081359050612a5281612a2c565b92915050565b600060208284031215612a6e57612a6d61295d565b5b6000612a7c84828501612a43565b91505092915050565b612a8e81612a22565b82525050565b6000602082019050612aa96000830184612a85565b92915050565b600073ffffffffffffffffffffffffffffffffffffffff82169050919050565b6000612ada82612aaf565b9050919050565b612aea81612acf565b8114612af557600080fd5b50565b600081359050612b0781612ae1565b92915050565b60008060408385031215612b2457612b2361295d565b5b6000612b3285828601612a43565b9250506020612b4385828601612af8565b9150509250929050565b600060208284031215612b6357612b6261295d565b5b6000612b7184828501612af8565b91505092915050565b600080fd5b600080fd5b600080fd5b60008083601f840112612b9f57612b9e612b7a565b5b8235905067ffffffffffffffff811115612bbc57612bbb612b7f565b5b602083019150836001820283011115612bd857612bd7612b84565b5b9250929050565b600080600060408486031215612bf857612bf761295d565b5b6000612c0686828701612af8565b935050602084013567ffffffffffffffff811115612c2757612c26612962565b5b612c3386828701612b89565b92509250509250925092565b612c4881612929565b8114612c5357600080fd5b50565b600081359050612c6581612c3f565b92915050565b600060208284031215612c8157612c8061295d565b5b6000612c8f84828501612c56565b91505092915050565b612ca181612acf565b82525050565b600081519050919050565b600082825260208201905092915050565b60005b83811015612ce1578082015181840152602081019050612cc6565b83811115612cf0576000848401525b50505050565b6000601f19601f8301169050919050565b6000612d1282612ca7565b612d1c8185612cb2565b9350612d2c818560208601612cc3565b612d3581612cf6565b840191505092915050565b600060a082019050612d5560008301886129f8565b612d626020830187612933565b612d6f6040830186612c98565b612d7c6060830185612c98565b8181036080830152612d8e8184612d07565b90509695505050505050565b60008060408385031215612db157612db061295d565b5b6000612dbf85828601612c56565b9250506020612dd085828601612c56565b9150509250929050565b6000602082019050612def6000830184612c98565b92915050565b600082825260208201905092915050565b7f416363657373436f6e74726f6c3a2063616e206f6e6c792072656e6f756e636560008201527f20726f6c657320666f722073656c660000000000000000000000000000000000602082015250565b6000612e62602f83612df5565b9150612e6d82612e06565b604082019050919050565b60006020820190508181036000830152612e9181612e55565b9050919050565b7f5374616b696e6720616c72656164792073657474656400000000000000000000600082015250565b6000612ece601683612df5565b9150612ed982612e98565b602082019050919050565b60006020820190508181036000830152612efd81612ec1565b9050919050565b60008160601b9050919050565b6000612f1c82612f04565b9050919050565b6000612f2e82612f11565b9050919050565b612f46612f4182612acf565b612f23565b82525050565b600081905092915050565b82818337600083830152505050565b6000612f728385612f4c565b9350612f7f838584612f57565b82840190509392505050565b6000612f978286612f35565b601482019150612fa8828486612f66565b9150819050949350505050565b7f50726f706f73616c20616c726561647920616464656400000000000000000000600082015250565b6000612feb601683612df5565b9150612ff682612fb5565b602082019050919050565b6000602082019050818103600083015261301a81612fde565b9050919050565b7f4e487b7100000000000000000000000000000000000000000000000000000000600052604160045260246000fd5b7f4e487b7100000000000000000000000000000000000000000000000000000000600052602260045260246000fd5b6000600282049050600182168061309757607f821691505b6020821081036130aa576130a9613050565b5b50919050565b60008190508160005260206000209050919050565b60006020601f8301049050919050565b600082821b905092915050565b6000600883026131127fffffffffffffffffffffffffffffffffffffffffffffffffffffffffffffffff826130d5565b61311c86836130d5565b95508019841693508086168417925050509392505050565b6000819050919050565b600061315961315461314f84612929565b613134565b612929565b9050919050565b6000819050919050565b6131738361313e565b61318761317f82613160565b8484546130e2565b825550505050565b600090565b61319c61318f565b6131a781848461316a565b505050565b5b818110156131cb576131c0600082613194565b6001810190506131ad565b5050565b601f821115613210576131e1816130b0565b6131ea846130c5565b810160208510156131f9578190505b61320d613205856130c5565b8301826131ac565b50505b505050565b600082821c905092915050565b600061323360001984600802613215565b1980831691505092915050565b600061324c8383613222565b9150826002028217905092915050565b61326582612ca7565b67ffffffffffffffff81111561327e5761327d613021565b5b613288825461307f565b6132938282856131cf565b600060209050601f8311600181146132c657600084156132b4578287015190505b6132be8582613240565b865550613326565b601f1984166132d4866130b0565b60005b828110156132fc578489015182556001820191506020850194506020810190506132d7565b868310156133195784890151613315601f891682613222565b8355505b6001600288020188555050505b505050505050565b7f4e487b7100000000000000000000000000000000000000000000000000000000600052601160045260246000fd5b600061336882612929565b915061337383612929565b9250828210156133865761338561332e565b5b828203905092915050565b600061339d8385612cb2565b93506133aa838584612f57565b6133b383612cf6565b840190509392505050565b60006080820190506133d36000830188612933565b6133e06020830187612933565b6133ed6040830186612c98565b8181036060830152613400818486613391565b90509695505050505050565b7f566f74696e6720646f65736e7420657869737400000000000000000000000000600082015250565b6000613442601383612df5565b915061344d8261340c565b602082019050919050565b6000602082019050818103600083015261347181613435565b9050919050565b7f416c726561647920766f74656400000000000000000000000000000000000000600082015250565b60006134ae600d83612df5565b91506134b982613478565b602082019050919050565b600060208201905081810360008301526134dd816134a1565b9050919050565b7f4e487b7100000000000000000000000000000000000000000000000000000000600052603260045260246000fd5b7f566f74696e6720616c72656164792066696e6973686564000000000000000000600082015250565b6000613549601783612df5565b915061355482613513565b602082019050919050565b600060208201905081810360008301526135788161353c565b9050919050565b600061358a82612929565b915061359583612929565b9250827fffffffffffffffffffffffffffffffffffffffffffffffffffffffffffffffff038211156135ca576135c961332e565b5b828201905092915050565b7f44656261746520706572696f6420697320757000000000000000000000000000600082015250565b600061360b601383612df5565b9150613616826135d5565b602082019050919050565b6000602082019050818103600083015261363a816135fe565b9050919050565b60008151905061365081612c3f565b92915050565b60006020828403121561366c5761366b61295d565b5b600061367a84828501613641565b91505092915050565b7f4e656564206465706f73697420746f6b656e73206265666f726520766f746500600082015250565b60006136b9601f83612df5565b91506136c482613683565b602082019050919050565b600060208201905081810360008301526136e8816136ac565b9050919050565b60006080820190506137046000830187612c98565b6137116020830186612933565b61371e6040830185612933565b61372b6060830184612933565b95945050505050565b7f5468652064656261746520706572696f64206973206e6f74206f76657220796560008201527f7400000000000000000000000000000000000000000000000000000000000000602082015250565b6000613790602183612df5565b915061379b82613734565b604082019050919050565b600060208201905081810360008301526137bf81613783565b9050919050565b7f5468697320766f74696e6720616c72656164792066696e697368656400000000600082015250565b60006137fc601c83612df5565b9150613807826137c6565b602082019050919050565b6000602082019050818103600083015261382b816137ef565b9050919050565b6000815461383f8161307f565b6138498186612f4c565b945060018216600081146138645760018114613879576138ac565b60ff19831686528115158202860193506138ac565b613882856130b0565b60005b838110156138a457815481890152600182019150602081019050613885565b838801955050505b50505092915050565b60006138c18285612f35565b6014820191506138d18284613832565b91508190509392505050565b60006138e882612929565b91506138f383612929565b9250817fffffffffffffffffffffffffffffffffffffffffffffffffffffffffffffffff048311821515161561392c5761392b61332e565b5b828202905092915050565b7f4e487b7100000000000000000000000000000000000000000000000000000000600052601260045260246000fd5b600061397182612929565b915061397c83612929565b92508261398c5761398b613937565b5b828204905092915050565b60006139a282612ca7565b6139ac8185612f4c565b93506139bc818560208601612cc3565b80840191505092915050565b60006139d48284613997565b915081905092915050565b7f496e636f7272656374207369676e617475726500000000000000000000000000600082015250565b6000613a15601383612df5565b9150613a20826139df565b602082019050919050565b60006020820190508181036000830152613a4481613a08565b9050919050565b6000604082019050613a606000830185612933565b613a6d6020830184612933565b9392505050565b600081905092915050565b7f416363657373436f6e74726f6c3a206163636f756e7420000000000000000000600082015250565b6000613ab5601783613a74565b9150613ac082613a7f565b601782019050919050565b600081519050919050565b6000613ae182613acb565b613aeb8185613a74565b9350613afb818560208601612cc3565b80840191505092915050565b7f206973206d697373696e6720726f6c6520000000000000000000000000000000600082015250565b6000613b3d601183613a74565b9150613b4882613b07565b601182019050919050565b6000613b5e82613aa8565b9150613b6a8285613ad6565b9150613b7582613b30565b9150613b818284613ad6565b91508190509392505050565b6000613b9882613acb565b613ba28185612df5565b9350613bb2818560208601612cc3565b613bbb81612cf6565b840191505092915050565b60006020820190508181036000830152613be08184613b8d565b905092915050565b6000613bf382612929565b915060008203613c0657613c0561332e565b5b600182039050919050565b7f537472696e67733a20686578206c656e67746820696e73756666696369656e74600082015250565b6000613c47602083612df5565b9150613c5282613c11565b602082019050919050565b60006020820190508181036000830152613c7681613c3a565b905091905056fea26469706673582212208aa17b4af72792c316d25a3716c7edc669a5ae7ed6773f687f50ef8b544b38bf64736f6c634300080f0033",
  "linkReferences": {},
  "deployedLinkReferences": {}
}