{
  "_format": "hh-sol-artifact-1",
  "contractName": "DAO",
  "sourceName": "contracts/DAO.sol",
  "abi": [
    {
      "inputs": [
        {
          "internalType": "address",
          "name": "_lpAddress",
          "type": "address"
        }
      ],
      "stateMutability": "nonpayable",
      "type": "constructor"
    },
    {
      "anonymous": false,
      "inputs": [
        {
          "indexed": true,
          "internalType": "bytes32",
          "name": "role",
          "type": "bytes32"
        },
        {
          "indexed": true,
          "internalType": "bytes32",
          "name": "previousAdminRole",
          "type": "bytes32"
        },
        {
          "indexed": true,
          "internalType": "bytes32",
          "name": "newAdminRole",
          "type": "bytes32"
        }
      ],
      "name": "RoleAdminChanged",
      "type": "event"
    },
    {
      "anonymous": false,
      "inputs": [
        {
          "indexed": true,
          "internalType": "bytes32",
          "name": "role",
          "type": "bytes32"
        },
        {
          "indexed": true,
          "internalType": "address",
          "name": "account",
          "type": "address"
        },
        {
          "indexed": true,
          "internalType": "address",
          "name": "sender",
          "type": "address"
        }
      ],
      "name": "RoleGranted",
      "type": "event"
    },
    {
      "anonymous": false,
      "inputs": [
        {
          "indexed": true,
          "internalType": "bytes32",
          "name": "role",
          "type": "bytes32"
        },
        {
          "indexed": true,
          "internalType": "address",
          "name": "account",
          "type": "address"
        },
        {
          "indexed": true,
          "internalType": "address",
          "name": "sender",
          "type": "address"
        }
      ],
      "name": "RoleRevoked",
      "type": "event"
    },
    {
      "anonymous": false,
      "inputs": [
        {
          "indexed": false,
          "internalType": "address",
          "name": "voter",
          "type": "address"
        },
        {
          "indexed": false,
          "internalType": "uint256",
          "name": "id",
          "type": "uint256"
        },
        {
          "indexed": false,
          "internalType": "uint256",
          "name": "option",
          "type": "uint256"
        },
        {
          "indexed": false,
          "internalType": "uint256",
          "name": "amount",
          "type": "uint256"
        }
      ],
      "name": "Voted",
      "type": "event"
    },
    {
      "anonymous": false,
      "inputs": [
        {
          "indexed": false,
          "internalType": "uint256",
          "name": "id",
          "type": "uint256"
        },
        {
          "indexed": false,
          "internalType": "uint256",
          "name": "optionID",
          "type": "uint256"
        }
      ],
      "name": "VotingFinished",
      "type": "event"
    },
    {
      "anonymous": false,
      "inputs": [
        {
          "indexed": false,
          "internalType": "uint256",
          "name": "id",
          "type": "uint256"
        },
        {
          "indexed": false,
          "internalType": "uint256",
          "name": "starttime",
          "type": "uint256"
        },
        {
          "indexed": false,
          "internalType": "address",
          "name": "recipient",
          "type": "address"
        },
        {
          "indexed": false,
          "internalType": "bytes",
          "name": "signature",
          "type": "bytes"
        }
      ],
      "name": "VotingStarted",
      "type": "event"
    },
    {
      "inputs": [],
      "name": "CHAIRMAN",
      "outputs": [
        {
          "internalType": "bytes32",
          "name": "",
          "type": "bytes32"
        }
      ],
      "stateMutability": "view",
      "type": "function"
    },
    {
      "inputs": [],
      "name": "DEFAULT_ADMIN_ROLE",
      "outputs": [
        {
          "internalType": "bytes32",
          "name": "",
          "type": "bytes32"
        }
      ],
      "stateMutability": "view",
      "type": "function"
    },
    {
      "inputs": [
        {
          "internalType": "address",
          "name": "_recipient",
          "type": "address"
        },
        {
          "internalType": "bytes",
          "name": "_signature",
          "type": "bytes"
        }
      ],
      "name": "addProposal",
      "outputs": [],
      "stateMutability": "nonpayable",
      "type": "function"
    },
    {
      "inputs": [],
      "name": "debatePeriod",
      "outputs": [
        {
          "internalType": "uint256",
          "name": "",
          "type": "uint256"
        }
      ],
      "stateMutability": "view",
      "type": "function"
    },
    {
      "inputs": [
        {
          "internalType": "uint256",
          "name": "_id",
          "type": "uint256"
        }
      ],
      "name": "finish",
      "outputs": [],
      "stateMutability": "nonpayable",
      "type": "function"
    },
    {
      "inputs": [
        {
          "internalType": "bytes32",
          "name": "role",
          "type": "bytes32"
        }
      ],
      "name": "getRoleAdmin",
      "outputs": [
        {
          "internalType": "bytes32",
          "name": "",
          "type": "bytes32"
        }
      ],
      "stateMutability": "view",
      "type": "function"
    },
    {
      "inputs": [
        {
          "internalType": "bytes32",
          "name": "role",
          "type": "bytes32"
        },
        {
          "internalType": "address",
          "name": "account",
          "type": "address"
        }
      ],
      "name": "grantRole",
      "outputs": [],
      "stateMutability": "nonpayable",
      "type": "function"
    },
    {
      "inputs": [
        {
          "internalType": "bytes32",
          "name": "role",
          "type": "bytes32"
        },
        {
          "internalType": "address",
          "name": "account",
          "type": "address"
        }
      ],
      "name": "hasRole",
      "outputs": [
        {
          "internalType": "bool",
          "name": "",
          "type": "bool"
        }
      ],
      "stateMutability": "view",
      "type": "function"
    },
    {
      "inputs": [],
      "name": "quorumPercent",
      "outputs": [
        {
          "internalType": "uint256",
          "name": "",
          "type": "uint256"
        }
      ],
      "stateMutability": "view",
      "type": "function"
    },
    {
      "inputs": [
        {
          "internalType": "bytes32",
          "name": "role",
          "type": "bytes32"
        },
        {
          "internalType": "address",
          "name": "account",
          "type": "address"
        }
      ],
      "name": "renounceRole",
      "outputs": [],
      "stateMutability": "nonpayable",
      "type": "function"
    },
    {
      "inputs": [
        {
          "internalType": "bytes32",
          "name": "role",
          "type": "bytes32"
        },
        {
          "internalType": "address",
          "name": "account",
          "type": "address"
        }
      ],
      "name": "revokeRole",
      "outputs": [],
      "stateMutability": "nonpayable",
      "type": "function"
    },
    {
      "inputs": [
        {
          "internalType": "address",
          "name": "_stakingAddress",
          "type": "address"
        }
      ],
      "name": "setupStaking",
      "outputs": [],
      "stateMutability": "nonpayable",
      "type": "function"
    },
    {
      "inputs": [],
      "name": "stakingAddress",
      "outputs": [
        {
          "internalType": "address",
          "name": "",
          "type": "address"
        }
      ],
      "stateMutability": "view",
      "type": "function"
    },
    {
      "inputs": [
        {
          "internalType": "bytes4",
          "name": "interfaceId",
          "type": "bytes4"
        }
      ],
      "name": "supportsInterface",
      "outputs": [
        {
          "internalType": "bool",
          "name": "",
          "type": "bool"
        }
      ],
      "stateMutability": "view",
      "type": "function"
    },
    {
      "inputs": [
        {
          "internalType": "address",
          "name": "",
          "type": "address"
        }
      ],
      "name": "unlockTime",
      "outputs": [
        {
          "internalType": "uint256",
          "name": "",
          "type": "uint256"
        }
      ],
      "stateMutability": "view",
      "type": "function"
    },
    {
      "inputs": [
        {
          "internalType": "uint256",
          "name": "_id",
          "type": "uint256"
        },
        {
          "internalType": "uint256",
          "name": "_option",
          "type": "uint256"
        }
      ],
      "name": "vote",
      "outputs": [],
      "stateMutability": "nonpayable",
      "type": "function"
    },
    {
      "inputs": [
        {
          "internalType": "uint256",
          "name": "",
          "type": "uint256"
        }
      ],
      "name": "votings",
      "outputs": [
        {
          "internalType": "bool",
          "name": "finished",
          "type": "bool"
        },
        {
          "internalType": "uint256",
          "name": "startTime",
          "type": "uint256"
        },
        {
          "internalType": "address",
          "name": "initiator",
          "type": "address"
        },
        {
          "internalType": "address",
          "name": "recipient",
          "type": "address"
        },
        {
          "internalType": "bytes",
          "name": "signature",
          "type": "bytes"
        }
      ],
      "stateMutability": "view",
      "type": "function"
    }
  ],
  "bytecode": "0x60806040526203f48060045560336005553480156200001d57600080fd5b506040516200306d3803806200306d83398181016040528101906200004391906200029f565b620000586000801b33620000d260201b60201c565b6200008a7f5778c2f7d924e55986d549d645f53119b71708389fc2011260c8a657c569fcaa33620000d260201b60201c565b80600160006101000a81548173ffffffffffffffffffffffffffffffffffffffff021916908373ffffffffffffffffffffffffffffffffffffffff16021790555050620002d1565b620000e48282620001c360201b60201c565b620001bf57600160008084815260200190815260200160002060000160008373ffffffffffffffffffffffffffffffffffffffff1673ffffffffffffffffffffffffffffffffffffffff16815260200190815260200160002060006101000a81548160ff021916908315150217905550620001646200022d60201b60201c565b73ffffffffffffffffffffffffffffffffffffffff168173ffffffffffffffffffffffffffffffffffffffff16837f2f8788117e7eff1d82e926ec794901d17c78024a50270940304540a733656f0d60405160405180910390a45b5050565b600080600084815260200190815260200160002060000160008373ffffffffffffffffffffffffffffffffffffffff1673ffffffffffffffffffffffffffffffffffffffff16815260200190815260200160002060009054906101000a900460ff16905092915050565b600033905090565b600080fd5b600073ffffffffffffffffffffffffffffffffffffffff82169050919050565b600062000267826200023a565b9050919050565b62000279816200025a565b81146200028557600080fd5b50565b60008151905062000299816200026e565b92915050565b600060208284031215620002b857620002b762000235565b5b6000620002c88482850162000288565b91505092915050565b612d8c80620002e16000396000f3fe608060405234801561001057600080fd5b506004361061010b5760003560e01c806391d14854116100a2578063d353a1cb11610071578063d353a1cb146102cc578063d547741f146102e8578063d7b4be2414610304578063ee44a35a14610322578063f81cbd26146103405761010b565b806391d148541461022e578063a217fddf1461025e578063a598d03c1461027c578063b384abef146102b05761010b565b806336568abe116100de57806336568abe146101aa5780633f013425146101c65780635cf16441146101e257806376b467b7146101fe5761010b565b80630114909d1461011057806301ffc9a71461012e578063248a9ca31461015e5780632f2ff15d1461018e575b600080fd5b61011861035e565b6040516101259190611a1b565b60405180910390f35b61014860048036038101906101439190611a98565b610364565b6040516101559190611ae0565b60405180910390f35b61017860048036038101906101739190611b31565b6103de565b6040516101859190611b6d565b60405180910390f35b6101a860048036038101906101a39190611be6565b6103fd565b005b6101c460048036038101906101bf9190611be6565b61041e565b005b6101e060048036038101906101db9190611c26565b6104a1565b005b6101fc60048036038101906101f79190611cb8565b6105e7565b005b61021860048036038101906102139190611c26565b6108ed565b6040516102259190611a1b565b60405180910390f35b61024860048036038101906102439190611be6565b610905565b6040516102559190611ae0565b60405180910390f35b61026661096f565b6040516102739190611b6d565b60405180910390f35b61029660048036038101906102919190611d44565b610976565b6040516102a7959493929190611e19565b60405180910390f35b6102ca60048036038101906102c59190611e73565b610a91565b005b6102e660048036038101906102e19190611d44565b610e8d565b005b61030260048036038101906102fd9190611be6565b611414565b005b61030c611435565b6040516103199190611eb3565b60405180910390f35b61032a61145b565b6040516103379190611b6d565b60405180910390f35b61034861147f565b6040516103559190611a1b565b60405180910390f35b60045481565b60007f7965db0b000000000000000000000000000000000000000000000000000000007bffffffffffffffffffffffffffffffffffffffffffffffffffffffff1916827bffffffffffffffffffffffffffffffffffffffffffffffffffffffff191614806103d757506103d682611485565b5b9050919050565b6000806000838152602001908152602001600020600101549050919050565b610406826103de565b61040f816114ef565b6104198383611503565b505050565b6104266115e3565b73ffffffffffffffffffffffffffffffffffffffff168173ffffffffffffffffffffffffffffffffffffffff1614610493576040517f08c379a000000000000000000000000000000000000000000000000000000000815260040161048a90611f51565b60405180910390fd5b61049d82826115eb565b5050565b6000801b6104ae816114ef565b600073ffffffffffffffffffffffffffffffffffffffff16600360009054906101000a900473ffffffffffffffffffffffffffffffffffffffff1673ffffffffffffffffffffffffffffffffffffffff161461053f576040517f08c379a000000000000000000000000000000000000000000000000000000000815260040161053690611fbd565b60405180910390fd5b81600360006101000a81548173ffffffffffffffffffffffffffffffffffffffff021916908373ffffffffffffffffffffffffffffffffffffffff160217905550600360009054906101000a900473ffffffffffffffffffffffffffffffffffffffff16600260006101000a81548173ffffffffffffffffffffffffffffffffffffffff021916908373ffffffffffffffffffffffffffffffffffffffff1602179055505050565b7f5778c2f7d924e55986d549d645f53119b71708389fc2011260c8a657c569fcaa610611816114ef565b600084848460405160200161062893929190612064565b6040516020818303038152906040528051906020012090506007600082815260200190815260200160002060009054906101000a900460ff16156106a1576040517f08c379a0000000000000000000000000000000000000000000000000000000008152600401610698906120da565b60405180910390fd5b60016007600083815260200190815260200160002060006101000a81548160ff02191690831515021790555060096040518060c001604052806000151581526020014281526020013373ffffffffffffffffffffffffffffffffffffffff1681526020018773ffffffffffffffffffffffffffffffffffffffff16815260200186868080601f016020809104026020016040519081016040528093929190818152602001838380828437600081840152601f19601f8201169050808301925050505050505081526020016040518060400160405280600081526020016000815250815250908060018154018082558091505060019003906000526020600020906007020160009091909190915060008201518160000160006101000a81548160ff0219169083151502179055506020820151816001015560408201518160020160006101000a81548173ffffffffffffffffffffffffffffffffffffffff021916908373ffffffffffffffffffffffffffffffffffffffff16021790555060608201518160030160006101000a81548173ffffffffffffffffffffffffffffffffffffffff021916908373ffffffffffffffffffffffffffffffffffffffff160217905550608082015181600401908161087b9190612335565b5060a0820151816005019060026108939291906119a5565b5050507f7f3fce5632ea976e13d2393f78549c4f13e2b38b246a64e677892991744ae2b760016009805490506108c99190612436565b428787876040516108de959493929190612497565b60405180910390a15050505050565b60066020528060005260406000206000915090505481565b600080600084815260200190815260200160002060000160008373ffffffffffffffffffffffffffffffffffffffff1673ffffffffffffffffffffffffffffffffffffffff16815260200190815260200160002060009054906101000a900460ff16905092915050565b6000801b81565b6009818154811061098657600080fd5b90600052602060002090600702016000915090508060000160009054906101000a900460ff16908060010154908060020160009054906101000a900473ffffffffffffffffffffffffffffffffffffffff16908060030160009054906101000a900473ffffffffffffffffffffffffffffffffffffffff1690806004018054610a0e90612158565b80601f0160208091040260200160405190810160405280929190818152602001828054610a3a90612158565b8015610a875780601f10610a5c57610100808354040283529160200191610a87565b820191906000526020600020905b815481529060010190602001808311610a6a57829003601f168201915b5050505050905085565b6009805490508210610ad8576040517f08c379a0000000000000000000000000000000000000000000000000000000008152600401610acf90612531565b60405180910390fd5b6008600083815260200190815260200160002060003373ffffffffffffffffffffffffffffffffffffffff1673ffffffffffffffffffffffffffffffffffffffff16815260200190815260200160002060009054906101000a900460ff1615610b76576040517f08c379a0000000000000000000000000000000000000000000000000000000008152600401610b6d9061259d565b60405180910390fd5b60098281548110610b8a57610b896125bd565b5b906000526020600020906007020160000160009054906101000a900460ff1615610be9576040517f08c379a0000000000000000000000000000000000000000000000000000000008152600401610be090612638565b60405180910390fd5b4260045460098481548110610c0157610c006125bd565b5b906000526020600020906007020160010154610c1d9190612658565b11610c5d576040517f08c379a0000000000000000000000000000000000000000000000000000000008152600401610c54906126fa565b60405180910390fd5b6000600260009054906101000a900473ffffffffffffffffffffffffffffffffffffffff1673ffffffffffffffffffffffffffffffffffffffff1663bf135267336040518263ffffffff1660e01b8152600401610cba9190611eb3565b6020604051808303816000875af1158015610cd9573d6000803e3d6000fd5b505050506040513d601f19601f82011682018060405250810190610cfd919061272f565b905060008111610d42576040517f08c379a0000000000000000000000000000000000000000000000000000000008152600401610d39906127a8565b60405180910390fd5b60016008600085815260200190815260200160002060003373ffffffffffffffffffffffffffffffffffffffff1673ffffffffffffffffffffffffffffffffffffffff16815260200190815260200160002060006101000a81548160ff0219169083151502179055508060098481548110610dc057610dbf6125bd565b5b90600052602060002090600702016005018360028110610de357610de26125bd565b5b016000828254610df39190612658565b9250508190555060045442610e089190612658565b600660003373ffffffffffffffffffffffffffffffffffffffff1673ffffffffffffffffffffffffffffffffffffffff168152602001908152602001600020819055507fc32b42768a47a585121e9b8d7a2ab9d3f34c326a192dee11ee1732e3d18313f333848484604051610e8094939291906127c8565b60405180910390a1505050565b60045460098281548110610ea457610ea36125bd565b5b906000526020600020906007020160010154610ec09190612658565b421015610f02576040517f08c379a0000000000000000000000000000000000000000000000000000000008152600401610ef99061287f565b60405180910390fd5b60098181548110610f1657610f156125bd565b5b906000526020600020906007020160000160009054906101000a900460ff1615610f75576040517f08c379a0000000000000000000000000000000000000000000000000000000008152600401610f6c906128eb565b60405180910390fd5b600160098281548110610f8b57610f8a6125bd565b5b906000526020600020906007020160000160006101000a81548160ff021916908315150217905550600060098281548110610fc957610fc86125bd565b5b906000526020600020906007020160030160009054906101000a900473ffffffffffffffffffffffffffffffffffffffff166009838154811061100f5761100e6125bd565b5b906000526020600020906007020160040160405160200161103192919061298e565b60405160208183030381529060405280519060200120905060006007600083815260200190815260200160002060006101000a81548160ff02191690831515021790555060006009838154811061108b5761108a6125bd565b5b90600052602060002090600702016005016000600281106110af576110ae6125bd565b5b0154600984815481106110c5576110c46125bd565b5b90600052602060002090600702016005016001600281106110e9576110e86125bd565b5b015411801561121e57506064600554600160009054906101000a900473ffffffffffffffffffffffffffffffffffffffff1673ffffffffffffffffffffffffffffffffffffffff166318160ddd6040518163ffffffff1660e01b8152600401602060405180830381865afa158015611165573d6000803e3d6000fd5b505050506040513d601f19601f82011682018060405250810190611189919061272f565b61119391906129b6565b61119d9190612a3f565b600984815481106111b1576111b06125bd565b5b90600052602060002090600702016005016001600281106111d5576111d46125bd565b5b0154600985815481106111eb576111ea6125bd565b5b906000526020600020906007020160050160006002811061120f5761120e6125bd565b5b015461121b9190612658565b10155b156113d657600060098481548110611239576112386125bd565b5b906000526020600020906007020160030160009054906101000a900473ffffffffffffffffffffffffffffffffffffffff169050600060098581548110611283576112826125bd565b5b9060005260206000209060070201600401805461129f90612158565b80601f01602080910402602001604051908101604052809291908181526020018280546112cb90612158565b80156113185780601f106112ed57610100808354040283529160200191611318565b820191906000526020600020905b8154815290600101906020018083116112fb57829003601f168201915b5050505050905060008273ffffffffffffffffffffffffffffffffffffffff166000836040516113489190612aa1565b60006040518083038185875af1925050503d8060008114611385576040519150601f19603f3d011682016040523d82523d6000602084013e61138a565b606091505b50509050806113ce576040517f08c379a00000000000000000000000000000000000000000000000000000000081526004016113c590612b04565b60405180910390fd5b600193505050505b7fdddac1677fda47cbbbc403aec4ecd004a9a4f777b6c876510cdd9462e914fea08382604051611407929190612b24565b60405180910390a1505050565b61141d826103de565b611426816114ef565b61143083836115eb565b505050565b600360009054906101000a900473ffffffffffffffffffffffffffffffffffffffff1681565b7f5778c2f7d924e55986d549d645f53119b71708389fc2011260c8a657c569fcaa81565b60055481565b60007f01ffc9a7000000000000000000000000000000000000000000000000000000007bffffffffffffffffffffffffffffffffffffffffffffffffffffffff1916827bffffffffffffffffffffffffffffffffffffffffffffffffffffffff1916149050919050565b611500816114fb6115e3565b6116cc565b50565b61150d8282610905565b6115df57600160008084815260200190815260200160002060000160008373ffffffffffffffffffffffffffffffffffffffff1673ffffffffffffffffffffffffffffffffffffffff16815260200190815260200160002060006101000a81548160ff0219169083151502179055506115846115e3565b73ffffffffffffffffffffffffffffffffffffffff168173ffffffffffffffffffffffffffffffffffffffff16837f2f8788117e7eff1d82e926ec794901d17c78024a50270940304540a733656f0d60405160405180910390a45b5050565b600033905090565b6115f58282610905565b156116c857600080600084815260200190815260200160002060000160008373ffffffffffffffffffffffffffffffffffffffff1673ffffffffffffffffffffffffffffffffffffffff16815260200190815260200160002060006101000a81548160ff02191690831515021790555061166d6115e3565b73ffffffffffffffffffffffffffffffffffffffff168173ffffffffffffffffffffffffffffffffffffffff16837ff6391f5c32d9c69d2a47ea670b442974b53935d1edc7fd64eb21e047a839171b60405160405180910390a45b5050565b6116d68282610905565b611765576116fb8173ffffffffffffffffffffffffffffffffffffffff166014611769565b6117098360001c6020611769565b60405160200161171a929190612c2c565b6040516020818303038152906040526040517f08c379a000000000000000000000000000000000000000000000000000000000815260040161175c9190612c9f565b60405180910390fd5b5050565b60606000600283600261177c91906129b6565b6117869190612658565b67ffffffffffffffff81111561179f5761179e6120fa565b5b6040519080825280601f01601f1916602001820160405280156117d15781602001600182028036833780820191505090505b5090507f300000000000000000000000000000000000000000000000000000000000000081600081518110611809576118086125bd565b5b60200101907effffffffffffffffffffffffffffffffffffffffffffffffffffffffffffff1916908160001a9053507f78000000000000000000000000000000000000000000000000000000000000008160018151811061186d5761186c6125bd565b5b60200101907effffffffffffffffffffffffffffffffffffffffffffffffffffffffffffff1916908160001a905350600060018460026118ad91906129b6565b6118b79190612658565b90505b6001811115611957577f3031323334353637383961626364656600000000000000000000000000000000600f8616601081106118f9576118f86125bd565b5b1a60f81b8282815181106119105761190f6125bd565b5b60200101907effffffffffffffffffffffffffffffffffffffffffffffffffffffffffffff1916908160001a905350600485901c94508061195090612cc1565b90506118ba565b506000841461199b576040517f08c379a000000000000000000000000000000000000000000000000000000000815260040161199290612d36565b60405180910390fd5b8091505092915050565b82600281019282156119d4579160200282015b828111156119d35782518255916020019190600101906119b8565b5b5090506119e191906119e5565b5090565b5b808211156119fe5760008160009055506001016119e6565b5090565b6000819050919050565b611a1581611a02565b82525050565b6000602082019050611a306000830184611a0c565b92915050565b600080fd5b600080fd5b60007fffffffff0000000000000000000000000000000000000000000000000000000082169050919050565b611a7581611a40565b8114611a8057600080fd5b50565b600081359050611a9281611a6c565b92915050565b600060208284031215611aae57611aad611a36565b5b6000611abc84828501611a83565b91505092915050565b60008115159050919050565b611ada81611ac5565b82525050565b6000602082019050611af56000830184611ad1565b92915050565b6000819050919050565b611b0e81611afb565b8114611b1957600080fd5b50565b600081359050611b2b81611b05565b92915050565b600060208284031215611b4757611b46611a36565b5b6000611b5584828501611b1c565b91505092915050565b611b6781611afb565b82525050565b6000602082019050611b826000830184611b5e565b92915050565b600073ffffffffffffffffffffffffffffffffffffffff82169050919050565b6000611bb382611b88565b9050919050565b611bc381611ba8565b8114611bce57600080fd5b50565b600081359050611be081611bba565b92915050565b60008060408385031215611bfd57611bfc611a36565b5b6000611c0b85828601611b1c565b9250506020611c1c85828601611bd1565b9150509250929050565b600060208284031215611c3c57611c3b611a36565b5b6000611c4a84828501611bd1565b91505092915050565b600080fd5b600080fd5b600080fd5b60008083601f840112611c7857611c77611c53565b5b8235905067ffffffffffffffff811115611c9557611c94611c58565b5b602083019150836001820283011115611cb157611cb0611c5d565b5b9250929050565b600080600060408486031215611cd157611cd0611a36565b5b6000611cdf86828701611bd1565b935050602084013567ffffffffffffffff811115611d0057611cff611a3b565b5b611d0c86828701611c62565b92509250509250925092565b611d2181611a02565b8114611d2c57600080fd5b50565b600081359050611d3e81611d18565b92915050565b600060208284031215611d5a57611d59611a36565b5b6000611d6884828501611d2f565b91505092915050565b611d7a81611ba8565b82525050565b600081519050919050565b600082825260208201905092915050565b60005b83811015611dba578082015181840152602081019050611d9f565b83811115611dc9576000848401525b50505050565b6000601f19601f8301169050919050565b6000611deb82611d80565b611df58185611d8b565b9350611e05818560208601611d9c565b611e0e81611dcf565b840191505092915050565b600060a082019050611e2e6000830188611ad1565b611e3b6020830187611a0c565b611e486040830186611d71565b611e556060830185611d71565b8181036080830152611e678184611de0565b90509695505050505050565b60008060408385031215611e8a57611e89611a36565b5b6000611e9885828601611d2f565b9250506020611ea985828601611d2f565b9150509250929050565b6000602082019050611ec86000830184611d71565b92915050565b600082825260208201905092915050565b7f416363657373436f6e74726f6c3a2063616e206f6e6c792072656e6f756e636560008201527f20726f6c657320666f722073656c660000000000000000000000000000000000602082015250565b6000611f3b602f83611ece565b9150611f4682611edf565b604082019050919050565b60006020820190508181036000830152611f6a81611f2e565b9050919050565b7f5374616b696e6720616c72656164792073657474656400000000000000000000600082015250565b6000611fa7601683611ece565b9150611fb282611f71565b602082019050919050565b60006020820190508181036000830152611fd681611f9a565b9050919050565b60008160601b9050919050565b6000611ff582611fdd565b9050919050565b600061200782611fea565b9050919050565b61201f61201a82611ba8565b611ffc565b82525050565b600081905092915050565b82818337600083830152505050565b600061204b8385612025565b9350612058838584612030565b82840190509392505050565b6000612070828661200e565b60148201915061208182848661203f565b9150819050949350505050565b7f50726f706f73616c20616c726561647920616464656400000000000000000000600082015250565b60006120c4601683611ece565b91506120cf8261208e565b602082019050919050565b600060208201905081810360008301526120f3816120b7565b9050919050565b7f4e487b7100000000000000000000000000000000000000000000000000000000600052604160045260246000fd5b7f4e487b7100000000000000000000000000000000000000000000000000000000600052602260045260246000fd5b6000600282049050600182168061217057607f821691505b60208210810361218357612182612129565b5b50919050565b60008190508160005260206000209050919050565b60006020601f8301049050919050565b600082821b905092915050565b6000600883026121eb7fffffffffffffffffffffffffffffffffffffffffffffffffffffffffffffffff826121ae565b6121f586836121ae565b95508019841693508086168417925050509392505050565b6000819050919050565b600061223261222d61222884611a02565b61220d565b611a02565b9050919050565b6000819050919050565b61224c83612217565b61226061225882612239565b8484546121bb565b825550505050565b600090565b612275612268565b612280818484612243565b505050565b5b818110156122a45761229960008261226d565b600181019050612286565b5050565b601f8211156122e9576122ba81612189565b6122c38461219e565b810160208510156122d2578190505b6122e66122de8561219e565b830182612285565b50505b505050565b600082821c905092915050565b600061230c600019846008026122ee565b1980831691505092915050565b600061232583836122fb565b9150826002028217905092915050565b61233e82611d80565b67ffffffffffffffff811115612357576123566120fa565b5b6123618254612158565b61236c8282856122a8565b600060209050601f83116001811461239f576000841561238d578287015190505b6123978582612319565b8655506123ff565b601f1984166123ad86612189565b60005b828110156123d5578489015182556001820191506020850194506020810190506123b0565b868310156123f257848901516123ee601f8916826122fb565b8355505b6001600288020188555050505b505050505050565b7f4e487b7100000000000000000000000000000000000000000000000000000000600052601160045260246000fd5b600061244182611a02565b915061244c83611a02565b92508282101561245f5761245e612407565b5b828203905092915050565b60006124768385611d8b565b9350612483838584612030565b61248c83611dcf565b840190509392505050565b60006080820190506124ac6000830188611a0c565b6124b96020830187611a0c565b6124c66040830186611d71565b81810360608301526124d981848661246a565b90509695505050505050565b7f566f74696e6720646f65736e7420657869737400000000000000000000000000600082015250565b600061251b601383611ece565b9150612526826124e5565b602082019050919050565b6000602082019050818103600083015261254a8161250e565b9050919050565b7f416c726561647920766f74656400000000000000000000000000000000000000600082015250565b6000612587600d83611ece565b915061259282612551565b602082019050919050565b600060208201905081810360008301526125b68161257a565b9050919050565b7f4e487b7100000000000000000000000000000000000000000000000000000000600052603260045260246000fd5b7f566f74696e6720616c72656164792066696e6973686564000000000000000000600082015250565b6000612622601783611ece565b915061262d826125ec565b602082019050919050565b6000602082019050818103600083015261265181612615565b9050919050565b600061266382611a02565b915061266e83611a02565b9250827fffffffffffffffffffffffffffffffffffffffffffffffffffffffffffffffff038211156126a3576126a2612407565b5b828201905092915050565b7f44656261746520706572696f6420697320757000000000000000000000000000600082015250565b60006126e4601383611ece565b91506126ef826126ae565b602082019050919050565b60006020820190508181036000830152612713816126d7565b9050919050565b60008151905061272981611d18565b92915050565b60006020828403121561274557612744611a36565b5b60006127538482850161271a565b91505092915050565b7f4e656564206465706f73697420746f6b656e73206265666f726520766f746500600082015250565b6000612792601f83611ece565b915061279d8261275c565b602082019050919050565b600060208201905081810360008301526127c181612785565b9050919050565b60006080820190506127dd6000830187611d71565b6127ea6020830186611a0c565b6127f76040830185611a0c565b6128046060830184611a0c565b95945050505050565b7f5468652064656261746520706572696f64206973206e6f74206f76657220796560008201527f7400000000000000000000000000000000000000000000000000000000000000602082015250565b6000612869602183611ece565b91506128748261280d565b604082019050919050565b600060208201905081810360008301526128988161285c565b9050919050565b7f5468697320766f74696e6720616c72656164792066696e697368656400000000600082015250565b60006128d5601c83611ece565b91506128e08261289f565b602082019050919050565b60006020820190508181036000830152612904816128c8565b9050919050565b6000815461291881612158565b6129228186612025565b9450600182166000811461293d576001811461295257612985565b60ff1983168652811515820286019350612985565b61295b85612189565b60005b8381101561297d5781548189015260018201915060208101905061295e565b838801955050505b50505092915050565b600061299a828561200e565b6014820191506129aa828461290b565b91508190509392505050565b60006129c182611a02565b91506129cc83611a02565b9250817fffffffffffffffffffffffffffffffffffffffffffffffffffffffffffffffff0483118215151615612a0557612a04612407565b5b828202905092915050565b7f4e487b7100000000000000000000000000000000000000000000000000000000600052601260045260246000fd5b6000612a4a82611a02565b9150612a5583611a02565b925082612a6557612a64612a10565b5b828204905092915050565b6000612a7b82611d80565b612a858185612025565b9350612a95818560208601611d9c565b80840191505092915050565b6000612aad8284612a70565b915081905092915050565b7f496e636f7272656374207369676e617475726500000000000000000000000000600082015250565b6000612aee601383611ece565b9150612af982612ab8565b602082019050919050565b60006020820190508181036000830152612b1d81612ae1565b9050919050565b6000604082019050612b396000830185611a0c565b612b466020830184611a0c565b9392505050565b600081905092915050565b7f416363657373436f6e74726f6c3a206163636f756e7420000000000000000000600082015250565b6000612b8e601783612b4d565b9150612b9982612b58565b601782019050919050565b600081519050919050565b6000612bba82612ba4565b612bc48185612b4d565b9350612bd4818560208601611d9c565b80840191505092915050565b7f206973206d697373696e6720726f6c6520000000000000000000000000000000600082015250565b6000612c16601183612b4d565b9150612c2182612be0565b601182019050919050565b6000612c3782612b81565b9150612c438285612baf565b9150612c4e82612c09565b9150612c5a8284612baf565b91508190509392505050565b6000612c7182612ba4565b612c7b8185611ece565b9350612c8b818560208601611d9c565b612c9481611dcf565b840191505092915050565b60006020820190508181036000830152612cb98184612c66565b905092915050565b6000612ccc82611a02565b915060008203612cdf57612cde612407565b5b600182039050919050565b7f537472696e67733a20686578206c656e67746820696e73756666696369656e74600082015250565b6000612d20602083611ece565b9150612d2b82612cea565b602082019050919050565b60006020820190508181036000830152612d4f81612d13565b905091905056fea26469706673582212200c0368720164ff0de42bee5b36986d691c8b14a5a86f118bb3704079eab1c3db64736f6c634300080f0033",
  "linkReferences": {},
  "deployedLinkReferences": {}
}