{
  "_format": "hh-sol-artifact-1",
  "contractName": "DAO",
  "sourceName": "contracts/DAO.sol",
  "abi": [
    {
      "inputs": [
        {
          "internalType": "address",
          "name": "_erc20Address",
          "type": "address"
        }
      ],
      "stateMutability": "nonpayable",
      "type": "constructor"
    },
    {
      "anonymous": false,
      "inputs": [
        {
          "indexed": true,
          "internalType": "bytes32",
          "name": "role",
          "type": "bytes32"
        },
        {
          "indexed": true,
          "internalType": "bytes32",
          "name": "previousAdminRole",
          "type": "bytes32"
        },
        {
          "indexed": true,
          "internalType": "bytes32",
          "name": "newAdminRole",
          "type": "bytes32"
        }
      ],
      "name": "RoleAdminChanged",
      "type": "event"
    },
    {
      "anonymous": false,
      "inputs": [
        {
          "indexed": true,
          "internalType": "bytes32",
          "name": "role",
          "type": "bytes32"
        },
        {
          "indexed": true,
          "internalType": "address",
          "name": "account",
          "type": "address"
        },
        {
          "indexed": true,
          "internalType": "address",
          "name": "sender",
          "type": "address"
        }
      ],
      "name": "RoleGranted",
      "type": "event"
    },
    {
      "anonymous": false,
      "inputs": [
        {
          "indexed": true,
          "internalType": "bytes32",
          "name": "role",
          "type": "bytes32"
        },
        {
          "indexed": true,
          "internalType": "address",
          "name": "account",
          "type": "address"
        },
        {
          "indexed": true,
          "internalType": "address",
          "name": "sender",
          "type": "address"
        }
      ],
      "name": "RoleRevoked",
      "type": "event"
    },
    {
      "anonymous": false,
      "inputs": [
        {
          "indexed": false,
          "internalType": "address",
          "name": "voter",
          "type": "address"
        },
        {
          "indexed": false,
          "internalType": "uint256",
          "name": "id",
          "type": "uint256"
        },
        {
          "indexed": false,
          "internalType": "uint256",
          "name": "option",
          "type": "uint256"
        },
        {
          "indexed": false,
          "internalType": "uint256",
          "name": "amount",
          "type": "uint256"
        }
      ],
      "name": "Voted",
      "type": "event"
    },
    {
      "anonymous": false,
      "inputs": [
        {
          "indexed": false,
          "internalType": "uint256",
          "name": "id",
          "type": "uint256"
        },
        {
          "indexed": false,
          "internalType": "uint256",
          "name": "optionID",
          "type": "uint256"
        }
      ],
      "name": "VotingFinished",
      "type": "event"
    },
    {
      "anonymous": false,
      "inputs": [
        {
          "indexed": false,
          "internalType": "uint256",
          "name": "id",
          "type": "uint256"
        },
        {
          "indexed": false,
          "internalType": "uint256",
          "name": "starttime",
          "type": "uint256"
        },
        {
          "indexed": false,
          "internalType": "address",
          "name": "recipient",
          "type": "address"
        },
        {
          "indexed": false,
          "internalType": "bytes",
          "name": "signature",
          "type": "bytes"
        }
      ],
      "name": "VotingStarted",
      "type": "event"
    },
    {
      "inputs": [],
      "name": "CHAIRMAN",
      "outputs": [
        {
          "internalType": "bytes32",
          "name": "",
          "type": "bytes32"
        }
      ],
      "stateMutability": "view",
      "type": "function"
    },
    {
      "inputs": [],
      "name": "DEFAULT_ADMIN_ROLE",
      "outputs": [
        {
          "internalType": "bytes32",
          "name": "",
          "type": "bytes32"
        }
      ],
      "stateMutability": "view",
      "type": "function"
    },
    {
      "inputs": [
        {
          "internalType": "address",
          "name": "_recipient",
          "type": "address"
        },
        {
          "internalType": "bytes",
          "name": "_signature",
          "type": "bytes"
        }
      ],
      "name": "addProposal",
      "outputs": [],
      "stateMutability": "nonpayable",
      "type": "function"
    },
    {
      "inputs": [],
      "name": "debatePeriod",
      "outputs": [
        {
          "internalType": "uint256",
          "name": "",
          "type": "uint256"
        }
      ],
      "stateMutability": "view",
      "type": "function"
    },
    {
      "inputs": [
        {
          "internalType": "uint256",
          "name": "_amount",
          "type": "uint256"
        }
      ],
      "name": "deposit",
      "outputs": [],
      "stateMutability": "nonpayable",
      "type": "function"
    },
    {
      "inputs": [
        {
          "internalType": "uint256",
          "name": "_id",
          "type": "uint256"
        }
      ],
      "name": "finish",
      "outputs": [],
      "stateMutability": "nonpayable",
      "type": "function"
    },
    {
      "inputs": [
        {
          "internalType": "bytes32",
          "name": "role",
          "type": "bytes32"
        }
      ],
      "name": "getRoleAdmin",
      "outputs": [
        {
          "internalType": "bytes32",
          "name": "",
          "type": "bytes32"
        }
      ],
      "stateMutability": "view",
      "type": "function"
    },
    {
      "inputs": [
        {
          "internalType": "bytes32",
          "name": "role",
          "type": "bytes32"
        },
        {
          "internalType": "address",
          "name": "account",
          "type": "address"
        }
      ],
      "name": "grantRole",
      "outputs": [],
      "stateMutability": "nonpayable",
      "type": "function"
    },
    {
      "inputs": [
        {
          "internalType": "bytes32",
          "name": "role",
          "type": "bytes32"
        },
        {
          "internalType": "address",
          "name": "account",
          "type": "address"
        }
      ],
      "name": "hasRole",
      "outputs": [
        {
          "internalType": "bool",
          "name": "",
          "type": "bool"
        }
      ],
      "stateMutability": "view",
      "type": "function"
    },
    {
      "inputs": [],
      "name": "quorumPercent",
      "outputs": [
        {
          "internalType": "uint256",
          "name": "",
          "type": "uint256"
        }
      ],
      "stateMutability": "view",
      "type": "function"
    },
    {
      "inputs": [
        {
          "internalType": "bytes32",
          "name": "role",
          "type": "bytes32"
        },
        {
          "internalType": "address",
          "name": "account",
          "type": "address"
        }
      ],
      "name": "renounceRole",
      "outputs": [],
      "stateMutability": "nonpayable",
      "type": "function"
    },
    {
      "inputs": [
        {
          "internalType": "bytes32",
          "name": "role",
          "type": "bytes32"
        },
        {
          "internalType": "address",
          "name": "account",
          "type": "address"
        }
      ],
      "name": "revokeRole",
      "outputs": [],
      "stateMutability": "nonpayable",
      "type": "function"
    },
    {
      "inputs": [
        {
          "internalType": "bytes4",
          "name": "interfaceId",
          "type": "bytes4"
        }
      ],
      "name": "supportsInterface",
      "outputs": [
        {
          "internalType": "bool",
          "name": "",
          "type": "bool"
        }
      ],
      "stateMutability": "view",
      "type": "function"
    },
    {
      "inputs": [
        {
          "internalType": "uint256",
          "name": "_id",
          "type": "uint256"
        },
        {
          "internalType": "uint256",
          "name": "_option",
          "type": "uint256"
        }
      ],
      "name": "vote",
      "outputs": [],
      "stateMutability": "nonpayable",
      "type": "function"
    },
    {
      "inputs": [
        {
          "internalType": "uint256",
          "name": "",
          "type": "uint256"
        }
      ],
      "name": "votings",
      "outputs": [
        {
          "internalType": "bool",
          "name": "finished",
          "type": "bool"
        },
        {
          "internalType": "uint256",
          "name": "startTime",
          "type": "uint256"
        },
        {
          "internalType": "address",
          "name": "initiator",
          "type": "address"
        },
        {
          "internalType": "address",
          "name": "recipient",
          "type": "address"
        },
        {
          "internalType": "bytes",
          "name": "signature",
          "type": "bytes"
        }
      ],
      "stateMutability": "view",
      "type": "function"
    },
    {
      "inputs": [],
      "name": "withdraw",
      "outputs": [],
      "stateMutability": "nonpayable",
      "type": "function"
    }
  ],
  "bytecode": "0x60806040526203f48060025560336003553480156200001d57600080fd5b50604051620035923803806200359283398181016040528101906200004391906200029f565b620000586000801b33620000d260201b60201c565b6200008a7f5778c2f7d924e55986d549d645f53119b71708389fc2011260c8a657c569fcaa33620000d260201b60201c565b80600160006101000a81548173ffffffffffffffffffffffffffffffffffffffff021916908373ffffffffffffffffffffffffffffffffffffffff16021790555050620002d1565b620000e48282620001c360201b60201c565b620001bf57600160008084815260200190815260200160002060000160008373ffffffffffffffffffffffffffffffffffffffff1673ffffffffffffffffffffffffffffffffffffffff16815260200190815260200160002060006101000a81548160ff021916908315150217905550620001646200022d60201b60201c565b73ffffffffffffffffffffffffffffffffffffffff168173ffffffffffffffffffffffffffffffffffffffff16837f2f8788117e7eff1d82e926ec794901d17c78024a50270940304540a733656f0d60405160405180910390a45b5050565b600080600084815260200190815260200160002060000160008373ffffffffffffffffffffffffffffffffffffffff1673ffffffffffffffffffffffffffffffffffffffff16815260200190815260200160002060009054906101000a900460ff16905092915050565b600033905090565b600080fd5b600073ffffffffffffffffffffffffffffffffffffffff82169050919050565b600062000267826200023a565b9050919050565b62000279816200025a565b81146200028557600080fd5b50565b60008151905062000299816200026e565b92915050565b600060208284031215620002b857620002b762000235565b5b6000620002c88482850162000288565b91505092915050565b6132b180620002e16000396000f3fe608060405234801561001057600080fd5b50600436106101005760003560e01c8063a217fddf11610097578063d353a1cb11610066578063d353a1cb1461029b578063d547741f146102b7578063ee44a35a146102d3578063f81cbd26146102f157610100565b8063a217fddf14610211578063a598d03c1461022f578063b384abef14610263578063b6b55f251461027f57610100565b806336568abe116100d357806336568abe1461019f5780633ccfd60b146101bb5780635cf16441146101c557806391d14854146101e157610100565b80630114909d1461010557806301ffc9a714610123578063248a9ca3146101535780632f2ff15d14610183575b600080fd5b61010d61030f565b60405161011a9190611d47565b60405180910390f35b61013d60048036038101906101389190611dc4565b610315565b60405161014a9190611e0c565b60405180910390f35b61016d60048036038101906101689190611e5d565b61038f565b60405161017a9190611e99565b60405180910390f35b61019d60048036038101906101989190611f12565b6103ae565b005b6101b960048036038101906101b49190611f12565b6103cf565b005b6101c3610452565b005b6101df60048036038101906101da9190611fb7565b61067d565b005b6101fb60048036038101906101f69190611f12565b610983565b6040516102089190611e0c565b60405180910390f35b6102196109ed565b6040516102269190611e99565b60405180910390f35b61024960048036038101906102449190612043565b6109f4565b60405161025a959493929190612118565b60405180910390f35b61027d60048036038101906102789190612172565b610b0f565b005b61029960048036038101906102949190612043565b610f25565b005b6102b560048036038101906102b09190612043565b6111df565b005b6102d160048036038101906102cc9190611f12565b611766565b005b6102db611787565b6040516102e89190611e99565b60405180910390f35b6102f96117ab565b6040516103069190611d47565b60405180910390f35b60025481565b60007f7965db0b000000000000000000000000000000000000000000000000000000007bffffffffffffffffffffffffffffffffffffffffffffffffffffffff1916827bffffffffffffffffffffffffffffffffffffffffffffffffffffffff191614806103885750610387826117b1565b5b9050919050565b6000806000838152602001908152602001600020600101549050919050565b6103b78261038f565b6103c08161181b565b6103ca838361182f565b505050565b6103d761190f565b73ffffffffffffffffffffffffffffffffffffffff168173ffffffffffffffffffffffffffffffffffffffff1614610444576040517f08c379a000000000000000000000000000000000000000000000000000000000815260040161043b90612235565b60405180910390fd5b61044e8282611917565b5050565b6000600560003373ffffffffffffffffffffffffffffffffffffffff1673ffffffffffffffffffffffffffffffffffffffff16815260200190815260200160002054116104d4576040517f08c379a00000000000000000000000000000000000000000000000000000000081526004016104cb906122a1565b60405180910390fd5b600460003373ffffffffffffffffffffffffffffffffffffffff1673ffffffffffffffffffffffffffffffffffffffff16815260200190815260200160002054421015610556576040517f08c379a000000000000000000000000000000000000000000000000000000000815260040161054d9061230d565b60405180910390fd5b600160009054906101000a900473ffffffffffffffffffffffffffffffffffffffff1673ffffffffffffffffffffffffffffffffffffffff1663a9059cbb33600560003373ffffffffffffffffffffffffffffffffffffffff1673ffffffffffffffffffffffffffffffffffffffff168152602001908152602001600020546040518363ffffffff1660e01b81526004016105f292919061232d565b6020604051808303816000875af1158015610611573d6000803e3d6000fd5b505050506040513d601f19601f820116820180604052508101906106359190612382565b506000600560003373ffffffffffffffffffffffffffffffffffffffff1673ffffffffffffffffffffffffffffffffffffffff16815260200190815260200160002081905550565b7f5778c2f7d924e55986d549d645f53119b71708389fc2011260c8a657c569fcaa6106a78161181b565b60008484846040516020016106be93929190612436565b6040516020818303038152906040528051906020012090506006600082815260200190815260200160002060009054906101000a900460ff1615610737576040517f08c379a000000000000000000000000000000000000000000000000000000000815260040161072e906124ac565b60405180910390fd5b60016006600083815260200190815260200160002060006101000a81548160ff02191690831515021790555060086040518060c001604052806000151581526020014281526020013373ffffffffffffffffffffffffffffffffffffffff1681526020018773ffffffffffffffffffffffffffffffffffffffff16815260200186868080601f016020809104026020016040519081016040528093929190818152602001838380828437600081840152601f19601f8201169050808301925050505050505081526020016040518060400160405280600081526020016000815250815250908060018154018082558091505060019003906000526020600020906007020160009091909190915060008201518160000160006101000a81548160ff0219169083151502179055506020820151816001015560408201518160020160006101000a81548173ffffffffffffffffffffffffffffffffffffffff021916908373ffffffffffffffffffffffffffffffffffffffff16021790555060608201518160030160006101000a81548173ffffffffffffffffffffffffffffffffffffffff021916908373ffffffffffffffffffffffffffffffffffffffff16021790555060808201518160040190816109119190612707565b5060a082015181600501906002610929929190611cd1565b5050507f7f3fce5632ea976e13d2393f78549c4f13e2b38b246a64e677892991744ae2b7600160088054905061095f9190612808565b42878787604051610974959493929190612869565b60405180910390a15050505050565b600080600084815260200190815260200160002060000160008373ffffffffffffffffffffffffffffffffffffffff1673ffffffffffffffffffffffffffffffffffffffff16815260200190815260200160002060009054906101000a900460ff16905092915050565b6000801b81565b60088181548110610a0457600080fd5b90600052602060002090600702016000915090508060000160009054906101000a900460ff16908060010154908060020160009054906101000a900473ffffffffffffffffffffffffffffffffffffffff16908060030160009054906101000a900473ffffffffffffffffffffffffffffffffffffffff1690806004018054610a8c9061252a565b80601f0160208091040260200160405190810160405280929190818152602001828054610ab89061252a565b8015610b055780601f10610ada57610100808354040283529160200191610b05565b820191906000526020600020905b815481529060010190602001808311610ae857829003601f168201915b5050505050905085565b6007600083815260200190815260200160002060003373ffffffffffffffffffffffffffffffffffffffff1673ffffffffffffffffffffffffffffffffffffffff16815260200190815260200160002060009054906101000a900460ff1615610bad576040517f08c379a0000000000000000000000000000000000000000000000000000000008152600401610ba490612903565b60405180910390fd5b6000600560003373ffffffffffffffffffffffffffffffffffffffff1673ffffffffffffffffffffffffffffffffffffffff1681526020019081526020016000205411610c2f576040517f08c379a0000000000000000000000000000000000000000000000000000000008152600401610c269061296f565b60405180910390fd5b6008805490508210610c76576040517f08c379a0000000000000000000000000000000000000000000000000000000008152600401610c6d906129db565b60405180910390fd5b60088281548110610c8a57610c896129fb565b5b906000526020600020906007020160000160009054906101000a900460ff1615610ce9576040517f08c379a0000000000000000000000000000000000000000000000000000000008152600401610ce090612a76565b60405180910390fd5b4260025460088481548110610d0157610d006129fb565b5b906000526020600020906007020160010154610d1d9190612a96565b11610d5d576040517f08c379a0000000000000000000000000000000000000000000000000000000008152600401610d5490612b38565b60405180910390fd5b60016007600084815260200190815260200160002060003373ffffffffffffffffffffffffffffffffffffffff1673ffffffffffffffffffffffffffffffffffffffff16815260200190815260200160002060006101000a81548160ff021916908315150217905550600560003373ffffffffffffffffffffffffffffffffffffffff1673ffffffffffffffffffffffffffffffffffffffff1681526020019081526020016000205460088381548110610e1a57610e196129fb565b5b90600052602060002090600702016005018260028110610e3d57610e3c6129fb565b5b016000828254610e4d9190612a96565b9250508190555060025442610e629190612a96565b600460003373ffffffffffffffffffffffffffffffffffffffff1673ffffffffffffffffffffffffffffffffffffffff168152602001908152602001600020819055507fc32b42768a47a585121e9b8d7a2ab9d3f34c326a192dee11ee1732e3d18313f3338383600560003373ffffffffffffffffffffffffffffffffffffffff1673ffffffffffffffffffffffffffffffffffffffff16815260200190815260200160002054604051610f199493929190612b58565b60405180910390a15050565b80600160009054906101000a900473ffffffffffffffffffffffffffffffffffffffff1673ffffffffffffffffffffffffffffffffffffffff166370a08231336040518263ffffffff1660e01b8152600401610f819190612b9d565b602060405180830381865afa158015610f9e573d6000803e3d6000fd5b505050506040513d601f19601f82011682018060405250810190610fc29190612bcd565b1015611003576040517f08c379a0000000000000000000000000000000000000000000000000000000008152600401610ffa90612c46565b60405180910390fd5b80600160009054906101000a900473ffffffffffffffffffffffffffffffffffffffff1673ffffffffffffffffffffffffffffffffffffffff1663dd62ed3e33306040518363ffffffff1660e01b8152600401611061929190612c66565b602060405180830381865afa15801561107e573d6000803e3d6000fd5b505050506040513d601f19601f820116820180604052508101906110a29190612bcd565b10156110e3576040517f08c379a00000000000000000000000000000000000000000000000000000000081526004016110da90612cdb565b60405180910390fd5b600160009054906101000a900473ffffffffffffffffffffffffffffffffffffffff1673ffffffffffffffffffffffffffffffffffffffff166323b872dd3330846040518463ffffffff1660e01b815260040161114293929190612cfb565b6020604051808303816000875af1158015611161573d6000803e3d6000fd5b505050506040513d601f19601f820116820180604052508101906111859190612382565b5080600560003373ffffffffffffffffffffffffffffffffffffffff1673ffffffffffffffffffffffffffffffffffffffff16815260200190815260200160002060008282546111d59190612a96565b9250508190555050565b600254600882815481106111f6576111f56129fb565b5b9060005260206000209060070201600101546112129190612a96565b421015611254576040517f08c379a000000000000000000000000000000000000000000000000000000000815260040161124b90612da4565b60405180910390fd5b60088181548110611268576112676129fb565b5b906000526020600020906007020160000160009054906101000a900460ff16156112c7576040517f08c379a00000000000000000000000000000000000000000000000000000000081526004016112be90612e10565b60405180910390fd5b6001600882815481106112dd576112dc6129fb565b5b906000526020600020906007020160000160006101000a81548160ff02191690831515021790555060006008828154811061131b5761131a6129fb565b5b906000526020600020906007020160030160009054906101000a900473ffffffffffffffffffffffffffffffffffffffff1660088381548110611361576113606129fb565b5b9060005260206000209060070201600401604051602001611383929190612eb3565b60405160208183030381529060405280519060200120905060006006600083815260200190815260200160002060006101000a81548160ff0219169083151502179055506000600883815481106113dd576113dc6129fb565b5b9060005260206000209060070201600501600060028110611401576114006129fb565b5b015460088481548110611417576114166129fb565b5b906000526020600020906007020160050160016002811061143b5761143a6129fb565b5b015411801561157057506064600354600160009054906101000a900473ffffffffffffffffffffffffffffffffffffffff1673ffffffffffffffffffffffffffffffffffffffff166318160ddd6040518163ffffffff1660e01b8152600401602060405180830381865afa1580156114b7573d6000803e3d6000fd5b505050506040513d601f19601f820116820180604052508101906114db9190612bcd565b6114e59190612edb565b6114ef9190612f64565b60088481548110611503576115026129fb565b5b9060005260206000209060070201600501600160028110611527576115266129fb565b5b01546008858154811061153d5761153c6129fb565b5b9060005260206000209060070201600501600060028110611561576115606129fb565b5b015461156d9190612a96565b10155b156117285760006008848154811061158b5761158a6129fb565b5b906000526020600020906007020160030160009054906101000a900473ffffffffffffffffffffffffffffffffffffffff1690506000600885815481106115d5576115d46129fb565b5b906000526020600020906007020160040180546115f19061252a565b80601f016020809104026020016040519081016040528092919081815260200182805461161d9061252a565b801561166a5780601f1061163f5761010080835404028352916020019161166a565b820191906000526020600020905b81548152906001019060200180831161164d57829003601f168201915b5050505050905060008273ffffffffffffffffffffffffffffffffffffffff1660008360405161169a9190612fc6565b60006040518083038185875af1925050503d80600081146116d7576040519150601f19603f3d011682016040523d82523d6000602084013e6116dc565b606091505b5050905080611720576040517f08c379a000000000000000000000000000000000000000000000000000000000815260040161171790613029565b60405180910390fd5b600193505050505b7fdddac1677fda47cbbbc403aec4ecd004a9a4f777b6c876510cdd9462e914fea08382604051611759929190613049565b60405180910390a1505050565b61176f8261038f565b6117788161181b565b6117828383611917565b505050565b7f5778c2f7d924e55986d549d645f53119b71708389fc2011260c8a657c569fcaa81565b60035481565b60007f01ffc9a7000000000000000000000000000000000000000000000000000000007bffffffffffffffffffffffffffffffffffffffffffffffffffffffff1916827bffffffffffffffffffffffffffffffffffffffffffffffffffffffff1916149050919050565b61182c8161182761190f565b6119f8565b50565b6118398282610983565b61190b57600160008084815260200190815260200160002060000160008373ffffffffffffffffffffffffffffffffffffffff1673ffffffffffffffffffffffffffffffffffffffff16815260200190815260200160002060006101000a81548160ff0219169083151502179055506118b061190f565b73ffffffffffffffffffffffffffffffffffffffff168173ffffffffffffffffffffffffffffffffffffffff16837f2f8788117e7eff1d82e926ec794901d17c78024a50270940304540a733656f0d60405160405180910390a45b5050565b600033905090565b6119218282610983565b156119f457600080600084815260200190815260200160002060000160008373ffffffffffffffffffffffffffffffffffffffff1673ffffffffffffffffffffffffffffffffffffffff16815260200190815260200160002060006101000a81548160ff02191690831515021790555061199961190f565b73ffffffffffffffffffffffffffffffffffffffff168173ffffffffffffffffffffffffffffffffffffffff16837ff6391f5c32d9c69d2a47ea670b442974b53935d1edc7fd64eb21e047a839171b60405160405180910390a45b5050565b611a028282610983565b611a9157611a278173ffffffffffffffffffffffffffffffffffffffff166014611a95565b611a358360001c6020611a95565b604051602001611a46929190613151565b6040516020818303038152906040526040517f08c379a0000000000000000000000000000000000000000000000000000000008152600401611a8891906131c4565b60405180910390fd5b5050565b606060006002836002611aa89190612edb565b611ab29190612a96565b67ffffffffffffffff811115611acb57611aca6124cc565b5b6040519080825280601f01601f191660200182016040528015611afd5781602001600182028036833780820191505090505b5090507f300000000000000000000000000000000000000000000000000000000000000081600081518110611b3557611b346129fb565b5b60200101907effffffffffffffffffffffffffffffffffffffffffffffffffffffffffffff1916908160001a9053507f780000000000000000000000000000000000000000000000000000000000000081600181518110611b9957611b986129fb565b5b60200101907effffffffffffffffffffffffffffffffffffffffffffffffffffffffffffff1916908160001a90535060006001846002611bd99190612edb565b611be39190612a96565b90505b6001811115611c83577f3031323334353637383961626364656600000000000000000000000000000000600f861660108110611c2557611c246129fb565b5b1a60f81b828281518110611c3c57611c3b6129fb565b5b60200101907effffffffffffffffffffffffffffffffffffffffffffffffffffffffffffff1916908160001a905350600485901c945080611c7c906131e6565b9050611be6565b5060008414611cc7576040517f08c379a0000000000000000000000000000000000000000000000000000000008152600401611cbe9061325b565b60405180910390fd5b8091505092915050565b8260028101928215611d00579160200282015b82811115611cff578251825591602001919060010190611ce4565b5b509050611d0d9190611d11565b5090565b5b80821115611d2a576000816000905550600101611d12565b5090565b6000819050919050565b611d4181611d2e565b82525050565b6000602082019050611d5c6000830184611d38565b92915050565b600080fd5b600080fd5b60007fffffffff0000000000000000000000000000000000000000000000000000000082169050919050565b611da181611d6c565b8114611dac57600080fd5b50565b600081359050611dbe81611d98565b92915050565b600060208284031215611dda57611dd9611d62565b5b6000611de884828501611daf565b91505092915050565b60008115159050919050565b611e0681611df1565b82525050565b6000602082019050611e216000830184611dfd565b92915050565b6000819050919050565b611e3a81611e27565b8114611e4557600080fd5b50565b600081359050611e5781611e31565b92915050565b600060208284031215611e7357611e72611d62565b5b6000611e8184828501611e48565b91505092915050565b611e9381611e27565b82525050565b6000602082019050611eae6000830184611e8a565b92915050565b600073ffffffffffffffffffffffffffffffffffffffff82169050919050565b6000611edf82611eb4565b9050919050565b611eef81611ed4565b8114611efa57600080fd5b50565b600081359050611f0c81611ee6565b92915050565b60008060408385031215611f2957611f28611d62565b5b6000611f3785828601611e48565b9250506020611f4885828601611efd565b9150509250929050565b600080fd5b600080fd5b600080fd5b60008083601f840112611f7757611f76611f52565b5b8235905067ffffffffffffffff811115611f9457611f93611f57565b5b602083019150836001820283011115611fb057611faf611f5c565b5b9250929050565b600080600060408486031215611fd057611fcf611d62565b5b6000611fde86828701611efd565b935050602084013567ffffffffffffffff811115611fff57611ffe611d67565b5b61200b86828701611f61565b92509250509250925092565b61202081611d2e565b811461202b57600080fd5b50565b60008135905061203d81612017565b92915050565b60006020828403121561205957612058611d62565b5b60006120678482850161202e565b91505092915050565b61207981611ed4565b82525050565b600081519050919050565b600082825260208201905092915050565b60005b838110156120b957808201518184015260208101905061209e565b838111156120c8576000848401525b50505050565b6000601f19601f8301169050919050565b60006120ea8261207f565b6120f4818561208a565b935061210481856020860161209b565b61210d816120ce565b840191505092915050565b600060a08201905061212d6000830188611dfd565b61213a6020830187611d38565b6121476040830186612070565b6121546060830185612070565b818103608083015261216681846120df565b90509695505050505050565b6000806040838503121561218957612188611d62565b5b60006121978582860161202e565b92505060206121a88582860161202e565b9150509250929050565b600082825260208201905092915050565b7f416363657373436f6e74726f6c3a2063616e206f6e6c792072656e6f756e636560008201527f20726f6c657320666f722073656c660000000000000000000000000000000000602082015250565b600061221f602f836121b2565b915061222a826121c3565b604082019050919050565b6000602082019050818103600083015261224e81612212565b9050919050565b7f4e6f7468696e6420746f20776974686472617700000000000000000000000000600082015250565b600061228b6013836121b2565b915061229682612255565b602082019050919050565b600060208201905081810360008301526122ba8161227e565b9050919050565b7f5374696c206c6f636b6564000000000000000000000000000000000000000000600082015250565b60006122f7600b836121b2565b9150612302826122c1565b602082019050919050565b60006020820190508181036000830152612326816122ea565b9050919050565b60006040820190506123426000830185612070565b61234f6020830184611d38565b9392505050565b61235f81611df1565b811461236a57600080fd5b50565b60008151905061237c81612356565b92915050565b60006020828403121561239857612397611d62565b5b60006123a68482850161236d565b91505092915050565b60008160601b9050919050565b60006123c7826123af565b9050919050565b60006123d9826123bc565b9050919050565b6123f16123ec82611ed4565b6123ce565b82525050565b600081905092915050565b82818337600083830152505050565b600061241d83856123f7565b935061242a838584612402565b82840190509392505050565b600061244282866123e0565b601482019150612453828486612411565b9150819050949350505050565b7f50726f706f73616c20616c726561647920616464656400000000000000000000600082015250565b60006124966016836121b2565b91506124a182612460565b602082019050919050565b600060208201905081810360008301526124c581612489565b9050919050565b7f4e487b7100000000000000000000000000000000000000000000000000000000600052604160045260246000fd5b7f4e487b7100000000000000000000000000000000000000000000000000000000600052602260045260246000fd5b6000600282049050600182168061254257607f821691505b602082108103612555576125546124fb565b5b50919050565b60008190508160005260206000209050919050565b60006020601f8301049050919050565b600082821b905092915050565b6000600883026125bd7fffffffffffffffffffffffffffffffffffffffffffffffffffffffffffffffff82612580565b6125c78683612580565b95508019841693508086168417925050509392505050565b6000819050919050565b60006126046125ff6125fa84611d2e565b6125df565b611d2e565b9050919050565b6000819050919050565b61261e836125e9565b61263261262a8261260b565b84845461258d565b825550505050565b600090565b61264761263a565b612652818484612615565b505050565b5b818110156126765761266b60008261263f565b600181019050612658565b5050565b601f8211156126bb5761268c8161255b565b61269584612570565b810160208510156126a4578190505b6126b86126b085612570565b830182612657565b50505b505050565b600082821c905092915050565b60006126de600019846008026126c0565b1980831691505092915050565b60006126f783836126cd565b9150826002028217905092915050565b6127108261207f565b67ffffffffffffffff811115612729576127286124cc565b5b612733825461252a565b61273e82828561267a565b600060209050601f831160018114612771576000841561275f578287015190505b61276985826126eb565b8655506127d1565b601f19841661277f8661255b565b60005b828110156127a757848901518255600182019150602085019450602081019050612782565b868310156127c457848901516127c0601f8916826126cd565b8355505b6001600288020188555050505b505050505050565b7f4e487b7100000000000000000000000000000000000000000000000000000000600052601160045260246000fd5b600061281382611d2e565b915061281e83611d2e565b925082821015612831576128306127d9565b5b828203905092915050565b6000612848838561208a565b9350612855838584612402565b61285e836120ce565b840190509392505050565b600060808201905061287e6000830188611d38565b61288b6020830187611d38565b6128986040830186612070565b81810360608301526128ab81848661283c565b90509695505050505050565b7f416c726561647920766f74656400000000000000000000000000000000000000600082015250565b60006128ed600d836121b2565b91506128f8826128b7565b602082019050919050565b6000602082019050818103600083015261291c816128e0565b9050919050565b7f4e656564206465706f73697420746f6b656e73206265666f726520766f746500600082015250565b6000612959601f836121b2565b915061296482612923565b602082019050919050565b600060208201905081810360008301526129888161294c565b9050919050565b7f566f74696e6720646f65736e7420657869737400000000000000000000000000600082015250565b60006129c56013836121b2565b91506129d08261298f565b602082019050919050565b600060208201905081810360008301526129f4816129b8565b9050919050565b7f4e487b7100000000000000000000000000000000000000000000000000000000600052603260045260246000fd5b7f566f74696e6720616c72656164792066696e6973686564000000000000000000600082015250565b6000612a606017836121b2565b9150612a6b82612a2a565b602082019050919050565b60006020820190508181036000830152612a8f81612a53565b9050919050565b6000612aa182611d2e565b9150612aac83611d2e565b9250827fffffffffffffffffffffffffffffffffffffffffffffffffffffffffffffffff03821115612ae157612ae06127d9565b5b828201905092915050565b7f44656261746520706572696f6420697320757000000000000000000000000000600082015250565b6000612b226013836121b2565b9150612b2d82612aec565b602082019050919050565b60006020820190508181036000830152612b5181612b15565b9050919050565b6000608082019050612b6d6000830187612070565b612b7a6020830186611d38565b612b876040830185611d38565b612b946060830184611d38565b95945050505050565b6000602082019050612bb26000830184612070565b92915050565b600081519050612bc781612017565b92915050565b600060208284031215612be357612be2611d62565b5b6000612bf184828501612bb8565b91505092915050565b7f4e6f7420656e6f75676820746f6b656e73000000000000000000000000000000600082015250565b6000612c306011836121b2565b9150612c3b82612bfa565b602082019050919050565b60006020820190508181036000830152612c5f81612c23565b9050919050565b6000604082019050612c7b6000830185612070565b612c886020830184612070565b9392505050565b7f4e6f7420616c6c6f776564000000000000000000000000000000000000000000600082015250565b6000612cc5600b836121b2565b9150612cd082612c8f565b602082019050919050565b60006020820190508181036000830152612cf481612cb8565b9050919050565b6000606082019050612d106000830186612070565b612d1d6020830185612070565b612d2a6040830184611d38565b949350505050565b7f5468652064656261746520706572696f64206973206e6f74206f76657220796560008201527f7400000000000000000000000000000000000000000000000000000000000000602082015250565b6000612d8e6021836121b2565b9150612d9982612d32565b604082019050919050565b60006020820190508181036000830152612dbd81612d81565b9050919050565b7f5468697320766f74696e6720616c72656164792066696e697368656400000000600082015250565b6000612dfa601c836121b2565b9150612e0582612dc4565b602082019050919050565b60006020820190508181036000830152612e2981612ded565b9050919050565b60008154612e3d8161252a565b612e4781866123f7565b94506001821660008114612e625760018114612e7757612eaa565b60ff1983168652811515820286019350612eaa565b612e808561255b565b60005b83811015612ea257815481890152600182019150602081019050612e83565b838801955050505b50505092915050565b6000612ebf82856123e0565b601482019150612ecf8284612e30565b91508190509392505050565b6000612ee682611d2e565b9150612ef183611d2e565b9250817fffffffffffffffffffffffffffffffffffffffffffffffffffffffffffffffff0483118215151615612f2a57612f296127d9565b5b828202905092915050565b7f4e487b7100000000000000000000000000000000000000000000000000000000600052601260045260246000fd5b6000612f6f82611d2e565b9150612f7a83611d2e565b925082612f8a57612f89612f35565b5b828204905092915050565b6000612fa08261207f565b612faa81856123f7565b9350612fba81856020860161209b565b80840191505092915050565b6000612fd28284612f95565b915081905092915050565b7f496e636f7272656374207369676e617475726500000000000000000000000000600082015250565b60006130136013836121b2565b915061301e82612fdd565b602082019050919050565b6000602082019050818103600083015261304281613006565b9050919050565b600060408201905061305e6000830185611d38565b61306b6020830184611d38565b9392505050565b600081905092915050565b7f416363657373436f6e74726f6c3a206163636f756e7420000000000000000000600082015250565b60006130b3601783613072565b91506130be8261307d565b601782019050919050565b600081519050919050565b60006130df826130c9565b6130e98185613072565b93506130f981856020860161209b565b80840191505092915050565b7f206973206d697373696e6720726f6c6520000000000000000000000000000000600082015250565b600061313b601183613072565b915061314682613105565b601182019050919050565b600061315c826130a6565b915061316882856130d4565b91506131738261312e565b915061317f82846130d4565b91508190509392505050565b6000613196826130c9565b6131a081856121b2565b93506131b081856020860161209b565b6131b9816120ce565b840191505092915050565b600060208201905081810360008301526131de818461318b565b905092915050565b60006131f182611d2e565b915060008203613204576132036127d9565b5b600182039050919050565b7f537472696e67733a20686578206c656e67746820696e73756666696369656e74600082015250565b60006132456020836121b2565b91506132508261320f565b602082019050919050565b6000602082019050818103600083015261327481613238565b905091905056fea2646970667358221220df6d103384a704a114446ea9e539530c4ad1b18a6b1fd076c06c72d0c7906f6a64736f6c634300080f0033",
  "linkReferences": {},
  "deployedLinkReferences": {}
}