{
  "contracts/ACDMPlatform.sol": {
    "ACDMPlatform": {
      "abi": [
        {
          "inputs": [
            {
              "internalType": "address",
              "name": "_acdmToken",
              "type": "address"
            },
            {
              "internalType": "address",
              "name": "_xxxToken",
              "type": "address"
            }
          ],
          "stateMutability": "nonpayable",
          "type": "constructor"
        },
        {
          "anonymous": false,
          "inputs": [
            {
              "indexed": false,
              "internalType": "uint256",
              "name": "_id",
              "type": "uint256"
            }
          ],
          "name": "OrderCanceled",
          "type": "event"
        },
        {
          "anonymous": false,
          "inputs": [
            {
              "indexed": false,
              "internalType": "uint256",
              "name": "id",
              "type": "uint256"
            },
            {
              "indexed": false,
              "internalType": "uint256",
              "name": "amount",
              "type": "uint256"
            },
            {
              "indexed": false,
              "internalType": "uint256",
              "name": "price",
              "type": "uint256"
            }
          ],
          "name": "OrderPlaced",
          "type": "event"
        },
        {
          "anonymous": false,
          "inputs": [
            {
              "indexed": false,
              "internalType": "uint256",
              "name": "_id",
              "type": "uint256"
            }
          ],
          "name": "OrderRedeemed",
          "type": "event"
        },
        {
          "anonymous": false,
          "inputs": [
            {
              "indexed": false,
              "internalType": "uint256",
              "name": "_id",
              "type": "uint256"
            },
            {
              "indexed": false,
              "internalType": "uint256",
              "name": "amount",
              "type": "uint256"
            }
          ],
          "name": "OrderUpdated",
          "type": "event"
        },
        {
          "anonymous": false,
          "inputs": [
            {
              "indexed": true,
              "internalType": "bytes32",
              "name": "role",
              "type": "bytes32"
            },
            {
              "indexed": true,
              "internalType": "bytes32",
              "name": "previousAdminRole",
              "type": "bytes32"
            },
            {
              "indexed": true,
              "internalType": "bytes32",
              "name": "newAdminRole",
              "type": "bytes32"
            }
          ],
          "name": "RoleAdminChanged",
          "type": "event"
        },
        {
          "anonymous": false,
          "inputs": [
            {
              "indexed": true,
              "internalType": "bytes32",
              "name": "role",
              "type": "bytes32"
            },
            {
              "indexed": true,
              "internalType": "address",
              "name": "account",
              "type": "address"
            },
            {
              "indexed": true,
              "internalType": "address",
              "name": "sender",
              "type": "address"
            }
          ],
          "name": "RoleGranted",
          "type": "event"
        },
        {
          "anonymous": false,
          "inputs": [
            {
              "indexed": true,
              "internalType": "bytes32",
              "name": "role",
              "type": "bytes32"
            },
            {
              "indexed": true,
              "internalType": "address",
              "name": "account",
              "type": "address"
            },
            {
              "indexed": true,
              "internalType": "address",
              "name": "sender",
              "type": "address"
            }
          ],
          "name": "RoleRevoked",
          "type": "event"
        },
        {
          "inputs": [],
          "name": "DAO",
          "outputs": [
            {
              "internalType": "bytes32",
              "name": "",
              "type": "bytes32"
            }
          ],
          "stateMutability": "view",
          "type": "function"
        },
        {
          "inputs": [],
          "name": "DEFAULT_ADMIN_ROLE",
          "outputs": [
            {
              "internalType": "bytes32",
              "name": "",
              "type": "bytes32"
            }
          ],
          "stateMutability": "view",
          "type": "function"
        },
        {
          "inputs": [],
          "name": "acdmEmission",
          "outputs": [
            {
              "internalType": "uint256",
              "name": "",
              "type": "uint256"
            }
          ],
          "stateMutability": "view",
          "type": "function"
        },
        {
          "inputs": [
            {
              "internalType": "uint256",
              "name": "_amount",
              "type": "uint256"
            },
            {
              "internalType": "uint256",
              "name": "_price",
              "type": "uint256"
            }
          ],
          "name": "addOrder",
          "outputs": [],
          "stateMutability": "nonpayable",
          "type": "function"
        },
        {
          "inputs": [],
          "name": "buyAcdm",
          "outputs": [],
          "stateMutability": "payable",
          "type": "function"
        },
        {
          "inputs": [],
          "name": "byXXXtokensAndBurn",
          "outputs": [],
          "stateMutability": "nonpayable",
          "type": "function"
        },
        {
          "inputs": [
            {
              "internalType": "bytes32",
              "name": "role",
              "type": "bytes32"
            }
          ],
          "name": "getRoleAdmin",
          "outputs": [
            {
              "internalType": "bytes32",
              "name": "",
              "type": "bytes32"
            }
          ],
          "stateMutability": "view",
          "type": "function"
        },
        {
          "inputs": [
            {
              "internalType": "bytes32",
              "name": "role",
              "type": "bytes32"
            },
            {
              "internalType": "address",
              "name": "account",
              "type": "address"
            }
          ],
          "name": "grantRole",
          "outputs": [],
          "stateMutability": "nonpayable",
          "type": "function"
        },
        {
          "inputs": [
            {
              "internalType": "bytes32",
              "name": "role",
              "type": "bytes32"
            },
            {
              "internalType": "address",
              "name": "account",
              "type": "address"
            }
          ],
          "name": "hasRole",
          "outputs": [
            {
              "internalType": "bool",
              "name": "",
              "type": "bool"
            }
          ],
          "stateMutability": "view",
          "type": "function"
        },
        {
          "inputs": [],
          "name": "lastPrice",
          "outputs": [
            {
              "internalType": "uint256",
              "name": "",
              "type": "uint256"
            }
          ],
          "stateMutability": "view",
          "type": "function"
        },
        {
          "inputs": [
            {
              "internalType": "uint256",
              "name": "_id",
              "type": "uint256"
            }
          ],
          "name": "redeemOrder",
          "outputs": [],
          "stateMutability": "payable",
          "type": "function"
        },
        {
          "inputs": [],
          "name": "referralRewardBank",
          "outputs": [
            {
              "internalType": "uint256",
              "name": "",
              "type": "uint256"
            }
          ],
          "stateMutability": "view",
          "type": "function"
        },
        {
          "inputs": [
            {
              "internalType": "address",
              "name": "",
              "type": "address"
            }
          ],
          "name": "refers",
          "outputs": [
            {
              "internalType": "address",
              "name": "",
              "type": "address"
            }
          ],
          "stateMutability": "view",
          "type": "function"
        },
        {
          "inputs": [
            {
              "internalType": "address",
              "name": "_refer",
              "type": "address"
            }
          ],
          "name": "register",
          "outputs": [],
          "stateMutability": "nonpayable",
          "type": "function"
        },
        {
          "inputs": [
            {
              "internalType": "address",
              "name": "",
              "type": "address"
            }
          ],
          "name": "registered",
          "outputs": [
            {
              "internalType": "bool",
              "name": "",
              "type": "bool"
            }
          ],
          "stateMutability": "view",
          "type": "function"
        },
        {
          "inputs": [
            {
              "internalType": "uint256",
              "name": "_id",
              "type": "uint256"
            }
          ],
          "name": "removeOrder",
          "outputs": [],
          "stateMutability": "nonpayable",
          "type": "function"
        },
        {
          "inputs": [
            {
              "internalType": "bytes32",
              "name": "role",
              "type": "bytes32"
            },
            {
              "internalType": "address",
              "name": "account",
              "type": "address"
            }
          ],
          "name": "renounceRole",
          "outputs": [],
          "stateMutability": "nonpayable",
          "type": "function"
        },
        {
          "inputs": [
            {
              "internalType": "bytes32",
              "name": "role",
              "type": "bytes32"
            },
            {
              "internalType": "address",
              "name": "account",
              "type": "address"
            }
          ],
          "name": "revokeRole",
          "outputs": [],
          "stateMutability": "nonpayable",
          "type": "function"
        },
        {
          "inputs": [
            {
              "internalType": "uint256",
              "name": "",
              "type": "uint256"
            }
          ],
          "name": "saleRoundReferRewards",
          "outputs": [
            {
              "internalType": "uint256",
              "name": "",
              "type": "uint256"
            }
          ],
          "stateMutability": "view",
          "type": "function"
        },
        {
          "inputs": [],
          "name": "sendComissionToOwner",
          "outputs": [],
          "stateMutability": "nonpayable",
          "type": "function"
        },
        {
          "inputs": [
            {
              "internalType": "uint256",
              "name": "_newPercent1",
              "type": "uint256"
            },
            {
              "internalType": "uint256",
              "name": "_newPercent2",
              "type": "uint256"
            }
          ],
          "name": "setSaleRoundReferRewards",
          "outputs": [],
          "stateMutability": "nonpayable",
          "type": "function"
        },
        {
          "inputs": [
            {
              "internalType": "uint256",
              "name": "_newPercent1",
              "type": "uint256"
            },
            {
              "internalType": "uint256",
              "name": "_newPercent2",
              "type": "uint256"
            }
          ],
          "name": "setTradeRoundReferRewards",
          "outputs": [],
          "stateMutability": "nonpayable",
          "type": "function"
        },
        {
          "inputs": [],
          "name": "startPlatform",
          "outputs": [],
          "stateMutability": "nonpayable",
          "type": "function"
        },
        {
          "inputs": [],
          "name": "startSaleRound",
          "outputs": [],
          "stateMutability": "nonpayable",
          "type": "function"
        },
        {
          "inputs": [],
          "name": "startTradeRound",
          "outputs": [],
          "stateMutability": "nonpayable",
          "type": "function"
        },
        {
          "inputs": [],
          "name": "status",
          "outputs": [
            {
              "internalType": "enum ACDMPlatform.PlatformStatus",
              "name": "",
              "type": "uint8"
            }
          ],
          "stateMutability": "view",
          "type": "function"
        },
        {
          "inputs": [
            {
              "internalType": "bytes4",
              "name": "interfaceId",
              "type": "bytes4"
            }
          ],
          "name": "supportsInterface",
          "outputs": [
            {
              "internalType": "bool",
              "name": "",
              "type": "bool"
            }
          ],
          "stateMutability": "view",
          "type": "function"
        },
        {
          "inputs": [
            {
              "internalType": "uint256",
              "name": "",
              "type": "uint256"
            }
          ],
          "name": "tradeRoundReferRewards",
          "outputs": [
            {
              "internalType": "uint256",
              "name": "",
              "type": "uint256"
            }
          ],
          "stateMutability": "view",
          "type": "function"
        },
        {
          "inputs": [],
          "name": "tradeRoundVolume",
          "outputs": [
            {
              "internalType": "uint256",
              "name": "",
              "type": "uint256"
            }
          ],
          "stateMutability": "view",
          "type": "function"
        },
        {
          "inputs": [
            {
              "internalType": "address payable",
              "name": "_to",
              "type": "address"
            }
          ],
          "name": "withdraw",
          "outputs": [],
          "stateMutability": "nonpayable",
          "type": "function"
        }
      ],
      "devdoc": {
        "kind": "dev",
        "methods": {
          "addOrder(uint256,uint256)": {
            "params": {
              "_amount": "of tokens in denomination",
              "_price": "of all tokens in wei"
            }
          },
          "getRoleAdmin(bytes32)": {
            "details": "Returns the admin role that controls `role`. See {grantRole} and {revokeRole}. To change a role's admin, use {_setRoleAdmin}."
          },
          "grantRole(bytes32,address)": {
            "details": "Grants `role` to `account`. If `account` had not been already granted `role`, emits a {RoleGranted} event. Requirements: - the caller must have ``role``'s admin role. May emit a {RoleGranted} event."
          },
          "hasRole(bytes32,address)": {
            "details": "Returns `true` if `account` has been granted `role`."
          },
          "renounceRole(bytes32,address)": {
            "details": "Revokes `role` from the calling account. Roles are often managed via {grantRole} and {revokeRole}: this function's purpose is to provide a mechanism for accounts to lose their privileges if they are compromised (such as when a trusted device is misplaced). If the calling account had been revoked `role`, emits a {RoleRevoked} event. Requirements: - the caller must be `account`. May emit a {RoleRevoked} event."
          },
          "revokeRole(bytes32,address)": {
            "details": "Revokes `role` from `account`. If `account` had been granted `role`, emits a {RoleRevoked} event. Requirements: - the caller must have ``role``'s admin role. May emit a {RoleRevoked} event."
          },
          "supportsInterface(bytes4)": {
            "details": "See {IERC165-supportsInterface}."
          }
        },
        "version": 1
      },
      "evm": {
        "bytecode": {
          "linkReferences": {},
          "object": "6080604052737a250d5630b4cf539739df2c5dacb4c659f2488d600260006101000a81548173ffffffffffffffffffffffffffffffffffffffff021916908373ffffffffffffffffffffffffffffffffffffffff1602179055506040518060400160405280603260ff168152602001601e60ff1681525060059060026200008892919062000393565b506040518060400160405280601960ff168152602001601960ff168152506007906002620000b892919062000393565b5060506009556032600a556203f480600c55670de0b6b3a7640000600d556509184e72a000600e5562989680600f5564174876e800601055348015620000fd57600080fd5b506040516200446038038062004460833981810160405281019062000123919062000466565b81600360006101000a81548173ffffffffffffffffffffffffffffffffffffffff021916908373ffffffffffffffffffffffffffffffffffffffff16021790555080600460006101000a81548173ffffffffffffffffffffffffffffffffffffffff021916908373ffffffffffffffffffffffffffffffffffffffff160217905550620001ba6000801b336200021a60201b60201c565b6001601660003373ffffffffffffffffffffffffffffffffffffffff1673ffffffffffffffffffffffffffffffffffffffff16815260200190815260200160002060006101000a81548160ff0219169083151502179055505050620004ad565b6200022c82826200023060201b60201c565b5050565b6200024282826200032160201b60201c565b6200031d57600160008084815260200190815260200160002060000160008373ffffffffffffffffffffffffffffffffffffffff1673ffffffffffffffffffffffffffffffffffffffff16815260200190815260200160002060006101000a81548160ff021916908315150217905550620002c26200038b60201b60201c565b73ffffffffffffffffffffffffffffffffffffffff168173ffffffffffffffffffffffffffffffffffffffff16837f2f8788117e7eff1d82e926ec794901d17c78024a50270940304540a733656f0d60405160405180910390a45b5050565b600080600084815260200190815260200160002060000160008373ffffffffffffffffffffffffffffffffffffffff1673ffffffffffffffffffffffffffffffffffffffff16815260200190815260200160002060009054906101000a900460ff16905092915050565b600033905090565b8260028101928215620003ca579160200282015b82811115620003c9578251829060ff16905591602001919060010190620003a7565b5b509050620003d99190620003dd565b5090565b5b80821115620003f8576000816000905550600101620003de565b5090565b600080fd5b600073ffffffffffffffffffffffffffffffffffffffff82169050919050565b60006200042e8262000401565b9050919050565b620004408162000421565b81146200044c57600080fd5b50565b600081519050620004608162000435565b92915050565b6000806040838503121562000480576200047f620003fc565b5b600062000490858286016200044f565b9250506020620004a3858286016200044f565b9150509250929050565b613fa380620004bd6000396000f3fe6080604052600436106101cd5760003560e01c80634a58ca0e116100f7578063a217fddf11610095578063d547741f11610064578063d547741f1461060e578063dcf566c514610637578063f0a063e51461064e578063f28db6c41461068b576101cd565b8063a217fddf14610564578063b2dd5c071461058f578063b59bfa03146105cc578063c76beb90146105e3576101cd565b80638292afd9116100d15780638292afd91461049657806391d14854146104d35780639645337a1461051057806398fabd3a14610539576101cd565b80634a58ca0e1461042657806351cff8d9146104425780637df0b17e1461046b576101cd565b8063248a9ca31161016f57806336568abe1161013e57806336568abe1461036e5780633eed6af5146103975780634420e486146103c057806346935bf3146103e9576101cd565b8063248a9ca3146102c85780632c2dfe04146103055780632f2ff15d1461031c5780633430071114610345576101cd565b806305dcb3a4116101ab57806305dcb3a4146102515780630cfd77f61461027c5780631f2e7c2214610286578063200d2ed21461029d576101cd565b806301ffc9a7146101d25780630462fc8e1461020f578063053f14da14610226575b600080fd5b3480156101de57600080fd5b506101f960048036038101906101f49190612b07565b6106b4565b6040516102069190612b4f565b60405180910390f35b34801561021b57600080fd5b5061022461072e565b005b34801561023257600080fd5b5061023b6108d9565b6040516102489190612b83565b60405180910390f35b34801561025d57600080fd5b506102666108df565b6040516102739190612b83565b60405180910390f35b6102846108e5565b005b34801561029257600080fd5b5061029b610aac565b005b3480156102a957600080fd5b506102b2610bf3565b6040516102bf9190612c15565b60405180910390f35b3480156102d457600080fd5b506102ef60048036038101906102ea9190612c66565b610c06565b6040516102fc9190612ca2565b60405180910390f35b34801561031157600080fd5b5061031a610c25565b005b34801561032857600080fd5b50610343600480360381019061033e9190612d1b565b610fe1565b005b34801561035157600080fd5b5061036c60048036038101906103679190612d87565b611002565b005b34801561037a57600080fd5b5061039560048036038101906103909190612d1b565b611079565b005b3480156103a357600080fd5b506103be60048036038101906103b99190612d87565b6110fc565b005b3480156103cc57600080fd5b506103e760048036038101906103e29190612dc7565b611173565b005b3480156103f557600080fd5b50610410600480360381019061040b9190612df4565b6112d8565b60405161041d9190612b83565b60405180910390f35b610440600480360381019061043b9190612df4565b6112f3565b005b34801561044e57600080fd5b5061046960048036038101906104649190612e5f565b611753565b005b34801561047757600080fd5b506104806117be565b60405161048d9190612b83565b60405180910390f35b3480156104a257600080fd5b506104bd60048036038101906104b89190612dc7565b6117c4565b6040516104ca9190612e9b565b60405180910390f35b3480156104df57600080fd5b506104fa60048036038101906104f59190612d1b565b6117f7565b6040516105079190612b4f565b60405180910390f35b34801561051c57600080fd5b5061053760048036038101906105329190612df4565b611861565b005b34801561054557600080fd5b5061054e611b2b565b60405161055b9190612ca2565b60405180910390f35b34801561057057600080fd5b50610579611b4f565b6040516105869190612ca2565b60405180910390f35b34801561059b57600080fd5b506105b660048036038101906105b19190612dc7565b611b56565b6040516105c39190612b4f565b60405180910390f35b3480156105d857600080fd5b506105e1611b76565b005b3480156105ef57600080fd5b506105f8611d1f565b6040516106059190612b83565b60405180910390f35b34801561061a57600080fd5b5061063560048036038101906106309190612d1b565b611d25565b005b34801561064357600080fd5b5061064c611d46565b005b34801561065a57600080fd5b5061067560048036038101906106709190612df4565b611dc4565b6040516106829190612b83565b60405180910390f35b34801561069757600080fd5b506106b260048036038101906106ad9190612d87565b611ddf565b005b60007f7965db0b000000000000000000000000000000000000000000000000000000007bffffffffffffffffffffffffffffffffffffffffffffffffffffffff1916827bffffffffffffffffffffffffffffffffffffffffffffffffffffffff1916148061072757506107268261208d565b5b9050919050565b6001600281111561074257610741612b9e565b5b601460009054906101000a900460ff16600281111561076457610763612b9e565b5b146107a4576040517f08c379a000000000000000000000000000000000000000000000000000000000815260040161079b90612f13565b60405180910390fd5b426203f4806011546107b69190612f62565b11158061085e57506000600360009054906101000a900473ffffffffffffffffffffffffffffffffffffffff1673ffffffffffffffffffffffffffffffffffffffff166370a08231306040518263ffffffff1660e01b815260040161081b9190612e9b565b602060405180830381865afa158015610838573d6000803e3d6000fd5b505050506040513d601f19601f8201168201806040525081019061085c9190612fcd565b145b61089d576040517f08c379a000000000000000000000000000000000000000000000000000000000815260040161089490613046565b60405180910390fd5b6000600d81905550426011819055506002601460006101000a81548160ff021916908360028111156108d2576108d1612b9e565b5b0217905550565b600e5481565b600d5481565b600160028111156108f9576108f8612b9e565b5b601460009054906101000a900460ff16600281111561091b5761091a612b9e565b5b1461095b576040517f08c379a000000000000000000000000000000000000000000000000000000000815260040161095290612f13565b60405180910390fd5b426203f48060115461096d9190612f62565b10156109ae576040517f08c379a00000000000000000000000000000000000000000000000000000000081526004016109a5906130b2565b60405180910390fd5b600f5434116109f2576040517f08c379a00000000000000000000000000000000000000000000000000000000081526004016109e99061311e565b60405180910390fd5b600360009054906101000a900473ffffffffffffffffffffffffffffffffffffffff1673ffffffffffffffffffffffffffffffffffffffff1663a9059cbb33600f5434610a3f919061316d565b6040518363ffffffff1660e01b8152600401610a5c92919061319e565b6020604051808303816000875af1158015610a7b573d6000803e3d6000fd5b505050506040513d601f19601f82011682018060405250810190610a9f91906131f3565b50610aaa33346120f7565b565b6000801b610ab9816122e9565b60006002811115610acd57610acc612b9e565b5b601460009054906101000a900460ff166002811115610aef57610aee612b9e565b5b14610b2f576040517f08c379a0000000000000000000000000000000000000000000000000000000008152600401610b269061326c565b60405180910390fd5b42601181905550600360009054906101000a900473ffffffffffffffffffffffffffffffffffffffff1673ffffffffffffffffffffffffffffffffffffffff1663a0712d686010546040518263ffffffff1660e01b8152600401610b939190612b83565b600060405180830381600087803b158015610bad57600080fd5b505af1158015610bc1573d6000803e3d6000fd5b505050506001601460006101000a81548160ff02191690836002811115610beb57610bea612b9e565b5b021790555050565b601460009054906101000a900460ff1681565b6000806000838152602001908152602001600020600101549050919050565b7fd0a4ad96d49edb1c33461cebc6fb2609190f32c904e3c3f5877edb4488dee91e610c4f816122e9565b6000600267ffffffffffffffff811115610c6c57610c6b61328c565b5b604051908082528060200260200182016040528015610c9a5781602001602082028036833780820191505090505b509050600260009054906101000a900473ffffffffffffffffffffffffffffffffffffffff1673ffffffffffffffffffffffffffffffffffffffff1663ad5c46486040518163ffffffff1660e01b8152600401602060405180830381865afa158015610d0a573d6000803e3d6000fd5b505050506040513d601f19601f82011682018060405250810190610d2e91906132d0565b81600081518110610d4257610d416132fd565b5b602002602001019073ffffffffffffffffffffffffffffffffffffffff16908173ffffffffffffffffffffffffffffffffffffffff1681525050600460009054906101000a900473ffffffffffffffffffffffffffffffffffffffff1681600181518110610db357610db26132fd565b5b602002602001019073ffffffffffffffffffffffffffffffffffffffff16908173ffffffffffffffffffffffffffffffffffffffff1681525050600260009054906101000a900473ffffffffffffffffffffffffffffffffffffffff1673ffffffffffffffffffffffffffffffffffffffff16637ff36ab5600b5460018430606442610e3f9190612f62565b6040518663ffffffff1660e01b8152600401610e5e949392919061342f565b60006040518083038185885af1158015610e7c573d6000803e3d6000fd5b50505050506040513d6000823e3d601f19601f82011682018060405250810190610ea691906135a5565b506000600b819055506000600460009054906101000a900473ffffffffffffffffffffffffffffffffffffffff1673ffffffffffffffffffffffffffffffffffffffff166370a08231306040518263ffffffff1660e01b8152600401610f0c9190612e9b565b602060405180830381865afa158015610f29573d6000803e3d6000fd5b505050506040513d601f19601f82011682018060405250810190610f4d9190612fcd565b9050600460009054906101000a900473ffffffffffffffffffffffffffffffffffffffff1673ffffffffffffffffffffffffffffffffffffffff166342966c68826040518263ffffffff1660e01b8152600401610faa9190612b83565b600060405180830381600087803b158015610fc457600080fd5b505af1158015610fd8573d6000803e3d6000fd5b50505050505050565b610fea82610c06565b610ff3816122e9565b610ffd83836122fd565b505050565b7fd0a4ad96d49edb1c33461cebc6fb2609190f32c904e3c3f5877edb4488dee91e61102c816122e9565b826005600060028110611042576110416132fd565b5b018190555081600560016002811061105d5761105c6132fd565b5b0181905550818361106e9190612f62565b600981905550505050565b6110816123dd565b73ffffffffffffffffffffffffffffffffffffffff168173ffffffffffffffffffffffffffffffffffffffff16146110ee576040517f08c379a00000000000000000000000000000000000000000000000000000000081526004016110e590613660565b60405180910390fd5b6110f882826123e5565b5050565b7fd0a4ad96d49edb1c33461cebc6fb2609190f32c904e3c3f5877edb4488dee91e611126816122e9565b82600760006002811061113c5761113b6132fd565b5b0181905550816007600160028110611157576111566132fd565b5b018190555081836111689190612f62565b600a81905550505050565b601660008273ffffffffffffffffffffffffffffffffffffffff1673ffffffffffffffffffffffffffffffffffffffff16815260200190815260200160002060009054906101000a900460ff166111ff576040517f08c379a00000000000000000000000000000000000000000000000000000000081526004016111f6906136cc565b60405180910390fd5b6001601660003373ffffffffffffffffffffffffffffffffffffffff1673ffffffffffffffffffffffffffffffffffffffff16815260200190815260200160002060006101000a81548160ff02191690831515021790555080601560003373ffffffffffffffffffffffffffffffffffffffff1673ffffffffffffffffffffffffffffffffffffffff16815260200190815260200160002060006101000a81548173ffffffffffffffffffffffffffffffffffffffff021916908373ffffffffffffffffffffffffffffffffffffffff16021790555050565b600781600281106112e857600080fd5b016000915090505481565b60028081111561130657611305612b9e565b5b601460009054906101000a900460ff16600281111561132857611327612b9e565b5b14611368576040517f08c379a000000000000000000000000000000000000000000000000000000000815260040161135f90613738565b60405180910390fd5b61137260016124c6565b8111156113b4576040517f08c379a00000000000000000000000000000000000000000000000000000000081526004016113ab906137a4565b60405180910390fd5b426203f4806011546113c69190612f62565b1015611407576040517f08c379a00000000000000000000000000000000000000000000000000000000081526004016113fe90613810565b60405180910390fd5b60006013600083815260200190815260200160002090506000600281111561143257611431612b9e565b5b8160000160009054906101000a900460ff16600281111561145657611455612b9e565b5b14611496576040517f08c379a000000000000000000000000000000000000000000000000000000000815260040161148d9061387c565b60405180910390fd5b80600201543411156114dd576040517f08c379a00000000000000000000000000000000000000000000000000000000081526004016114d4906138e8565b60405180910390fd5b6000816001015482600201546114f3919061316d565b905060008134611503919061316d565b9050600360009054906101000a900473ffffffffffffffffffffffffffffffffffffffff1673ffffffffffffffffffffffffffffffffffffffff1663a9059cbb33836040518363ffffffff1660e01b815260040161156292919061319e565b6020604051808303816000875af1158015611581573d6000803e3d6000fd5b505050506040513d601f19601f820116820180604052508101906115a591906131f3565b50808360010160008282546115ba9190613908565b9250508190555060008360010154036116365760018360000160006101000a81548160ff021916908360028111156115f5576115f4612b9e565b5b02179055507f18eeb09af8466f749c2eeee3bd8fd12376e14ec2e53840f4fd3d3fc19492acfc846040516116299190612b83565b60405180910390a1611674565b7f8e73a807b83fde44e6e12224a9b4fade736ffe96ab8d511abd64e9a1b4e8c0ca84846001015460405161166b92919061393c565b60405180910390a15b34600d60008282546116869190612f62565b925050819055508260000160019054906101000a900473ffffffffffffffffffffffffffffffffffffffff1673ffffffffffffffffffffffffffffffffffffffff166108fc6103e8600a546103e86116de9190613908565b346116e99190613965565b6116f3919061316d565b9081150290604051600060405180830381858888f1935050505015801561171e573d6000803e3d6000fd5b5061174d8360000160019054906101000a900473ffffffffffffffffffffffffffffffffffffffff16346124d4565b50505050565b6000801b611760816122e9565b6000600b54476117709190613908565b90508273ffffffffffffffffffffffffffffffffffffffff166108fc829081150290604051600060405180830381858888f193505050501580156117b8573d6000803e3d6000fd5b50505050565b60105481565b60156020528060005260406000206000915054906101000a900473ffffffffffffffffffffffffffffffffffffffff1681565b600080600084815260200190815260200160002060000160008373ffffffffffffffffffffffffffffffffffffffff1673ffffffffffffffffffffffffffffffffffffffff16815260200190815260200160002060009054906101000a900460ff16905092915050565b60028081111561187457611873612b9e565b5b601460009054906101000a900460ff16600281111561189657611895612b9e565b5b146118d6576040517f08c379a00000000000000000000000000000000000000000000000000000000081526004016118cd90613738565b60405180910390fd5b6118e060016124c6565b811115611922576040517f08c379a0000000000000000000000000000000000000000000000000000000008152600401611919906137a4565b60405180910390fd5b426203f4806011546119349190612f62565b1015611975576040517f08c379a000000000000000000000000000000000000000000000000000000000815260040161196c90613810565b60405180910390fd5b60006013600083815260200190815260200160002090503373ffffffffffffffffffffffffffffffffffffffff168160000160019054906101000a900473ffffffffffffffffffffffffffffffffffffffff1673ffffffffffffffffffffffffffffffffffffffff1614611a1e576040517f08c379a0000000000000000000000000000000000000000000000000000000008152600401611a1590613a0b565b60405180910390fd5b60028160000160006101000a81548160ff02191690836002811115611a4657611a45612b9e565b5b0217905550600360009054906101000a900473ffffffffffffffffffffffffffffffffffffffff1673ffffffffffffffffffffffffffffffffffffffff1663a9059cbb3383600101546040518363ffffffff1660e01b8152600401611aac92919061319e565b6020604051808303816000875af1158015611acb573d6000803e3d6000fd5b505050506040513d601f19601f82011682018060405250810190611aef91906131f3565b507fc41f4ceb2938876c35e61b705e9d2f18a02c4a26ce5e049a6308a943d46851b382604051611b1f9190612b83565b60405180910390a15050565b7fd0a4ad96d49edb1c33461cebc6fb2609190f32c904e3c3f5877edb4488dee91e81565b6000801b81565b60166020528060005260406000206000915054906101000a900460ff1681565b600280811115611b8957611b88612b9e565b5b601460009054906101000a900460ff166002811115611bab57611baa612b9e565b5b14611beb576040517f08c379a0000000000000000000000000000000000000000000000000000000008152600401611be290613738565b60405180910390fd5b426203f480601154611bfd9190612f62565b1115611c3e576040517f08c379a0000000000000000000000000000000000000000000000000000000008152600401611c3590613a77565b60405180910390fd5b611c466126c6565b600f54600d54611c56919061316d565b601081905550600360009054906101000a900473ffffffffffffffffffffffffffffffffffffffff1673ffffffffffffffffffffffffffffffffffffffff1663a0712d686010546040518263ffffffff1660e01b8152600401611cb99190612b83565b600060405180830381600087803b158015611cd357600080fd5b505af1158015611ce7573d6000803e3d6000fd5b50505050426011819055506001601460006101000a81548160ff02191690836002811115611d1857611d17612b9e565b5b0217905550565b600b5481565b611d2e82610c06565b611d37816122e9565b611d4183836123e5565b505050565b7fd0a4ad96d49edb1c33461cebc6fb2609190f32c904e3c3f5877edb4488dee91e611d70816122e9565b3373ffffffffffffffffffffffffffffffffffffffff166108fc600b549081150290604051600060405180830381858888f19350505050158015611db8573d6000803e3d6000fd5b506000600b8190555050565b60058160028110611dd457600080fd5b016000915090505481565b600280811115611df257611df1612b9e565b5b601460009054906101000a900460ff166002811115611e1457611e13612b9e565b5b14611e54576040517f08c379a0000000000000000000000000000000000000000000000000000000008152600401611e4b90613738565b60405180910390fd5b426203f480601154611e669190612f62565b1015611ea7576040517f08c379a0000000000000000000000000000000000000000000000000000000008152600401611e9e90613810565b60405180910390fd5b600360009054906101000a900473ffffffffffffffffffffffffffffffffffffffff1673ffffffffffffffffffffffffffffffffffffffff166323b872dd3330856040518463ffffffff1660e01b8152600401611f0693929190613a97565b6020604051808303816000875af1158015611f25573d6000803e3d6000fd5b505050506040513d601f19601f82011682018060405250810190611f4991906131f3565b506000611f5660016124c6565b9050604051806080016040528060006002811115611f7757611f76612b9e565b5b81526020013373ffffffffffffffffffffffffffffffffffffffff168152602001848152602001838152506013600083815260200190815260200160002060008201518160000160006101000a81548160ff02191690836002811115611fe057611fdf612b9e565b5b021790555060208201518160000160016101000a81548173ffffffffffffffffffffffffffffffffffffffff021916908373ffffffffffffffffffffffffffffffffffffffff16021790555060408201518160010155606082015181600201559050507f4e3753386201ff4fa2fe7c9a2bdce7cea2028030bb57c7596e089ec9aa5feadb81848460405161207693929190613ace565b60405180910390a161208860016127ac565b505050565b60007f01ffc9a7000000000000000000000000000000000000000000000000000000007bffffffffffffffffffffffffffffffffffffffffffffffffffffffff1916827bffffffffffffffffffffffffffffffffffffffffffffffffffffffff1916149050919050565b6000601560008473ffffffffffffffffffffffffffffffffffffffff1673ffffffffffffffffffffffffffffffffffffffff16815260200190815260200160002060009054906101000a900473ffffffffffffffffffffffffffffffffffffffff16905060005b60028110156122e35760006103e8600583600281106121805761217f6132fd565b5b01548561218d9190613965565b612197919061316d565b90508473ffffffffffffffffffffffffffffffffffffffff168373ffffffffffffffffffffffffffffffffffffffff16141580156122025750600073ffffffffffffffffffffffffffffffffffffffff168373ffffffffffffffffffffffffffffffffffffffff1614155b15612253578273ffffffffffffffffffffffffffffffffffffffff166108fc829081150290604051600060405180830381858888f1935050505015801561224d573d6000803e3d6000fd5b5061226d565b80600b60008282546122659190612f62565b925050819055505b601560008473ffffffffffffffffffffffffffffffffffffffff1673ffffffffffffffffffffffffffffffffffffffff16815260200190815260200160002060009054906101000a900473ffffffffffffffffffffffffffffffffffffffff1692505080806122db90613b05565b91505061215e565b50505050565b6122fa816122f56123dd565b6127c2565b50565b61230782826117f7565b6123d957600160008084815260200190815260200160002060000160008373ffffffffffffffffffffffffffffffffffffffff1673ffffffffffffffffffffffffffffffffffffffff16815260200190815260200160002060006101000a81548160ff02191690831515021790555061237e6123dd565b73ffffffffffffffffffffffffffffffffffffffff168173ffffffffffffffffffffffffffffffffffffffff16837f2f8788117e7eff1d82e926ec794901d17c78024a50270940304540a733656f0d60405160405180910390a45b5050565b600033905090565b6123ef82826117f7565b156124c257600080600084815260200190815260200160002060000160008373ffffffffffffffffffffffffffffffffffffffff1673ffffffffffffffffffffffffffffffffffffffff16815260200190815260200160002060006101000a81548160ff0219169083151502179055506124676123dd565b73ffffffffffffffffffffffffffffffffffffffff168173ffffffffffffffffffffffffffffffffffffffff16837ff6391f5c32d9c69d2a47ea670b442974b53935d1edc7fd64eb21e047a839171b60405160405180910390a45b5050565b600081600001549050919050565b6000601560008473ffffffffffffffffffffffffffffffffffffffff1673ffffffffffffffffffffffffffffffffffffffff16815260200190815260200160002060009054906101000a900473ffffffffffffffffffffffffffffffffffffffff16905060005b60028110156126c05760006103e86007836002811061255d5761255c6132fd565b5b01548561256a9190613965565b612574919061316d565b90508473ffffffffffffffffffffffffffffffffffffffff168373ffffffffffffffffffffffffffffffffffffffff16141580156125df5750600073ffffffffffffffffffffffffffffffffffffffff168373ffffffffffffffffffffffffffffffffffffffff1614155b15612630578273ffffffffffffffffffffffffffffffffffffffff166108fc829081150290604051600060405180830381858888f1935050505015801561262a573d6000803e3d6000fd5b5061264a565b80600b60008282546126429190612f62565b925050819055505b601560008473ffffffffffffffffffffffffffffffffffffffff1673ffffffffffffffffffffffffffffffffffffffff16815260200190815260200160002060009054906101000a900473ffffffffffffffffffffffffffffffffffffffff1692505080806126b890613b05565b91505061253b565b50505050565b6503a35294400060646067600e546126de9190613965565b6126e8919061316d565b6126f29190612f62565b600e81905550600360009054906101000a900473ffffffffffffffffffffffffffffffffffffffff1673ffffffffffffffffffffffffffffffffffffffff1663313ce5676040518163ffffffff1660e01b81526004016020604051808303816000875af1158015612767573d6000803e3d6000fd5b505050506040513d601f19601f8201168201806040525081019061278b9190613b86565b600a6127979190613ce6565b600e546127a4919061316d565b600f81905550565b6001816000016000828254019250508190555050565b6127cc82826117f7565b61285b576127f18173ffffffffffffffffffffffffffffffffffffffff16601461285f565b6127ff8360001c602061285f565b604051602001612810929190613e43565b6040516020818303038152906040526040517f08c379a00000000000000000000000000000000000000000000000000000000081526004016128529190613eb6565b60405180910390fd5b5050565b6060600060028360026128729190613965565b61287c9190612f62565b67ffffffffffffffff8111156128955761289461328c565b5b6040519080825280601f01601f1916602001820160405280156128c75781602001600182028036833780820191505090505b5090507f3000000000000000000000000000000000000000000000000000000000000000816000815181106128ff576128fe6132fd565b5b60200101907effffffffffffffffffffffffffffffffffffffffffffffffffffffffffffff1916908160001a9053507f780000000000000000000000000000000000000000000000000000000000000081600181518110612963576129626132fd565b5b60200101907effffffffffffffffffffffffffffffffffffffffffffffffffffffffffffff1916908160001a905350600060018460026129a39190613965565b6129ad9190612f62565b90505b6001811115612a4d577f3031323334353637383961626364656600000000000000000000000000000000600f8616601081106129ef576129ee6132fd565b5b1a60f81b828281518110612a0657612a056132fd565b5b60200101907effffffffffffffffffffffffffffffffffffffffffffffffffffffffffffff1916908160001a905350600485901c945080612a4690613ed8565b90506129b0565b5060008414612a91576040517f08c379a0000000000000000000000000000000000000000000000000000000008152600401612a8890613f4d565b60405180910390fd5b8091505092915050565b6000604051905090565b600080fd5b600080fd5b60007fffffffff0000000000000000000000000000000000000000000000000000000082169050919050565b612ae481612aaf565b8114612aef57600080fd5b50565b600081359050612b0181612adb565b92915050565b600060208284031215612b1d57612b1c612aa5565b5b6000612b2b84828501612af2565b91505092915050565b60008115159050919050565b612b4981612b34565b82525050565b6000602082019050612b646000830184612b40565b92915050565b6000819050919050565b612b7d81612b6a565b82525050565b6000602082019050612b986000830184612b74565b92915050565b7f4e487b7100000000000000000000000000000000000000000000000000000000600052602160045260246000fd5b60038110612bde57612bdd612b9e565b5b50565b6000819050612bef82612bcd565b919050565b6000612bff82612be1565b9050919050565b612c0f81612bf4565b82525050565b6000602082019050612c2a6000830184612c06565b92915050565b6000819050919050565b612c4381612c30565b8114612c4e57600080fd5b50565b600081359050612c6081612c3a565b92915050565b600060208284031215612c7c57612c7b612aa5565b5b6000612c8a84828501612c51565b91505092915050565b612c9c81612c30565b82525050565b6000602082019050612cb76000830184612c93565b92915050565b600073ffffffffffffffffffffffffffffffffffffffff82169050919050565b6000612ce882612cbd565b9050919050565b612cf881612cdd565b8114612d0357600080fd5b50565b600081359050612d1581612cef565b92915050565b60008060408385031215612d3257612d31612aa5565b5b6000612d4085828601612c51565b9250506020612d5185828601612d06565b9150509250929050565b612d6481612b6a565b8114612d6f57600080fd5b50565b600081359050612d8181612d5b565b92915050565b60008060408385031215612d9e57612d9d612aa5565b5b6000612dac85828601612d72565b9250506020612dbd85828601612d72565b9150509250929050565b600060208284031215612ddd57612ddc612aa5565b5b6000612deb84828501612d06565b91505092915050565b600060208284031215612e0a57612e09612aa5565b5b6000612e1884828501612d72565b91505092915050565b6000612e2c82612cbd565b9050919050565b612e3c81612e21565b8114612e4757600080fd5b50565b600081359050612e5981612e33565b92915050565b600060208284031215612e7557612e74612aa5565b5b6000612e8384828501612e4a565b91505092915050565b612e9581612cdd565b82525050565b6000602082019050612eb06000830184612e8c565b92915050565b600082825260208201905092915050565b7f4e6f742073616c6520726f756e64000000000000000000000000000000000000600082015250565b6000612efd600e83612eb6565b9150612f0882612ec7565b602082019050919050565b60006020820190508181036000830152612f2c81612ef0565b9050919050565b7f4e487b7100000000000000000000000000000000000000000000000000000000600052601160045260246000fd5b6000612f6d82612b6a565b9150612f7883612b6a565b9250827fffffffffffffffffffffffffffffffffffffffffffffffffffffffffffffffff03821115612fad57612fac612f33565b5b828201905092915050565b600081519050612fc781612d5b565b92915050565b600060208284031215612fe357612fe2612aa5565b5b6000612ff184828501612fb8565b91505092915050565b7f53616c6520726f756e64206973206e6f74206f76657220796574000000000000600082015250565b6000613030601a83612eb6565b915061303b82612ffa565b602082019050919050565b6000602082019050818103600083015261305f81613023565b9050919050565b7f53616c6520726f756e642074696d652065787069726564000000000000000000600082015250565b600061309c601783612eb6565b91506130a782613066565b602082019050919050565b600060208201905081810360008301526130cb8161308f565b9050919050565b7f4e6f7420656e6f75676820657468657220746f2062757920746f6b656e000000600082015250565b6000613108601d83612eb6565b9150613113826130d2565b602082019050919050565b60006020820190508181036000830152613137816130fb565b9050919050565b7f4e487b7100000000000000000000000000000000000000000000000000000000600052601260045260246000fd5b600061317882612b6a565b915061318383612b6a565b9250826131935761319261313e565b5b828204905092915050565b60006040820190506131b36000830185612e8c565b6131c06020830184612b74565b9392505050565b6131d081612b34565b81146131db57600080fd5b50565b6000815190506131ed816131c7565b92915050565b60006020828403121561320957613208612aa5565b5b6000613217848285016131de565b91505092915050565b7f416c726561647920737461727465640000000000000000000000000000000000600082015250565b6000613256600f83612eb6565b915061326182613220565b602082019050919050565b6000602082019050818103600083015261328581613249565b9050919050565b7f4e487b7100000000000000000000000000000000000000000000000000000000600052604160045260246000fd5b6000815190506132ca81612cef565b92915050565b6000602082840312156132e6576132e5612aa5565b5b60006132f4848285016132bb565b91505092915050565b7f4e487b7100000000000000000000000000000000000000000000000000000000600052603260045260246000fd5b6000819050919050565b6000819050919050565b600061335b6133566133518461332c565b613336565b612b6a565b9050919050565b61336b81613340565b82525050565b600081519050919050565b600082825260208201905092915050565b6000819050602082019050919050565b6133a681612cdd565b82525050565b60006133b8838361339d565b60208301905092915050565b6000602082019050919050565b60006133dc82613371565b6133e6818561337c565b93506133f18361338d565b8060005b8381101561342257815161340988826133ac565b9750613414836133c4565b9250506001810190506133f5565b5085935050505092915050565b60006080820190506134446000830187613362565b818103602083015261345681866133d1565b90506134656040830185612e8c565b6134726060830184612b74565b95945050505050565b600080fd5b6000601f19601f8301169050919050565b61349a82613480565b810181811067ffffffffffffffff821117156134b9576134b861328c565b5b80604052505050565b60006134cc612a9b565b90506134d88282613491565b919050565b600067ffffffffffffffff8211156134f8576134f761328c565b5b602082029050602081019050919050565b600080fd5b600061352161351c846134dd565b6134c2565b9050808382526020820190506020840283018581111561354457613543613509565b5b835b8181101561356d57806135598882612fb8565b845260208401935050602081019050613546565b5050509392505050565b600082601f83011261358c5761358b61347b565b5b815161359c84826020860161350e565b91505092915050565b6000602082840312156135bb576135ba612aa5565b5b600082015167ffffffffffffffff8111156135d9576135d8612aaa565b5b6135e584828501613577565b91505092915050565b7f416363657373436f6e74726f6c3a2063616e206f6e6c792072656e6f756e636560008201527f20726f6c657320666f722073656c660000000000000000000000000000000000602082015250565b600061364a602f83612eb6565b9150613655826135ee565b604082019050919050565b600060208201905081810360008301526136798161363d565b9050919050565b7f526566666572206e6f7420726567697374657265640000000000000000000000600082015250565b60006136b6601583612eb6565b91506136c182613680565b602082019050919050565b600060208201905081810360008301526136e5816136a9565b9050919050565b7f4e6f7420747261646520726f756e640000000000000000000000000000000000600082015250565b6000613722600f83612eb6565b915061372d826136ec565b602082019050919050565b6000602082019050818103600083015261375181613715565b9050919050565b7f496e76616c6964206f7264657220696400000000000000000000000000000000600082015250565b600061378e601083612eb6565b915061379982613758565b602082019050919050565b600060208201905081810360008301526137bd81613781565b9050919050565b7f547261646520726f756e642074696d65206973206f7665720000000000000000600082015250565b60006137fa601883612eb6565b9150613805826137c4565b602082019050919050565b60006020820190508181036000830152613829816137ed565b9050919050565b7f4f72646572206578656375746564000000000000000000000000000000000000600082015250565b6000613866600e83612eb6565b915061387182613830565b602082019050919050565b6000602082019050818103600083015261389581613859565b9050919050565b7f4e6f7420656e6f75676820746f6b656e73000000000000000000000000000000600082015250565b60006138d2601183612eb6565b91506138dd8261389c565b602082019050919050565b60006020820190508181036000830152613901816138c5565b9050919050565b600061391382612b6a565b915061391e83612b6a565b92508282101561393157613930612f33565b5b828203905092915050565b60006040820190506139516000830185612b74565b61395e6020830184612b74565b9392505050565b600061397082612b6a565b915061397b83612b6a565b9250817fffffffffffffffffffffffffffffffffffffffffffffffffffffffffffffffff04831182151516156139b4576139b3612f33565b5b828202905092915050565b7f596f7520617265206e6f7420612073656c6c6572000000000000000000000000600082015250565b60006139f5601483612eb6565b9150613a00826139bf565b602082019050919050565b60006020820190508181036000830152613a24816139e8565b9050919050565b7f547261646520726f756e64206973206e6f74206f766572207965740000000000600082015250565b6000613a61601b83612eb6565b9150613a6c82613a2b565b602082019050919050565b60006020820190508181036000830152613a9081613a54565b9050919050565b6000606082019050613aac6000830186612e8c565b613ab96020830185612e8c565b613ac66040830184612b74565b949350505050565b6000606082019050613ae36000830186612b74565b613af06020830185612b74565b613afd6040830184612b74565b949350505050565b6000613b1082612b6a565b91507fffffffffffffffffffffffffffffffffffffffffffffffffffffffffffffffff8203613b4257613b41612f33565b5b600182019050919050565b600060ff82169050919050565b613b6381613b4d565b8114613b6e57600080fd5b50565b600081519050613b8081613b5a565b92915050565b600060208284031215613b9c57613b9b612aa5565b5b6000613baa84828501613b71565b91505092915050565b60008160011c9050919050565b6000808291508390505b6001851115613c0a57808604811115613be657613be5612f33565b5b6001851615613bf55780820291505b8081029050613c0385613bb3565b9450613bca565b94509492505050565b600082613c235760019050613cdf565b81613c315760009050613cdf565b8160018114613c475760028114613c5157613c80565b6001915050613cdf565b60ff841115613c6357613c62612f33565b5b8360020a915084821115613c7a57613c79612f33565b5b50613cdf565b5060208310610133831016604e8410600b8410161715613cb55782820a905083811115613cb057613caf612f33565b5b613cdf565b613cc28484846001613bc0565b92509050818404811115613cd957613cd8612f33565b5b81810290505b9392505050565b6000613cf182612b6a565b9150613cfc83613b4d565b9250613d297fffffffffffffffffffffffffffffffffffffffffffffffffffffffffffffffff8484613c13565b905092915050565b600081905092915050565b7f416363657373436f6e74726f6c3a206163636f756e7420000000000000000000600082015250565b6000613d72601783613d31565b9150613d7d82613d3c565b601782019050919050565b600081519050919050565b60005b83811015613db1578082015181840152602081019050613d96565b83811115613dc0576000848401525b50505050565b6000613dd182613d88565b613ddb8185613d31565b9350613deb818560208601613d93565b80840191505092915050565b7f206973206d697373696e6720726f6c6520000000000000000000000000000000600082015250565b6000613e2d601183613d31565b9150613e3882613df7565b601182019050919050565b6000613e4e82613d65565b9150613e5a8285613dc6565b9150613e6582613e20565b9150613e718284613dc6565b91508190509392505050565b6000613e8882613d88565b613e928185612eb6565b9350613ea2818560208601613d93565b613eab81613480565b840191505092915050565b60006020820190508181036000830152613ed08184613e7d565b905092915050565b6000613ee382612b6a565b915060008203613ef657613ef5612f33565b5b600182039050919050565b7f537472696e67733a20686578206c656e67746820696e73756666696369656e74600082015250565b6000613f37602083612eb6565b9150613f4282613f01565b602082019050919050565b60006020820190508181036000830152613f6681613f2a565b905091905056fea2646970667358221220a8ec9f64e4104f741ac89160247ffde898e6588f0ce799497060aa666187736664736f6c634300080f0033",
          "opcodes": "PUSH1 0x80 PUSH1 0x40 MSTORE PUSH20 0x7A250D5630B4CF539739DF2C5DACB4C659F2488D PUSH1 0x2 PUSH1 0x0 PUSH2 0x100 EXP DUP2 SLOAD DUP2 PUSH20 0xFFFFFFFFFFFFFFFFFFFFFFFFFFFFFFFFFFFFFFFF MUL NOT AND SWAP1 DUP4 PUSH20 0xFFFFFFFFFFFFFFFFFFFFFFFFFFFFFFFFFFFFFFFF AND MUL OR SWAP1 SSTORE POP PUSH1 0x40 MLOAD DUP1 PUSH1 0x40 ADD PUSH1 0x40 MSTORE DUP1 PUSH1 0x32 PUSH1 0xFF AND DUP2 MSTORE PUSH1 0x20 ADD PUSH1 0x1E PUSH1 0xFF AND DUP2 MSTORE POP PUSH1 0x5 SWAP1 PUSH1 0x2 PUSH3 0x88 SWAP3 SWAP2 SWAP1 PUSH3 0x393 JUMP JUMPDEST POP PUSH1 0x40 MLOAD DUP1 PUSH1 0x40 ADD PUSH1 0x40 MSTORE DUP1 PUSH1 0x19 PUSH1 0xFF AND DUP2 MSTORE PUSH1 0x20 ADD PUSH1 0x19 PUSH1 0xFF AND DUP2 MSTORE POP PUSH1 0x7 SWAP1 PUSH1 0x2 PUSH3 0xB8 SWAP3 SWAP2 SWAP1 PUSH3 0x393 JUMP JUMPDEST POP PUSH1 0x50 PUSH1 0x9 SSTORE PUSH1 0x32 PUSH1 0xA SSTORE PUSH3 0x3F480 PUSH1 0xC SSTORE PUSH8 0xDE0B6B3A7640000 PUSH1 0xD SSTORE PUSH6 0x9184E72A000 PUSH1 0xE SSTORE PUSH3 0x989680 PUSH1 0xF SSTORE PUSH5 0x174876E800 PUSH1 0x10 SSTORE CALLVALUE DUP1 ISZERO PUSH3 0xFD JUMPI PUSH1 0x0 DUP1 REVERT JUMPDEST POP PUSH1 0x40 MLOAD PUSH3 0x4460 CODESIZE SUB DUP1 PUSH3 0x4460 DUP4 CODECOPY DUP2 DUP2 ADD PUSH1 0x40 MSTORE DUP2 ADD SWAP1 PUSH3 0x123 SWAP2 SWAP1 PUSH3 0x466 JUMP JUMPDEST DUP2 PUSH1 0x3 PUSH1 0x0 PUSH2 0x100 EXP DUP2 SLOAD DUP2 PUSH20 0xFFFFFFFFFFFFFFFFFFFFFFFFFFFFFFFFFFFFFFFF MUL NOT AND SWAP1 DUP4 PUSH20 0xFFFFFFFFFFFFFFFFFFFFFFFFFFFFFFFFFFFFFFFF AND MUL OR SWAP1 SSTORE POP DUP1 PUSH1 0x4 PUSH1 0x0 PUSH2 0x100 EXP DUP2 SLOAD DUP2 PUSH20 0xFFFFFFFFFFFFFFFFFFFFFFFFFFFFFFFFFFFFFFFF MUL NOT AND SWAP1 DUP4 PUSH20 0xFFFFFFFFFFFFFFFFFFFFFFFFFFFFFFFFFFFFFFFF AND MUL OR SWAP1 SSTORE POP PUSH3 0x1BA PUSH1 0x0 DUP1 SHL CALLER PUSH3 0x21A PUSH1 0x20 SHL PUSH1 0x20 SHR JUMP JUMPDEST PUSH1 0x1 PUSH1 0x16 PUSH1 0x0 CALLER PUSH20 0xFFFFFFFFFFFFFFFFFFFFFFFFFFFFFFFFFFFFFFFF AND PUSH20 0xFFFFFFFFFFFFFFFFFFFFFFFFFFFFFFFFFFFFFFFF AND DUP2 MSTORE PUSH1 0x20 ADD SWAP1 DUP2 MSTORE PUSH1 0x20 ADD PUSH1 0x0 KECCAK256 PUSH1 0x0 PUSH2 0x100 EXP DUP2 SLOAD DUP2 PUSH1 0xFF MUL NOT AND SWAP1 DUP4 ISZERO ISZERO MUL OR SWAP1 SSTORE POP POP POP PUSH3 0x4AD JUMP JUMPDEST PUSH3 0x22C DUP3 DUP3 PUSH3 0x230 PUSH1 0x20 SHL PUSH1 0x20 SHR JUMP JUMPDEST POP POP JUMP JUMPDEST PUSH3 0x242 DUP3 DUP3 PUSH3 0x321 PUSH1 0x20 SHL PUSH1 0x20 SHR JUMP JUMPDEST PUSH3 0x31D JUMPI PUSH1 0x1 PUSH1 0x0 DUP1 DUP5 DUP2 MSTORE PUSH1 0x20 ADD SWAP1 DUP2 MSTORE PUSH1 0x20 ADD PUSH1 0x0 KECCAK256 PUSH1 0x0 ADD PUSH1 0x0 DUP4 PUSH20 0xFFFFFFFFFFFFFFFFFFFFFFFFFFFFFFFFFFFFFFFF AND PUSH20 0xFFFFFFFFFFFFFFFFFFFFFFFFFFFFFFFFFFFFFFFF AND DUP2 MSTORE PUSH1 0x20 ADD SWAP1 DUP2 MSTORE PUSH1 0x20 ADD PUSH1 0x0 KECCAK256 PUSH1 0x0 PUSH2 0x100 EXP DUP2 SLOAD DUP2 PUSH1 0xFF MUL NOT AND SWAP1 DUP4 ISZERO ISZERO MUL OR SWAP1 SSTORE POP PUSH3 0x2C2 PUSH3 0x38B PUSH1 0x20 SHL PUSH1 0x20 SHR JUMP JUMPDEST PUSH20 0xFFFFFFFFFFFFFFFFFFFFFFFFFFFFFFFFFFFFFFFF AND DUP2 PUSH20 0xFFFFFFFFFFFFFFFFFFFFFFFFFFFFFFFFFFFFFFFF AND DUP4 PUSH32 0x2F8788117E7EFF1D82E926EC794901D17C78024A50270940304540A733656F0D PUSH1 0x40 MLOAD PUSH1 0x40 MLOAD DUP1 SWAP2 SUB SWAP1 LOG4 JUMPDEST POP POP JUMP JUMPDEST PUSH1 0x0 DUP1 PUSH1 0x0 DUP5 DUP2 MSTORE PUSH1 0x20 ADD SWAP1 DUP2 MSTORE PUSH1 0x20 ADD PUSH1 0x0 KECCAK256 PUSH1 0x0 ADD PUSH1 0x0 DUP4 PUSH20 0xFFFFFFFFFFFFFFFFFFFFFFFFFFFFFFFFFFFFFFFF AND PUSH20 0xFFFFFFFFFFFFFFFFFFFFFFFFFFFFFFFFFFFFFFFF AND DUP2 MSTORE PUSH1 0x20 ADD SWAP1 DUP2 MSTORE PUSH1 0x20 ADD PUSH1 0x0 KECCAK256 PUSH1 0x0 SWAP1 SLOAD SWAP1 PUSH2 0x100 EXP SWAP1 DIV PUSH1 0xFF AND SWAP1 POP SWAP3 SWAP2 POP POP JUMP JUMPDEST PUSH1 0x0 CALLER SWAP1 POP SWAP1 JUMP JUMPDEST DUP3 PUSH1 0x2 DUP2 ADD SWAP3 DUP3 ISZERO PUSH3 0x3CA JUMPI SWAP2 PUSH1 0x20 MUL DUP3 ADD JUMPDEST DUP3 DUP2 GT ISZERO PUSH3 0x3C9 JUMPI DUP3 MLOAD DUP3 SWAP1 PUSH1 0xFF AND SWAP1 SSTORE SWAP2 PUSH1 0x20 ADD SWAP2 SWAP1 PUSH1 0x1 ADD SWAP1 PUSH3 0x3A7 JUMP JUMPDEST JUMPDEST POP SWAP1 POP PUSH3 0x3D9 SWAP2 SWAP1 PUSH3 0x3DD JUMP JUMPDEST POP SWAP1 JUMP JUMPDEST JUMPDEST DUP1 DUP3 GT ISZERO PUSH3 0x3F8 JUMPI PUSH1 0x0 DUP2 PUSH1 0x0 SWAP1 SSTORE POP PUSH1 0x1 ADD PUSH3 0x3DE JUMP JUMPDEST POP SWAP1 JUMP JUMPDEST PUSH1 0x0 DUP1 REVERT JUMPDEST PUSH1 0x0 PUSH20 0xFFFFFFFFFFFFFFFFFFFFFFFFFFFFFFFFFFFFFFFF DUP3 AND SWAP1 POP SWAP2 SWAP1 POP JUMP JUMPDEST PUSH1 0x0 PUSH3 0x42E DUP3 PUSH3 0x401 JUMP JUMPDEST SWAP1 POP SWAP2 SWAP1 POP JUMP JUMPDEST PUSH3 0x440 DUP2 PUSH3 0x421 JUMP JUMPDEST DUP2 EQ PUSH3 0x44C JUMPI PUSH1 0x0 DUP1 REVERT JUMPDEST POP JUMP JUMPDEST PUSH1 0x0 DUP2 MLOAD SWAP1 POP PUSH3 0x460 DUP2 PUSH3 0x435 JUMP JUMPDEST SWAP3 SWAP2 POP POP JUMP JUMPDEST PUSH1 0x0 DUP1 PUSH1 0x40 DUP4 DUP6 SUB SLT ISZERO PUSH3 0x480 JUMPI PUSH3 0x47F PUSH3 0x3FC JUMP JUMPDEST JUMPDEST PUSH1 0x0 PUSH3 0x490 DUP6 DUP3 DUP7 ADD PUSH3 0x44F JUMP JUMPDEST SWAP3 POP POP PUSH1 0x20 PUSH3 0x4A3 DUP6 DUP3 DUP7 ADD PUSH3 0x44F JUMP JUMPDEST SWAP2 POP POP SWAP3 POP SWAP3 SWAP1 POP JUMP JUMPDEST PUSH2 0x3FA3 DUP1 PUSH3 0x4BD PUSH1 0x0 CODECOPY PUSH1 0x0 RETURN INVALID PUSH1 0x80 PUSH1 0x40 MSTORE PUSH1 0x4 CALLDATASIZE LT PUSH2 0x1CD JUMPI PUSH1 0x0 CALLDATALOAD PUSH1 0xE0 SHR DUP1 PUSH4 0x4A58CA0E GT PUSH2 0xF7 JUMPI DUP1 PUSH4 0xA217FDDF GT PUSH2 0x95 JUMPI DUP1 PUSH4 0xD547741F GT PUSH2 0x64 JUMPI DUP1 PUSH4 0xD547741F EQ PUSH2 0x60E JUMPI DUP1 PUSH4 0xDCF566C5 EQ PUSH2 0x637 JUMPI DUP1 PUSH4 0xF0A063E5 EQ PUSH2 0x64E JUMPI DUP1 PUSH4 0xF28DB6C4 EQ PUSH2 0x68B JUMPI PUSH2 0x1CD JUMP JUMPDEST DUP1 PUSH4 0xA217FDDF EQ PUSH2 0x564 JUMPI DUP1 PUSH4 0xB2DD5C07 EQ PUSH2 0x58F JUMPI DUP1 PUSH4 0xB59BFA03 EQ PUSH2 0x5CC JUMPI DUP1 PUSH4 0xC76BEB90 EQ PUSH2 0x5E3 JUMPI PUSH2 0x1CD JUMP JUMPDEST DUP1 PUSH4 0x8292AFD9 GT PUSH2 0xD1 JUMPI DUP1 PUSH4 0x8292AFD9 EQ PUSH2 0x496 JUMPI DUP1 PUSH4 0x91D14854 EQ PUSH2 0x4D3 JUMPI DUP1 PUSH4 0x9645337A EQ PUSH2 0x510 JUMPI DUP1 PUSH4 0x98FABD3A EQ PUSH2 0x539 JUMPI PUSH2 0x1CD JUMP JUMPDEST DUP1 PUSH4 0x4A58CA0E EQ PUSH2 0x426 JUMPI DUP1 PUSH4 0x51CFF8D9 EQ PUSH2 0x442 JUMPI DUP1 PUSH4 0x7DF0B17E EQ PUSH2 0x46B JUMPI PUSH2 0x1CD JUMP JUMPDEST DUP1 PUSH4 0x248A9CA3 GT PUSH2 0x16F JUMPI DUP1 PUSH4 0x36568ABE GT PUSH2 0x13E JUMPI DUP1 PUSH4 0x36568ABE EQ PUSH2 0x36E JUMPI DUP1 PUSH4 0x3EED6AF5 EQ PUSH2 0x397 JUMPI DUP1 PUSH4 0x4420E486 EQ PUSH2 0x3C0 JUMPI DUP1 PUSH4 0x46935BF3 EQ PUSH2 0x3E9 JUMPI PUSH2 0x1CD JUMP JUMPDEST DUP1 PUSH4 0x248A9CA3 EQ PUSH2 0x2C8 JUMPI DUP1 PUSH4 0x2C2DFE04 EQ PUSH2 0x305 JUMPI DUP1 PUSH4 0x2F2FF15D EQ PUSH2 0x31C JUMPI DUP1 PUSH4 0x34300711 EQ PUSH2 0x345 JUMPI PUSH2 0x1CD JUMP JUMPDEST DUP1 PUSH4 0x5DCB3A4 GT PUSH2 0x1AB JUMPI DUP1 PUSH4 0x5DCB3A4 EQ PUSH2 0x251 JUMPI DUP1 PUSH4 0xCFD77F6 EQ PUSH2 0x27C JUMPI DUP1 PUSH4 0x1F2E7C22 EQ PUSH2 0x286 JUMPI DUP1 PUSH4 0x200D2ED2 EQ PUSH2 0x29D JUMPI PUSH2 0x1CD JUMP JUMPDEST DUP1 PUSH4 0x1FFC9A7 EQ PUSH2 0x1D2 JUMPI DUP1 PUSH4 0x462FC8E EQ PUSH2 0x20F JUMPI DUP1 PUSH4 0x53F14DA EQ PUSH2 0x226 JUMPI JUMPDEST PUSH1 0x0 DUP1 REVERT JUMPDEST CALLVALUE DUP1 ISZERO PUSH2 0x1DE JUMPI PUSH1 0x0 DUP1 REVERT JUMPDEST POP PUSH2 0x1F9 PUSH1 0x4 DUP1 CALLDATASIZE SUB DUP2 ADD SWAP1 PUSH2 0x1F4 SWAP2 SWAP1 PUSH2 0x2B07 JUMP JUMPDEST PUSH2 0x6B4 JUMP JUMPDEST PUSH1 0x40 MLOAD PUSH2 0x206 SWAP2 SWAP1 PUSH2 0x2B4F JUMP JUMPDEST PUSH1 0x40 MLOAD DUP1 SWAP2 SUB SWAP1 RETURN JUMPDEST CALLVALUE DUP1 ISZERO PUSH2 0x21B JUMPI PUSH1 0x0 DUP1 REVERT JUMPDEST POP PUSH2 0x224 PUSH2 0x72E JUMP JUMPDEST STOP JUMPDEST CALLVALUE DUP1 ISZERO PUSH2 0x232 JUMPI PUSH1 0x0 DUP1 REVERT JUMPDEST POP PUSH2 0x23B PUSH2 0x8D9 JUMP JUMPDEST PUSH1 0x40 MLOAD PUSH2 0x248 SWAP2 SWAP1 PUSH2 0x2B83 JUMP JUMPDEST PUSH1 0x40 MLOAD DUP1 SWAP2 SUB SWAP1 RETURN JUMPDEST CALLVALUE DUP1 ISZERO PUSH2 0x25D JUMPI PUSH1 0x0 DUP1 REVERT JUMPDEST POP PUSH2 0x266 PUSH2 0x8DF JUMP JUMPDEST PUSH1 0x40 MLOAD PUSH2 0x273 SWAP2 SWAP1 PUSH2 0x2B83 JUMP JUMPDEST PUSH1 0x40 MLOAD DUP1 SWAP2 SUB SWAP1 RETURN JUMPDEST PUSH2 0x284 PUSH2 0x8E5 JUMP JUMPDEST STOP JUMPDEST CALLVALUE DUP1 ISZERO PUSH2 0x292 JUMPI PUSH1 0x0 DUP1 REVERT JUMPDEST POP PUSH2 0x29B PUSH2 0xAAC JUMP JUMPDEST STOP JUMPDEST CALLVALUE DUP1 ISZERO PUSH2 0x2A9 JUMPI PUSH1 0x0 DUP1 REVERT JUMPDEST POP PUSH2 0x2B2 PUSH2 0xBF3 JUMP JUMPDEST PUSH1 0x40 MLOAD PUSH2 0x2BF SWAP2 SWAP1 PUSH2 0x2C15 JUMP JUMPDEST PUSH1 0x40 MLOAD DUP1 SWAP2 SUB SWAP1 RETURN JUMPDEST CALLVALUE DUP1 ISZERO PUSH2 0x2D4 JUMPI PUSH1 0x0 DUP1 REVERT JUMPDEST POP PUSH2 0x2EF PUSH1 0x4 DUP1 CALLDATASIZE SUB DUP2 ADD SWAP1 PUSH2 0x2EA SWAP2 SWAP1 PUSH2 0x2C66 JUMP JUMPDEST PUSH2 0xC06 JUMP JUMPDEST PUSH1 0x40 MLOAD PUSH2 0x2FC SWAP2 SWAP1 PUSH2 0x2CA2 JUMP JUMPDEST PUSH1 0x40 MLOAD DUP1 SWAP2 SUB SWAP1 RETURN JUMPDEST CALLVALUE DUP1 ISZERO PUSH2 0x311 JUMPI PUSH1 0x0 DUP1 REVERT JUMPDEST POP PUSH2 0x31A PUSH2 0xC25 JUMP JUMPDEST STOP JUMPDEST CALLVALUE DUP1 ISZERO PUSH2 0x328 JUMPI PUSH1 0x0 DUP1 REVERT JUMPDEST POP PUSH2 0x343 PUSH1 0x4 DUP1 CALLDATASIZE SUB DUP2 ADD SWAP1 PUSH2 0x33E SWAP2 SWAP1 PUSH2 0x2D1B JUMP JUMPDEST PUSH2 0xFE1 JUMP JUMPDEST STOP JUMPDEST CALLVALUE DUP1 ISZERO PUSH2 0x351 JUMPI PUSH1 0x0 DUP1 REVERT JUMPDEST POP PUSH2 0x36C PUSH1 0x4 DUP1 CALLDATASIZE SUB DUP2 ADD SWAP1 PUSH2 0x367 SWAP2 SWAP1 PUSH2 0x2D87 JUMP JUMPDEST PUSH2 0x1002 JUMP JUMPDEST STOP JUMPDEST CALLVALUE DUP1 ISZERO PUSH2 0x37A JUMPI PUSH1 0x0 DUP1 REVERT JUMPDEST POP PUSH2 0x395 PUSH1 0x4 DUP1 CALLDATASIZE SUB DUP2 ADD SWAP1 PUSH2 0x390 SWAP2 SWAP1 PUSH2 0x2D1B JUMP JUMPDEST PUSH2 0x1079 JUMP JUMPDEST STOP JUMPDEST CALLVALUE DUP1 ISZERO PUSH2 0x3A3 JUMPI PUSH1 0x0 DUP1 REVERT JUMPDEST POP PUSH2 0x3BE PUSH1 0x4 DUP1 CALLDATASIZE SUB DUP2 ADD SWAP1 PUSH2 0x3B9 SWAP2 SWAP1 PUSH2 0x2D87 JUMP JUMPDEST PUSH2 0x10FC JUMP JUMPDEST STOP JUMPDEST CALLVALUE DUP1 ISZERO PUSH2 0x3CC JUMPI PUSH1 0x0 DUP1 REVERT JUMPDEST POP PUSH2 0x3E7 PUSH1 0x4 DUP1 CALLDATASIZE SUB DUP2 ADD SWAP1 PUSH2 0x3E2 SWAP2 SWAP1 PUSH2 0x2DC7 JUMP JUMPDEST PUSH2 0x1173 JUMP JUMPDEST STOP JUMPDEST CALLVALUE DUP1 ISZERO PUSH2 0x3F5 JUMPI PUSH1 0x0 DUP1 REVERT JUMPDEST POP PUSH2 0x410 PUSH1 0x4 DUP1 CALLDATASIZE SUB DUP2 ADD SWAP1 PUSH2 0x40B SWAP2 SWAP1 PUSH2 0x2DF4 JUMP JUMPDEST PUSH2 0x12D8 JUMP JUMPDEST PUSH1 0x40 MLOAD PUSH2 0x41D SWAP2 SWAP1 PUSH2 0x2B83 JUMP JUMPDEST PUSH1 0x40 MLOAD DUP1 SWAP2 SUB SWAP1 RETURN JUMPDEST PUSH2 0x440 PUSH1 0x4 DUP1 CALLDATASIZE SUB DUP2 ADD SWAP1 PUSH2 0x43B SWAP2 SWAP1 PUSH2 0x2DF4 JUMP JUMPDEST PUSH2 0x12F3 JUMP JUMPDEST STOP JUMPDEST CALLVALUE DUP1 ISZERO PUSH2 0x44E JUMPI PUSH1 0x0 DUP1 REVERT JUMPDEST POP PUSH2 0x469 PUSH1 0x4 DUP1 CALLDATASIZE SUB DUP2 ADD SWAP1 PUSH2 0x464 SWAP2 SWAP1 PUSH2 0x2E5F JUMP JUMPDEST PUSH2 0x1753 JUMP JUMPDEST STOP JUMPDEST CALLVALUE DUP1 ISZERO PUSH2 0x477 JUMPI PUSH1 0x0 DUP1 REVERT JUMPDEST POP PUSH2 0x480 PUSH2 0x17BE JUMP JUMPDEST PUSH1 0x40 MLOAD PUSH2 0x48D SWAP2 SWAP1 PUSH2 0x2B83 JUMP JUMPDEST PUSH1 0x40 MLOAD DUP1 SWAP2 SUB SWAP1 RETURN JUMPDEST CALLVALUE DUP1 ISZERO PUSH2 0x4A2 JUMPI PUSH1 0x0 DUP1 REVERT JUMPDEST POP PUSH2 0x4BD PUSH1 0x4 DUP1 CALLDATASIZE SUB DUP2 ADD SWAP1 PUSH2 0x4B8 SWAP2 SWAP1 PUSH2 0x2DC7 JUMP JUMPDEST PUSH2 0x17C4 JUMP JUMPDEST PUSH1 0x40 MLOAD PUSH2 0x4CA SWAP2 SWAP1 PUSH2 0x2E9B JUMP JUMPDEST PUSH1 0x40 MLOAD DUP1 SWAP2 SUB SWAP1 RETURN JUMPDEST CALLVALUE DUP1 ISZERO PUSH2 0x4DF JUMPI PUSH1 0x0 DUP1 REVERT JUMPDEST POP PUSH2 0x4FA PUSH1 0x4 DUP1 CALLDATASIZE SUB DUP2 ADD SWAP1 PUSH2 0x4F5 SWAP2 SWAP1 PUSH2 0x2D1B JUMP JUMPDEST PUSH2 0x17F7 JUMP JUMPDEST PUSH1 0x40 MLOAD PUSH2 0x507 SWAP2 SWAP1 PUSH2 0x2B4F JUMP JUMPDEST PUSH1 0x40 MLOAD DUP1 SWAP2 SUB SWAP1 RETURN JUMPDEST CALLVALUE DUP1 ISZERO PUSH2 0x51C JUMPI PUSH1 0x0 DUP1 REVERT JUMPDEST POP PUSH2 0x537 PUSH1 0x4 DUP1 CALLDATASIZE SUB DUP2 ADD SWAP1 PUSH2 0x532 SWAP2 SWAP1 PUSH2 0x2DF4 JUMP JUMPDEST PUSH2 0x1861 JUMP JUMPDEST STOP JUMPDEST CALLVALUE DUP1 ISZERO PUSH2 0x545 JUMPI PUSH1 0x0 DUP1 REVERT JUMPDEST POP PUSH2 0x54E PUSH2 0x1B2B JUMP JUMPDEST PUSH1 0x40 MLOAD PUSH2 0x55B SWAP2 SWAP1 PUSH2 0x2CA2 JUMP JUMPDEST PUSH1 0x40 MLOAD DUP1 SWAP2 SUB SWAP1 RETURN JUMPDEST CALLVALUE DUP1 ISZERO PUSH2 0x570 JUMPI PUSH1 0x0 DUP1 REVERT JUMPDEST POP PUSH2 0x579 PUSH2 0x1B4F JUMP JUMPDEST PUSH1 0x40 MLOAD PUSH2 0x586 SWAP2 SWAP1 PUSH2 0x2CA2 JUMP JUMPDEST PUSH1 0x40 MLOAD DUP1 SWAP2 SUB SWAP1 RETURN JUMPDEST CALLVALUE DUP1 ISZERO PUSH2 0x59B JUMPI PUSH1 0x0 DUP1 REVERT JUMPDEST POP PUSH2 0x5B6 PUSH1 0x4 DUP1 CALLDATASIZE SUB DUP2 ADD SWAP1 PUSH2 0x5B1 SWAP2 SWAP1 PUSH2 0x2DC7 JUMP JUMPDEST PUSH2 0x1B56 JUMP JUMPDEST PUSH1 0x40 MLOAD PUSH2 0x5C3 SWAP2 SWAP1 PUSH2 0x2B4F JUMP JUMPDEST PUSH1 0x40 MLOAD DUP1 SWAP2 SUB SWAP1 RETURN JUMPDEST CALLVALUE DUP1 ISZERO PUSH2 0x5D8 JUMPI PUSH1 0x0 DUP1 REVERT JUMPDEST POP PUSH2 0x5E1 PUSH2 0x1B76 JUMP JUMPDEST STOP JUMPDEST CALLVALUE DUP1 ISZERO PUSH2 0x5EF JUMPI PUSH1 0x0 DUP1 REVERT JUMPDEST POP PUSH2 0x5F8 PUSH2 0x1D1F JUMP JUMPDEST PUSH1 0x40 MLOAD PUSH2 0x605 SWAP2 SWAP1 PUSH2 0x2B83 JUMP JUMPDEST PUSH1 0x40 MLOAD DUP1 SWAP2 SUB SWAP1 RETURN JUMPDEST CALLVALUE DUP1 ISZERO PUSH2 0x61A JUMPI PUSH1 0x0 DUP1 REVERT JUMPDEST POP PUSH2 0x635 PUSH1 0x4 DUP1 CALLDATASIZE SUB DUP2 ADD SWAP1 PUSH2 0x630 SWAP2 SWAP1 PUSH2 0x2D1B JUMP JUMPDEST PUSH2 0x1D25 JUMP JUMPDEST STOP JUMPDEST CALLVALUE DUP1 ISZERO PUSH2 0x643 JUMPI PUSH1 0x0 DUP1 REVERT JUMPDEST POP PUSH2 0x64C PUSH2 0x1D46 JUMP JUMPDEST STOP JUMPDEST CALLVALUE DUP1 ISZERO PUSH2 0x65A JUMPI PUSH1 0x0 DUP1 REVERT JUMPDEST POP PUSH2 0x675 PUSH1 0x4 DUP1 CALLDATASIZE SUB DUP2 ADD SWAP1 PUSH2 0x670 SWAP2 SWAP1 PUSH2 0x2DF4 JUMP JUMPDEST PUSH2 0x1DC4 JUMP JUMPDEST PUSH1 0x40 MLOAD PUSH2 0x682 SWAP2 SWAP1 PUSH2 0x2B83 JUMP JUMPDEST PUSH1 0x40 MLOAD DUP1 SWAP2 SUB SWAP1 RETURN JUMPDEST CALLVALUE DUP1 ISZERO PUSH2 0x697 JUMPI PUSH1 0x0 DUP1 REVERT JUMPDEST POP PUSH2 0x6B2 PUSH1 0x4 DUP1 CALLDATASIZE SUB DUP2 ADD SWAP1 PUSH2 0x6AD SWAP2 SWAP1 PUSH2 0x2D87 JUMP JUMPDEST PUSH2 0x1DDF JUMP JUMPDEST STOP JUMPDEST PUSH1 0x0 PUSH32 0x7965DB0B00000000000000000000000000000000000000000000000000000000 PUSH28 0xFFFFFFFFFFFFFFFFFFFFFFFFFFFFFFFFFFFFFFFFFFFFFFFFFFFFFFFF NOT AND DUP3 PUSH28 0xFFFFFFFFFFFFFFFFFFFFFFFFFFFFFFFFFFFFFFFFFFFFFFFFFFFFFFFF NOT AND EQ DUP1 PUSH2 0x727 JUMPI POP PUSH2 0x726 DUP3 PUSH2 0x208D JUMP JUMPDEST JUMPDEST SWAP1 POP SWAP2 SWAP1 POP JUMP JUMPDEST PUSH1 0x1 PUSH1 0x2 DUP2 GT ISZERO PUSH2 0x742 JUMPI PUSH2 0x741 PUSH2 0x2B9E JUMP JUMPDEST JUMPDEST PUSH1 0x14 PUSH1 0x0 SWAP1 SLOAD SWAP1 PUSH2 0x100 EXP SWAP1 DIV PUSH1 0xFF AND PUSH1 0x2 DUP2 GT ISZERO PUSH2 0x764 JUMPI PUSH2 0x763 PUSH2 0x2B9E JUMP JUMPDEST JUMPDEST EQ PUSH2 0x7A4 JUMPI PUSH1 0x40 MLOAD PUSH32 0x8C379A000000000000000000000000000000000000000000000000000000000 DUP2 MSTORE PUSH1 0x4 ADD PUSH2 0x79B SWAP1 PUSH2 0x2F13 JUMP JUMPDEST PUSH1 0x40 MLOAD DUP1 SWAP2 SUB SWAP1 REVERT JUMPDEST TIMESTAMP PUSH3 0x3F480 PUSH1 0x11 SLOAD PUSH2 0x7B6 SWAP2 SWAP1 PUSH2 0x2F62 JUMP JUMPDEST GT ISZERO DUP1 PUSH2 0x85E JUMPI POP PUSH1 0x0 PUSH1 0x3 PUSH1 0x0 SWAP1 SLOAD SWAP1 PUSH2 0x100 EXP SWAP1 DIV PUSH20 0xFFFFFFFFFFFFFFFFFFFFFFFFFFFFFFFFFFFFFFFF AND PUSH20 0xFFFFFFFFFFFFFFFFFFFFFFFFFFFFFFFFFFFFFFFF AND PUSH4 0x70A08231 ADDRESS PUSH1 0x40 MLOAD DUP3 PUSH4 0xFFFFFFFF AND PUSH1 0xE0 SHL DUP2 MSTORE PUSH1 0x4 ADD PUSH2 0x81B SWAP2 SWAP1 PUSH2 0x2E9B JUMP JUMPDEST PUSH1 0x20 PUSH1 0x40 MLOAD DUP1 DUP4 SUB DUP2 DUP7 GAS STATICCALL ISZERO DUP1 ISZERO PUSH2 0x838 JUMPI RETURNDATASIZE PUSH1 0x0 DUP1 RETURNDATACOPY RETURNDATASIZE PUSH1 0x0 REVERT JUMPDEST POP POP POP POP PUSH1 0x40 MLOAD RETURNDATASIZE PUSH1 0x1F NOT PUSH1 0x1F DUP3 ADD AND DUP3 ADD DUP1 PUSH1 0x40 MSTORE POP DUP2 ADD SWAP1 PUSH2 0x85C SWAP2 SWAP1 PUSH2 0x2FCD JUMP JUMPDEST EQ JUMPDEST PUSH2 0x89D JUMPI PUSH1 0x40 MLOAD PUSH32 0x8C379A000000000000000000000000000000000000000000000000000000000 DUP2 MSTORE PUSH1 0x4 ADD PUSH2 0x894 SWAP1 PUSH2 0x3046 JUMP JUMPDEST PUSH1 0x40 MLOAD DUP1 SWAP2 SUB SWAP1 REVERT JUMPDEST PUSH1 0x0 PUSH1 0xD DUP2 SWAP1 SSTORE POP TIMESTAMP PUSH1 0x11 DUP2 SWAP1 SSTORE POP PUSH1 0x2 PUSH1 0x14 PUSH1 0x0 PUSH2 0x100 EXP DUP2 SLOAD DUP2 PUSH1 0xFF MUL NOT AND SWAP1 DUP4 PUSH1 0x2 DUP2 GT ISZERO PUSH2 0x8D2 JUMPI PUSH2 0x8D1 PUSH2 0x2B9E JUMP JUMPDEST JUMPDEST MUL OR SWAP1 SSTORE POP JUMP JUMPDEST PUSH1 0xE SLOAD DUP2 JUMP JUMPDEST PUSH1 0xD SLOAD DUP2 JUMP JUMPDEST PUSH1 0x1 PUSH1 0x2 DUP2 GT ISZERO PUSH2 0x8F9 JUMPI PUSH2 0x8F8 PUSH2 0x2B9E JUMP JUMPDEST JUMPDEST PUSH1 0x14 PUSH1 0x0 SWAP1 SLOAD SWAP1 PUSH2 0x100 EXP SWAP1 DIV PUSH1 0xFF AND PUSH1 0x2 DUP2 GT ISZERO PUSH2 0x91B JUMPI PUSH2 0x91A PUSH2 0x2B9E JUMP JUMPDEST JUMPDEST EQ PUSH2 0x95B JUMPI PUSH1 0x40 MLOAD PUSH32 0x8C379A000000000000000000000000000000000000000000000000000000000 DUP2 MSTORE PUSH1 0x4 ADD PUSH2 0x952 SWAP1 PUSH2 0x2F13 JUMP JUMPDEST PUSH1 0x40 MLOAD DUP1 SWAP2 SUB SWAP1 REVERT JUMPDEST TIMESTAMP PUSH3 0x3F480 PUSH1 0x11 SLOAD PUSH2 0x96D SWAP2 SWAP1 PUSH2 0x2F62 JUMP JUMPDEST LT ISZERO PUSH2 0x9AE JUMPI PUSH1 0x40 MLOAD PUSH32 0x8C379A000000000000000000000000000000000000000000000000000000000 DUP2 MSTORE PUSH1 0x4 ADD PUSH2 0x9A5 SWAP1 PUSH2 0x30B2 JUMP JUMPDEST PUSH1 0x40 MLOAD DUP1 SWAP2 SUB SWAP1 REVERT JUMPDEST PUSH1 0xF SLOAD CALLVALUE GT PUSH2 0x9F2 JUMPI PUSH1 0x40 MLOAD PUSH32 0x8C379A000000000000000000000000000000000000000000000000000000000 DUP2 MSTORE PUSH1 0x4 ADD PUSH2 0x9E9 SWAP1 PUSH2 0x311E JUMP JUMPDEST PUSH1 0x40 MLOAD DUP1 SWAP2 SUB SWAP1 REVERT JUMPDEST PUSH1 0x3 PUSH1 0x0 SWAP1 SLOAD SWAP1 PUSH2 0x100 EXP SWAP1 DIV PUSH20 0xFFFFFFFFFFFFFFFFFFFFFFFFFFFFFFFFFFFFFFFF AND PUSH20 0xFFFFFFFFFFFFFFFFFFFFFFFFFFFFFFFFFFFFFFFF AND PUSH4 0xA9059CBB CALLER PUSH1 0xF SLOAD CALLVALUE PUSH2 0xA3F SWAP2 SWAP1 PUSH2 0x316D JUMP JUMPDEST PUSH1 0x40 MLOAD DUP4 PUSH4 0xFFFFFFFF AND PUSH1 0xE0 SHL DUP2 MSTORE PUSH1 0x4 ADD PUSH2 0xA5C SWAP3 SWAP2 SWAP1 PUSH2 0x319E JUMP JUMPDEST PUSH1 0x20 PUSH1 0x40 MLOAD DUP1 DUP4 SUB DUP2 PUSH1 0x0 DUP8 GAS CALL ISZERO DUP1 ISZERO PUSH2 0xA7B JUMPI RETURNDATASIZE PUSH1 0x0 DUP1 RETURNDATACOPY RETURNDATASIZE PUSH1 0x0 REVERT JUMPDEST POP POP POP POP PUSH1 0x40 MLOAD RETURNDATASIZE PUSH1 0x1F NOT PUSH1 0x1F DUP3 ADD AND DUP3 ADD DUP1 PUSH1 0x40 MSTORE POP DUP2 ADD SWAP1 PUSH2 0xA9F SWAP2 SWAP1 PUSH2 0x31F3 JUMP JUMPDEST POP PUSH2 0xAAA CALLER CALLVALUE PUSH2 0x20F7 JUMP JUMPDEST JUMP JUMPDEST PUSH1 0x0 DUP1 SHL PUSH2 0xAB9 DUP2 PUSH2 0x22E9 JUMP JUMPDEST PUSH1 0x0 PUSH1 0x2 DUP2 GT ISZERO PUSH2 0xACD JUMPI PUSH2 0xACC PUSH2 0x2B9E JUMP JUMPDEST JUMPDEST PUSH1 0x14 PUSH1 0x0 SWAP1 SLOAD SWAP1 PUSH2 0x100 EXP SWAP1 DIV PUSH1 0xFF AND PUSH1 0x2 DUP2 GT ISZERO PUSH2 0xAEF JUMPI PUSH2 0xAEE PUSH2 0x2B9E JUMP JUMPDEST JUMPDEST EQ PUSH2 0xB2F JUMPI PUSH1 0x40 MLOAD PUSH32 0x8C379A000000000000000000000000000000000000000000000000000000000 DUP2 MSTORE PUSH1 0x4 ADD PUSH2 0xB26 SWAP1 PUSH2 0x326C JUMP JUMPDEST PUSH1 0x40 MLOAD DUP1 SWAP2 SUB SWAP1 REVERT JUMPDEST TIMESTAMP PUSH1 0x11 DUP2 SWAP1 SSTORE POP PUSH1 0x3 PUSH1 0x0 SWAP1 SLOAD SWAP1 PUSH2 0x100 EXP SWAP1 DIV PUSH20 0xFFFFFFFFFFFFFFFFFFFFFFFFFFFFFFFFFFFFFFFF AND PUSH20 0xFFFFFFFFFFFFFFFFFFFFFFFFFFFFFFFFFFFFFFFF AND PUSH4 0xA0712D68 PUSH1 0x10 SLOAD PUSH1 0x40 MLOAD DUP3 PUSH4 0xFFFFFFFF AND PUSH1 0xE0 SHL DUP2 MSTORE PUSH1 0x4 ADD PUSH2 0xB93 SWAP2 SWAP1 PUSH2 0x2B83 JUMP JUMPDEST PUSH1 0x0 PUSH1 0x40 MLOAD DUP1 DUP4 SUB DUP2 PUSH1 0x0 DUP8 DUP1 EXTCODESIZE ISZERO DUP1 ISZERO PUSH2 0xBAD JUMPI PUSH1 0x0 DUP1 REVERT JUMPDEST POP GAS CALL ISZERO DUP1 ISZERO PUSH2 0xBC1 JUMPI RETURNDATASIZE PUSH1 0x0 DUP1 RETURNDATACOPY RETURNDATASIZE PUSH1 0x0 REVERT JUMPDEST POP POP POP POP PUSH1 0x1 PUSH1 0x14 PUSH1 0x0 PUSH2 0x100 EXP DUP2 SLOAD DUP2 PUSH1 0xFF MUL NOT AND SWAP1 DUP4 PUSH1 0x2 DUP2 GT ISZERO PUSH2 0xBEB JUMPI PUSH2 0xBEA PUSH2 0x2B9E JUMP JUMPDEST JUMPDEST MUL OR SWAP1 SSTORE POP POP JUMP JUMPDEST PUSH1 0x14 PUSH1 0x0 SWAP1 SLOAD SWAP1 PUSH2 0x100 EXP SWAP1 DIV PUSH1 0xFF AND DUP2 JUMP JUMPDEST PUSH1 0x0 DUP1 PUSH1 0x0 DUP4 DUP2 MSTORE PUSH1 0x20 ADD SWAP1 DUP2 MSTORE PUSH1 0x20 ADD PUSH1 0x0 KECCAK256 PUSH1 0x1 ADD SLOAD SWAP1 POP SWAP2 SWAP1 POP JUMP JUMPDEST PUSH32 0xD0A4AD96D49EDB1C33461CEBC6FB2609190F32C904E3C3F5877EDB4488DEE91E PUSH2 0xC4F DUP2 PUSH2 0x22E9 JUMP JUMPDEST PUSH1 0x0 PUSH1 0x2 PUSH8 0xFFFFFFFFFFFFFFFF DUP2 GT ISZERO PUSH2 0xC6C JUMPI PUSH2 0xC6B PUSH2 0x328C JUMP JUMPDEST JUMPDEST PUSH1 0x40 MLOAD SWAP1 DUP1 DUP3 MSTORE DUP1 PUSH1 0x20 MUL PUSH1 0x20 ADD DUP3 ADD PUSH1 0x40 MSTORE DUP1 ISZERO PUSH2 0xC9A JUMPI DUP2 PUSH1 0x20 ADD PUSH1 0x20 DUP3 MUL DUP1 CALLDATASIZE DUP4 CALLDATACOPY DUP1 DUP3 ADD SWAP2 POP POP SWAP1 POP JUMPDEST POP SWAP1 POP PUSH1 0x2 PUSH1 0x0 SWAP1 SLOAD SWAP1 PUSH2 0x100 EXP SWAP1 DIV PUSH20 0xFFFFFFFFFFFFFFFFFFFFFFFFFFFFFFFFFFFFFFFF AND PUSH20 0xFFFFFFFFFFFFFFFFFFFFFFFFFFFFFFFFFFFFFFFF AND PUSH4 0xAD5C4648 PUSH1 0x40 MLOAD DUP2 PUSH4 0xFFFFFFFF AND PUSH1 0xE0 SHL DUP2 MSTORE PUSH1 0x4 ADD PUSH1 0x20 PUSH1 0x40 MLOAD DUP1 DUP4 SUB DUP2 DUP7 GAS STATICCALL ISZERO DUP1 ISZERO PUSH2 0xD0A JUMPI RETURNDATASIZE PUSH1 0x0 DUP1 RETURNDATACOPY RETURNDATASIZE PUSH1 0x0 REVERT JUMPDEST POP POP POP POP PUSH1 0x40 MLOAD RETURNDATASIZE PUSH1 0x1F NOT PUSH1 0x1F DUP3 ADD AND DUP3 ADD DUP1 PUSH1 0x40 MSTORE POP DUP2 ADD SWAP1 PUSH2 0xD2E SWAP2 SWAP1 PUSH2 0x32D0 JUMP JUMPDEST DUP2 PUSH1 0x0 DUP2 MLOAD DUP2 LT PUSH2 0xD42 JUMPI PUSH2 0xD41 PUSH2 0x32FD JUMP JUMPDEST JUMPDEST PUSH1 0x20 MUL PUSH1 0x20 ADD ADD SWAP1 PUSH20 0xFFFFFFFFFFFFFFFFFFFFFFFFFFFFFFFFFFFFFFFF AND SWAP1 DUP2 PUSH20 0xFFFFFFFFFFFFFFFFFFFFFFFFFFFFFFFFFFFFFFFF AND DUP2 MSTORE POP POP PUSH1 0x4 PUSH1 0x0 SWAP1 SLOAD SWAP1 PUSH2 0x100 EXP SWAP1 DIV PUSH20 0xFFFFFFFFFFFFFFFFFFFFFFFFFFFFFFFFFFFFFFFF AND DUP2 PUSH1 0x1 DUP2 MLOAD DUP2 LT PUSH2 0xDB3 JUMPI PUSH2 0xDB2 PUSH2 0x32FD JUMP JUMPDEST JUMPDEST PUSH1 0x20 MUL PUSH1 0x20 ADD ADD SWAP1 PUSH20 0xFFFFFFFFFFFFFFFFFFFFFFFFFFFFFFFFFFFFFFFF AND SWAP1 DUP2 PUSH20 0xFFFFFFFFFFFFFFFFFFFFFFFFFFFFFFFFFFFFFFFF AND DUP2 MSTORE POP POP PUSH1 0x2 PUSH1 0x0 SWAP1 SLOAD SWAP1 PUSH2 0x100 EXP SWAP1 DIV PUSH20 0xFFFFFFFFFFFFFFFFFFFFFFFFFFFFFFFFFFFFFFFF AND PUSH20 0xFFFFFFFFFFFFFFFFFFFFFFFFFFFFFFFFFFFFFFFF AND PUSH4 0x7FF36AB5 PUSH1 0xB SLOAD PUSH1 0x1 DUP5 ADDRESS PUSH1 0x64 TIMESTAMP PUSH2 0xE3F SWAP2 SWAP1 PUSH2 0x2F62 JUMP JUMPDEST PUSH1 0x40 MLOAD DUP7 PUSH4 0xFFFFFFFF AND PUSH1 0xE0 SHL DUP2 MSTORE PUSH1 0x4 ADD PUSH2 0xE5E SWAP5 SWAP4 SWAP3 SWAP2 SWAP1 PUSH2 0x342F JUMP JUMPDEST PUSH1 0x0 PUSH1 0x40 MLOAD DUP1 DUP4 SUB DUP2 DUP6 DUP9 GAS CALL ISZERO DUP1 ISZERO PUSH2 0xE7C JUMPI RETURNDATASIZE PUSH1 0x0 DUP1 RETURNDATACOPY RETURNDATASIZE PUSH1 0x0 REVERT JUMPDEST POP POP POP POP POP PUSH1 0x40 MLOAD RETURNDATASIZE PUSH1 0x0 DUP3 RETURNDATACOPY RETURNDATASIZE PUSH1 0x1F NOT PUSH1 0x1F DUP3 ADD AND DUP3 ADD DUP1 PUSH1 0x40 MSTORE POP DUP2 ADD SWAP1 PUSH2 0xEA6 SWAP2 SWAP1 PUSH2 0x35A5 JUMP JUMPDEST POP PUSH1 0x0 PUSH1 0xB DUP2 SWAP1 SSTORE POP PUSH1 0x0 PUSH1 0x4 PUSH1 0x0 SWAP1 SLOAD SWAP1 PUSH2 0x100 EXP SWAP1 DIV PUSH20 0xFFFFFFFFFFFFFFFFFFFFFFFFFFFFFFFFFFFFFFFF AND PUSH20 0xFFFFFFFFFFFFFFFFFFFFFFFFFFFFFFFFFFFFFFFF AND PUSH4 0x70A08231 ADDRESS PUSH1 0x40 MLOAD DUP3 PUSH4 0xFFFFFFFF AND PUSH1 0xE0 SHL DUP2 MSTORE PUSH1 0x4 ADD PUSH2 0xF0C SWAP2 SWAP1 PUSH2 0x2E9B JUMP JUMPDEST PUSH1 0x20 PUSH1 0x40 MLOAD DUP1 DUP4 SUB DUP2 DUP7 GAS STATICCALL ISZERO DUP1 ISZERO PUSH2 0xF29 JUMPI RETURNDATASIZE PUSH1 0x0 DUP1 RETURNDATACOPY RETURNDATASIZE PUSH1 0x0 REVERT JUMPDEST POP POP POP POP PUSH1 0x40 MLOAD RETURNDATASIZE PUSH1 0x1F NOT PUSH1 0x1F DUP3 ADD AND DUP3 ADD DUP1 PUSH1 0x40 MSTORE POP DUP2 ADD SWAP1 PUSH2 0xF4D SWAP2 SWAP1 PUSH2 0x2FCD JUMP JUMPDEST SWAP1 POP PUSH1 0x4 PUSH1 0x0 SWAP1 SLOAD SWAP1 PUSH2 0x100 EXP SWAP1 DIV PUSH20 0xFFFFFFFFFFFFFFFFFFFFFFFFFFFFFFFFFFFFFFFF AND PUSH20 0xFFFFFFFFFFFFFFFFFFFFFFFFFFFFFFFFFFFFFFFF AND PUSH4 0x42966C68 DUP3 PUSH1 0x40 MLOAD DUP3 PUSH4 0xFFFFFFFF AND PUSH1 0xE0 SHL DUP2 MSTORE PUSH1 0x4 ADD PUSH2 0xFAA SWAP2 SWAP1 PUSH2 0x2B83 JUMP JUMPDEST PUSH1 0x0 PUSH1 0x40 MLOAD DUP1 DUP4 SUB DUP2 PUSH1 0x0 DUP8 DUP1 EXTCODESIZE ISZERO DUP1 ISZERO PUSH2 0xFC4 JUMPI PUSH1 0x0 DUP1 REVERT JUMPDEST POP GAS CALL ISZERO DUP1 ISZERO PUSH2 0xFD8 JUMPI RETURNDATASIZE PUSH1 0x0 DUP1 RETURNDATACOPY RETURNDATASIZE PUSH1 0x0 REVERT JUMPDEST POP POP POP POP POP POP POP JUMP JUMPDEST PUSH2 0xFEA DUP3 PUSH2 0xC06 JUMP JUMPDEST PUSH2 0xFF3 DUP2 PUSH2 0x22E9 JUMP JUMPDEST PUSH2 0xFFD DUP4 DUP4 PUSH2 0x22FD JUMP JUMPDEST POP POP POP JUMP JUMPDEST PUSH32 0xD0A4AD96D49EDB1C33461CEBC6FB2609190F32C904E3C3F5877EDB4488DEE91E PUSH2 0x102C DUP2 PUSH2 0x22E9 JUMP JUMPDEST DUP3 PUSH1 0x5 PUSH1 0x0 PUSH1 0x2 DUP2 LT PUSH2 0x1042 JUMPI PUSH2 0x1041 PUSH2 0x32FD JUMP JUMPDEST JUMPDEST ADD DUP2 SWAP1 SSTORE POP DUP2 PUSH1 0x5 PUSH1 0x1 PUSH1 0x2 DUP2 LT PUSH2 0x105D JUMPI PUSH2 0x105C PUSH2 0x32FD JUMP JUMPDEST JUMPDEST ADD DUP2 SWAP1 SSTORE POP DUP2 DUP4 PUSH2 0x106E SWAP2 SWAP1 PUSH2 0x2F62 JUMP JUMPDEST PUSH1 0x9 DUP2 SWAP1 SSTORE POP POP POP POP JUMP JUMPDEST PUSH2 0x1081 PUSH2 0x23DD JUMP JUMPDEST PUSH20 0xFFFFFFFFFFFFFFFFFFFFFFFFFFFFFFFFFFFFFFFF AND DUP2 PUSH20 0xFFFFFFFFFFFFFFFFFFFFFFFFFFFFFFFFFFFFFFFF AND EQ PUSH2 0x10EE JUMPI PUSH1 0x40 MLOAD PUSH32 0x8C379A000000000000000000000000000000000000000000000000000000000 DUP2 MSTORE PUSH1 0x4 ADD PUSH2 0x10E5 SWAP1 PUSH2 0x3660 JUMP JUMPDEST PUSH1 0x40 MLOAD DUP1 SWAP2 SUB SWAP1 REVERT JUMPDEST PUSH2 0x10F8 DUP3 DUP3 PUSH2 0x23E5 JUMP JUMPDEST POP POP JUMP JUMPDEST PUSH32 0xD0A4AD96D49EDB1C33461CEBC6FB2609190F32C904E3C3F5877EDB4488DEE91E PUSH2 0x1126 DUP2 PUSH2 0x22E9 JUMP JUMPDEST DUP3 PUSH1 0x7 PUSH1 0x0 PUSH1 0x2 DUP2 LT PUSH2 0x113C JUMPI PUSH2 0x113B PUSH2 0x32FD JUMP JUMPDEST JUMPDEST ADD DUP2 SWAP1 SSTORE POP DUP2 PUSH1 0x7 PUSH1 0x1 PUSH1 0x2 DUP2 LT PUSH2 0x1157 JUMPI PUSH2 0x1156 PUSH2 0x32FD JUMP JUMPDEST JUMPDEST ADD DUP2 SWAP1 SSTORE POP DUP2 DUP4 PUSH2 0x1168 SWAP2 SWAP1 PUSH2 0x2F62 JUMP JUMPDEST PUSH1 0xA DUP2 SWAP1 SSTORE POP POP POP POP JUMP JUMPDEST PUSH1 0x16 PUSH1 0x0 DUP3 PUSH20 0xFFFFFFFFFFFFFFFFFFFFFFFFFFFFFFFFFFFFFFFF AND PUSH20 0xFFFFFFFFFFFFFFFFFFFFFFFFFFFFFFFFFFFFFFFF AND DUP2 MSTORE PUSH1 0x20 ADD SWAP1 DUP2 MSTORE PUSH1 0x20 ADD PUSH1 0x0 KECCAK256 PUSH1 0x0 SWAP1 SLOAD SWAP1 PUSH2 0x100 EXP SWAP1 DIV PUSH1 0xFF AND PUSH2 0x11FF JUMPI PUSH1 0x40 MLOAD PUSH32 0x8C379A000000000000000000000000000000000000000000000000000000000 DUP2 MSTORE PUSH1 0x4 ADD PUSH2 0x11F6 SWAP1 PUSH2 0x36CC JUMP JUMPDEST PUSH1 0x40 MLOAD DUP1 SWAP2 SUB SWAP1 REVERT JUMPDEST PUSH1 0x1 PUSH1 0x16 PUSH1 0x0 CALLER PUSH20 0xFFFFFFFFFFFFFFFFFFFFFFFFFFFFFFFFFFFFFFFF AND PUSH20 0xFFFFFFFFFFFFFFFFFFFFFFFFFFFFFFFFFFFFFFFF AND DUP2 MSTORE PUSH1 0x20 ADD SWAP1 DUP2 MSTORE PUSH1 0x20 ADD PUSH1 0x0 KECCAK256 PUSH1 0x0 PUSH2 0x100 EXP DUP2 SLOAD DUP2 PUSH1 0xFF MUL NOT AND SWAP1 DUP4 ISZERO ISZERO MUL OR SWAP1 SSTORE POP DUP1 PUSH1 0x15 PUSH1 0x0 CALLER PUSH20 0xFFFFFFFFFFFFFFFFFFFFFFFFFFFFFFFFFFFFFFFF AND PUSH20 0xFFFFFFFFFFFFFFFFFFFFFFFFFFFFFFFFFFFFFFFF AND DUP2 MSTORE PUSH1 0x20 ADD SWAP1 DUP2 MSTORE PUSH1 0x20 ADD PUSH1 0x0 KECCAK256 PUSH1 0x0 PUSH2 0x100 EXP DUP2 SLOAD DUP2 PUSH20 0xFFFFFFFFFFFFFFFFFFFFFFFFFFFFFFFFFFFFFFFF MUL NOT AND SWAP1 DUP4 PUSH20 0xFFFFFFFFFFFFFFFFFFFFFFFFFFFFFFFFFFFFFFFF AND MUL OR SWAP1 SSTORE POP POP JUMP JUMPDEST PUSH1 0x7 DUP2 PUSH1 0x2 DUP2 LT PUSH2 0x12E8 JUMPI PUSH1 0x0 DUP1 REVERT JUMPDEST ADD PUSH1 0x0 SWAP2 POP SWAP1 POP SLOAD DUP2 JUMP JUMPDEST PUSH1 0x2 DUP1 DUP2 GT ISZERO PUSH2 0x1306 JUMPI PUSH2 0x1305 PUSH2 0x2B9E JUMP JUMPDEST JUMPDEST PUSH1 0x14 PUSH1 0x0 SWAP1 SLOAD SWAP1 PUSH2 0x100 EXP SWAP1 DIV PUSH1 0xFF AND PUSH1 0x2 DUP2 GT ISZERO PUSH2 0x1328 JUMPI PUSH2 0x1327 PUSH2 0x2B9E JUMP JUMPDEST JUMPDEST EQ PUSH2 0x1368 JUMPI PUSH1 0x40 MLOAD PUSH32 0x8C379A000000000000000000000000000000000000000000000000000000000 DUP2 MSTORE PUSH1 0x4 ADD PUSH2 0x135F SWAP1 PUSH2 0x3738 JUMP JUMPDEST PUSH1 0x40 MLOAD DUP1 SWAP2 SUB SWAP1 REVERT JUMPDEST PUSH2 0x1372 PUSH1 0x1 PUSH2 0x24C6 JUMP JUMPDEST DUP2 GT ISZERO PUSH2 0x13B4 JUMPI PUSH1 0x40 MLOAD PUSH32 0x8C379A000000000000000000000000000000000000000000000000000000000 DUP2 MSTORE PUSH1 0x4 ADD PUSH2 0x13AB SWAP1 PUSH2 0x37A4 JUMP JUMPDEST PUSH1 0x40 MLOAD DUP1 SWAP2 SUB SWAP1 REVERT JUMPDEST TIMESTAMP PUSH3 0x3F480 PUSH1 0x11 SLOAD PUSH2 0x13C6 SWAP2 SWAP1 PUSH2 0x2F62 JUMP JUMPDEST LT ISZERO PUSH2 0x1407 JUMPI PUSH1 0x40 MLOAD PUSH32 0x8C379A000000000000000000000000000000000000000000000000000000000 DUP2 MSTORE PUSH1 0x4 ADD PUSH2 0x13FE SWAP1 PUSH2 0x3810 JUMP JUMPDEST PUSH1 0x40 MLOAD DUP1 SWAP2 SUB SWAP1 REVERT JUMPDEST PUSH1 0x0 PUSH1 0x13 PUSH1 0x0 DUP4 DUP2 MSTORE PUSH1 0x20 ADD SWAP1 DUP2 MSTORE PUSH1 0x20 ADD PUSH1 0x0 KECCAK256 SWAP1 POP PUSH1 0x0 PUSH1 0x2 DUP2 GT ISZERO PUSH2 0x1432 JUMPI PUSH2 0x1431 PUSH2 0x2B9E JUMP JUMPDEST JUMPDEST DUP2 PUSH1 0x0 ADD PUSH1 0x0 SWAP1 SLOAD SWAP1 PUSH2 0x100 EXP SWAP1 DIV PUSH1 0xFF AND PUSH1 0x2 DUP2 GT ISZERO PUSH2 0x1456 JUMPI PUSH2 0x1455 PUSH2 0x2B9E JUMP JUMPDEST JUMPDEST EQ PUSH2 0x1496 JUMPI PUSH1 0x40 MLOAD PUSH32 0x8C379A000000000000000000000000000000000000000000000000000000000 DUP2 MSTORE PUSH1 0x4 ADD PUSH2 0x148D SWAP1 PUSH2 0x387C JUMP JUMPDEST PUSH1 0x40 MLOAD DUP1 SWAP2 SUB SWAP1 REVERT JUMPDEST DUP1 PUSH1 0x2 ADD SLOAD CALLVALUE GT ISZERO PUSH2 0x14DD JUMPI PUSH1 0x40 MLOAD PUSH32 0x8C379A000000000000000000000000000000000000000000000000000000000 DUP2 MSTORE PUSH1 0x4 ADD PUSH2 0x14D4 SWAP1 PUSH2 0x38E8 JUMP JUMPDEST PUSH1 0x40 MLOAD DUP1 SWAP2 SUB SWAP1 REVERT JUMPDEST PUSH1 0x0 DUP2 PUSH1 0x1 ADD SLOAD DUP3 PUSH1 0x2 ADD SLOAD PUSH2 0x14F3 SWAP2 SWAP1 PUSH2 0x316D JUMP JUMPDEST SWAP1 POP PUSH1 0x0 DUP2 CALLVALUE PUSH2 0x1503 SWAP2 SWAP1 PUSH2 0x316D JUMP JUMPDEST SWAP1 POP PUSH1 0x3 PUSH1 0x0 SWAP1 SLOAD SWAP1 PUSH2 0x100 EXP SWAP1 DIV PUSH20 0xFFFFFFFFFFFFFFFFFFFFFFFFFFFFFFFFFFFFFFFF AND PUSH20 0xFFFFFFFFFFFFFFFFFFFFFFFFFFFFFFFFFFFFFFFF AND PUSH4 0xA9059CBB CALLER DUP4 PUSH1 0x40 MLOAD DUP4 PUSH4 0xFFFFFFFF AND PUSH1 0xE0 SHL DUP2 MSTORE PUSH1 0x4 ADD PUSH2 0x1562 SWAP3 SWAP2 SWAP1 PUSH2 0x319E JUMP JUMPDEST PUSH1 0x20 PUSH1 0x40 MLOAD DUP1 DUP4 SUB DUP2 PUSH1 0x0 DUP8 GAS CALL ISZERO DUP1 ISZERO PUSH2 0x1581 JUMPI RETURNDATASIZE PUSH1 0x0 DUP1 RETURNDATACOPY RETURNDATASIZE PUSH1 0x0 REVERT JUMPDEST POP POP POP POP PUSH1 0x40 MLOAD RETURNDATASIZE PUSH1 0x1F NOT PUSH1 0x1F DUP3 ADD AND DUP3 ADD DUP1 PUSH1 0x40 MSTORE POP DUP2 ADD SWAP1 PUSH2 0x15A5 SWAP2 SWAP1 PUSH2 0x31F3 JUMP JUMPDEST POP DUP1 DUP4 PUSH1 0x1 ADD PUSH1 0x0 DUP3 DUP3 SLOAD PUSH2 0x15BA SWAP2 SWAP1 PUSH2 0x3908 JUMP JUMPDEST SWAP3 POP POP DUP2 SWAP1 SSTORE POP PUSH1 0x0 DUP4 PUSH1 0x1 ADD SLOAD SUB PUSH2 0x1636 JUMPI PUSH1 0x1 DUP4 PUSH1 0x0 ADD PUSH1 0x0 PUSH2 0x100 EXP DUP2 SLOAD DUP2 PUSH1 0xFF MUL NOT AND SWAP1 DUP4 PUSH1 0x2 DUP2 GT ISZERO PUSH2 0x15F5 JUMPI PUSH2 0x15F4 PUSH2 0x2B9E JUMP JUMPDEST JUMPDEST MUL OR SWAP1 SSTORE POP PUSH32 0x18EEB09AF8466F749C2EEEE3BD8FD12376E14EC2E53840F4FD3D3FC19492ACFC DUP5 PUSH1 0x40 MLOAD PUSH2 0x1629 SWAP2 SWAP1 PUSH2 0x2B83 JUMP JUMPDEST PUSH1 0x40 MLOAD DUP1 SWAP2 SUB SWAP1 LOG1 PUSH2 0x1674 JUMP JUMPDEST PUSH32 0x8E73A807B83FDE44E6E12224A9B4FADE736FFE96AB8D511ABD64E9A1B4E8C0CA DUP5 DUP5 PUSH1 0x1 ADD SLOAD PUSH1 0x40 MLOAD PUSH2 0x166B SWAP3 SWAP2 SWAP1 PUSH2 0x393C JUMP JUMPDEST PUSH1 0x40 MLOAD DUP1 SWAP2 SUB SWAP1 LOG1 JUMPDEST CALLVALUE PUSH1 0xD PUSH1 0x0 DUP3 DUP3 SLOAD PUSH2 0x1686 SWAP2 SWAP1 PUSH2 0x2F62 JUMP JUMPDEST SWAP3 POP POP DUP2 SWAP1 SSTORE POP DUP3 PUSH1 0x0 ADD PUSH1 0x1 SWAP1 SLOAD SWAP1 PUSH2 0x100 EXP SWAP1 DIV PUSH20 0xFFFFFFFFFFFFFFFFFFFFFFFFFFFFFFFFFFFFFFFF AND PUSH20 0xFFFFFFFFFFFFFFFFFFFFFFFFFFFFFFFFFFFFFFFF AND PUSH2 0x8FC PUSH2 0x3E8 PUSH1 0xA SLOAD PUSH2 0x3E8 PUSH2 0x16DE SWAP2 SWAP1 PUSH2 0x3908 JUMP JUMPDEST CALLVALUE PUSH2 0x16E9 SWAP2 SWAP1 PUSH2 0x3965 JUMP JUMPDEST PUSH2 0x16F3 SWAP2 SWAP1 PUSH2 0x316D JUMP JUMPDEST SWAP1 DUP2 ISZERO MUL SWAP1 PUSH1 0x40 MLOAD PUSH1 0x0 PUSH1 0x40 MLOAD DUP1 DUP4 SUB DUP2 DUP6 DUP9 DUP9 CALL SWAP4 POP POP POP POP ISZERO DUP1 ISZERO PUSH2 0x171E JUMPI RETURNDATASIZE PUSH1 0x0 DUP1 RETURNDATACOPY RETURNDATASIZE PUSH1 0x0 REVERT JUMPDEST POP PUSH2 0x174D DUP4 PUSH1 0x0 ADD PUSH1 0x1 SWAP1 SLOAD SWAP1 PUSH2 0x100 EXP SWAP1 DIV PUSH20 0xFFFFFFFFFFFFFFFFFFFFFFFFFFFFFFFFFFFFFFFF AND CALLVALUE PUSH2 0x24D4 JUMP JUMPDEST POP POP POP POP JUMP JUMPDEST PUSH1 0x0 DUP1 SHL PUSH2 0x1760 DUP2 PUSH2 0x22E9 JUMP JUMPDEST PUSH1 0x0 PUSH1 0xB SLOAD SELFBALANCE PUSH2 0x1770 SWAP2 SWAP1 PUSH2 0x3908 JUMP JUMPDEST SWAP1 POP DUP3 PUSH20 0xFFFFFFFFFFFFFFFFFFFFFFFFFFFFFFFFFFFFFFFF AND PUSH2 0x8FC DUP3 SWAP1 DUP2 ISZERO MUL SWAP1 PUSH1 0x40 MLOAD PUSH1 0x0 PUSH1 0x40 MLOAD DUP1 DUP4 SUB DUP2 DUP6 DUP9 DUP9 CALL SWAP4 POP POP POP POP ISZERO DUP1 ISZERO PUSH2 0x17B8 JUMPI RETURNDATASIZE PUSH1 0x0 DUP1 RETURNDATACOPY RETURNDATASIZE PUSH1 0x0 REVERT JUMPDEST POP POP POP POP JUMP JUMPDEST PUSH1 0x10 SLOAD DUP2 JUMP JUMPDEST PUSH1 0x15 PUSH1 0x20 MSTORE DUP1 PUSH1 0x0 MSTORE PUSH1 0x40 PUSH1 0x0 KECCAK256 PUSH1 0x0 SWAP2 POP SLOAD SWAP1 PUSH2 0x100 EXP SWAP1 DIV PUSH20 0xFFFFFFFFFFFFFFFFFFFFFFFFFFFFFFFFFFFFFFFF AND DUP2 JUMP JUMPDEST PUSH1 0x0 DUP1 PUSH1 0x0 DUP5 DUP2 MSTORE PUSH1 0x20 ADD SWAP1 DUP2 MSTORE PUSH1 0x20 ADD PUSH1 0x0 KECCAK256 PUSH1 0x0 ADD PUSH1 0x0 DUP4 PUSH20 0xFFFFFFFFFFFFFFFFFFFFFFFFFFFFFFFFFFFFFFFF AND PUSH20 0xFFFFFFFFFFFFFFFFFFFFFFFFFFFFFFFFFFFFFFFF AND DUP2 MSTORE PUSH1 0x20 ADD SWAP1 DUP2 MSTORE PUSH1 0x20 ADD PUSH1 0x0 KECCAK256 PUSH1 0x0 SWAP1 SLOAD SWAP1 PUSH2 0x100 EXP SWAP1 DIV PUSH1 0xFF AND SWAP1 POP SWAP3 SWAP2 POP POP JUMP JUMPDEST PUSH1 0x2 DUP1 DUP2 GT ISZERO PUSH2 0x1874 JUMPI PUSH2 0x1873 PUSH2 0x2B9E JUMP JUMPDEST JUMPDEST PUSH1 0x14 PUSH1 0x0 SWAP1 SLOAD SWAP1 PUSH2 0x100 EXP SWAP1 DIV PUSH1 0xFF AND PUSH1 0x2 DUP2 GT ISZERO PUSH2 0x1896 JUMPI PUSH2 0x1895 PUSH2 0x2B9E JUMP JUMPDEST JUMPDEST EQ PUSH2 0x18D6 JUMPI PUSH1 0x40 MLOAD PUSH32 0x8C379A000000000000000000000000000000000000000000000000000000000 DUP2 MSTORE PUSH1 0x4 ADD PUSH2 0x18CD SWAP1 PUSH2 0x3738 JUMP JUMPDEST PUSH1 0x40 MLOAD DUP1 SWAP2 SUB SWAP1 REVERT JUMPDEST PUSH2 0x18E0 PUSH1 0x1 PUSH2 0x24C6 JUMP JUMPDEST DUP2 GT ISZERO PUSH2 0x1922 JUMPI PUSH1 0x40 MLOAD PUSH32 0x8C379A000000000000000000000000000000000000000000000000000000000 DUP2 MSTORE PUSH1 0x4 ADD PUSH2 0x1919 SWAP1 PUSH2 0x37A4 JUMP JUMPDEST PUSH1 0x40 MLOAD DUP1 SWAP2 SUB SWAP1 REVERT JUMPDEST TIMESTAMP PUSH3 0x3F480 PUSH1 0x11 SLOAD PUSH2 0x1934 SWAP2 SWAP1 PUSH2 0x2F62 JUMP JUMPDEST LT ISZERO PUSH2 0x1975 JUMPI PUSH1 0x40 MLOAD PUSH32 0x8C379A000000000000000000000000000000000000000000000000000000000 DUP2 MSTORE PUSH1 0x4 ADD PUSH2 0x196C SWAP1 PUSH2 0x3810 JUMP JUMPDEST PUSH1 0x40 MLOAD DUP1 SWAP2 SUB SWAP1 REVERT JUMPDEST PUSH1 0x0 PUSH1 0x13 PUSH1 0x0 DUP4 DUP2 MSTORE PUSH1 0x20 ADD SWAP1 DUP2 MSTORE PUSH1 0x20 ADD PUSH1 0x0 KECCAK256 SWAP1 POP CALLER PUSH20 0xFFFFFFFFFFFFFFFFFFFFFFFFFFFFFFFFFFFFFFFF AND DUP2 PUSH1 0x0 ADD PUSH1 0x1 SWAP1 SLOAD SWAP1 PUSH2 0x100 EXP SWAP1 DIV PUSH20 0xFFFFFFFFFFFFFFFFFFFFFFFFFFFFFFFFFFFFFFFF AND PUSH20 0xFFFFFFFFFFFFFFFFFFFFFFFFFFFFFFFFFFFFFFFF AND EQ PUSH2 0x1A1E JUMPI PUSH1 0x40 MLOAD PUSH32 0x8C379A000000000000000000000000000000000000000000000000000000000 DUP2 MSTORE PUSH1 0x4 ADD PUSH2 0x1A15 SWAP1 PUSH2 0x3A0B JUMP JUMPDEST PUSH1 0x40 MLOAD DUP1 SWAP2 SUB SWAP1 REVERT JUMPDEST PUSH1 0x2 DUP2 PUSH1 0x0 ADD PUSH1 0x0 PUSH2 0x100 EXP DUP2 SLOAD DUP2 PUSH1 0xFF MUL NOT AND SWAP1 DUP4 PUSH1 0x2 DUP2 GT ISZERO PUSH2 0x1A46 JUMPI PUSH2 0x1A45 PUSH2 0x2B9E JUMP JUMPDEST JUMPDEST MUL OR SWAP1 SSTORE POP PUSH1 0x3 PUSH1 0x0 SWAP1 SLOAD SWAP1 PUSH2 0x100 EXP SWAP1 DIV PUSH20 0xFFFFFFFFFFFFFFFFFFFFFFFFFFFFFFFFFFFFFFFF AND PUSH20 0xFFFFFFFFFFFFFFFFFFFFFFFFFFFFFFFFFFFFFFFF AND PUSH4 0xA9059CBB CALLER DUP4 PUSH1 0x1 ADD SLOAD PUSH1 0x40 MLOAD DUP4 PUSH4 0xFFFFFFFF AND PUSH1 0xE0 SHL DUP2 MSTORE PUSH1 0x4 ADD PUSH2 0x1AAC SWAP3 SWAP2 SWAP1 PUSH2 0x319E JUMP JUMPDEST PUSH1 0x20 PUSH1 0x40 MLOAD DUP1 DUP4 SUB DUP2 PUSH1 0x0 DUP8 GAS CALL ISZERO DUP1 ISZERO PUSH2 0x1ACB JUMPI RETURNDATASIZE PUSH1 0x0 DUP1 RETURNDATACOPY RETURNDATASIZE PUSH1 0x0 REVERT JUMPDEST POP POP POP POP PUSH1 0x40 MLOAD RETURNDATASIZE PUSH1 0x1F NOT PUSH1 0x1F DUP3 ADD AND DUP3 ADD DUP1 PUSH1 0x40 MSTORE POP DUP2 ADD SWAP1 PUSH2 0x1AEF SWAP2 SWAP1 PUSH2 0x31F3 JUMP JUMPDEST POP PUSH32 0xC41F4CEB2938876C35E61B705E9D2F18A02C4A26CE5E049A6308A943D46851B3 DUP3 PUSH1 0x40 MLOAD PUSH2 0x1B1F SWAP2 SWAP1 PUSH2 0x2B83 JUMP JUMPDEST PUSH1 0x40 MLOAD DUP1 SWAP2 SUB SWAP1 LOG1 POP POP JUMP JUMPDEST PUSH32 0xD0A4AD96D49EDB1C33461CEBC6FB2609190F32C904E3C3F5877EDB4488DEE91E DUP2 JUMP JUMPDEST PUSH1 0x0 DUP1 SHL DUP2 JUMP JUMPDEST PUSH1 0x16 PUSH1 0x20 MSTORE DUP1 PUSH1 0x0 MSTORE PUSH1 0x40 PUSH1 0x0 KECCAK256 PUSH1 0x0 SWAP2 POP SLOAD SWAP1 PUSH2 0x100 EXP SWAP1 DIV PUSH1 0xFF AND DUP2 JUMP JUMPDEST PUSH1 0x2 DUP1 DUP2 GT ISZERO PUSH2 0x1B89 JUMPI PUSH2 0x1B88 PUSH2 0x2B9E JUMP JUMPDEST JUMPDEST PUSH1 0x14 PUSH1 0x0 SWAP1 SLOAD SWAP1 PUSH2 0x100 EXP SWAP1 DIV PUSH1 0xFF AND PUSH1 0x2 DUP2 GT ISZERO PUSH2 0x1BAB JUMPI PUSH2 0x1BAA PUSH2 0x2B9E JUMP JUMPDEST JUMPDEST EQ PUSH2 0x1BEB JUMPI PUSH1 0x40 MLOAD PUSH32 0x8C379A000000000000000000000000000000000000000000000000000000000 DUP2 MSTORE PUSH1 0x4 ADD PUSH2 0x1BE2 SWAP1 PUSH2 0x3738 JUMP JUMPDEST PUSH1 0x40 MLOAD DUP1 SWAP2 SUB SWAP1 REVERT JUMPDEST TIMESTAMP PUSH3 0x3F480 PUSH1 0x11 SLOAD PUSH2 0x1BFD SWAP2 SWAP1 PUSH2 0x2F62 JUMP JUMPDEST GT ISZERO PUSH2 0x1C3E JUMPI PUSH1 0x40 MLOAD PUSH32 0x8C379A000000000000000000000000000000000000000000000000000000000 DUP2 MSTORE PUSH1 0x4 ADD PUSH2 0x1C35 SWAP1 PUSH2 0x3A77 JUMP JUMPDEST PUSH1 0x40 MLOAD DUP1 SWAP2 SUB SWAP1 REVERT JUMPDEST PUSH2 0x1C46 PUSH2 0x26C6 JUMP JUMPDEST PUSH1 0xF SLOAD PUSH1 0xD SLOAD PUSH2 0x1C56 SWAP2 SWAP1 PUSH2 0x316D JUMP JUMPDEST PUSH1 0x10 DUP2 SWAP1 SSTORE POP PUSH1 0x3 PUSH1 0x0 SWAP1 SLOAD SWAP1 PUSH2 0x100 EXP SWAP1 DIV PUSH20 0xFFFFFFFFFFFFFFFFFFFFFFFFFFFFFFFFFFFFFFFF AND PUSH20 0xFFFFFFFFFFFFFFFFFFFFFFFFFFFFFFFFFFFFFFFF AND PUSH4 0xA0712D68 PUSH1 0x10 SLOAD PUSH1 0x40 MLOAD DUP3 PUSH4 0xFFFFFFFF AND PUSH1 0xE0 SHL DUP2 MSTORE PUSH1 0x4 ADD PUSH2 0x1CB9 SWAP2 SWAP1 PUSH2 0x2B83 JUMP JUMPDEST PUSH1 0x0 PUSH1 0x40 MLOAD DUP1 DUP4 SUB DUP2 PUSH1 0x0 DUP8 DUP1 EXTCODESIZE ISZERO DUP1 ISZERO PUSH2 0x1CD3 JUMPI PUSH1 0x0 DUP1 REVERT JUMPDEST POP GAS CALL ISZERO DUP1 ISZERO PUSH2 0x1CE7 JUMPI RETURNDATASIZE PUSH1 0x0 DUP1 RETURNDATACOPY RETURNDATASIZE PUSH1 0x0 REVERT JUMPDEST POP POP POP POP TIMESTAMP PUSH1 0x11 DUP2 SWAP1 SSTORE POP PUSH1 0x1 PUSH1 0x14 PUSH1 0x0 PUSH2 0x100 EXP DUP2 SLOAD DUP2 PUSH1 0xFF MUL NOT AND SWAP1 DUP4 PUSH1 0x2 DUP2 GT ISZERO PUSH2 0x1D18 JUMPI PUSH2 0x1D17 PUSH2 0x2B9E JUMP JUMPDEST JUMPDEST MUL OR SWAP1 SSTORE POP JUMP JUMPDEST PUSH1 0xB SLOAD DUP2 JUMP JUMPDEST PUSH2 0x1D2E DUP3 PUSH2 0xC06 JUMP JUMPDEST PUSH2 0x1D37 DUP2 PUSH2 0x22E9 JUMP JUMPDEST PUSH2 0x1D41 DUP4 DUP4 PUSH2 0x23E5 JUMP JUMPDEST POP POP POP JUMP JUMPDEST PUSH32 0xD0A4AD96D49EDB1C33461CEBC6FB2609190F32C904E3C3F5877EDB4488DEE91E PUSH2 0x1D70 DUP2 PUSH2 0x22E9 JUMP JUMPDEST CALLER PUSH20 0xFFFFFFFFFFFFFFFFFFFFFFFFFFFFFFFFFFFFFFFF AND PUSH2 0x8FC PUSH1 0xB SLOAD SWAP1 DUP2 ISZERO MUL SWAP1 PUSH1 0x40 MLOAD PUSH1 0x0 PUSH1 0x40 MLOAD DUP1 DUP4 SUB DUP2 DUP6 DUP9 DUP9 CALL SWAP4 POP POP POP POP ISZERO DUP1 ISZERO PUSH2 0x1DB8 JUMPI RETURNDATASIZE PUSH1 0x0 DUP1 RETURNDATACOPY RETURNDATASIZE PUSH1 0x0 REVERT JUMPDEST POP PUSH1 0x0 PUSH1 0xB DUP2 SWAP1 SSTORE POP POP JUMP JUMPDEST PUSH1 0x5 DUP2 PUSH1 0x2 DUP2 LT PUSH2 0x1DD4 JUMPI PUSH1 0x0 DUP1 REVERT JUMPDEST ADD PUSH1 0x0 SWAP2 POP SWAP1 POP SLOAD DUP2 JUMP JUMPDEST PUSH1 0x2 DUP1 DUP2 GT ISZERO PUSH2 0x1DF2 JUMPI PUSH2 0x1DF1 PUSH2 0x2B9E JUMP JUMPDEST JUMPDEST PUSH1 0x14 PUSH1 0x0 SWAP1 SLOAD SWAP1 PUSH2 0x100 EXP SWAP1 DIV PUSH1 0xFF AND PUSH1 0x2 DUP2 GT ISZERO PUSH2 0x1E14 JUMPI PUSH2 0x1E13 PUSH2 0x2B9E JUMP JUMPDEST JUMPDEST EQ PUSH2 0x1E54 JUMPI PUSH1 0x40 MLOAD PUSH32 0x8C379A000000000000000000000000000000000000000000000000000000000 DUP2 MSTORE PUSH1 0x4 ADD PUSH2 0x1E4B SWAP1 PUSH2 0x3738 JUMP JUMPDEST PUSH1 0x40 MLOAD DUP1 SWAP2 SUB SWAP1 REVERT JUMPDEST TIMESTAMP PUSH3 0x3F480 PUSH1 0x11 SLOAD PUSH2 0x1E66 SWAP2 SWAP1 PUSH2 0x2F62 JUMP JUMPDEST LT ISZERO PUSH2 0x1EA7 JUMPI PUSH1 0x40 MLOAD PUSH32 0x8C379A000000000000000000000000000000000000000000000000000000000 DUP2 MSTORE PUSH1 0x4 ADD PUSH2 0x1E9E SWAP1 PUSH2 0x3810 JUMP JUMPDEST PUSH1 0x40 MLOAD DUP1 SWAP2 SUB SWAP1 REVERT JUMPDEST PUSH1 0x3 PUSH1 0x0 SWAP1 SLOAD SWAP1 PUSH2 0x100 EXP SWAP1 DIV PUSH20 0xFFFFFFFFFFFFFFFFFFFFFFFFFFFFFFFFFFFFFFFF AND PUSH20 0xFFFFFFFFFFFFFFFFFFFFFFFFFFFFFFFFFFFFFFFF AND PUSH4 0x23B872DD CALLER ADDRESS DUP6 PUSH1 0x40 MLOAD DUP5 PUSH4 0xFFFFFFFF AND PUSH1 0xE0 SHL DUP2 MSTORE PUSH1 0x4 ADD PUSH2 0x1F06 SWAP4 SWAP3 SWAP2 SWAP1 PUSH2 0x3A97 JUMP JUMPDEST PUSH1 0x20 PUSH1 0x40 MLOAD DUP1 DUP4 SUB DUP2 PUSH1 0x0 DUP8 GAS CALL ISZERO DUP1 ISZERO PUSH2 0x1F25 JUMPI RETURNDATASIZE PUSH1 0x0 DUP1 RETURNDATACOPY RETURNDATASIZE PUSH1 0x0 REVERT JUMPDEST POP POP POP POP PUSH1 0x40 MLOAD RETURNDATASIZE PUSH1 0x1F NOT PUSH1 0x1F DUP3 ADD AND DUP3 ADD DUP1 PUSH1 0x40 MSTORE POP DUP2 ADD SWAP1 PUSH2 0x1F49 SWAP2 SWAP1 PUSH2 0x31F3 JUMP JUMPDEST POP PUSH1 0x0 PUSH2 0x1F56 PUSH1 0x1 PUSH2 0x24C6 JUMP JUMPDEST SWAP1 POP PUSH1 0x40 MLOAD DUP1 PUSH1 0x80 ADD PUSH1 0x40 MSTORE DUP1 PUSH1 0x0 PUSH1 0x2 DUP2 GT ISZERO PUSH2 0x1F77 JUMPI PUSH2 0x1F76 PUSH2 0x2B9E JUMP JUMPDEST JUMPDEST DUP2 MSTORE PUSH1 0x20 ADD CALLER PUSH20 0xFFFFFFFFFFFFFFFFFFFFFFFFFFFFFFFFFFFFFFFF AND DUP2 MSTORE PUSH1 0x20 ADD DUP5 DUP2 MSTORE PUSH1 0x20 ADD DUP4 DUP2 MSTORE POP PUSH1 0x13 PUSH1 0x0 DUP4 DUP2 MSTORE PUSH1 0x20 ADD SWAP1 DUP2 MSTORE PUSH1 0x20 ADD PUSH1 0x0 KECCAK256 PUSH1 0x0 DUP3 ADD MLOAD DUP2 PUSH1 0x0 ADD PUSH1 0x0 PUSH2 0x100 EXP DUP2 SLOAD DUP2 PUSH1 0xFF MUL NOT AND SWAP1 DUP4 PUSH1 0x2 DUP2 GT ISZERO PUSH2 0x1FE0 JUMPI PUSH2 0x1FDF PUSH2 0x2B9E JUMP JUMPDEST JUMPDEST MUL OR SWAP1 SSTORE POP PUSH1 0x20 DUP3 ADD MLOAD DUP2 PUSH1 0x0 ADD PUSH1 0x1 PUSH2 0x100 EXP DUP2 SLOAD DUP2 PUSH20 0xFFFFFFFFFFFFFFFFFFFFFFFFFFFFFFFFFFFFFFFF MUL NOT AND SWAP1 DUP4 PUSH20 0xFFFFFFFFFFFFFFFFFFFFFFFFFFFFFFFFFFFFFFFF AND MUL OR SWAP1 SSTORE POP PUSH1 0x40 DUP3 ADD MLOAD DUP2 PUSH1 0x1 ADD SSTORE PUSH1 0x60 DUP3 ADD MLOAD DUP2 PUSH1 0x2 ADD SSTORE SWAP1 POP POP PUSH32 0x4E3753386201FF4FA2FE7C9A2BDCE7CEA2028030BB57C7596E089EC9AA5FEADB DUP2 DUP5 DUP5 PUSH1 0x40 MLOAD PUSH2 0x2076 SWAP4 SWAP3 SWAP2 SWAP1 PUSH2 0x3ACE JUMP JUMPDEST PUSH1 0x40 MLOAD DUP1 SWAP2 SUB SWAP1 LOG1 PUSH2 0x2088 PUSH1 0x1 PUSH2 0x27AC JUMP JUMPDEST POP POP POP JUMP JUMPDEST PUSH1 0x0 PUSH32 0x1FFC9A700000000000000000000000000000000000000000000000000000000 PUSH28 0xFFFFFFFFFFFFFFFFFFFFFFFFFFFFFFFFFFFFFFFFFFFFFFFFFFFFFFFF NOT AND DUP3 PUSH28 0xFFFFFFFFFFFFFFFFFFFFFFFFFFFFFFFFFFFFFFFFFFFFFFFFFFFFFFFF NOT AND EQ SWAP1 POP SWAP2 SWAP1 POP JUMP JUMPDEST PUSH1 0x0 PUSH1 0x15 PUSH1 0x0 DUP5 PUSH20 0xFFFFFFFFFFFFFFFFFFFFFFFFFFFFFFFFFFFFFFFF AND PUSH20 0xFFFFFFFFFFFFFFFFFFFFFFFFFFFFFFFFFFFFFFFF AND DUP2 MSTORE PUSH1 0x20 ADD SWAP1 DUP2 MSTORE PUSH1 0x20 ADD PUSH1 0x0 KECCAK256 PUSH1 0x0 SWAP1 SLOAD SWAP1 PUSH2 0x100 EXP SWAP1 DIV PUSH20 0xFFFFFFFFFFFFFFFFFFFFFFFFFFFFFFFFFFFFFFFF AND SWAP1 POP PUSH1 0x0 JUMPDEST PUSH1 0x2 DUP2 LT ISZERO PUSH2 0x22E3 JUMPI PUSH1 0x0 PUSH2 0x3E8 PUSH1 0x5 DUP4 PUSH1 0x2 DUP2 LT PUSH2 0x2180 JUMPI PUSH2 0x217F PUSH2 0x32FD JUMP JUMPDEST JUMPDEST ADD SLOAD DUP6 PUSH2 0x218D SWAP2 SWAP1 PUSH2 0x3965 JUMP JUMPDEST PUSH2 0x2197 SWAP2 SWAP1 PUSH2 0x316D JUMP JUMPDEST SWAP1 POP DUP5 PUSH20 0xFFFFFFFFFFFFFFFFFFFFFFFFFFFFFFFFFFFFFFFF AND DUP4 PUSH20 0xFFFFFFFFFFFFFFFFFFFFFFFFFFFFFFFFFFFFFFFF AND EQ ISZERO DUP1 ISZERO PUSH2 0x2202 JUMPI POP PUSH1 0x0 PUSH20 0xFFFFFFFFFFFFFFFFFFFFFFFFFFFFFFFFFFFFFFFF AND DUP4 PUSH20 0xFFFFFFFFFFFFFFFFFFFFFFFFFFFFFFFFFFFFFFFF AND EQ ISZERO JUMPDEST ISZERO PUSH2 0x2253 JUMPI DUP3 PUSH20 0xFFFFFFFFFFFFFFFFFFFFFFFFFFFFFFFFFFFFFFFF AND PUSH2 0x8FC DUP3 SWAP1 DUP2 ISZERO MUL SWAP1 PUSH1 0x40 MLOAD PUSH1 0x0 PUSH1 0x40 MLOAD DUP1 DUP4 SUB DUP2 DUP6 DUP9 DUP9 CALL SWAP4 POP POP POP POP ISZERO DUP1 ISZERO PUSH2 0x224D JUMPI RETURNDATASIZE PUSH1 0x0 DUP1 RETURNDATACOPY RETURNDATASIZE PUSH1 0x0 REVERT JUMPDEST POP PUSH2 0x226D JUMP JUMPDEST DUP1 PUSH1 0xB PUSH1 0x0 DUP3 DUP3 SLOAD PUSH2 0x2265 SWAP2 SWAP1 PUSH2 0x2F62 JUMP JUMPDEST SWAP3 POP POP DUP2 SWAP1 SSTORE POP JUMPDEST PUSH1 0x15 PUSH1 0x0 DUP5 PUSH20 0xFFFFFFFFFFFFFFFFFFFFFFFFFFFFFFFFFFFFFFFF AND PUSH20 0xFFFFFFFFFFFFFFFFFFFFFFFFFFFFFFFFFFFFFFFF AND DUP2 MSTORE PUSH1 0x20 ADD SWAP1 DUP2 MSTORE PUSH1 0x20 ADD PUSH1 0x0 KECCAK256 PUSH1 0x0 SWAP1 SLOAD SWAP1 PUSH2 0x100 EXP SWAP1 DIV PUSH20 0xFFFFFFFFFFFFFFFFFFFFFFFFFFFFFFFFFFFFFFFF AND SWAP3 POP POP DUP1 DUP1 PUSH2 0x22DB SWAP1 PUSH2 0x3B05 JUMP JUMPDEST SWAP2 POP POP PUSH2 0x215E JUMP JUMPDEST POP POP POP POP JUMP JUMPDEST PUSH2 0x22FA DUP2 PUSH2 0x22F5 PUSH2 0x23DD JUMP JUMPDEST PUSH2 0x27C2 JUMP JUMPDEST POP JUMP JUMPDEST PUSH2 0x2307 DUP3 DUP3 PUSH2 0x17F7 JUMP JUMPDEST PUSH2 0x23D9 JUMPI PUSH1 0x1 PUSH1 0x0 DUP1 DUP5 DUP2 MSTORE PUSH1 0x20 ADD SWAP1 DUP2 MSTORE PUSH1 0x20 ADD PUSH1 0x0 KECCAK256 PUSH1 0x0 ADD PUSH1 0x0 DUP4 PUSH20 0xFFFFFFFFFFFFFFFFFFFFFFFFFFFFFFFFFFFFFFFF AND PUSH20 0xFFFFFFFFFFFFFFFFFFFFFFFFFFFFFFFFFFFFFFFF AND DUP2 MSTORE PUSH1 0x20 ADD SWAP1 DUP2 MSTORE PUSH1 0x20 ADD PUSH1 0x0 KECCAK256 PUSH1 0x0 PUSH2 0x100 EXP DUP2 SLOAD DUP2 PUSH1 0xFF MUL NOT AND SWAP1 DUP4 ISZERO ISZERO MUL OR SWAP1 SSTORE POP PUSH2 0x237E PUSH2 0x23DD JUMP JUMPDEST PUSH20 0xFFFFFFFFFFFFFFFFFFFFFFFFFFFFFFFFFFFFFFFF AND DUP2 PUSH20 0xFFFFFFFFFFFFFFFFFFFFFFFFFFFFFFFFFFFFFFFF AND DUP4 PUSH32 0x2F8788117E7EFF1D82E926EC794901D17C78024A50270940304540A733656F0D PUSH1 0x40 MLOAD PUSH1 0x40 MLOAD DUP1 SWAP2 SUB SWAP1 LOG4 JUMPDEST POP POP JUMP JUMPDEST PUSH1 0x0 CALLER SWAP1 POP SWAP1 JUMP JUMPDEST PUSH2 0x23EF DUP3 DUP3 PUSH2 0x17F7 JUMP JUMPDEST ISZERO PUSH2 0x24C2 JUMPI PUSH1 0x0 DUP1 PUSH1 0x0 DUP5 DUP2 MSTORE PUSH1 0x20 ADD SWAP1 DUP2 MSTORE PUSH1 0x20 ADD PUSH1 0x0 KECCAK256 PUSH1 0x0 ADD PUSH1 0x0 DUP4 PUSH20 0xFFFFFFFFFFFFFFFFFFFFFFFFFFFFFFFFFFFFFFFF AND PUSH20 0xFFFFFFFFFFFFFFFFFFFFFFFFFFFFFFFFFFFFFFFF AND DUP2 MSTORE PUSH1 0x20 ADD SWAP1 DUP2 MSTORE PUSH1 0x20 ADD PUSH1 0x0 KECCAK256 PUSH1 0x0 PUSH2 0x100 EXP DUP2 SLOAD DUP2 PUSH1 0xFF MUL NOT AND SWAP1 DUP4 ISZERO ISZERO MUL OR SWAP1 SSTORE POP PUSH2 0x2467 PUSH2 0x23DD JUMP JUMPDEST PUSH20 0xFFFFFFFFFFFFFFFFFFFFFFFFFFFFFFFFFFFFFFFF AND DUP2 PUSH20 0xFFFFFFFFFFFFFFFFFFFFFFFFFFFFFFFFFFFFFFFF AND DUP4 PUSH32 0xF6391F5C32D9C69D2A47EA670B442974B53935D1EDC7FD64EB21E047A839171B PUSH1 0x40 MLOAD PUSH1 0x40 MLOAD DUP1 SWAP2 SUB SWAP1 LOG4 JUMPDEST POP POP JUMP JUMPDEST PUSH1 0x0 DUP2 PUSH1 0x0 ADD SLOAD SWAP1 POP SWAP2 SWAP1 POP JUMP JUMPDEST PUSH1 0x0 PUSH1 0x15 PUSH1 0x0 DUP5 PUSH20 0xFFFFFFFFFFFFFFFFFFFFFFFFFFFFFFFFFFFFFFFF AND PUSH20 0xFFFFFFFFFFFFFFFFFFFFFFFFFFFFFFFFFFFFFFFF AND DUP2 MSTORE PUSH1 0x20 ADD SWAP1 DUP2 MSTORE PUSH1 0x20 ADD PUSH1 0x0 KECCAK256 PUSH1 0x0 SWAP1 SLOAD SWAP1 PUSH2 0x100 EXP SWAP1 DIV PUSH20 0xFFFFFFFFFFFFFFFFFFFFFFFFFFFFFFFFFFFFFFFF AND SWAP1 POP PUSH1 0x0 JUMPDEST PUSH1 0x2 DUP2 LT ISZERO PUSH2 0x26C0 JUMPI PUSH1 0x0 PUSH2 0x3E8 PUSH1 0x7 DUP4 PUSH1 0x2 DUP2 LT PUSH2 0x255D JUMPI PUSH2 0x255C PUSH2 0x32FD JUMP JUMPDEST JUMPDEST ADD SLOAD DUP6 PUSH2 0x256A SWAP2 SWAP1 PUSH2 0x3965 JUMP JUMPDEST PUSH2 0x2574 SWAP2 SWAP1 PUSH2 0x316D JUMP JUMPDEST SWAP1 POP DUP5 PUSH20 0xFFFFFFFFFFFFFFFFFFFFFFFFFFFFFFFFFFFFFFFF AND DUP4 PUSH20 0xFFFFFFFFFFFFFFFFFFFFFFFFFFFFFFFFFFFFFFFF AND EQ ISZERO DUP1 ISZERO PUSH2 0x25DF JUMPI POP PUSH1 0x0 PUSH20 0xFFFFFFFFFFFFFFFFFFFFFFFFFFFFFFFFFFFFFFFF AND DUP4 PUSH20 0xFFFFFFFFFFFFFFFFFFFFFFFFFFFFFFFFFFFFFFFF AND EQ ISZERO JUMPDEST ISZERO PUSH2 0x2630 JUMPI DUP3 PUSH20 0xFFFFFFFFFFFFFFFFFFFFFFFFFFFFFFFFFFFFFFFF AND PUSH2 0x8FC DUP3 SWAP1 DUP2 ISZERO MUL SWAP1 PUSH1 0x40 MLOAD PUSH1 0x0 PUSH1 0x40 MLOAD DUP1 DUP4 SUB DUP2 DUP6 DUP9 DUP9 CALL SWAP4 POP POP POP POP ISZERO DUP1 ISZERO PUSH2 0x262A JUMPI RETURNDATASIZE PUSH1 0x0 DUP1 RETURNDATACOPY RETURNDATASIZE PUSH1 0x0 REVERT JUMPDEST POP PUSH2 0x264A JUMP JUMPDEST DUP1 PUSH1 0xB PUSH1 0x0 DUP3 DUP3 SLOAD PUSH2 0x2642 SWAP2 SWAP1 PUSH2 0x2F62 JUMP JUMPDEST SWAP3 POP POP DUP2 SWAP1 SSTORE POP JUMPDEST PUSH1 0x15 PUSH1 0x0 DUP5 PUSH20 0xFFFFFFFFFFFFFFFFFFFFFFFFFFFFFFFFFFFFFFFF AND PUSH20 0xFFFFFFFFFFFFFFFFFFFFFFFFFFFFFFFFFFFFFFFF AND DUP2 MSTORE PUSH1 0x20 ADD SWAP1 DUP2 MSTORE PUSH1 0x20 ADD PUSH1 0x0 KECCAK256 PUSH1 0x0 SWAP1 SLOAD SWAP1 PUSH2 0x100 EXP SWAP1 DIV PUSH20 0xFFFFFFFFFFFFFFFFFFFFFFFFFFFFFFFFFFFFFFFF AND SWAP3 POP POP DUP1 DUP1 PUSH2 0x26B8 SWAP1 PUSH2 0x3B05 JUMP JUMPDEST SWAP2 POP POP PUSH2 0x253B JUMP JUMPDEST POP POP POP POP JUMP JUMPDEST PUSH6 0x3A352944000 PUSH1 0x64 PUSH1 0x67 PUSH1 0xE SLOAD PUSH2 0x26DE SWAP2 SWAP1 PUSH2 0x3965 JUMP JUMPDEST PUSH2 0x26E8 SWAP2 SWAP1 PUSH2 0x316D JUMP JUMPDEST PUSH2 0x26F2 SWAP2 SWAP1 PUSH2 0x2F62 JUMP JUMPDEST PUSH1 0xE DUP2 SWAP1 SSTORE POP PUSH1 0x3 PUSH1 0x0 SWAP1 SLOAD SWAP1 PUSH2 0x100 EXP SWAP1 DIV PUSH20 0xFFFFFFFFFFFFFFFFFFFFFFFFFFFFFFFFFFFFFFFF AND PUSH20 0xFFFFFFFFFFFFFFFFFFFFFFFFFFFFFFFFFFFFFFFF AND PUSH4 0x313CE567 PUSH1 0x40 MLOAD DUP2 PUSH4 0xFFFFFFFF AND PUSH1 0xE0 SHL DUP2 MSTORE PUSH1 0x4 ADD PUSH1 0x20 PUSH1 0x40 MLOAD DUP1 DUP4 SUB DUP2 PUSH1 0x0 DUP8 GAS CALL ISZERO DUP1 ISZERO PUSH2 0x2767 JUMPI RETURNDATASIZE PUSH1 0x0 DUP1 RETURNDATACOPY RETURNDATASIZE PUSH1 0x0 REVERT JUMPDEST POP POP POP POP PUSH1 0x40 MLOAD RETURNDATASIZE PUSH1 0x1F NOT PUSH1 0x1F DUP3 ADD AND DUP3 ADD DUP1 PUSH1 0x40 MSTORE POP DUP2 ADD SWAP1 PUSH2 0x278B SWAP2 SWAP1 PUSH2 0x3B86 JUMP JUMPDEST PUSH1 0xA PUSH2 0x2797 SWAP2 SWAP1 PUSH2 0x3CE6 JUMP JUMPDEST PUSH1 0xE SLOAD PUSH2 0x27A4 SWAP2 SWAP1 PUSH2 0x316D JUMP JUMPDEST PUSH1 0xF DUP2 SWAP1 SSTORE POP JUMP JUMPDEST PUSH1 0x1 DUP2 PUSH1 0x0 ADD PUSH1 0x0 DUP3 DUP3 SLOAD ADD SWAP3 POP POP DUP2 SWAP1 SSTORE POP POP JUMP JUMPDEST PUSH2 0x27CC DUP3 DUP3 PUSH2 0x17F7 JUMP JUMPDEST PUSH2 0x285B JUMPI PUSH2 0x27F1 DUP2 PUSH20 0xFFFFFFFFFFFFFFFFFFFFFFFFFFFFFFFFFFFFFFFF AND PUSH1 0x14 PUSH2 0x285F JUMP JUMPDEST PUSH2 0x27FF DUP4 PUSH1 0x0 SHR PUSH1 0x20 PUSH2 0x285F JUMP JUMPDEST PUSH1 0x40 MLOAD PUSH1 0x20 ADD PUSH2 0x2810 SWAP3 SWAP2 SWAP1 PUSH2 0x3E43 JUMP JUMPDEST PUSH1 0x40 MLOAD PUSH1 0x20 DUP2 DUP4 SUB SUB DUP2 MSTORE SWAP1 PUSH1 0x40 MSTORE PUSH1 0x40 MLOAD PUSH32 0x8C379A000000000000000000000000000000000000000000000000000000000 DUP2 MSTORE PUSH1 0x4 ADD PUSH2 0x2852 SWAP2 SWAP1 PUSH2 0x3EB6 JUMP JUMPDEST PUSH1 0x40 MLOAD DUP1 SWAP2 SUB SWAP1 REVERT JUMPDEST POP POP JUMP JUMPDEST PUSH1 0x60 PUSH1 0x0 PUSH1 0x2 DUP4 PUSH1 0x2 PUSH2 0x2872 SWAP2 SWAP1 PUSH2 0x3965 JUMP JUMPDEST PUSH2 0x287C SWAP2 SWAP1 PUSH2 0x2F62 JUMP JUMPDEST PUSH8 0xFFFFFFFFFFFFFFFF DUP2 GT ISZERO PUSH2 0x2895 JUMPI PUSH2 0x2894 PUSH2 0x328C JUMP JUMPDEST JUMPDEST PUSH1 0x40 MLOAD SWAP1 DUP1 DUP3 MSTORE DUP1 PUSH1 0x1F ADD PUSH1 0x1F NOT AND PUSH1 0x20 ADD DUP3 ADD PUSH1 0x40 MSTORE DUP1 ISZERO PUSH2 0x28C7 JUMPI DUP2 PUSH1 0x20 ADD PUSH1 0x1 DUP3 MUL DUP1 CALLDATASIZE DUP4 CALLDATACOPY DUP1 DUP3 ADD SWAP2 POP POP SWAP1 POP JUMPDEST POP SWAP1 POP PUSH32 0x3000000000000000000000000000000000000000000000000000000000000000 DUP2 PUSH1 0x0 DUP2 MLOAD DUP2 LT PUSH2 0x28FF JUMPI PUSH2 0x28FE PUSH2 0x32FD JUMP JUMPDEST JUMPDEST PUSH1 0x20 ADD ADD SWAP1 PUSH31 0xFFFFFFFFFFFFFFFFFFFFFFFFFFFFFFFFFFFFFFFFFFFFFFFFFFFFFFFFFFFFFF NOT AND SWAP1 DUP2 PUSH1 0x0 BYTE SWAP1 MSTORE8 POP PUSH32 0x7800000000000000000000000000000000000000000000000000000000000000 DUP2 PUSH1 0x1 DUP2 MLOAD DUP2 LT PUSH2 0x2963 JUMPI PUSH2 0x2962 PUSH2 0x32FD JUMP JUMPDEST JUMPDEST PUSH1 0x20 ADD ADD SWAP1 PUSH31 0xFFFFFFFFFFFFFFFFFFFFFFFFFFFFFFFFFFFFFFFFFFFFFFFFFFFFFFFFFFFFFF NOT AND SWAP1 DUP2 PUSH1 0x0 BYTE SWAP1 MSTORE8 POP PUSH1 0x0 PUSH1 0x1 DUP5 PUSH1 0x2 PUSH2 0x29A3 SWAP2 SWAP1 PUSH2 0x3965 JUMP JUMPDEST PUSH2 0x29AD SWAP2 SWAP1 PUSH2 0x2F62 JUMP JUMPDEST SWAP1 POP JUMPDEST PUSH1 0x1 DUP2 GT ISZERO PUSH2 0x2A4D JUMPI PUSH32 0x3031323334353637383961626364656600000000000000000000000000000000 PUSH1 0xF DUP7 AND PUSH1 0x10 DUP2 LT PUSH2 0x29EF JUMPI PUSH2 0x29EE PUSH2 0x32FD JUMP JUMPDEST JUMPDEST BYTE PUSH1 0xF8 SHL DUP3 DUP3 DUP2 MLOAD DUP2 LT PUSH2 0x2A06 JUMPI PUSH2 0x2A05 PUSH2 0x32FD JUMP JUMPDEST JUMPDEST PUSH1 0x20 ADD ADD SWAP1 PUSH31 0xFFFFFFFFFFFFFFFFFFFFFFFFFFFFFFFFFFFFFFFFFFFFFFFFFFFFFFFFFFFFFF NOT AND SWAP1 DUP2 PUSH1 0x0 BYTE SWAP1 MSTORE8 POP PUSH1 0x4 DUP6 SWAP1 SHR SWAP5 POP DUP1 PUSH2 0x2A46 SWAP1 PUSH2 0x3ED8 JUMP JUMPDEST SWAP1 POP PUSH2 0x29B0 JUMP JUMPDEST POP PUSH1 0x0 DUP5 EQ PUSH2 0x2A91 JUMPI PUSH1 0x40 MLOAD PUSH32 0x8C379A000000000000000000000000000000000000000000000000000000000 DUP2 MSTORE PUSH1 0x4 ADD PUSH2 0x2A88 SWAP1 PUSH2 0x3F4D JUMP JUMPDEST PUSH1 0x40 MLOAD DUP1 SWAP2 SUB SWAP1 REVERT JUMPDEST DUP1 SWAP2 POP POP SWAP3 SWAP2 POP POP JUMP JUMPDEST PUSH1 0x0 PUSH1 0x40 MLOAD SWAP1 POP SWAP1 JUMP JUMPDEST PUSH1 0x0 DUP1 REVERT JUMPDEST PUSH1 0x0 DUP1 REVERT JUMPDEST PUSH1 0x0 PUSH32 0xFFFFFFFF00000000000000000000000000000000000000000000000000000000 DUP3 AND SWAP1 POP SWAP2 SWAP1 POP JUMP JUMPDEST PUSH2 0x2AE4 DUP2 PUSH2 0x2AAF JUMP JUMPDEST DUP2 EQ PUSH2 0x2AEF JUMPI PUSH1 0x0 DUP1 REVERT JUMPDEST POP JUMP JUMPDEST PUSH1 0x0 DUP2 CALLDATALOAD SWAP1 POP PUSH2 0x2B01 DUP2 PUSH2 0x2ADB JUMP JUMPDEST SWAP3 SWAP2 POP POP JUMP JUMPDEST PUSH1 0x0 PUSH1 0x20 DUP3 DUP5 SUB SLT ISZERO PUSH2 0x2B1D JUMPI PUSH2 0x2B1C PUSH2 0x2AA5 JUMP JUMPDEST JUMPDEST PUSH1 0x0 PUSH2 0x2B2B DUP5 DUP3 DUP6 ADD PUSH2 0x2AF2 JUMP JUMPDEST SWAP2 POP POP SWAP3 SWAP2 POP POP JUMP JUMPDEST PUSH1 0x0 DUP2 ISZERO ISZERO SWAP1 POP SWAP2 SWAP1 POP JUMP JUMPDEST PUSH2 0x2B49 DUP2 PUSH2 0x2B34 JUMP JUMPDEST DUP3 MSTORE POP POP JUMP JUMPDEST PUSH1 0x0 PUSH1 0x20 DUP3 ADD SWAP1 POP PUSH2 0x2B64 PUSH1 0x0 DUP4 ADD DUP5 PUSH2 0x2B40 JUMP JUMPDEST SWAP3 SWAP2 POP POP JUMP JUMPDEST PUSH1 0x0 DUP2 SWAP1 POP SWAP2 SWAP1 POP JUMP JUMPDEST PUSH2 0x2B7D DUP2 PUSH2 0x2B6A JUMP JUMPDEST DUP3 MSTORE POP POP JUMP JUMPDEST PUSH1 0x0 PUSH1 0x20 DUP3 ADD SWAP1 POP PUSH2 0x2B98 PUSH1 0x0 DUP4 ADD DUP5 PUSH2 0x2B74 JUMP JUMPDEST SWAP3 SWAP2 POP POP JUMP JUMPDEST PUSH32 0x4E487B7100000000000000000000000000000000000000000000000000000000 PUSH1 0x0 MSTORE PUSH1 0x21 PUSH1 0x4 MSTORE PUSH1 0x24 PUSH1 0x0 REVERT JUMPDEST PUSH1 0x3 DUP2 LT PUSH2 0x2BDE JUMPI PUSH2 0x2BDD PUSH2 0x2B9E JUMP JUMPDEST JUMPDEST POP JUMP JUMPDEST PUSH1 0x0 DUP2 SWAP1 POP PUSH2 0x2BEF DUP3 PUSH2 0x2BCD JUMP JUMPDEST SWAP2 SWAP1 POP JUMP JUMPDEST PUSH1 0x0 PUSH2 0x2BFF DUP3 PUSH2 0x2BE1 JUMP JUMPDEST SWAP1 POP SWAP2 SWAP1 POP JUMP JUMPDEST PUSH2 0x2C0F DUP2 PUSH2 0x2BF4 JUMP JUMPDEST DUP3 MSTORE POP POP JUMP JUMPDEST PUSH1 0x0 PUSH1 0x20 DUP3 ADD SWAP1 POP PUSH2 0x2C2A PUSH1 0x0 DUP4 ADD DUP5 PUSH2 0x2C06 JUMP JUMPDEST SWAP3 SWAP2 POP POP JUMP JUMPDEST PUSH1 0x0 DUP2 SWAP1 POP SWAP2 SWAP1 POP JUMP JUMPDEST PUSH2 0x2C43 DUP2 PUSH2 0x2C30 JUMP JUMPDEST DUP2 EQ PUSH2 0x2C4E JUMPI PUSH1 0x0 DUP1 REVERT JUMPDEST POP JUMP JUMPDEST PUSH1 0x0 DUP2 CALLDATALOAD SWAP1 POP PUSH2 0x2C60 DUP2 PUSH2 0x2C3A JUMP JUMPDEST SWAP3 SWAP2 POP POP JUMP JUMPDEST PUSH1 0x0 PUSH1 0x20 DUP3 DUP5 SUB SLT ISZERO PUSH2 0x2C7C JUMPI PUSH2 0x2C7B PUSH2 0x2AA5 JUMP JUMPDEST JUMPDEST PUSH1 0x0 PUSH2 0x2C8A DUP5 DUP3 DUP6 ADD PUSH2 0x2C51 JUMP JUMPDEST SWAP2 POP POP SWAP3 SWAP2 POP POP JUMP JUMPDEST PUSH2 0x2C9C DUP2 PUSH2 0x2C30 JUMP JUMPDEST DUP3 MSTORE POP POP JUMP JUMPDEST PUSH1 0x0 PUSH1 0x20 DUP3 ADD SWAP1 POP PUSH2 0x2CB7 PUSH1 0x0 DUP4 ADD DUP5 PUSH2 0x2C93 JUMP JUMPDEST SWAP3 SWAP2 POP POP JUMP JUMPDEST PUSH1 0x0 PUSH20 0xFFFFFFFFFFFFFFFFFFFFFFFFFFFFFFFFFFFFFFFF DUP3 AND SWAP1 POP SWAP2 SWAP1 POP JUMP JUMPDEST PUSH1 0x0 PUSH2 0x2CE8 DUP3 PUSH2 0x2CBD JUMP JUMPDEST SWAP1 POP SWAP2 SWAP1 POP JUMP JUMPDEST PUSH2 0x2CF8 DUP2 PUSH2 0x2CDD JUMP JUMPDEST DUP2 EQ PUSH2 0x2D03 JUMPI PUSH1 0x0 DUP1 REVERT JUMPDEST POP JUMP JUMPDEST PUSH1 0x0 DUP2 CALLDATALOAD SWAP1 POP PUSH2 0x2D15 DUP2 PUSH2 0x2CEF JUMP JUMPDEST SWAP3 SWAP2 POP POP JUMP JUMPDEST PUSH1 0x0 DUP1 PUSH1 0x40 DUP4 DUP6 SUB SLT ISZERO PUSH2 0x2D32 JUMPI PUSH2 0x2D31 PUSH2 0x2AA5 JUMP JUMPDEST JUMPDEST PUSH1 0x0 PUSH2 0x2D40 DUP6 DUP3 DUP7 ADD PUSH2 0x2C51 JUMP JUMPDEST SWAP3 POP POP PUSH1 0x20 PUSH2 0x2D51 DUP6 DUP3 DUP7 ADD PUSH2 0x2D06 JUMP JUMPDEST SWAP2 POP POP SWAP3 POP SWAP3 SWAP1 POP JUMP JUMPDEST PUSH2 0x2D64 DUP2 PUSH2 0x2B6A JUMP JUMPDEST DUP2 EQ PUSH2 0x2D6F JUMPI PUSH1 0x0 DUP1 REVERT JUMPDEST POP JUMP JUMPDEST PUSH1 0x0 DUP2 CALLDATALOAD SWAP1 POP PUSH2 0x2D81 DUP2 PUSH2 0x2D5B JUMP JUMPDEST SWAP3 SWAP2 POP POP JUMP JUMPDEST PUSH1 0x0 DUP1 PUSH1 0x40 DUP4 DUP6 SUB SLT ISZERO PUSH2 0x2D9E JUMPI PUSH2 0x2D9D PUSH2 0x2AA5 JUMP JUMPDEST JUMPDEST PUSH1 0x0 PUSH2 0x2DAC DUP6 DUP3 DUP7 ADD PUSH2 0x2D72 JUMP JUMPDEST SWAP3 POP POP PUSH1 0x20 PUSH2 0x2DBD DUP6 DUP3 DUP7 ADD PUSH2 0x2D72 JUMP JUMPDEST SWAP2 POP POP SWAP3 POP SWAP3 SWAP1 POP JUMP JUMPDEST PUSH1 0x0 PUSH1 0x20 DUP3 DUP5 SUB SLT ISZERO PUSH2 0x2DDD JUMPI PUSH2 0x2DDC PUSH2 0x2AA5 JUMP JUMPDEST JUMPDEST PUSH1 0x0 PUSH2 0x2DEB DUP5 DUP3 DUP6 ADD PUSH2 0x2D06 JUMP JUMPDEST SWAP2 POP POP SWAP3 SWAP2 POP POP JUMP JUMPDEST PUSH1 0x0 PUSH1 0x20 DUP3 DUP5 SUB SLT ISZERO PUSH2 0x2E0A JUMPI PUSH2 0x2E09 PUSH2 0x2AA5 JUMP JUMPDEST JUMPDEST PUSH1 0x0 PUSH2 0x2E18 DUP5 DUP3 DUP6 ADD PUSH2 0x2D72 JUMP JUMPDEST SWAP2 POP POP SWAP3 SWAP2 POP POP JUMP JUMPDEST PUSH1 0x0 PUSH2 0x2E2C DUP3 PUSH2 0x2CBD JUMP JUMPDEST SWAP1 POP SWAP2 SWAP1 POP JUMP JUMPDEST PUSH2 0x2E3C DUP2 PUSH2 0x2E21 JUMP JUMPDEST DUP2 EQ PUSH2 0x2E47 JUMPI PUSH1 0x0 DUP1 REVERT JUMPDEST POP JUMP JUMPDEST PUSH1 0x0 DUP2 CALLDATALOAD SWAP1 POP PUSH2 0x2E59 DUP2 PUSH2 0x2E33 JUMP JUMPDEST SWAP3 SWAP2 POP POP JUMP JUMPDEST PUSH1 0x0 PUSH1 0x20 DUP3 DUP5 SUB SLT ISZERO PUSH2 0x2E75 JUMPI PUSH2 0x2E74 PUSH2 0x2AA5 JUMP JUMPDEST JUMPDEST PUSH1 0x0 PUSH2 0x2E83 DUP5 DUP3 DUP6 ADD PUSH2 0x2E4A JUMP JUMPDEST SWAP2 POP POP SWAP3 SWAP2 POP POP JUMP JUMPDEST PUSH2 0x2E95 DUP2 PUSH2 0x2CDD JUMP JUMPDEST DUP3 MSTORE POP POP JUMP JUMPDEST PUSH1 0x0 PUSH1 0x20 DUP3 ADD SWAP1 POP PUSH2 0x2EB0 PUSH1 0x0 DUP4 ADD DUP5 PUSH2 0x2E8C JUMP JUMPDEST SWAP3 SWAP2 POP POP JUMP JUMPDEST PUSH1 0x0 DUP3 DUP3 MSTORE PUSH1 0x20 DUP3 ADD SWAP1 POP SWAP3 SWAP2 POP POP JUMP JUMPDEST PUSH32 0x4E6F742073616C6520726F756E64000000000000000000000000000000000000 PUSH1 0x0 DUP3 ADD MSTORE POP JUMP JUMPDEST PUSH1 0x0 PUSH2 0x2EFD PUSH1 0xE DUP4 PUSH2 0x2EB6 JUMP JUMPDEST SWAP2 POP PUSH2 0x2F08 DUP3 PUSH2 0x2EC7 JUMP JUMPDEST PUSH1 0x20 DUP3 ADD SWAP1 POP SWAP2 SWAP1 POP JUMP JUMPDEST PUSH1 0x0 PUSH1 0x20 DUP3 ADD SWAP1 POP DUP2 DUP2 SUB PUSH1 0x0 DUP4 ADD MSTORE PUSH2 0x2F2C DUP2 PUSH2 0x2EF0 JUMP JUMPDEST SWAP1 POP SWAP2 SWAP1 POP JUMP JUMPDEST PUSH32 0x4E487B7100000000000000000000000000000000000000000000000000000000 PUSH1 0x0 MSTORE PUSH1 0x11 PUSH1 0x4 MSTORE PUSH1 0x24 PUSH1 0x0 REVERT JUMPDEST PUSH1 0x0 PUSH2 0x2F6D DUP3 PUSH2 0x2B6A JUMP JUMPDEST SWAP2 POP PUSH2 0x2F78 DUP4 PUSH2 0x2B6A JUMP JUMPDEST SWAP3 POP DUP3 PUSH32 0xFFFFFFFFFFFFFFFFFFFFFFFFFFFFFFFFFFFFFFFFFFFFFFFFFFFFFFFFFFFFFFFF SUB DUP3 GT ISZERO PUSH2 0x2FAD JUMPI PUSH2 0x2FAC PUSH2 0x2F33 JUMP JUMPDEST JUMPDEST DUP3 DUP3 ADD SWAP1 POP SWAP3 SWAP2 POP POP JUMP JUMPDEST PUSH1 0x0 DUP2 MLOAD SWAP1 POP PUSH2 0x2FC7 DUP2 PUSH2 0x2D5B JUMP JUMPDEST SWAP3 SWAP2 POP POP JUMP JUMPDEST PUSH1 0x0 PUSH1 0x20 DUP3 DUP5 SUB SLT ISZERO PUSH2 0x2FE3 JUMPI PUSH2 0x2FE2 PUSH2 0x2AA5 JUMP JUMPDEST JUMPDEST PUSH1 0x0 PUSH2 0x2FF1 DUP5 DUP3 DUP6 ADD PUSH2 0x2FB8 JUMP JUMPDEST SWAP2 POP POP SWAP3 SWAP2 POP POP JUMP JUMPDEST PUSH32 0x53616C6520726F756E64206973206E6F74206F76657220796574000000000000 PUSH1 0x0 DUP3 ADD MSTORE POP JUMP JUMPDEST PUSH1 0x0 PUSH2 0x3030 PUSH1 0x1A DUP4 PUSH2 0x2EB6 JUMP JUMPDEST SWAP2 POP PUSH2 0x303B DUP3 PUSH2 0x2FFA JUMP JUMPDEST PUSH1 0x20 DUP3 ADD SWAP1 POP SWAP2 SWAP1 POP JUMP JUMPDEST PUSH1 0x0 PUSH1 0x20 DUP3 ADD SWAP1 POP DUP2 DUP2 SUB PUSH1 0x0 DUP4 ADD MSTORE PUSH2 0x305F DUP2 PUSH2 0x3023 JUMP JUMPDEST SWAP1 POP SWAP2 SWAP1 POP JUMP JUMPDEST PUSH32 0x53616C6520726F756E642074696D652065787069726564000000000000000000 PUSH1 0x0 DUP3 ADD MSTORE POP JUMP JUMPDEST PUSH1 0x0 PUSH2 0x309C PUSH1 0x17 DUP4 PUSH2 0x2EB6 JUMP JUMPDEST SWAP2 POP PUSH2 0x30A7 DUP3 PUSH2 0x3066 JUMP JUMPDEST PUSH1 0x20 DUP3 ADD SWAP1 POP SWAP2 SWAP1 POP JUMP JUMPDEST PUSH1 0x0 PUSH1 0x20 DUP3 ADD SWAP1 POP DUP2 DUP2 SUB PUSH1 0x0 DUP4 ADD MSTORE PUSH2 0x30CB DUP2 PUSH2 0x308F JUMP JUMPDEST SWAP1 POP SWAP2 SWAP1 POP JUMP JUMPDEST PUSH32 0x4E6F7420656E6F75676820657468657220746F2062757920746F6B656E000000 PUSH1 0x0 DUP3 ADD MSTORE POP JUMP JUMPDEST PUSH1 0x0 PUSH2 0x3108 PUSH1 0x1D DUP4 PUSH2 0x2EB6 JUMP JUMPDEST SWAP2 POP PUSH2 0x3113 DUP3 PUSH2 0x30D2 JUMP JUMPDEST PUSH1 0x20 DUP3 ADD SWAP1 POP SWAP2 SWAP1 POP JUMP JUMPDEST PUSH1 0x0 PUSH1 0x20 DUP3 ADD SWAP1 POP DUP2 DUP2 SUB PUSH1 0x0 DUP4 ADD MSTORE PUSH2 0x3137 DUP2 PUSH2 0x30FB JUMP JUMPDEST SWAP1 POP SWAP2 SWAP1 POP JUMP JUMPDEST PUSH32 0x4E487B7100000000000000000000000000000000000000000000000000000000 PUSH1 0x0 MSTORE PUSH1 0x12 PUSH1 0x4 MSTORE PUSH1 0x24 PUSH1 0x0 REVERT JUMPDEST PUSH1 0x0 PUSH2 0x3178 DUP3 PUSH2 0x2B6A JUMP JUMPDEST SWAP2 POP PUSH2 0x3183 DUP4 PUSH2 0x2B6A JUMP JUMPDEST SWAP3 POP DUP3 PUSH2 0x3193 JUMPI PUSH2 0x3192 PUSH2 0x313E JUMP JUMPDEST JUMPDEST DUP3 DUP3 DIV SWAP1 POP SWAP3 SWAP2 POP POP JUMP JUMPDEST PUSH1 0x0 PUSH1 0x40 DUP3 ADD SWAP1 POP PUSH2 0x31B3 PUSH1 0x0 DUP4 ADD DUP6 PUSH2 0x2E8C JUMP JUMPDEST PUSH2 0x31C0 PUSH1 0x20 DUP4 ADD DUP5 PUSH2 0x2B74 JUMP JUMPDEST SWAP4 SWAP3 POP POP POP JUMP JUMPDEST PUSH2 0x31D0 DUP2 PUSH2 0x2B34 JUMP JUMPDEST DUP2 EQ PUSH2 0x31DB JUMPI PUSH1 0x0 DUP1 REVERT JUMPDEST POP JUMP JUMPDEST PUSH1 0x0 DUP2 MLOAD SWAP1 POP PUSH2 0x31ED DUP2 PUSH2 0x31C7 JUMP JUMPDEST SWAP3 SWAP2 POP POP JUMP JUMPDEST PUSH1 0x0 PUSH1 0x20 DUP3 DUP5 SUB SLT ISZERO PUSH2 0x3209 JUMPI PUSH2 0x3208 PUSH2 0x2AA5 JUMP JUMPDEST JUMPDEST PUSH1 0x0 PUSH2 0x3217 DUP5 DUP3 DUP6 ADD PUSH2 0x31DE JUMP JUMPDEST SWAP2 POP POP SWAP3 SWAP2 POP POP JUMP JUMPDEST PUSH32 0x416C726561647920737461727465640000000000000000000000000000000000 PUSH1 0x0 DUP3 ADD MSTORE POP JUMP JUMPDEST PUSH1 0x0 PUSH2 0x3256 PUSH1 0xF DUP4 PUSH2 0x2EB6 JUMP JUMPDEST SWAP2 POP PUSH2 0x3261 DUP3 PUSH2 0x3220 JUMP JUMPDEST PUSH1 0x20 DUP3 ADD SWAP1 POP SWAP2 SWAP1 POP JUMP JUMPDEST PUSH1 0x0 PUSH1 0x20 DUP3 ADD SWAP1 POP DUP2 DUP2 SUB PUSH1 0x0 DUP4 ADD MSTORE PUSH2 0x3285 DUP2 PUSH2 0x3249 JUMP JUMPDEST SWAP1 POP SWAP2 SWAP1 POP JUMP JUMPDEST PUSH32 0x4E487B7100000000000000000000000000000000000000000000000000000000 PUSH1 0x0 MSTORE PUSH1 0x41 PUSH1 0x4 MSTORE PUSH1 0x24 PUSH1 0x0 REVERT JUMPDEST PUSH1 0x0 DUP2 MLOAD SWAP1 POP PUSH2 0x32CA DUP2 PUSH2 0x2CEF JUMP JUMPDEST SWAP3 SWAP2 POP POP JUMP JUMPDEST PUSH1 0x0 PUSH1 0x20 DUP3 DUP5 SUB SLT ISZERO PUSH2 0x32E6 JUMPI PUSH2 0x32E5 PUSH2 0x2AA5 JUMP JUMPDEST JUMPDEST PUSH1 0x0 PUSH2 0x32F4 DUP5 DUP3 DUP6 ADD PUSH2 0x32BB JUMP JUMPDEST SWAP2 POP POP SWAP3 SWAP2 POP POP JUMP JUMPDEST PUSH32 0x4E487B7100000000000000000000000000000000000000000000000000000000 PUSH1 0x0 MSTORE PUSH1 0x32 PUSH1 0x4 MSTORE PUSH1 0x24 PUSH1 0x0 REVERT JUMPDEST PUSH1 0x0 DUP2 SWAP1 POP SWAP2 SWAP1 POP JUMP JUMPDEST PUSH1 0x0 DUP2 SWAP1 POP SWAP2 SWAP1 POP JUMP JUMPDEST PUSH1 0x0 PUSH2 0x335B PUSH2 0x3356 PUSH2 0x3351 DUP5 PUSH2 0x332C JUMP JUMPDEST PUSH2 0x3336 JUMP JUMPDEST PUSH2 0x2B6A JUMP JUMPDEST SWAP1 POP SWAP2 SWAP1 POP JUMP JUMPDEST PUSH2 0x336B DUP2 PUSH2 0x3340 JUMP JUMPDEST DUP3 MSTORE POP POP JUMP JUMPDEST PUSH1 0x0 DUP2 MLOAD SWAP1 POP SWAP2 SWAP1 POP JUMP JUMPDEST PUSH1 0x0 DUP3 DUP3 MSTORE PUSH1 0x20 DUP3 ADD SWAP1 POP SWAP3 SWAP2 POP POP JUMP JUMPDEST PUSH1 0x0 DUP2 SWAP1 POP PUSH1 0x20 DUP3 ADD SWAP1 POP SWAP2 SWAP1 POP JUMP JUMPDEST PUSH2 0x33A6 DUP2 PUSH2 0x2CDD JUMP JUMPDEST DUP3 MSTORE POP POP JUMP JUMPDEST PUSH1 0x0 PUSH2 0x33B8 DUP4 DUP4 PUSH2 0x339D JUMP JUMPDEST PUSH1 0x20 DUP4 ADD SWAP1 POP SWAP3 SWAP2 POP POP JUMP JUMPDEST PUSH1 0x0 PUSH1 0x20 DUP3 ADD SWAP1 POP SWAP2 SWAP1 POP JUMP JUMPDEST PUSH1 0x0 PUSH2 0x33DC DUP3 PUSH2 0x3371 JUMP JUMPDEST PUSH2 0x33E6 DUP2 DUP6 PUSH2 0x337C JUMP JUMPDEST SWAP4 POP PUSH2 0x33F1 DUP4 PUSH2 0x338D JUMP JUMPDEST DUP1 PUSH1 0x0 JUMPDEST DUP4 DUP2 LT ISZERO PUSH2 0x3422 JUMPI DUP2 MLOAD PUSH2 0x3409 DUP9 DUP3 PUSH2 0x33AC JUMP JUMPDEST SWAP8 POP PUSH2 0x3414 DUP4 PUSH2 0x33C4 JUMP JUMPDEST SWAP3 POP POP PUSH1 0x1 DUP2 ADD SWAP1 POP PUSH2 0x33F5 JUMP JUMPDEST POP DUP6 SWAP4 POP POP POP POP SWAP3 SWAP2 POP POP JUMP JUMPDEST PUSH1 0x0 PUSH1 0x80 DUP3 ADD SWAP1 POP PUSH2 0x3444 PUSH1 0x0 DUP4 ADD DUP8 PUSH2 0x3362 JUMP JUMPDEST DUP2 DUP2 SUB PUSH1 0x20 DUP4 ADD MSTORE PUSH2 0x3456 DUP2 DUP7 PUSH2 0x33D1 JUMP JUMPDEST SWAP1 POP PUSH2 0x3465 PUSH1 0x40 DUP4 ADD DUP6 PUSH2 0x2E8C JUMP JUMPDEST PUSH2 0x3472 PUSH1 0x60 DUP4 ADD DUP5 PUSH2 0x2B74 JUMP JUMPDEST SWAP6 SWAP5 POP POP POP POP POP JUMP JUMPDEST PUSH1 0x0 DUP1 REVERT JUMPDEST PUSH1 0x0 PUSH1 0x1F NOT PUSH1 0x1F DUP4 ADD AND SWAP1 POP SWAP2 SWAP1 POP JUMP JUMPDEST PUSH2 0x349A DUP3 PUSH2 0x3480 JUMP JUMPDEST DUP2 ADD DUP2 DUP2 LT PUSH8 0xFFFFFFFFFFFFFFFF DUP3 GT OR ISZERO PUSH2 0x34B9 JUMPI PUSH2 0x34B8 PUSH2 0x328C JUMP JUMPDEST JUMPDEST DUP1 PUSH1 0x40 MSTORE POP POP POP JUMP JUMPDEST PUSH1 0x0 PUSH2 0x34CC PUSH2 0x2A9B JUMP JUMPDEST SWAP1 POP PUSH2 0x34D8 DUP3 DUP3 PUSH2 0x3491 JUMP JUMPDEST SWAP2 SWAP1 POP JUMP JUMPDEST PUSH1 0x0 PUSH8 0xFFFFFFFFFFFFFFFF DUP3 GT ISZERO PUSH2 0x34F8 JUMPI PUSH2 0x34F7 PUSH2 0x328C JUMP JUMPDEST JUMPDEST PUSH1 0x20 DUP3 MUL SWAP1 POP PUSH1 0x20 DUP2 ADD SWAP1 POP SWAP2 SWAP1 POP JUMP JUMPDEST PUSH1 0x0 DUP1 REVERT JUMPDEST PUSH1 0x0 PUSH2 0x3521 PUSH2 0x351C DUP5 PUSH2 0x34DD JUMP JUMPDEST PUSH2 0x34C2 JUMP JUMPDEST SWAP1 POP DUP1 DUP4 DUP3 MSTORE PUSH1 0x20 DUP3 ADD SWAP1 POP PUSH1 0x20 DUP5 MUL DUP4 ADD DUP6 DUP2 GT ISZERO PUSH2 0x3544 JUMPI PUSH2 0x3543 PUSH2 0x3509 JUMP JUMPDEST JUMPDEST DUP4 JUMPDEST DUP2 DUP2 LT ISZERO PUSH2 0x356D JUMPI DUP1 PUSH2 0x3559 DUP9 DUP3 PUSH2 0x2FB8 JUMP JUMPDEST DUP5 MSTORE PUSH1 0x20 DUP5 ADD SWAP4 POP POP PUSH1 0x20 DUP2 ADD SWAP1 POP PUSH2 0x3546 JUMP JUMPDEST POP POP POP SWAP4 SWAP3 POP POP POP JUMP JUMPDEST PUSH1 0x0 DUP3 PUSH1 0x1F DUP4 ADD SLT PUSH2 0x358C JUMPI PUSH2 0x358B PUSH2 0x347B JUMP JUMPDEST JUMPDEST DUP2 MLOAD PUSH2 0x359C DUP5 DUP3 PUSH1 0x20 DUP7 ADD PUSH2 0x350E JUMP JUMPDEST SWAP2 POP POP SWAP3 SWAP2 POP POP JUMP JUMPDEST PUSH1 0x0 PUSH1 0x20 DUP3 DUP5 SUB SLT ISZERO PUSH2 0x35BB JUMPI PUSH2 0x35BA PUSH2 0x2AA5 JUMP JUMPDEST JUMPDEST PUSH1 0x0 DUP3 ADD MLOAD PUSH8 0xFFFFFFFFFFFFFFFF DUP2 GT ISZERO PUSH2 0x35D9 JUMPI PUSH2 0x35D8 PUSH2 0x2AAA JUMP JUMPDEST JUMPDEST PUSH2 0x35E5 DUP5 DUP3 DUP6 ADD PUSH2 0x3577 JUMP JUMPDEST SWAP2 POP POP SWAP3 SWAP2 POP POP JUMP JUMPDEST PUSH32 0x416363657373436F6E74726F6C3A2063616E206F6E6C792072656E6F756E6365 PUSH1 0x0 DUP3 ADD MSTORE PUSH32 0x20726F6C657320666F722073656C660000000000000000000000000000000000 PUSH1 0x20 DUP3 ADD MSTORE POP JUMP JUMPDEST PUSH1 0x0 PUSH2 0x364A PUSH1 0x2F DUP4 PUSH2 0x2EB6 JUMP JUMPDEST SWAP2 POP PUSH2 0x3655 DUP3 PUSH2 0x35EE JUMP JUMPDEST PUSH1 0x40 DUP3 ADD SWAP1 POP SWAP2 SWAP1 POP JUMP JUMPDEST PUSH1 0x0 PUSH1 0x20 DUP3 ADD SWAP1 POP DUP2 DUP2 SUB PUSH1 0x0 DUP4 ADD MSTORE PUSH2 0x3679 DUP2 PUSH2 0x363D JUMP JUMPDEST SWAP1 POP SWAP2 SWAP1 POP JUMP JUMPDEST PUSH32 0x526566666572206E6F7420726567697374657265640000000000000000000000 PUSH1 0x0 DUP3 ADD MSTORE POP JUMP JUMPDEST PUSH1 0x0 PUSH2 0x36B6 PUSH1 0x15 DUP4 PUSH2 0x2EB6 JUMP JUMPDEST SWAP2 POP PUSH2 0x36C1 DUP3 PUSH2 0x3680 JUMP JUMPDEST PUSH1 0x20 DUP3 ADD SWAP1 POP SWAP2 SWAP1 POP JUMP JUMPDEST PUSH1 0x0 PUSH1 0x20 DUP3 ADD SWAP1 POP DUP2 DUP2 SUB PUSH1 0x0 DUP4 ADD MSTORE PUSH2 0x36E5 DUP2 PUSH2 0x36A9 JUMP JUMPDEST SWAP1 POP SWAP2 SWAP1 POP JUMP JUMPDEST PUSH32 0x4E6F7420747261646520726F756E640000000000000000000000000000000000 PUSH1 0x0 DUP3 ADD MSTORE POP JUMP JUMPDEST PUSH1 0x0 PUSH2 0x3722 PUSH1 0xF DUP4 PUSH2 0x2EB6 JUMP JUMPDEST SWAP2 POP PUSH2 0x372D DUP3 PUSH2 0x36EC JUMP JUMPDEST PUSH1 0x20 DUP3 ADD SWAP1 POP SWAP2 SWAP1 POP JUMP JUMPDEST PUSH1 0x0 PUSH1 0x20 DUP3 ADD SWAP1 POP DUP2 DUP2 SUB PUSH1 0x0 DUP4 ADD MSTORE PUSH2 0x3751 DUP2 PUSH2 0x3715 JUMP JUMPDEST SWAP1 POP SWAP2 SWAP1 POP JUMP JUMPDEST PUSH32 0x496E76616C6964206F7264657220696400000000000000000000000000000000 PUSH1 0x0 DUP3 ADD MSTORE POP JUMP JUMPDEST PUSH1 0x0 PUSH2 0x378E PUSH1 0x10 DUP4 PUSH2 0x2EB6 JUMP JUMPDEST SWAP2 POP PUSH2 0x3799 DUP3 PUSH2 0x3758 JUMP JUMPDEST PUSH1 0x20 DUP3 ADD SWAP1 POP SWAP2 SWAP1 POP JUMP JUMPDEST PUSH1 0x0 PUSH1 0x20 DUP3 ADD SWAP1 POP DUP2 DUP2 SUB PUSH1 0x0 DUP4 ADD MSTORE PUSH2 0x37BD DUP2 PUSH2 0x3781 JUMP JUMPDEST SWAP1 POP SWAP2 SWAP1 POP JUMP JUMPDEST PUSH32 0x547261646520726F756E642074696D65206973206F7665720000000000000000 PUSH1 0x0 DUP3 ADD MSTORE POP JUMP JUMPDEST PUSH1 0x0 PUSH2 0x37FA PUSH1 0x18 DUP4 PUSH2 0x2EB6 JUMP JUMPDEST SWAP2 POP PUSH2 0x3805 DUP3 PUSH2 0x37C4 JUMP JUMPDEST PUSH1 0x20 DUP3 ADD SWAP1 POP SWAP2 SWAP1 POP JUMP JUMPDEST PUSH1 0x0 PUSH1 0x20 DUP3 ADD SWAP1 POP DUP2 DUP2 SUB PUSH1 0x0 DUP4 ADD MSTORE PUSH2 0x3829 DUP2 PUSH2 0x37ED JUMP JUMPDEST SWAP1 POP SWAP2 SWAP1 POP JUMP JUMPDEST PUSH32 0x4F72646572206578656375746564000000000000000000000000000000000000 PUSH1 0x0 DUP3 ADD MSTORE POP JUMP JUMPDEST PUSH1 0x0 PUSH2 0x3866 PUSH1 0xE DUP4 PUSH2 0x2EB6 JUMP JUMPDEST SWAP2 POP PUSH2 0x3871 DUP3 PUSH2 0x3830 JUMP JUMPDEST PUSH1 0x20 DUP3 ADD SWAP1 POP SWAP2 SWAP1 POP JUMP JUMPDEST PUSH1 0x0 PUSH1 0x20 DUP3 ADD SWAP1 POP DUP2 DUP2 SUB PUSH1 0x0 DUP4 ADD MSTORE PUSH2 0x3895 DUP2 PUSH2 0x3859 JUMP JUMPDEST SWAP1 POP SWAP2 SWAP1 POP JUMP JUMPDEST PUSH32 0x4E6F7420656E6F75676820746F6B656E73000000000000000000000000000000 PUSH1 0x0 DUP3 ADD MSTORE POP JUMP JUMPDEST PUSH1 0x0 PUSH2 0x38D2 PUSH1 0x11 DUP4 PUSH2 0x2EB6 JUMP JUMPDEST SWAP2 POP PUSH2 0x38DD DUP3 PUSH2 0x389C JUMP JUMPDEST PUSH1 0x20 DUP3 ADD SWAP1 POP SWAP2 SWAP1 POP JUMP JUMPDEST PUSH1 0x0 PUSH1 0x20 DUP3 ADD SWAP1 POP DUP2 DUP2 SUB PUSH1 0x0 DUP4 ADD MSTORE PUSH2 0x3901 DUP2 PUSH2 0x38C5 JUMP JUMPDEST SWAP1 POP SWAP2 SWAP1 POP JUMP JUMPDEST PUSH1 0x0 PUSH2 0x3913 DUP3 PUSH2 0x2B6A JUMP JUMPDEST SWAP2 POP PUSH2 0x391E DUP4 PUSH2 0x2B6A JUMP JUMPDEST SWAP3 POP DUP3 DUP3 LT ISZERO PUSH2 0x3931 JUMPI PUSH2 0x3930 PUSH2 0x2F33 JUMP JUMPDEST JUMPDEST DUP3 DUP3 SUB SWAP1 POP SWAP3 SWAP2 POP POP JUMP JUMPDEST PUSH1 0x0 PUSH1 0x40 DUP3 ADD SWAP1 POP PUSH2 0x3951 PUSH1 0x0 DUP4 ADD DUP6 PUSH2 0x2B74 JUMP JUMPDEST PUSH2 0x395E PUSH1 0x20 DUP4 ADD DUP5 PUSH2 0x2B74 JUMP JUMPDEST SWAP4 SWAP3 POP POP POP JUMP JUMPDEST PUSH1 0x0 PUSH2 0x3970 DUP3 PUSH2 0x2B6A JUMP JUMPDEST SWAP2 POP PUSH2 0x397B DUP4 PUSH2 0x2B6A JUMP JUMPDEST SWAP3 POP DUP2 PUSH32 0xFFFFFFFFFFFFFFFFFFFFFFFFFFFFFFFFFFFFFFFFFFFFFFFFFFFFFFFFFFFFFFFF DIV DUP4 GT DUP3 ISZERO ISZERO AND ISZERO PUSH2 0x39B4 JUMPI PUSH2 0x39B3 PUSH2 0x2F33 JUMP JUMPDEST JUMPDEST DUP3 DUP3 MUL SWAP1 POP SWAP3 SWAP2 POP POP JUMP JUMPDEST PUSH32 0x596F7520617265206E6F7420612073656C6C6572000000000000000000000000 PUSH1 0x0 DUP3 ADD MSTORE POP JUMP JUMPDEST PUSH1 0x0 PUSH2 0x39F5 PUSH1 0x14 DUP4 PUSH2 0x2EB6 JUMP JUMPDEST SWAP2 POP PUSH2 0x3A00 DUP3 PUSH2 0x39BF JUMP JUMPDEST PUSH1 0x20 DUP3 ADD SWAP1 POP SWAP2 SWAP1 POP JUMP JUMPDEST PUSH1 0x0 PUSH1 0x20 DUP3 ADD SWAP1 POP DUP2 DUP2 SUB PUSH1 0x0 DUP4 ADD MSTORE PUSH2 0x3A24 DUP2 PUSH2 0x39E8 JUMP JUMPDEST SWAP1 POP SWAP2 SWAP1 POP JUMP JUMPDEST PUSH32 0x547261646520726F756E64206973206E6F74206F766572207965740000000000 PUSH1 0x0 DUP3 ADD MSTORE POP JUMP JUMPDEST PUSH1 0x0 PUSH2 0x3A61 PUSH1 0x1B DUP4 PUSH2 0x2EB6 JUMP JUMPDEST SWAP2 POP PUSH2 0x3A6C DUP3 PUSH2 0x3A2B JUMP JUMPDEST PUSH1 0x20 DUP3 ADD SWAP1 POP SWAP2 SWAP1 POP JUMP JUMPDEST PUSH1 0x0 PUSH1 0x20 DUP3 ADD SWAP1 POP DUP2 DUP2 SUB PUSH1 0x0 DUP4 ADD MSTORE PUSH2 0x3A90 DUP2 PUSH2 0x3A54 JUMP JUMPDEST SWAP1 POP SWAP2 SWAP1 POP JUMP JUMPDEST PUSH1 0x0 PUSH1 0x60 DUP3 ADD SWAP1 POP PUSH2 0x3AAC PUSH1 0x0 DUP4 ADD DUP7 PUSH2 0x2E8C JUMP JUMPDEST PUSH2 0x3AB9 PUSH1 0x20 DUP4 ADD DUP6 PUSH2 0x2E8C JUMP JUMPDEST PUSH2 0x3AC6 PUSH1 0x40 DUP4 ADD DUP5 PUSH2 0x2B74 JUMP JUMPDEST SWAP5 SWAP4 POP POP POP POP JUMP JUMPDEST PUSH1 0x0 PUSH1 0x60 DUP3 ADD SWAP1 POP PUSH2 0x3AE3 PUSH1 0x0 DUP4 ADD DUP7 PUSH2 0x2B74 JUMP JUMPDEST PUSH2 0x3AF0 PUSH1 0x20 DUP4 ADD DUP6 PUSH2 0x2B74 JUMP JUMPDEST PUSH2 0x3AFD PUSH1 0x40 DUP4 ADD DUP5 PUSH2 0x2B74 JUMP JUMPDEST SWAP5 SWAP4 POP POP POP POP JUMP JUMPDEST PUSH1 0x0 PUSH2 0x3B10 DUP3 PUSH2 0x2B6A JUMP JUMPDEST SWAP2 POP PUSH32 0xFFFFFFFFFFFFFFFFFFFFFFFFFFFFFFFFFFFFFFFFFFFFFFFFFFFFFFFFFFFFFFFF DUP3 SUB PUSH2 0x3B42 JUMPI PUSH2 0x3B41 PUSH2 0x2F33 JUMP JUMPDEST JUMPDEST PUSH1 0x1 DUP3 ADD SWAP1 POP SWAP2 SWAP1 POP JUMP JUMPDEST PUSH1 0x0 PUSH1 0xFF DUP3 AND SWAP1 POP SWAP2 SWAP1 POP JUMP JUMPDEST PUSH2 0x3B63 DUP2 PUSH2 0x3B4D JUMP JUMPDEST DUP2 EQ PUSH2 0x3B6E JUMPI PUSH1 0x0 DUP1 REVERT JUMPDEST POP JUMP JUMPDEST PUSH1 0x0 DUP2 MLOAD SWAP1 POP PUSH2 0x3B80 DUP2 PUSH2 0x3B5A JUMP JUMPDEST SWAP3 SWAP2 POP POP JUMP JUMPDEST PUSH1 0x0 PUSH1 0x20 DUP3 DUP5 SUB SLT ISZERO PUSH2 0x3B9C JUMPI PUSH2 0x3B9B PUSH2 0x2AA5 JUMP JUMPDEST JUMPDEST PUSH1 0x0 PUSH2 0x3BAA DUP5 DUP3 DUP6 ADD PUSH2 0x3B71 JUMP JUMPDEST SWAP2 POP POP SWAP3 SWAP2 POP POP JUMP JUMPDEST PUSH1 0x0 DUP2 PUSH1 0x1 SHR SWAP1 POP SWAP2 SWAP1 POP JUMP JUMPDEST PUSH1 0x0 DUP1 DUP3 SWAP2 POP DUP4 SWAP1 POP JUMPDEST PUSH1 0x1 DUP6 GT ISZERO PUSH2 0x3C0A JUMPI DUP1 DUP7 DIV DUP2 GT ISZERO PUSH2 0x3BE6 JUMPI PUSH2 0x3BE5 PUSH2 0x2F33 JUMP JUMPDEST JUMPDEST PUSH1 0x1 DUP6 AND ISZERO PUSH2 0x3BF5 JUMPI DUP1 DUP3 MUL SWAP2 POP JUMPDEST DUP1 DUP2 MUL SWAP1 POP PUSH2 0x3C03 DUP6 PUSH2 0x3BB3 JUMP JUMPDEST SWAP5 POP PUSH2 0x3BCA JUMP JUMPDEST SWAP5 POP SWAP5 SWAP3 POP POP POP JUMP JUMPDEST PUSH1 0x0 DUP3 PUSH2 0x3C23 JUMPI PUSH1 0x1 SWAP1 POP PUSH2 0x3CDF JUMP JUMPDEST DUP2 PUSH2 0x3C31 JUMPI PUSH1 0x0 SWAP1 POP PUSH2 0x3CDF JUMP JUMPDEST DUP2 PUSH1 0x1 DUP2 EQ PUSH2 0x3C47 JUMPI PUSH1 0x2 DUP2 EQ PUSH2 0x3C51 JUMPI PUSH2 0x3C80 JUMP JUMPDEST PUSH1 0x1 SWAP2 POP POP PUSH2 0x3CDF JUMP JUMPDEST PUSH1 0xFF DUP5 GT ISZERO PUSH2 0x3C63 JUMPI PUSH2 0x3C62 PUSH2 0x2F33 JUMP JUMPDEST JUMPDEST DUP4 PUSH1 0x2 EXP SWAP2 POP DUP5 DUP3 GT ISZERO PUSH2 0x3C7A JUMPI PUSH2 0x3C79 PUSH2 0x2F33 JUMP JUMPDEST JUMPDEST POP PUSH2 0x3CDF JUMP JUMPDEST POP PUSH1 0x20 DUP4 LT PUSH2 0x133 DUP4 LT AND PUSH1 0x4E DUP5 LT PUSH1 0xB DUP5 LT AND OR ISZERO PUSH2 0x3CB5 JUMPI DUP3 DUP3 EXP SWAP1 POP DUP4 DUP2 GT ISZERO PUSH2 0x3CB0 JUMPI PUSH2 0x3CAF PUSH2 0x2F33 JUMP JUMPDEST JUMPDEST PUSH2 0x3CDF JUMP JUMPDEST PUSH2 0x3CC2 DUP5 DUP5 DUP5 PUSH1 0x1 PUSH2 0x3BC0 JUMP JUMPDEST SWAP3 POP SWAP1 POP DUP2 DUP5 DIV DUP2 GT ISZERO PUSH2 0x3CD9 JUMPI PUSH2 0x3CD8 PUSH2 0x2F33 JUMP JUMPDEST JUMPDEST DUP2 DUP2 MUL SWAP1 POP JUMPDEST SWAP4 SWAP3 POP POP POP JUMP JUMPDEST PUSH1 0x0 PUSH2 0x3CF1 DUP3 PUSH2 0x2B6A JUMP JUMPDEST SWAP2 POP PUSH2 0x3CFC DUP4 PUSH2 0x3B4D JUMP JUMPDEST SWAP3 POP PUSH2 0x3D29 PUSH32 0xFFFFFFFFFFFFFFFFFFFFFFFFFFFFFFFFFFFFFFFFFFFFFFFFFFFFFFFFFFFFFFFF DUP5 DUP5 PUSH2 0x3C13 JUMP JUMPDEST SWAP1 POP SWAP3 SWAP2 POP POP JUMP JUMPDEST PUSH1 0x0 DUP2 SWAP1 POP SWAP3 SWAP2 POP POP JUMP JUMPDEST PUSH32 0x416363657373436F6E74726F6C3A206163636F756E7420000000000000000000 PUSH1 0x0 DUP3 ADD MSTORE POP JUMP JUMPDEST PUSH1 0x0 PUSH2 0x3D72 PUSH1 0x17 DUP4 PUSH2 0x3D31 JUMP JUMPDEST SWAP2 POP PUSH2 0x3D7D DUP3 PUSH2 0x3D3C JUMP JUMPDEST PUSH1 0x17 DUP3 ADD SWAP1 POP SWAP2 SWAP1 POP JUMP JUMPDEST PUSH1 0x0 DUP2 MLOAD SWAP1 POP SWAP2 SWAP1 POP JUMP JUMPDEST PUSH1 0x0 JUMPDEST DUP4 DUP2 LT ISZERO PUSH2 0x3DB1 JUMPI DUP1 DUP3 ADD MLOAD DUP2 DUP5 ADD MSTORE PUSH1 0x20 DUP2 ADD SWAP1 POP PUSH2 0x3D96 JUMP JUMPDEST DUP4 DUP2 GT ISZERO PUSH2 0x3DC0 JUMPI PUSH1 0x0 DUP5 DUP5 ADD MSTORE JUMPDEST POP POP POP POP JUMP JUMPDEST PUSH1 0x0 PUSH2 0x3DD1 DUP3 PUSH2 0x3D88 JUMP JUMPDEST PUSH2 0x3DDB DUP2 DUP6 PUSH2 0x3D31 JUMP JUMPDEST SWAP4 POP PUSH2 0x3DEB DUP2 DUP6 PUSH1 0x20 DUP7 ADD PUSH2 0x3D93 JUMP JUMPDEST DUP1 DUP5 ADD SWAP2 POP POP SWAP3 SWAP2 POP POP JUMP JUMPDEST PUSH32 0x206973206D697373696E6720726F6C6520000000000000000000000000000000 PUSH1 0x0 DUP3 ADD MSTORE POP JUMP JUMPDEST PUSH1 0x0 PUSH2 0x3E2D PUSH1 0x11 DUP4 PUSH2 0x3D31 JUMP JUMPDEST SWAP2 POP PUSH2 0x3E38 DUP3 PUSH2 0x3DF7 JUMP JUMPDEST PUSH1 0x11 DUP3 ADD SWAP1 POP SWAP2 SWAP1 POP JUMP JUMPDEST PUSH1 0x0 PUSH2 0x3E4E DUP3 PUSH2 0x3D65 JUMP JUMPDEST SWAP2 POP PUSH2 0x3E5A DUP3 DUP6 PUSH2 0x3DC6 JUMP JUMPDEST SWAP2 POP PUSH2 0x3E65 DUP3 PUSH2 0x3E20 JUMP JUMPDEST SWAP2 POP PUSH2 0x3E71 DUP3 DUP5 PUSH2 0x3DC6 JUMP JUMPDEST SWAP2 POP DUP2 SWAP1 POP SWAP4 SWAP3 POP POP POP JUMP JUMPDEST PUSH1 0x0 PUSH2 0x3E88 DUP3 PUSH2 0x3D88 JUMP JUMPDEST PUSH2 0x3E92 DUP2 DUP6 PUSH2 0x2EB6 JUMP JUMPDEST SWAP4 POP PUSH2 0x3EA2 DUP2 DUP6 PUSH1 0x20 DUP7 ADD PUSH2 0x3D93 JUMP JUMPDEST PUSH2 0x3EAB DUP2 PUSH2 0x3480 JUMP JUMPDEST DUP5 ADD SWAP2 POP POP SWAP3 SWAP2 POP POP JUMP JUMPDEST PUSH1 0x0 PUSH1 0x20 DUP3 ADD SWAP1 POP DUP2 DUP2 SUB PUSH1 0x0 DUP4 ADD MSTORE PUSH2 0x3ED0 DUP2 DUP5 PUSH2 0x3E7D JUMP JUMPDEST SWAP1 POP SWAP3 SWAP2 POP POP JUMP JUMPDEST PUSH1 0x0 PUSH2 0x3EE3 DUP3 PUSH2 0x2B6A JUMP JUMPDEST SWAP2 POP PUSH1 0x0 DUP3 SUB PUSH2 0x3EF6 JUMPI PUSH2 0x3EF5 PUSH2 0x2F33 JUMP JUMPDEST JUMPDEST PUSH1 0x1 DUP3 SUB SWAP1 POP SWAP2 SWAP1 POP JUMP JUMPDEST PUSH32 0x537472696E67733A20686578206C656E67746820696E73756666696369656E74 PUSH1 0x0 DUP3 ADD MSTORE POP JUMP JUMPDEST PUSH1 0x0 PUSH2 0x3F37 PUSH1 0x20 DUP4 PUSH2 0x2EB6 JUMP JUMPDEST SWAP2 POP PUSH2 0x3F42 DUP3 PUSH2 0x3F01 JUMP JUMPDEST PUSH1 0x20 DUP3 ADD SWAP1 POP SWAP2 SWAP1 POP JUMP JUMPDEST PUSH1 0x0 PUSH1 0x20 DUP3 ADD SWAP1 POP DUP2 DUP2 SUB PUSH1 0x0 DUP4 ADD MSTORE PUSH2 0x3F66 DUP2 PUSH2 0x3F2A JUMP JUMPDEST SWAP1 POP SWAP2 SWAP1 POP JUMP INVALID LOG2 PUSH5 0x6970667358 0x22 SLT KECCAK256 0xA8 0xEC SWAP16 PUSH5 0xE4104F741A 0xC8 SWAP2 PUSH1 0x24 PUSH32 0xFDE898E6588F0CE799497060AA666187736664736F6C634300080F0033000000 "
        },
        "methodIdentifiers": {
          "DAO()": "98fabd3a",
          "DEFAULT_ADMIN_ROLE()": "a217fddf",
          "acdmEmission()": "7df0b17e",
          "addOrder(uint256,uint256)": "f28db6c4",
          "buyAcdm()": "0cfd77f6",
          "byXXXtokensAndBurn()": "2c2dfe04",
          "getRoleAdmin(bytes32)": "248a9ca3",
          "grantRole(bytes32,address)": "2f2ff15d",
          "hasRole(bytes32,address)": "91d14854",
          "lastPrice()": "053f14da",
          "redeemOrder(uint256)": "4a58ca0e",
          "referralRewardBank()": "c76beb90",
          "refers(address)": "8292afd9",
          "register(address)": "4420e486",
          "registered(address)": "b2dd5c07",
          "removeOrder(uint256)": "9645337a",
          "renounceRole(bytes32,address)": "36568abe",
          "revokeRole(bytes32,address)": "d547741f",
          "saleRoundReferRewards(uint256)": "f0a063e5",
          "sendComissionToOwner()": "dcf566c5",
          "setSaleRoundReferRewards(uint256,uint256)": "34300711",
          "setTradeRoundReferRewards(uint256,uint256)": "3eed6af5",
          "startPlatform()": "1f2e7c22",
          "startSaleRound()": "b59bfa03",
          "startTradeRound()": "0462fc8e",
          "status()": "200d2ed2",
          "supportsInterface(bytes4)": "01ffc9a7",
          "tradeRoundReferRewards(uint256)": "46935bf3",
          "tradeRoundVolume()": "05dcb3a4",
          "withdraw(address)": "51cff8d9"
        }
      },
      "userdoc": {
        "kind": "user",
        "methods": {
          "addOrder(uint256,uint256)": {
            "notice": "Add order during Trade Round"
          },
          "buyAcdm()": {
            "notice": "Buy acdm token with ETH during Sale round"
          },
          "redeemOrder(uint256)": {
            "notice": "redeem order during the Trade Round"
          },
          "register(address)": {
            "notice": "User registration"
          },
          "removeOrder(uint256)": {
            "notice": "remove caller's order"
          },
          "setSaleRoundReferRewards(uint256,uint256)": {
            "notice": "Sets new percent rate for reffer rewards in sale round"
          },
          "setTradeRoundReferRewards(uint256,uint256)": {
            "notice": "Sets new percent rate for reffer rewards in trade round"
          },
          "startPlatform()": {
            "notice": "Start platform and first sale round"
          },
          "startTradeRound()": {
            "notice": "Starts trade round if sale round time expired or sold out"
          }
        },
        "version": 1
      }
    }
  }
}