{
  "contracts/ACDMPlatform.sol": {
    "ACDMplatform": {
      "abi": [
        {
          "inputs": [
            {
              "internalType": "address",
              "name": "_acdmToken",
              "type": "address"
            }
          ],
          "stateMutability": "nonpayable",
          "type": "constructor"
        },
        {
          "anonymous": false,
          "inputs": [
            {
              "indexed": true,
              "internalType": "bytes32",
              "name": "role",
              "type": "bytes32"
            },
            {
              "indexed": true,
              "internalType": "bytes32",
              "name": "previousAdminRole",
              "type": "bytes32"
            },
            {
              "indexed": true,
              "internalType": "bytes32",
              "name": "newAdminRole",
              "type": "bytes32"
            }
          ],
          "name": "RoleAdminChanged",
          "type": "event"
        },
        {
          "anonymous": false,
          "inputs": [
            {
              "indexed": true,
              "internalType": "bytes32",
              "name": "role",
              "type": "bytes32"
            },
            {
              "indexed": true,
              "internalType": "address",
              "name": "account",
              "type": "address"
            },
            {
              "indexed": true,
              "internalType": "address",
              "name": "sender",
              "type": "address"
            }
          ],
          "name": "RoleGranted",
          "type": "event"
        },
        {
          "anonymous": false,
          "inputs": [
            {
              "indexed": true,
              "internalType": "bytes32",
              "name": "role",
              "type": "bytes32"
            },
            {
              "indexed": true,
              "internalType": "address",
              "name": "account",
              "type": "address"
            },
            {
              "indexed": true,
              "internalType": "address",
              "name": "sender",
              "type": "address"
            }
          ],
          "name": "RoleRevoked",
          "type": "event"
        },
        {
          "inputs": [],
          "name": "DAO",
          "outputs": [
            {
              "internalType": "bytes32",
              "name": "",
              "type": "bytes32"
            }
          ],
          "stateMutability": "view",
          "type": "function"
        },
        {
          "inputs": [],
          "name": "DEFAULT_ADMIN_ROLE",
          "outputs": [
            {
              "internalType": "bytes32",
              "name": "",
              "type": "bytes32"
            }
          ],
          "stateMutability": "view",
          "type": "function"
        },
        {
          "inputs": [],
          "name": "acdmLiquidityAmount",
          "outputs": [
            {
              "internalType": "uint256",
              "name": "",
              "type": "uint256"
            }
          ],
          "stateMutability": "view",
          "type": "function"
        },
        {
          "inputs": [],
          "name": "buyAcdm",
          "outputs": [],
          "stateMutability": "payable",
          "type": "function"
        },
        {
          "inputs": [
            {
              "internalType": "bytes32",
              "name": "role",
              "type": "bytes32"
            }
          ],
          "name": "getRoleAdmin",
          "outputs": [
            {
              "internalType": "bytes32",
              "name": "",
              "type": "bytes32"
            }
          ],
          "stateMutability": "view",
          "type": "function"
        },
        {
          "inputs": [
            {
              "internalType": "bytes32",
              "name": "role",
              "type": "bytes32"
            },
            {
              "internalType": "address",
              "name": "account",
              "type": "address"
            }
          ],
          "name": "grantRole",
          "outputs": [],
          "stateMutability": "nonpayable",
          "type": "function"
        },
        {
          "inputs": [
            {
              "internalType": "bytes32",
              "name": "role",
              "type": "bytes32"
            },
            {
              "internalType": "address",
              "name": "account",
              "type": "address"
            }
          ],
          "name": "hasRole",
          "outputs": [
            {
              "internalType": "bool",
              "name": "",
              "type": "bool"
            }
          ],
          "stateMutability": "view",
          "type": "function"
        },
        {
          "inputs": [
            {
              "internalType": "address",
              "name": "",
              "type": "address"
            }
          ],
          "name": "refers",
          "outputs": [
            {
              "internalType": "address",
              "name": "",
              "type": "address"
            }
          ],
          "stateMutability": "view",
          "type": "function"
        },
        {
          "inputs": [
            {
              "internalType": "address",
              "name": "_refer",
              "type": "address"
            }
          ],
          "name": "register",
          "outputs": [],
          "stateMutability": "nonpayable",
          "type": "function"
        },
        {
          "inputs": [
            {
              "internalType": "address",
              "name": "",
              "type": "address"
            }
          ],
          "name": "registered",
          "outputs": [
            {
              "internalType": "bool",
              "name": "",
              "type": "bool"
            }
          ],
          "stateMutability": "view",
          "type": "function"
        },
        {
          "inputs": [
            {
              "internalType": "bytes32",
              "name": "role",
              "type": "bytes32"
            },
            {
              "internalType": "address",
              "name": "account",
              "type": "address"
            }
          ],
          "name": "renounceRole",
          "outputs": [],
          "stateMutability": "nonpayable",
          "type": "function"
        },
        {
          "inputs": [
            {
              "internalType": "bytes32",
              "name": "role",
              "type": "bytes32"
            },
            {
              "internalType": "address",
              "name": "account",
              "type": "address"
            }
          ],
          "name": "revokeRole",
          "outputs": [],
          "stateMutability": "nonpayable",
          "type": "function"
        },
        {
          "inputs": [
            {
              "internalType": "uint256",
              "name": "_newPercent",
              "type": "uint256"
            }
          ],
          "name": "setReffer1RewardPercent",
          "outputs": [],
          "stateMutability": "nonpayable",
          "type": "function"
        },
        {
          "inputs": [
            {
              "internalType": "uint256",
              "name": "_newPercent",
              "type": "uint256"
            }
          ],
          "name": "setReffer2RewardPercent",
          "outputs": [],
          "stateMutability": "nonpayable",
          "type": "function"
        },
        {
          "inputs": [],
          "name": "startPLatform",
          "outputs": [],
          "stateMutability": "nonpayable",
          "type": "function"
        },
        {
          "inputs": [],
          "name": "startSaleRound",
          "outputs": [],
          "stateMutability": "nonpayable",
          "type": "function"
        },
        {
          "inputs": [],
          "name": "startTradeRound",
          "outputs": [],
          "stateMutability": "nonpayable",
          "type": "function"
        },
        {
          "inputs": [],
          "name": "status",
          "outputs": [
            {
              "internalType": "enum ACDMplatform.Status",
              "name": "",
              "type": "uint8"
            }
          ],
          "stateMutability": "view",
          "type": "function"
        },
        {
          "inputs": [
            {
              "internalType": "bytes4",
              "name": "interfaceId",
              "type": "bytes4"
            }
          ],
          "name": "supportsInterface",
          "outputs": [
            {
              "internalType": "bool",
              "name": "",
              "type": "bool"
            }
          ],
          "stateMutability": "view",
          "type": "function"
        }
      ],
      "devdoc": {
        "kind": "dev",
        "methods": {
          "getRoleAdmin(bytes32)": {
            "details": "Returns the admin role that controls `role`. See {grantRole} and {revokeRole}. To change a role's admin, use {_setRoleAdmin}."
          },
          "grantRole(bytes32,address)": {
            "details": "Grants `role` to `account`. If `account` had not been already granted `role`, emits a {RoleGranted} event. Requirements: - the caller must have ``role``'s admin role. May emit a {RoleGranted} event."
          },
          "hasRole(bytes32,address)": {
            "details": "Returns `true` if `account` has been granted `role`."
          },
          "renounceRole(bytes32,address)": {
            "details": "Revokes `role` from the calling account. Roles are often managed via {grantRole} and {revokeRole}: this function's purpose is to provide a mechanism for accounts to lose their privileges if they are compromised (such as when a trusted device is misplaced). If the calling account had been revoked `role`, emits a {RoleRevoked} event. Requirements: - the caller must be `account`. May emit a {RoleRevoked} event."
          },
          "revokeRole(bytes32,address)": {
            "details": "Revokes `role` from `account`. If `account` had been granted `role`, emits a {RoleRevoked} event. Requirements: - the caller must have ``role``'s admin role. May emit a {RoleRevoked} event."
          },
          "supportsInterface(bytes4)": {
            "details": "See {IERC165-supportsInterface}."
          }
        },
        "version": 1
      },
      "evm": {
        "bytecode": {
          "linkReferences": {},
          "object": "60806040526040518060400160405280600560ff168152602001600360ff1681525060029060026200003392919062000247565b506203f480600555670de0b6b3a764000060065562989680600755620186a06008553480156200006257600080fd5b5060405162001f9e38038062001f9e83398181016040528101906200008891906200031a565b806001806101000a81548173ffffffffffffffffffffffffffffffffffffffff021916908373ffffffffffffffffffffffffffffffffffffffff160217905550620000dd6000801b33620000e460201b60201c565b506200034c565b620000f68282620001d560201b60201c565b620001d157600160008084815260200190815260200160002060000160008373ffffffffffffffffffffffffffffffffffffffff1673ffffffffffffffffffffffffffffffffffffffff16815260200190815260200160002060006101000a81548160ff021916908315150217905550620001766200023f60201b60201c565b73ffffffffffffffffffffffffffffffffffffffff168173ffffffffffffffffffffffffffffffffffffffff16837f2f8788117e7eff1d82e926ec794901d17c78024a50270940304540a733656f0d60405160405180910390a45b5050565b600080600084815260200190815260200160002060000160008373ffffffffffffffffffffffffffffffffffffffff1673ffffffffffffffffffffffffffffffffffffffff16815260200190815260200160002060009054906101000a900460ff16905092915050565b600033905090565b82600281019282156200027e579160200282015b828111156200027d578251829060ff169055916020019190600101906200025b565b5b5090506200028d919062000291565b5090565b5b80821115620002ac57600081600090555060010162000292565b5090565b600080fd5b600073ffffffffffffffffffffffffffffffffffffffff82169050919050565b6000620002e282620002b5565b9050919050565b620002f481620002d5565b81146200030057600080fd5b50565b6000815190506200031481620002e9565b92915050565b600060208284031215620003335762000332620002b0565b5b6000620003438482850162000303565b91505092915050565b611c42806200035c6000396000f3fe6080604052600436106101145760003560e01c80634420e486116100a0578063a217fddf11610064578063a217fddf1461036a578063b2dd5c0714610395578063b59bfa03146103d2578063d547741f146103e9578063fd69e25a1461041257610114565b80634420e4861461027357806364807bb71461029c5780638292afd9146102c557806391d148541461030257806398fabd3a1461033f57610114565b806315b86263116100e757806315b86263146101a2578063200d2ed2146101b9578063248a9ca3146101e45780632f2ff15d1461022157806336568abe1461024a57610114565b806301ffc9a7146101195780630462fc8e14610156578063085e55911461016d5780630cfd77f614610198575b600080fd5b34801561012557600080fd5b50610140600480360381019061013b91906111dd565b61043b565b60405161014d9190611225565b60405180910390f35b34801561016257600080fd5b5061016b6104b5565b005b34801561017957600080fd5b50610182610558565b60405161018f9190611259565b60405180910390f35b6101a061055e565b005b3480156101ae57600080fd5b506101b7610718565b005b3480156101c557600080fd5b506101ce61085d565b6040516101db91906112eb565b60405180910390f35b3480156101f057600080fd5b5061020b6004803603810190610206919061133c565b610870565b6040516102189190611378565b60405180910390f35b34801561022d57600080fd5b50610248600480360381019061024391906113f1565b61088f565b005b34801561025657600080fd5b50610271600480360381019061026c91906113f1565b6108b0565b005b34801561027f57600080fd5b5061029a60048036038101906102959190611431565b610933565b005b3480156102a857600080fd5b506102c360048036038101906102be919061148a565b610a98565b005b3480156102d157600080fd5b506102ec60048036038101906102e79190611431565b610ae1565b6040516102f991906114c6565b60405180910390f35b34801561030e57600080fd5b50610329600480360381019061032491906113f1565b610b14565b6040516103369190611225565b60405180910390f35b34801561034b57600080fd5b50610354610b7e565b6040516103619190611378565b60405180910390f35b34801561037657600080fd5b5061037f610ba2565b60405161038c9190611378565b60405180910390f35b3480156103a157600080fd5b506103bc60048036038101906103b79190611431565b610ba9565b6040516103c99190611225565b60405180910390f35b3480156103de57600080fd5b506103e7610bc9565b005b3480156103f557600080fd5b50610410600480360381019061040b91906113f1565b610bf6565b005b34801561041e57600080fd5b506104396004803603810190610434919061148a565b610c17565b005b60007f7965db0b000000000000000000000000000000000000000000000000000000007bffffffffffffffffffffffffffffffffffffffffffffffffffffffff1916827bffffffffffffffffffffffffffffffffffffffffffffffffffffffff191614806104ae57506104ad82610c60565b5b9050919050565b600160028111156104c9576104c8611274565b5b600b60009054906101000a900460ff1660028111156104eb576104ea611274565b5b1461052b576040517f08c379a00000000000000000000000000000000000000000000000000000000081526004016105229061153e565b60405180910390fd5b6002600b60006101000a81548160ff0219169083600281111561055157610550611274565b5b0217905550565b60045481565b6001600281111561057257610571611274565b5b600b60009054906101000a900460ff16600281111561059457610593611274565b5b146105d4576040517f08c379a00000000000000000000000000000000000000000000000000000000081526004016105cb9061153e565b60405180910390fd5b426203f4806009546105e6919061158d565b11610626576040517f08c379a000000000000000000000000000000000000000000000000000000000815260040161061d9061162f565b60405180910390fd5b600754341161066a576040517f08c379a00000000000000000000000000000000000000000000000000000000081526004016106619061169b565b60405180910390fd5b60018054906101000a900473ffffffffffffffffffffffffffffffffffffffff1673ffffffffffffffffffffffffffffffffffffffff1663a9059cbb33600754346106b591906116ea565b6040518363ffffffff1660e01b81526004016106d292919061171b565b6020604051808303816000875af11580156106f1573d6000803e3d6000fd5b505050506040513d601f19601f820116820180604052508101906107159190611770565b50565b6000801b61072581610cca565b6000600281111561073957610738611274565b5b600b60009054906101000a900460ff16600281111561075b5761075a611274565b5b1461079b576040517f08c379a0000000000000000000000000000000000000000000000000000000008152600401610792906117e9565b60405180910390fd5b4260098190555060018054906101000a900473ffffffffffffffffffffffffffffffffffffffff1673ffffffffffffffffffffffffffffffffffffffff1663a0712d686008546040518263ffffffff1660e01b81526004016107fd9190611259565b600060405180830381600087803b15801561081757600080fd5b505af115801561082b573d6000803e3d6000fd5b505050506001600b60006101000a81548160ff0219169083600281111561085557610854611274565b5b021790555050565b600b60009054906101000a900460ff1681565b6000806000838152602001908152602001600020600101549050919050565b61089882610870565b6108a181610cca565b6108ab8383610cde565b505050565b6108b8610dbe565b73ffffffffffffffffffffffffffffffffffffffff168173ffffffffffffffffffffffffffffffffffffffff1614610925576040517f08c379a000000000000000000000000000000000000000000000000000000000815260040161091c9061187b565b60405180910390fd5b61092f8282610dc6565b5050565b600d60008273ffffffffffffffffffffffffffffffffffffffff1673ffffffffffffffffffffffffffffffffffffffff16815260200190815260200160002060009054906101000a900460ff166109bf576040517f08c379a00000000000000000000000000000000000000000000000000000000081526004016109b6906118e7565b60405180910390fd5b6001600d60003373ffffffffffffffffffffffffffffffffffffffff1673ffffffffffffffffffffffffffffffffffffffff16815260200190815260200160002060006101000a81548160ff02191690831515021790555080600c60003373ffffffffffffffffffffffffffffffffffffffff1673ffffffffffffffffffffffffffffffffffffffff16815260200190815260200160002060006101000a81548173ffffffffffffffffffffffffffffffffffffffff021916908373ffffffffffffffffffffffffffffffffffffffff16021790555050565b7fd0a4ad96d49edb1c33461cebc6fb2609190f32c904e3c3f5877edb4488dee91e610ac281610cca565b816002600160028110610ad857610ad7611907565b5b01819055505050565b600c6020528060005260406000206000915054906101000a900473ffffffffffffffffffffffffffffffffffffffff1681565b600080600084815260200190815260200160002060000160008373ffffffffffffffffffffffffffffffffffffffff1673ffffffffffffffffffffffffffffffffffffffff16815260200190815260200160002060009054906101000a900460ff16905092915050565b7fd0a4ad96d49edb1c33461cebc6fb2609190f32c904e3c3f5877edb4488dee91e81565b6000801b81565b600d6020528060005260406000206000915054906101000a900460ff1681565b6001600b60006101000a81548160ff02191690836002811115610bef57610bee611274565b5b0217905550565b610bff82610870565b610c0881610cca565b610c128383610dc6565b505050565b7fd0a4ad96d49edb1c33461cebc6fb2609190f32c904e3c3f5877edb4488dee91e610c4181610cca565b816002600060028110610c5757610c56611907565b5b01819055505050565b60007f01ffc9a7000000000000000000000000000000000000000000000000000000007bffffffffffffffffffffffffffffffffffffffffffffffffffffffff1916827bffffffffffffffffffffffffffffffffffffffffffffffffffffffff1916149050919050565b610cdb81610cd6610dbe565b610ea7565b50565b610ce88282610b14565b610dba57600160008084815260200190815260200160002060000160008373ffffffffffffffffffffffffffffffffffffffff1673ffffffffffffffffffffffffffffffffffffffff16815260200190815260200160002060006101000a81548160ff021916908315150217905550610d5f610dbe565b73ffffffffffffffffffffffffffffffffffffffff168173ffffffffffffffffffffffffffffffffffffffff16837f2f8788117e7eff1d82e926ec794901d17c78024a50270940304540a733656f0d60405160405180910390a45b5050565b600033905090565b610dd08282610b14565b15610ea357600080600084815260200190815260200160002060000160008373ffffffffffffffffffffffffffffffffffffffff1673ffffffffffffffffffffffffffffffffffffffff16815260200190815260200160002060006101000a81548160ff021916908315150217905550610e48610dbe565b73ffffffffffffffffffffffffffffffffffffffff168173ffffffffffffffffffffffffffffffffffffffff16837ff6391f5c32d9c69d2a47ea670b442974b53935d1edc7fd64eb21e047a839171b60405160405180910390a45b5050565b610eb18282610b14565b610f4057610ed68173ffffffffffffffffffffffffffffffffffffffff166014610f44565b610ee48360001c6020610f44565b604051602001610ef5929190611a48565b6040516020818303038152906040526040517f08c379a0000000000000000000000000000000000000000000000000000000008152600401610f379190611acc565b60405180910390fd5b5050565b606060006002836002610f579190611aee565b610f61919061158d565b67ffffffffffffffff811115610f7a57610f79611b48565b5b6040519080825280601f01601f191660200182016040528015610fac5781602001600182028036833780820191505090505b5090507f300000000000000000000000000000000000000000000000000000000000000081600081518110610fe457610fe3611907565b5b60200101907effffffffffffffffffffffffffffffffffffffffffffffffffffffffffffff1916908160001a9053507f78000000000000000000000000000000000000000000000000000000000000008160018151811061104857611047611907565b5b60200101907effffffffffffffffffffffffffffffffffffffffffffffffffffffffffffff1916908160001a905350600060018460026110889190611aee565b611092919061158d565b90505b6001811115611132577f3031323334353637383961626364656600000000000000000000000000000000600f8616601081106110d4576110d3611907565b5b1a60f81b8282815181106110eb576110ea611907565b5b60200101907effffffffffffffffffffffffffffffffffffffffffffffffffffffffffffff1916908160001a905350600485901c94508061112b90611b77565b9050611095565b5060008414611176576040517f08c379a000000000000000000000000000000000000000000000000000000000815260040161116d90611bec565b60405180910390fd5b8091505092915050565b600080fd5b60007fffffffff0000000000000000000000000000000000000000000000000000000082169050919050565b6111ba81611185565b81146111c557600080fd5b50565b6000813590506111d7816111b1565b92915050565b6000602082840312156111f3576111f2611180565b5b6000611201848285016111c8565b91505092915050565b60008115159050919050565b61121f8161120a565b82525050565b600060208201905061123a6000830184611216565b92915050565b6000819050919050565b61125381611240565b82525050565b600060208201905061126e600083018461124a565b92915050565b7f4e487b7100000000000000000000000000000000000000000000000000000000600052602160045260246000fd5b600381106112b4576112b3611274565b5b50565b60008190506112c5826112a3565b919050565b60006112d5826112b7565b9050919050565b6112e5816112ca565b82525050565b600060208201905061130060008301846112dc565b92915050565b6000819050919050565b61131981611306565b811461132457600080fd5b50565b60008135905061133681611310565b92915050565b60006020828403121561135257611351611180565b5b600061136084828501611327565b91505092915050565b61137281611306565b82525050565b600060208201905061138d6000830184611369565b92915050565b600073ffffffffffffffffffffffffffffffffffffffff82169050919050565b60006113be82611393565b9050919050565b6113ce816113b3565b81146113d957600080fd5b50565b6000813590506113eb816113c5565b92915050565b6000806040838503121561140857611407611180565b5b600061141685828601611327565b9250506020611427858286016113dc565b9150509250929050565b60006020828403121561144757611446611180565b5b6000611455848285016113dc565b91505092915050565b61146781611240565b811461147257600080fd5b50565b6000813590506114848161145e565b92915050565b6000602082840312156114a05761149f611180565b5b60006114ae84828501611475565b91505092915050565b6114c0816113b3565b82525050565b60006020820190506114db60008301846114b7565b92915050565b600082825260208201905092915050565b7f4e6f742073616c6520726f756e64000000000000000000000000000000000000600082015250565b6000611528600e836114e1565b9150611533826114f2565b602082019050919050565b600060208201905081810360008301526115578161151b565b9050919050565b7f4e487b7100000000000000000000000000000000000000000000000000000000600052601160045260246000fd5b600061159882611240565b91506115a383611240565b9250827fffffffffffffffffffffffffffffffffffffffffffffffffffffffffffffffff038211156115d8576115d761155e565b5b828201905092915050565b7f53616c6520726f756e642074696d652065787069726564000000000000000000600082015250565b60006116196017836114e1565b9150611624826115e3565b602082019050919050565b600060208201905081810360008301526116488161160c565b9050919050565b7f4e6f7420656e6f75676820657468657220746f2062757920746f6b656e000000600082015250565b6000611685601d836114e1565b91506116908261164f565b602082019050919050565b600060208201905081810360008301526116b481611678565b9050919050565b7f4e487b7100000000000000000000000000000000000000000000000000000000600052601260045260246000fd5b60006116f582611240565b915061170083611240565b9250826117105761170f6116bb565b5b828204905092915050565b600060408201905061173060008301856114b7565b61173d602083018461124a565b9392505050565b61174d8161120a565b811461175857600080fd5b50565b60008151905061176a81611744565b92915050565b60006020828403121561178657611785611180565b5b60006117948482850161175b565b91505092915050565b7f416c726561647920737461727465640000000000000000000000000000000000600082015250565b60006117d3600f836114e1565b91506117de8261179d565b602082019050919050565b60006020820190508181036000830152611802816117c6565b9050919050565b7f416363657373436f6e74726f6c3a2063616e206f6e6c792072656e6f756e636560008201527f20726f6c657320666f722073656c660000000000000000000000000000000000602082015250565b6000611865602f836114e1565b915061187082611809565b604082019050919050565b6000602082019050818103600083015261189481611858565b9050919050565b7f526566666572206e6f7420726567697374657265640000000000000000000000600082015250565b60006118d16015836114e1565b91506118dc8261189b565b602082019050919050565b60006020820190508181036000830152611900816118c4565b9050919050565b7f4e487b7100000000000000000000000000000000000000000000000000000000600052603260045260246000fd5b600081905092915050565b7f416363657373436f6e74726f6c3a206163636f756e7420000000000000000000600082015250565b6000611977601783611936565b915061198282611941565b601782019050919050565b600081519050919050565b60005b838110156119b657808201518184015260208101905061199b565b838111156119c5576000848401525b50505050565b60006119d68261198d565b6119e08185611936565b93506119f0818560208601611998565b80840191505092915050565b7f206973206d697373696e6720726f6c6520000000000000000000000000000000600082015250565b6000611a32601183611936565b9150611a3d826119fc565b601182019050919050565b6000611a538261196a565b9150611a5f82856119cb565b9150611a6a82611a25565b9150611a7682846119cb565b91508190509392505050565b6000601f19601f8301169050919050565b6000611a9e8261198d565b611aa881856114e1565b9350611ab8818560208601611998565b611ac181611a82565b840191505092915050565b60006020820190508181036000830152611ae68184611a93565b905092915050565b6000611af982611240565b9150611b0483611240565b9250817fffffffffffffffffffffffffffffffffffffffffffffffffffffffffffffffff0483118215151615611b3d57611b3c61155e565b5b828202905092915050565b7f4e487b7100000000000000000000000000000000000000000000000000000000600052604160045260246000fd5b6000611b8282611240565b915060008203611b9557611b9461155e565b5b600182039050919050565b7f537472696e67733a20686578206c656e67746820696e73756666696369656e74600082015250565b6000611bd66020836114e1565b9150611be182611ba0565b602082019050919050565b60006020820190508181036000830152611c0581611bc9565b905091905056fea2646970667358221220b8d352d0ddc23a5b2ed33d6a6a686ecdcfdbb72995894018702c76879c7e867464736f6c634300080f0033",
          "opcodes": "PUSH1 0x80 PUSH1 0x40 MSTORE PUSH1 0x40 MLOAD DUP1 PUSH1 0x40 ADD PUSH1 0x40 MSTORE DUP1 PUSH1 0x5 PUSH1 0xFF AND DUP2 MSTORE PUSH1 0x20 ADD PUSH1 0x3 PUSH1 0xFF AND DUP2 MSTORE POP PUSH1 0x2 SWAP1 PUSH1 0x2 PUSH3 0x33 SWAP3 SWAP2 SWAP1 PUSH3 0x247 JUMP JUMPDEST POP PUSH3 0x3F480 PUSH1 0x5 SSTORE PUSH8 0xDE0B6B3A7640000 PUSH1 0x6 SSTORE PUSH3 0x989680 PUSH1 0x7 SSTORE PUSH3 0x186A0 PUSH1 0x8 SSTORE CALLVALUE DUP1 ISZERO PUSH3 0x62 JUMPI PUSH1 0x0 DUP1 REVERT JUMPDEST POP PUSH1 0x40 MLOAD PUSH3 0x1F9E CODESIZE SUB DUP1 PUSH3 0x1F9E DUP4 CODECOPY DUP2 DUP2 ADD PUSH1 0x40 MSTORE DUP2 ADD SWAP1 PUSH3 0x88 SWAP2 SWAP1 PUSH3 0x31A JUMP JUMPDEST DUP1 PUSH1 0x1 DUP1 PUSH2 0x100 EXP DUP2 SLOAD DUP2 PUSH20 0xFFFFFFFFFFFFFFFFFFFFFFFFFFFFFFFFFFFFFFFF MUL NOT AND SWAP1 DUP4 PUSH20 0xFFFFFFFFFFFFFFFFFFFFFFFFFFFFFFFFFFFFFFFF AND MUL OR SWAP1 SSTORE POP PUSH3 0xDD PUSH1 0x0 DUP1 SHL CALLER PUSH3 0xE4 PUSH1 0x20 SHL PUSH1 0x20 SHR JUMP JUMPDEST POP PUSH3 0x34C JUMP JUMPDEST PUSH3 0xF6 DUP3 DUP3 PUSH3 0x1D5 PUSH1 0x20 SHL PUSH1 0x20 SHR JUMP JUMPDEST PUSH3 0x1D1 JUMPI PUSH1 0x1 PUSH1 0x0 DUP1 DUP5 DUP2 MSTORE PUSH1 0x20 ADD SWAP1 DUP2 MSTORE PUSH1 0x20 ADD PUSH1 0x0 KECCAK256 PUSH1 0x0 ADD PUSH1 0x0 DUP4 PUSH20 0xFFFFFFFFFFFFFFFFFFFFFFFFFFFFFFFFFFFFFFFF AND PUSH20 0xFFFFFFFFFFFFFFFFFFFFFFFFFFFFFFFFFFFFFFFF AND DUP2 MSTORE PUSH1 0x20 ADD SWAP1 DUP2 MSTORE PUSH1 0x20 ADD PUSH1 0x0 KECCAK256 PUSH1 0x0 PUSH2 0x100 EXP DUP2 SLOAD DUP2 PUSH1 0xFF MUL NOT AND SWAP1 DUP4 ISZERO ISZERO MUL OR SWAP1 SSTORE POP PUSH3 0x176 PUSH3 0x23F PUSH1 0x20 SHL PUSH1 0x20 SHR JUMP JUMPDEST PUSH20 0xFFFFFFFFFFFFFFFFFFFFFFFFFFFFFFFFFFFFFFFF AND DUP2 PUSH20 0xFFFFFFFFFFFFFFFFFFFFFFFFFFFFFFFFFFFFFFFF AND DUP4 PUSH32 0x2F8788117E7EFF1D82E926EC794901D17C78024A50270940304540A733656F0D PUSH1 0x40 MLOAD PUSH1 0x40 MLOAD DUP1 SWAP2 SUB SWAP1 LOG4 JUMPDEST POP POP JUMP JUMPDEST PUSH1 0x0 DUP1 PUSH1 0x0 DUP5 DUP2 MSTORE PUSH1 0x20 ADD SWAP1 DUP2 MSTORE PUSH1 0x20 ADD PUSH1 0x0 KECCAK256 PUSH1 0x0 ADD PUSH1 0x0 DUP4 PUSH20 0xFFFFFFFFFFFFFFFFFFFFFFFFFFFFFFFFFFFFFFFF AND PUSH20 0xFFFFFFFFFFFFFFFFFFFFFFFFFFFFFFFFFFFFFFFF AND DUP2 MSTORE PUSH1 0x20 ADD SWAP1 DUP2 MSTORE PUSH1 0x20 ADD PUSH1 0x0 KECCAK256 PUSH1 0x0 SWAP1 SLOAD SWAP1 PUSH2 0x100 EXP SWAP1 DIV PUSH1 0xFF AND SWAP1 POP SWAP3 SWAP2 POP POP JUMP JUMPDEST PUSH1 0x0 CALLER SWAP1 POP SWAP1 JUMP JUMPDEST DUP3 PUSH1 0x2 DUP2 ADD SWAP3 DUP3 ISZERO PUSH3 0x27E JUMPI SWAP2 PUSH1 0x20 MUL DUP3 ADD JUMPDEST DUP3 DUP2 GT ISZERO PUSH3 0x27D JUMPI DUP3 MLOAD DUP3 SWAP1 PUSH1 0xFF AND SWAP1 SSTORE SWAP2 PUSH1 0x20 ADD SWAP2 SWAP1 PUSH1 0x1 ADD SWAP1 PUSH3 0x25B JUMP JUMPDEST JUMPDEST POP SWAP1 POP PUSH3 0x28D SWAP2 SWAP1 PUSH3 0x291 JUMP JUMPDEST POP SWAP1 JUMP JUMPDEST JUMPDEST DUP1 DUP3 GT ISZERO PUSH3 0x2AC JUMPI PUSH1 0x0 DUP2 PUSH1 0x0 SWAP1 SSTORE POP PUSH1 0x1 ADD PUSH3 0x292 JUMP JUMPDEST POP SWAP1 JUMP JUMPDEST PUSH1 0x0 DUP1 REVERT JUMPDEST PUSH1 0x0 PUSH20 0xFFFFFFFFFFFFFFFFFFFFFFFFFFFFFFFFFFFFFFFF DUP3 AND SWAP1 POP SWAP2 SWAP1 POP JUMP JUMPDEST PUSH1 0x0 PUSH3 0x2E2 DUP3 PUSH3 0x2B5 JUMP JUMPDEST SWAP1 POP SWAP2 SWAP1 POP JUMP JUMPDEST PUSH3 0x2F4 DUP2 PUSH3 0x2D5 JUMP JUMPDEST DUP2 EQ PUSH3 0x300 JUMPI PUSH1 0x0 DUP1 REVERT JUMPDEST POP JUMP JUMPDEST PUSH1 0x0 DUP2 MLOAD SWAP1 POP PUSH3 0x314 DUP2 PUSH3 0x2E9 JUMP JUMPDEST SWAP3 SWAP2 POP POP JUMP JUMPDEST PUSH1 0x0 PUSH1 0x20 DUP3 DUP5 SUB SLT ISZERO PUSH3 0x333 JUMPI PUSH3 0x332 PUSH3 0x2B0 JUMP JUMPDEST JUMPDEST PUSH1 0x0 PUSH3 0x343 DUP5 DUP3 DUP6 ADD PUSH3 0x303 JUMP JUMPDEST SWAP2 POP POP SWAP3 SWAP2 POP POP JUMP JUMPDEST PUSH2 0x1C42 DUP1 PUSH3 0x35C PUSH1 0x0 CODECOPY PUSH1 0x0 RETURN INVALID PUSH1 0x80 PUSH1 0x40 MSTORE PUSH1 0x4 CALLDATASIZE LT PUSH2 0x114 JUMPI PUSH1 0x0 CALLDATALOAD PUSH1 0xE0 SHR DUP1 PUSH4 0x4420E486 GT PUSH2 0xA0 JUMPI DUP1 PUSH4 0xA217FDDF GT PUSH2 0x64 JUMPI DUP1 PUSH4 0xA217FDDF EQ PUSH2 0x36A JUMPI DUP1 PUSH4 0xB2DD5C07 EQ PUSH2 0x395 JUMPI DUP1 PUSH4 0xB59BFA03 EQ PUSH2 0x3D2 JUMPI DUP1 PUSH4 0xD547741F EQ PUSH2 0x3E9 JUMPI DUP1 PUSH4 0xFD69E25A EQ PUSH2 0x412 JUMPI PUSH2 0x114 JUMP JUMPDEST DUP1 PUSH4 0x4420E486 EQ PUSH2 0x273 JUMPI DUP1 PUSH4 0x64807BB7 EQ PUSH2 0x29C JUMPI DUP1 PUSH4 0x8292AFD9 EQ PUSH2 0x2C5 JUMPI DUP1 PUSH4 0x91D14854 EQ PUSH2 0x302 JUMPI DUP1 PUSH4 0x98FABD3A EQ PUSH2 0x33F JUMPI PUSH2 0x114 JUMP JUMPDEST DUP1 PUSH4 0x15B86263 GT PUSH2 0xE7 JUMPI DUP1 PUSH4 0x15B86263 EQ PUSH2 0x1A2 JUMPI DUP1 PUSH4 0x200D2ED2 EQ PUSH2 0x1B9 JUMPI DUP1 PUSH4 0x248A9CA3 EQ PUSH2 0x1E4 JUMPI DUP1 PUSH4 0x2F2FF15D EQ PUSH2 0x221 JUMPI DUP1 PUSH4 0x36568ABE EQ PUSH2 0x24A JUMPI PUSH2 0x114 JUMP JUMPDEST DUP1 PUSH4 0x1FFC9A7 EQ PUSH2 0x119 JUMPI DUP1 PUSH4 0x462FC8E EQ PUSH2 0x156 JUMPI DUP1 PUSH4 0x85E5591 EQ PUSH2 0x16D JUMPI DUP1 PUSH4 0xCFD77F6 EQ PUSH2 0x198 JUMPI JUMPDEST PUSH1 0x0 DUP1 REVERT JUMPDEST CALLVALUE DUP1 ISZERO PUSH2 0x125 JUMPI PUSH1 0x0 DUP1 REVERT JUMPDEST POP PUSH2 0x140 PUSH1 0x4 DUP1 CALLDATASIZE SUB DUP2 ADD SWAP1 PUSH2 0x13B SWAP2 SWAP1 PUSH2 0x11DD JUMP JUMPDEST PUSH2 0x43B JUMP JUMPDEST PUSH1 0x40 MLOAD PUSH2 0x14D SWAP2 SWAP1 PUSH2 0x1225 JUMP JUMPDEST PUSH1 0x40 MLOAD DUP1 SWAP2 SUB SWAP1 RETURN JUMPDEST CALLVALUE DUP1 ISZERO PUSH2 0x162 JUMPI PUSH1 0x0 DUP1 REVERT JUMPDEST POP PUSH2 0x16B PUSH2 0x4B5 JUMP JUMPDEST STOP JUMPDEST CALLVALUE DUP1 ISZERO PUSH2 0x179 JUMPI PUSH1 0x0 DUP1 REVERT JUMPDEST POP PUSH2 0x182 PUSH2 0x558 JUMP JUMPDEST PUSH1 0x40 MLOAD PUSH2 0x18F SWAP2 SWAP1 PUSH2 0x1259 JUMP JUMPDEST PUSH1 0x40 MLOAD DUP1 SWAP2 SUB SWAP1 RETURN JUMPDEST PUSH2 0x1A0 PUSH2 0x55E JUMP JUMPDEST STOP JUMPDEST CALLVALUE DUP1 ISZERO PUSH2 0x1AE JUMPI PUSH1 0x0 DUP1 REVERT JUMPDEST POP PUSH2 0x1B7 PUSH2 0x718 JUMP JUMPDEST STOP JUMPDEST CALLVALUE DUP1 ISZERO PUSH2 0x1C5 JUMPI PUSH1 0x0 DUP1 REVERT JUMPDEST POP PUSH2 0x1CE PUSH2 0x85D JUMP JUMPDEST PUSH1 0x40 MLOAD PUSH2 0x1DB SWAP2 SWAP1 PUSH2 0x12EB JUMP JUMPDEST PUSH1 0x40 MLOAD DUP1 SWAP2 SUB SWAP1 RETURN JUMPDEST CALLVALUE DUP1 ISZERO PUSH2 0x1F0 JUMPI PUSH1 0x0 DUP1 REVERT JUMPDEST POP PUSH2 0x20B PUSH1 0x4 DUP1 CALLDATASIZE SUB DUP2 ADD SWAP1 PUSH2 0x206 SWAP2 SWAP1 PUSH2 0x133C JUMP JUMPDEST PUSH2 0x870 JUMP JUMPDEST PUSH1 0x40 MLOAD PUSH2 0x218 SWAP2 SWAP1 PUSH2 0x1378 JUMP JUMPDEST PUSH1 0x40 MLOAD DUP1 SWAP2 SUB SWAP1 RETURN JUMPDEST CALLVALUE DUP1 ISZERO PUSH2 0x22D JUMPI PUSH1 0x0 DUP1 REVERT JUMPDEST POP PUSH2 0x248 PUSH1 0x4 DUP1 CALLDATASIZE SUB DUP2 ADD SWAP1 PUSH2 0x243 SWAP2 SWAP1 PUSH2 0x13F1 JUMP JUMPDEST PUSH2 0x88F JUMP JUMPDEST STOP JUMPDEST CALLVALUE DUP1 ISZERO PUSH2 0x256 JUMPI PUSH1 0x0 DUP1 REVERT JUMPDEST POP PUSH2 0x271 PUSH1 0x4 DUP1 CALLDATASIZE SUB DUP2 ADD SWAP1 PUSH2 0x26C SWAP2 SWAP1 PUSH2 0x13F1 JUMP JUMPDEST PUSH2 0x8B0 JUMP JUMPDEST STOP JUMPDEST CALLVALUE DUP1 ISZERO PUSH2 0x27F JUMPI PUSH1 0x0 DUP1 REVERT JUMPDEST POP PUSH2 0x29A PUSH1 0x4 DUP1 CALLDATASIZE SUB DUP2 ADD SWAP1 PUSH2 0x295 SWAP2 SWAP1 PUSH2 0x1431 JUMP JUMPDEST PUSH2 0x933 JUMP JUMPDEST STOP JUMPDEST CALLVALUE DUP1 ISZERO PUSH2 0x2A8 JUMPI PUSH1 0x0 DUP1 REVERT JUMPDEST POP PUSH2 0x2C3 PUSH1 0x4 DUP1 CALLDATASIZE SUB DUP2 ADD SWAP1 PUSH2 0x2BE SWAP2 SWAP1 PUSH2 0x148A JUMP JUMPDEST PUSH2 0xA98 JUMP JUMPDEST STOP JUMPDEST CALLVALUE DUP1 ISZERO PUSH2 0x2D1 JUMPI PUSH1 0x0 DUP1 REVERT JUMPDEST POP PUSH2 0x2EC PUSH1 0x4 DUP1 CALLDATASIZE SUB DUP2 ADD SWAP1 PUSH2 0x2E7 SWAP2 SWAP1 PUSH2 0x1431 JUMP JUMPDEST PUSH2 0xAE1 JUMP JUMPDEST PUSH1 0x40 MLOAD PUSH2 0x2F9 SWAP2 SWAP1 PUSH2 0x14C6 JUMP JUMPDEST PUSH1 0x40 MLOAD DUP1 SWAP2 SUB SWAP1 RETURN JUMPDEST CALLVALUE DUP1 ISZERO PUSH2 0x30E JUMPI PUSH1 0x0 DUP1 REVERT JUMPDEST POP PUSH2 0x329 PUSH1 0x4 DUP1 CALLDATASIZE SUB DUP2 ADD SWAP1 PUSH2 0x324 SWAP2 SWAP1 PUSH2 0x13F1 JUMP JUMPDEST PUSH2 0xB14 JUMP JUMPDEST PUSH1 0x40 MLOAD PUSH2 0x336 SWAP2 SWAP1 PUSH2 0x1225 JUMP JUMPDEST PUSH1 0x40 MLOAD DUP1 SWAP2 SUB SWAP1 RETURN JUMPDEST CALLVALUE DUP1 ISZERO PUSH2 0x34B JUMPI PUSH1 0x0 DUP1 REVERT JUMPDEST POP PUSH2 0x354 PUSH2 0xB7E JUMP JUMPDEST PUSH1 0x40 MLOAD PUSH2 0x361 SWAP2 SWAP1 PUSH2 0x1378 JUMP JUMPDEST PUSH1 0x40 MLOAD DUP1 SWAP2 SUB SWAP1 RETURN JUMPDEST CALLVALUE DUP1 ISZERO PUSH2 0x376 JUMPI PUSH1 0x0 DUP1 REVERT JUMPDEST POP PUSH2 0x37F PUSH2 0xBA2 JUMP JUMPDEST PUSH1 0x40 MLOAD PUSH2 0x38C SWAP2 SWAP1 PUSH2 0x1378 JUMP JUMPDEST PUSH1 0x40 MLOAD DUP1 SWAP2 SUB SWAP1 RETURN JUMPDEST CALLVALUE DUP1 ISZERO PUSH2 0x3A1 JUMPI PUSH1 0x0 DUP1 REVERT JUMPDEST POP PUSH2 0x3BC PUSH1 0x4 DUP1 CALLDATASIZE SUB DUP2 ADD SWAP1 PUSH2 0x3B7 SWAP2 SWAP1 PUSH2 0x1431 JUMP JUMPDEST PUSH2 0xBA9 JUMP JUMPDEST PUSH1 0x40 MLOAD PUSH2 0x3C9 SWAP2 SWAP1 PUSH2 0x1225 JUMP JUMPDEST PUSH1 0x40 MLOAD DUP1 SWAP2 SUB SWAP1 RETURN JUMPDEST CALLVALUE DUP1 ISZERO PUSH2 0x3DE JUMPI PUSH1 0x0 DUP1 REVERT JUMPDEST POP PUSH2 0x3E7 PUSH2 0xBC9 JUMP JUMPDEST STOP JUMPDEST CALLVALUE DUP1 ISZERO PUSH2 0x3F5 JUMPI PUSH1 0x0 DUP1 REVERT JUMPDEST POP PUSH2 0x410 PUSH1 0x4 DUP1 CALLDATASIZE SUB DUP2 ADD SWAP1 PUSH2 0x40B SWAP2 SWAP1 PUSH2 0x13F1 JUMP JUMPDEST PUSH2 0xBF6 JUMP JUMPDEST STOP JUMPDEST CALLVALUE DUP1 ISZERO PUSH2 0x41E JUMPI PUSH1 0x0 DUP1 REVERT JUMPDEST POP PUSH2 0x439 PUSH1 0x4 DUP1 CALLDATASIZE SUB DUP2 ADD SWAP1 PUSH2 0x434 SWAP2 SWAP1 PUSH2 0x148A JUMP JUMPDEST PUSH2 0xC17 JUMP JUMPDEST STOP JUMPDEST PUSH1 0x0 PUSH32 0x7965DB0B00000000000000000000000000000000000000000000000000000000 PUSH28 0xFFFFFFFFFFFFFFFFFFFFFFFFFFFFFFFFFFFFFFFFFFFFFFFFFFFFFFFF NOT AND DUP3 PUSH28 0xFFFFFFFFFFFFFFFFFFFFFFFFFFFFFFFFFFFFFFFFFFFFFFFFFFFFFFFF NOT AND EQ DUP1 PUSH2 0x4AE JUMPI POP PUSH2 0x4AD DUP3 PUSH2 0xC60 JUMP JUMPDEST JUMPDEST SWAP1 POP SWAP2 SWAP1 POP JUMP JUMPDEST PUSH1 0x1 PUSH1 0x2 DUP2 GT ISZERO PUSH2 0x4C9 JUMPI PUSH2 0x4C8 PUSH2 0x1274 JUMP JUMPDEST JUMPDEST PUSH1 0xB PUSH1 0x0 SWAP1 SLOAD SWAP1 PUSH2 0x100 EXP SWAP1 DIV PUSH1 0xFF AND PUSH1 0x2 DUP2 GT ISZERO PUSH2 0x4EB JUMPI PUSH2 0x4EA PUSH2 0x1274 JUMP JUMPDEST JUMPDEST EQ PUSH2 0x52B JUMPI PUSH1 0x40 MLOAD PUSH32 0x8C379A000000000000000000000000000000000000000000000000000000000 DUP2 MSTORE PUSH1 0x4 ADD PUSH2 0x522 SWAP1 PUSH2 0x153E JUMP JUMPDEST PUSH1 0x40 MLOAD DUP1 SWAP2 SUB SWAP1 REVERT JUMPDEST PUSH1 0x2 PUSH1 0xB PUSH1 0x0 PUSH2 0x100 EXP DUP2 SLOAD DUP2 PUSH1 0xFF MUL NOT AND SWAP1 DUP4 PUSH1 0x2 DUP2 GT ISZERO PUSH2 0x551 JUMPI PUSH2 0x550 PUSH2 0x1274 JUMP JUMPDEST JUMPDEST MUL OR SWAP1 SSTORE POP JUMP JUMPDEST PUSH1 0x4 SLOAD DUP2 JUMP JUMPDEST PUSH1 0x1 PUSH1 0x2 DUP2 GT ISZERO PUSH2 0x572 JUMPI PUSH2 0x571 PUSH2 0x1274 JUMP JUMPDEST JUMPDEST PUSH1 0xB PUSH1 0x0 SWAP1 SLOAD SWAP1 PUSH2 0x100 EXP SWAP1 DIV PUSH1 0xFF AND PUSH1 0x2 DUP2 GT ISZERO PUSH2 0x594 JUMPI PUSH2 0x593 PUSH2 0x1274 JUMP JUMPDEST JUMPDEST EQ PUSH2 0x5D4 JUMPI PUSH1 0x40 MLOAD PUSH32 0x8C379A000000000000000000000000000000000000000000000000000000000 DUP2 MSTORE PUSH1 0x4 ADD PUSH2 0x5CB SWAP1 PUSH2 0x153E JUMP JUMPDEST PUSH1 0x40 MLOAD DUP1 SWAP2 SUB SWAP1 REVERT JUMPDEST TIMESTAMP PUSH3 0x3F480 PUSH1 0x9 SLOAD PUSH2 0x5E6 SWAP2 SWAP1 PUSH2 0x158D JUMP JUMPDEST GT PUSH2 0x626 JUMPI PUSH1 0x40 MLOAD PUSH32 0x8C379A000000000000000000000000000000000000000000000000000000000 DUP2 MSTORE PUSH1 0x4 ADD PUSH2 0x61D SWAP1 PUSH2 0x162F JUMP JUMPDEST PUSH1 0x40 MLOAD DUP1 SWAP2 SUB SWAP1 REVERT JUMPDEST PUSH1 0x7 SLOAD CALLVALUE GT PUSH2 0x66A JUMPI PUSH1 0x40 MLOAD PUSH32 0x8C379A000000000000000000000000000000000000000000000000000000000 DUP2 MSTORE PUSH1 0x4 ADD PUSH2 0x661 SWAP1 PUSH2 0x169B JUMP JUMPDEST PUSH1 0x40 MLOAD DUP1 SWAP2 SUB SWAP1 REVERT JUMPDEST PUSH1 0x1 DUP1 SLOAD SWAP1 PUSH2 0x100 EXP SWAP1 DIV PUSH20 0xFFFFFFFFFFFFFFFFFFFFFFFFFFFFFFFFFFFFFFFF AND PUSH20 0xFFFFFFFFFFFFFFFFFFFFFFFFFFFFFFFFFFFFFFFF AND PUSH4 0xA9059CBB CALLER PUSH1 0x7 SLOAD CALLVALUE PUSH2 0x6B5 SWAP2 SWAP1 PUSH2 0x16EA JUMP JUMPDEST PUSH1 0x40 MLOAD DUP4 PUSH4 0xFFFFFFFF AND PUSH1 0xE0 SHL DUP2 MSTORE PUSH1 0x4 ADD PUSH2 0x6D2 SWAP3 SWAP2 SWAP1 PUSH2 0x171B JUMP JUMPDEST PUSH1 0x20 PUSH1 0x40 MLOAD DUP1 DUP4 SUB DUP2 PUSH1 0x0 DUP8 GAS CALL ISZERO DUP1 ISZERO PUSH2 0x6F1 JUMPI RETURNDATASIZE PUSH1 0x0 DUP1 RETURNDATACOPY RETURNDATASIZE PUSH1 0x0 REVERT JUMPDEST POP POP POP POP PUSH1 0x40 MLOAD RETURNDATASIZE PUSH1 0x1F NOT PUSH1 0x1F DUP3 ADD AND DUP3 ADD DUP1 PUSH1 0x40 MSTORE POP DUP2 ADD SWAP1 PUSH2 0x715 SWAP2 SWAP1 PUSH2 0x1770 JUMP JUMPDEST POP JUMP JUMPDEST PUSH1 0x0 DUP1 SHL PUSH2 0x725 DUP2 PUSH2 0xCCA JUMP JUMPDEST PUSH1 0x0 PUSH1 0x2 DUP2 GT ISZERO PUSH2 0x739 JUMPI PUSH2 0x738 PUSH2 0x1274 JUMP JUMPDEST JUMPDEST PUSH1 0xB PUSH1 0x0 SWAP1 SLOAD SWAP1 PUSH2 0x100 EXP SWAP1 DIV PUSH1 0xFF AND PUSH1 0x2 DUP2 GT ISZERO PUSH2 0x75B JUMPI PUSH2 0x75A PUSH2 0x1274 JUMP JUMPDEST JUMPDEST EQ PUSH2 0x79B JUMPI PUSH1 0x40 MLOAD PUSH32 0x8C379A000000000000000000000000000000000000000000000000000000000 DUP2 MSTORE PUSH1 0x4 ADD PUSH2 0x792 SWAP1 PUSH2 0x17E9 JUMP JUMPDEST PUSH1 0x40 MLOAD DUP1 SWAP2 SUB SWAP1 REVERT JUMPDEST TIMESTAMP PUSH1 0x9 DUP2 SWAP1 SSTORE POP PUSH1 0x1 DUP1 SLOAD SWAP1 PUSH2 0x100 EXP SWAP1 DIV PUSH20 0xFFFFFFFFFFFFFFFFFFFFFFFFFFFFFFFFFFFFFFFF AND PUSH20 0xFFFFFFFFFFFFFFFFFFFFFFFFFFFFFFFFFFFFFFFF AND PUSH4 0xA0712D68 PUSH1 0x8 SLOAD PUSH1 0x40 MLOAD DUP3 PUSH4 0xFFFFFFFF AND PUSH1 0xE0 SHL DUP2 MSTORE PUSH1 0x4 ADD PUSH2 0x7FD SWAP2 SWAP1 PUSH2 0x1259 JUMP JUMPDEST PUSH1 0x0 PUSH1 0x40 MLOAD DUP1 DUP4 SUB DUP2 PUSH1 0x0 DUP8 DUP1 EXTCODESIZE ISZERO DUP1 ISZERO PUSH2 0x817 JUMPI PUSH1 0x0 DUP1 REVERT JUMPDEST POP GAS CALL ISZERO DUP1 ISZERO PUSH2 0x82B JUMPI RETURNDATASIZE PUSH1 0x0 DUP1 RETURNDATACOPY RETURNDATASIZE PUSH1 0x0 REVERT JUMPDEST POP POP POP POP PUSH1 0x1 PUSH1 0xB PUSH1 0x0 PUSH2 0x100 EXP DUP2 SLOAD DUP2 PUSH1 0xFF MUL NOT AND SWAP1 DUP4 PUSH1 0x2 DUP2 GT ISZERO PUSH2 0x855 JUMPI PUSH2 0x854 PUSH2 0x1274 JUMP JUMPDEST JUMPDEST MUL OR SWAP1 SSTORE POP POP JUMP JUMPDEST PUSH1 0xB PUSH1 0x0 SWAP1 SLOAD SWAP1 PUSH2 0x100 EXP SWAP1 DIV PUSH1 0xFF AND DUP2 JUMP JUMPDEST PUSH1 0x0 DUP1 PUSH1 0x0 DUP4 DUP2 MSTORE PUSH1 0x20 ADD SWAP1 DUP2 MSTORE PUSH1 0x20 ADD PUSH1 0x0 KECCAK256 PUSH1 0x1 ADD SLOAD SWAP1 POP SWAP2 SWAP1 POP JUMP JUMPDEST PUSH2 0x898 DUP3 PUSH2 0x870 JUMP JUMPDEST PUSH2 0x8A1 DUP2 PUSH2 0xCCA JUMP JUMPDEST PUSH2 0x8AB DUP4 DUP4 PUSH2 0xCDE JUMP JUMPDEST POP POP POP JUMP JUMPDEST PUSH2 0x8B8 PUSH2 0xDBE JUMP JUMPDEST PUSH20 0xFFFFFFFFFFFFFFFFFFFFFFFFFFFFFFFFFFFFFFFF AND DUP2 PUSH20 0xFFFFFFFFFFFFFFFFFFFFFFFFFFFFFFFFFFFFFFFF AND EQ PUSH2 0x925 JUMPI PUSH1 0x40 MLOAD PUSH32 0x8C379A000000000000000000000000000000000000000000000000000000000 DUP2 MSTORE PUSH1 0x4 ADD PUSH2 0x91C SWAP1 PUSH2 0x187B JUMP JUMPDEST PUSH1 0x40 MLOAD DUP1 SWAP2 SUB SWAP1 REVERT JUMPDEST PUSH2 0x92F DUP3 DUP3 PUSH2 0xDC6 JUMP JUMPDEST POP POP JUMP JUMPDEST PUSH1 0xD PUSH1 0x0 DUP3 PUSH20 0xFFFFFFFFFFFFFFFFFFFFFFFFFFFFFFFFFFFFFFFF AND PUSH20 0xFFFFFFFFFFFFFFFFFFFFFFFFFFFFFFFFFFFFFFFF AND DUP2 MSTORE PUSH1 0x20 ADD SWAP1 DUP2 MSTORE PUSH1 0x20 ADD PUSH1 0x0 KECCAK256 PUSH1 0x0 SWAP1 SLOAD SWAP1 PUSH2 0x100 EXP SWAP1 DIV PUSH1 0xFF AND PUSH2 0x9BF JUMPI PUSH1 0x40 MLOAD PUSH32 0x8C379A000000000000000000000000000000000000000000000000000000000 DUP2 MSTORE PUSH1 0x4 ADD PUSH2 0x9B6 SWAP1 PUSH2 0x18E7 JUMP JUMPDEST PUSH1 0x40 MLOAD DUP1 SWAP2 SUB SWAP1 REVERT JUMPDEST PUSH1 0x1 PUSH1 0xD PUSH1 0x0 CALLER PUSH20 0xFFFFFFFFFFFFFFFFFFFFFFFFFFFFFFFFFFFFFFFF AND PUSH20 0xFFFFFFFFFFFFFFFFFFFFFFFFFFFFFFFFFFFFFFFF AND DUP2 MSTORE PUSH1 0x20 ADD SWAP1 DUP2 MSTORE PUSH1 0x20 ADD PUSH1 0x0 KECCAK256 PUSH1 0x0 PUSH2 0x100 EXP DUP2 SLOAD DUP2 PUSH1 0xFF MUL NOT AND SWAP1 DUP4 ISZERO ISZERO MUL OR SWAP1 SSTORE POP DUP1 PUSH1 0xC PUSH1 0x0 CALLER PUSH20 0xFFFFFFFFFFFFFFFFFFFFFFFFFFFFFFFFFFFFFFFF AND PUSH20 0xFFFFFFFFFFFFFFFFFFFFFFFFFFFFFFFFFFFFFFFF AND DUP2 MSTORE PUSH1 0x20 ADD SWAP1 DUP2 MSTORE PUSH1 0x20 ADD PUSH1 0x0 KECCAK256 PUSH1 0x0 PUSH2 0x100 EXP DUP2 SLOAD DUP2 PUSH20 0xFFFFFFFFFFFFFFFFFFFFFFFFFFFFFFFFFFFFFFFF MUL NOT AND SWAP1 DUP4 PUSH20 0xFFFFFFFFFFFFFFFFFFFFFFFFFFFFFFFFFFFFFFFF AND MUL OR SWAP1 SSTORE POP POP JUMP JUMPDEST PUSH32 0xD0A4AD96D49EDB1C33461CEBC6FB2609190F32C904E3C3F5877EDB4488DEE91E PUSH2 0xAC2 DUP2 PUSH2 0xCCA JUMP JUMPDEST DUP2 PUSH1 0x2 PUSH1 0x1 PUSH1 0x2 DUP2 LT PUSH2 0xAD8 JUMPI PUSH2 0xAD7 PUSH2 0x1907 JUMP JUMPDEST JUMPDEST ADD DUP2 SWAP1 SSTORE POP POP POP JUMP JUMPDEST PUSH1 0xC PUSH1 0x20 MSTORE DUP1 PUSH1 0x0 MSTORE PUSH1 0x40 PUSH1 0x0 KECCAK256 PUSH1 0x0 SWAP2 POP SLOAD SWAP1 PUSH2 0x100 EXP SWAP1 DIV PUSH20 0xFFFFFFFFFFFFFFFFFFFFFFFFFFFFFFFFFFFFFFFF AND DUP2 JUMP JUMPDEST PUSH1 0x0 DUP1 PUSH1 0x0 DUP5 DUP2 MSTORE PUSH1 0x20 ADD SWAP1 DUP2 MSTORE PUSH1 0x20 ADD PUSH1 0x0 KECCAK256 PUSH1 0x0 ADD PUSH1 0x0 DUP4 PUSH20 0xFFFFFFFFFFFFFFFFFFFFFFFFFFFFFFFFFFFFFFFF AND PUSH20 0xFFFFFFFFFFFFFFFFFFFFFFFFFFFFFFFFFFFFFFFF AND DUP2 MSTORE PUSH1 0x20 ADD SWAP1 DUP2 MSTORE PUSH1 0x20 ADD PUSH1 0x0 KECCAK256 PUSH1 0x0 SWAP1 SLOAD SWAP1 PUSH2 0x100 EXP SWAP1 DIV PUSH1 0xFF AND SWAP1 POP SWAP3 SWAP2 POP POP JUMP JUMPDEST PUSH32 0xD0A4AD96D49EDB1C33461CEBC6FB2609190F32C904E3C3F5877EDB4488DEE91E DUP2 JUMP JUMPDEST PUSH1 0x0 DUP1 SHL DUP2 JUMP JUMPDEST PUSH1 0xD PUSH1 0x20 MSTORE DUP1 PUSH1 0x0 MSTORE PUSH1 0x40 PUSH1 0x0 KECCAK256 PUSH1 0x0 SWAP2 POP SLOAD SWAP1 PUSH2 0x100 EXP SWAP1 DIV PUSH1 0xFF AND DUP2 JUMP JUMPDEST PUSH1 0x1 PUSH1 0xB PUSH1 0x0 PUSH2 0x100 EXP DUP2 SLOAD DUP2 PUSH1 0xFF MUL NOT AND SWAP1 DUP4 PUSH1 0x2 DUP2 GT ISZERO PUSH2 0xBEF JUMPI PUSH2 0xBEE PUSH2 0x1274 JUMP JUMPDEST JUMPDEST MUL OR SWAP1 SSTORE POP JUMP JUMPDEST PUSH2 0xBFF DUP3 PUSH2 0x870 JUMP JUMPDEST PUSH2 0xC08 DUP2 PUSH2 0xCCA JUMP JUMPDEST PUSH2 0xC12 DUP4 DUP4 PUSH2 0xDC6 JUMP JUMPDEST POP POP POP JUMP JUMPDEST PUSH32 0xD0A4AD96D49EDB1C33461CEBC6FB2609190F32C904E3C3F5877EDB4488DEE91E PUSH2 0xC41 DUP2 PUSH2 0xCCA JUMP JUMPDEST DUP2 PUSH1 0x2 PUSH1 0x0 PUSH1 0x2 DUP2 LT PUSH2 0xC57 JUMPI PUSH2 0xC56 PUSH2 0x1907 JUMP JUMPDEST JUMPDEST ADD DUP2 SWAP1 SSTORE POP POP POP JUMP JUMPDEST PUSH1 0x0 PUSH32 0x1FFC9A700000000000000000000000000000000000000000000000000000000 PUSH28 0xFFFFFFFFFFFFFFFFFFFFFFFFFFFFFFFFFFFFFFFFFFFFFFFFFFFFFFFF NOT AND DUP3 PUSH28 0xFFFFFFFFFFFFFFFFFFFFFFFFFFFFFFFFFFFFFFFFFFFFFFFFFFFFFFFF NOT AND EQ SWAP1 POP SWAP2 SWAP1 POP JUMP JUMPDEST PUSH2 0xCDB DUP2 PUSH2 0xCD6 PUSH2 0xDBE JUMP JUMPDEST PUSH2 0xEA7 JUMP JUMPDEST POP JUMP JUMPDEST PUSH2 0xCE8 DUP3 DUP3 PUSH2 0xB14 JUMP JUMPDEST PUSH2 0xDBA JUMPI PUSH1 0x1 PUSH1 0x0 DUP1 DUP5 DUP2 MSTORE PUSH1 0x20 ADD SWAP1 DUP2 MSTORE PUSH1 0x20 ADD PUSH1 0x0 KECCAK256 PUSH1 0x0 ADD PUSH1 0x0 DUP4 PUSH20 0xFFFFFFFFFFFFFFFFFFFFFFFFFFFFFFFFFFFFFFFF AND PUSH20 0xFFFFFFFFFFFFFFFFFFFFFFFFFFFFFFFFFFFFFFFF AND DUP2 MSTORE PUSH1 0x20 ADD SWAP1 DUP2 MSTORE PUSH1 0x20 ADD PUSH1 0x0 KECCAK256 PUSH1 0x0 PUSH2 0x100 EXP DUP2 SLOAD DUP2 PUSH1 0xFF MUL NOT AND SWAP1 DUP4 ISZERO ISZERO MUL OR SWAP1 SSTORE POP PUSH2 0xD5F PUSH2 0xDBE JUMP JUMPDEST PUSH20 0xFFFFFFFFFFFFFFFFFFFFFFFFFFFFFFFFFFFFFFFF AND DUP2 PUSH20 0xFFFFFFFFFFFFFFFFFFFFFFFFFFFFFFFFFFFFFFFF AND DUP4 PUSH32 0x2F8788117E7EFF1D82E926EC794901D17C78024A50270940304540A733656F0D PUSH1 0x40 MLOAD PUSH1 0x40 MLOAD DUP1 SWAP2 SUB SWAP1 LOG4 JUMPDEST POP POP JUMP JUMPDEST PUSH1 0x0 CALLER SWAP1 POP SWAP1 JUMP JUMPDEST PUSH2 0xDD0 DUP3 DUP3 PUSH2 0xB14 JUMP JUMPDEST ISZERO PUSH2 0xEA3 JUMPI PUSH1 0x0 DUP1 PUSH1 0x0 DUP5 DUP2 MSTORE PUSH1 0x20 ADD SWAP1 DUP2 MSTORE PUSH1 0x20 ADD PUSH1 0x0 KECCAK256 PUSH1 0x0 ADD PUSH1 0x0 DUP4 PUSH20 0xFFFFFFFFFFFFFFFFFFFFFFFFFFFFFFFFFFFFFFFF AND PUSH20 0xFFFFFFFFFFFFFFFFFFFFFFFFFFFFFFFFFFFFFFFF AND DUP2 MSTORE PUSH1 0x20 ADD SWAP1 DUP2 MSTORE PUSH1 0x20 ADD PUSH1 0x0 KECCAK256 PUSH1 0x0 PUSH2 0x100 EXP DUP2 SLOAD DUP2 PUSH1 0xFF MUL NOT AND SWAP1 DUP4 ISZERO ISZERO MUL OR SWAP1 SSTORE POP PUSH2 0xE48 PUSH2 0xDBE JUMP JUMPDEST PUSH20 0xFFFFFFFFFFFFFFFFFFFFFFFFFFFFFFFFFFFFFFFF AND DUP2 PUSH20 0xFFFFFFFFFFFFFFFFFFFFFFFFFFFFFFFFFFFFFFFF AND DUP4 PUSH32 0xF6391F5C32D9C69D2A47EA670B442974B53935D1EDC7FD64EB21E047A839171B PUSH1 0x40 MLOAD PUSH1 0x40 MLOAD DUP1 SWAP2 SUB SWAP1 LOG4 JUMPDEST POP POP JUMP JUMPDEST PUSH2 0xEB1 DUP3 DUP3 PUSH2 0xB14 JUMP JUMPDEST PUSH2 0xF40 JUMPI PUSH2 0xED6 DUP2 PUSH20 0xFFFFFFFFFFFFFFFFFFFFFFFFFFFFFFFFFFFFFFFF AND PUSH1 0x14 PUSH2 0xF44 JUMP JUMPDEST PUSH2 0xEE4 DUP4 PUSH1 0x0 SHR PUSH1 0x20 PUSH2 0xF44 JUMP JUMPDEST PUSH1 0x40 MLOAD PUSH1 0x20 ADD PUSH2 0xEF5 SWAP3 SWAP2 SWAP1 PUSH2 0x1A48 JUMP JUMPDEST PUSH1 0x40 MLOAD PUSH1 0x20 DUP2 DUP4 SUB SUB DUP2 MSTORE SWAP1 PUSH1 0x40 MSTORE PUSH1 0x40 MLOAD PUSH32 0x8C379A000000000000000000000000000000000000000000000000000000000 DUP2 MSTORE PUSH1 0x4 ADD PUSH2 0xF37 SWAP2 SWAP1 PUSH2 0x1ACC JUMP JUMPDEST PUSH1 0x40 MLOAD DUP1 SWAP2 SUB SWAP1 REVERT JUMPDEST POP POP JUMP JUMPDEST PUSH1 0x60 PUSH1 0x0 PUSH1 0x2 DUP4 PUSH1 0x2 PUSH2 0xF57 SWAP2 SWAP1 PUSH2 0x1AEE JUMP JUMPDEST PUSH2 0xF61 SWAP2 SWAP1 PUSH2 0x158D JUMP JUMPDEST PUSH8 0xFFFFFFFFFFFFFFFF DUP2 GT ISZERO PUSH2 0xF7A JUMPI PUSH2 0xF79 PUSH2 0x1B48 JUMP JUMPDEST JUMPDEST PUSH1 0x40 MLOAD SWAP1 DUP1 DUP3 MSTORE DUP1 PUSH1 0x1F ADD PUSH1 0x1F NOT AND PUSH1 0x20 ADD DUP3 ADD PUSH1 0x40 MSTORE DUP1 ISZERO PUSH2 0xFAC JUMPI DUP2 PUSH1 0x20 ADD PUSH1 0x1 DUP3 MUL DUP1 CALLDATASIZE DUP4 CALLDATACOPY DUP1 DUP3 ADD SWAP2 POP POP SWAP1 POP JUMPDEST POP SWAP1 POP PUSH32 0x3000000000000000000000000000000000000000000000000000000000000000 DUP2 PUSH1 0x0 DUP2 MLOAD DUP2 LT PUSH2 0xFE4 JUMPI PUSH2 0xFE3 PUSH2 0x1907 JUMP JUMPDEST JUMPDEST PUSH1 0x20 ADD ADD SWAP1 PUSH31 0xFFFFFFFFFFFFFFFFFFFFFFFFFFFFFFFFFFFFFFFFFFFFFFFFFFFFFFFFFFFFFF NOT AND SWAP1 DUP2 PUSH1 0x0 BYTE SWAP1 MSTORE8 POP PUSH32 0x7800000000000000000000000000000000000000000000000000000000000000 DUP2 PUSH1 0x1 DUP2 MLOAD DUP2 LT PUSH2 0x1048 JUMPI PUSH2 0x1047 PUSH2 0x1907 JUMP JUMPDEST JUMPDEST PUSH1 0x20 ADD ADD SWAP1 PUSH31 0xFFFFFFFFFFFFFFFFFFFFFFFFFFFFFFFFFFFFFFFFFFFFFFFFFFFFFFFFFFFFFF NOT AND SWAP1 DUP2 PUSH1 0x0 BYTE SWAP1 MSTORE8 POP PUSH1 0x0 PUSH1 0x1 DUP5 PUSH1 0x2 PUSH2 0x1088 SWAP2 SWAP1 PUSH2 0x1AEE JUMP JUMPDEST PUSH2 0x1092 SWAP2 SWAP1 PUSH2 0x158D JUMP JUMPDEST SWAP1 POP JUMPDEST PUSH1 0x1 DUP2 GT ISZERO PUSH2 0x1132 JUMPI PUSH32 0x3031323334353637383961626364656600000000000000000000000000000000 PUSH1 0xF DUP7 AND PUSH1 0x10 DUP2 LT PUSH2 0x10D4 JUMPI PUSH2 0x10D3 PUSH2 0x1907 JUMP JUMPDEST JUMPDEST BYTE PUSH1 0xF8 SHL DUP3 DUP3 DUP2 MLOAD DUP2 LT PUSH2 0x10EB JUMPI PUSH2 0x10EA PUSH2 0x1907 JUMP JUMPDEST JUMPDEST PUSH1 0x20 ADD ADD SWAP1 PUSH31 0xFFFFFFFFFFFFFFFFFFFFFFFFFFFFFFFFFFFFFFFFFFFFFFFFFFFFFFFFFFFFFF NOT AND SWAP1 DUP2 PUSH1 0x0 BYTE SWAP1 MSTORE8 POP PUSH1 0x4 DUP6 SWAP1 SHR SWAP5 POP DUP1 PUSH2 0x112B SWAP1 PUSH2 0x1B77 JUMP JUMPDEST SWAP1 POP PUSH2 0x1095 JUMP JUMPDEST POP PUSH1 0x0 DUP5 EQ PUSH2 0x1176 JUMPI PUSH1 0x40 MLOAD PUSH32 0x8C379A000000000000000000000000000000000000000000000000000000000 DUP2 MSTORE PUSH1 0x4 ADD PUSH2 0x116D SWAP1 PUSH2 0x1BEC JUMP JUMPDEST PUSH1 0x40 MLOAD DUP1 SWAP2 SUB SWAP1 REVERT JUMPDEST DUP1 SWAP2 POP POP SWAP3 SWAP2 POP POP JUMP JUMPDEST PUSH1 0x0 DUP1 REVERT JUMPDEST PUSH1 0x0 PUSH32 0xFFFFFFFF00000000000000000000000000000000000000000000000000000000 DUP3 AND SWAP1 POP SWAP2 SWAP1 POP JUMP JUMPDEST PUSH2 0x11BA DUP2 PUSH2 0x1185 JUMP JUMPDEST DUP2 EQ PUSH2 0x11C5 JUMPI PUSH1 0x0 DUP1 REVERT JUMPDEST POP JUMP JUMPDEST PUSH1 0x0 DUP2 CALLDATALOAD SWAP1 POP PUSH2 0x11D7 DUP2 PUSH2 0x11B1 JUMP JUMPDEST SWAP3 SWAP2 POP POP JUMP JUMPDEST PUSH1 0x0 PUSH1 0x20 DUP3 DUP5 SUB SLT ISZERO PUSH2 0x11F3 JUMPI PUSH2 0x11F2 PUSH2 0x1180 JUMP JUMPDEST JUMPDEST PUSH1 0x0 PUSH2 0x1201 DUP5 DUP3 DUP6 ADD PUSH2 0x11C8 JUMP JUMPDEST SWAP2 POP POP SWAP3 SWAP2 POP POP JUMP JUMPDEST PUSH1 0x0 DUP2 ISZERO ISZERO SWAP1 POP SWAP2 SWAP1 POP JUMP JUMPDEST PUSH2 0x121F DUP2 PUSH2 0x120A JUMP JUMPDEST DUP3 MSTORE POP POP JUMP JUMPDEST PUSH1 0x0 PUSH1 0x20 DUP3 ADD SWAP1 POP PUSH2 0x123A PUSH1 0x0 DUP4 ADD DUP5 PUSH2 0x1216 JUMP JUMPDEST SWAP3 SWAP2 POP POP JUMP JUMPDEST PUSH1 0x0 DUP2 SWAP1 POP SWAP2 SWAP1 POP JUMP JUMPDEST PUSH2 0x1253 DUP2 PUSH2 0x1240 JUMP JUMPDEST DUP3 MSTORE POP POP JUMP JUMPDEST PUSH1 0x0 PUSH1 0x20 DUP3 ADD SWAP1 POP PUSH2 0x126E PUSH1 0x0 DUP4 ADD DUP5 PUSH2 0x124A JUMP JUMPDEST SWAP3 SWAP2 POP POP JUMP JUMPDEST PUSH32 0x4E487B7100000000000000000000000000000000000000000000000000000000 PUSH1 0x0 MSTORE PUSH1 0x21 PUSH1 0x4 MSTORE PUSH1 0x24 PUSH1 0x0 REVERT JUMPDEST PUSH1 0x3 DUP2 LT PUSH2 0x12B4 JUMPI PUSH2 0x12B3 PUSH2 0x1274 JUMP JUMPDEST JUMPDEST POP JUMP JUMPDEST PUSH1 0x0 DUP2 SWAP1 POP PUSH2 0x12C5 DUP3 PUSH2 0x12A3 JUMP JUMPDEST SWAP2 SWAP1 POP JUMP JUMPDEST PUSH1 0x0 PUSH2 0x12D5 DUP3 PUSH2 0x12B7 JUMP JUMPDEST SWAP1 POP SWAP2 SWAP1 POP JUMP JUMPDEST PUSH2 0x12E5 DUP2 PUSH2 0x12CA JUMP JUMPDEST DUP3 MSTORE POP POP JUMP JUMPDEST PUSH1 0x0 PUSH1 0x20 DUP3 ADD SWAP1 POP PUSH2 0x1300 PUSH1 0x0 DUP4 ADD DUP5 PUSH2 0x12DC JUMP JUMPDEST SWAP3 SWAP2 POP POP JUMP JUMPDEST PUSH1 0x0 DUP2 SWAP1 POP SWAP2 SWAP1 POP JUMP JUMPDEST PUSH2 0x1319 DUP2 PUSH2 0x1306 JUMP JUMPDEST DUP2 EQ PUSH2 0x1324 JUMPI PUSH1 0x0 DUP1 REVERT JUMPDEST POP JUMP JUMPDEST PUSH1 0x0 DUP2 CALLDATALOAD SWAP1 POP PUSH2 0x1336 DUP2 PUSH2 0x1310 JUMP JUMPDEST SWAP3 SWAP2 POP POP JUMP JUMPDEST PUSH1 0x0 PUSH1 0x20 DUP3 DUP5 SUB SLT ISZERO PUSH2 0x1352 JUMPI PUSH2 0x1351 PUSH2 0x1180 JUMP JUMPDEST JUMPDEST PUSH1 0x0 PUSH2 0x1360 DUP5 DUP3 DUP6 ADD PUSH2 0x1327 JUMP JUMPDEST SWAP2 POP POP SWAP3 SWAP2 POP POP JUMP JUMPDEST PUSH2 0x1372 DUP2 PUSH2 0x1306 JUMP JUMPDEST DUP3 MSTORE POP POP JUMP JUMPDEST PUSH1 0x0 PUSH1 0x20 DUP3 ADD SWAP1 POP PUSH2 0x138D PUSH1 0x0 DUP4 ADD DUP5 PUSH2 0x1369 JUMP JUMPDEST SWAP3 SWAP2 POP POP JUMP JUMPDEST PUSH1 0x0 PUSH20 0xFFFFFFFFFFFFFFFFFFFFFFFFFFFFFFFFFFFFFFFF DUP3 AND SWAP1 POP SWAP2 SWAP1 POP JUMP JUMPDEST PUSH1 0x0 PUSH2 0x13BE DUP3 PUSH2 0x1393 JUMP JUMPDEST SWAP1 POP SWAP2 SWAP1 POP JUMP JUMPDEST PUSH2 0x13CE DUP2 PUSH2 0x13B3 JUMP JUMPDEST DUP2 EQ PUSH2 0x13D9 JUMPI PUSH1 0x0 DUP1 REVERT JUMPDEST POP JUMP JUMPDEST PUSH1 0x0 DUP2 CALLDATALOAD SWAP1 POP PUSH2 0x13EB DUP2 PUSH2 0x13C5 JUMP JUMPDEST SWAP3 SWAP2 POP POP JUMP JUMPDEST PUSH1 0x0 DUP1 PUSH1 0x40 DUP4 DUP6 SUB SLT ISZERO PUSH2 0x1408 JUMPI PUSH2 0x1407 PUSH2 0x1180 JUMP JUMPDEST JUMPDEST PUSH1 0x0 PUSH2 0x1416 DUP6 DUP3 DUP7 ADD PUSH2 0x1327 JUMP JUMPDEST SWAP3 POP POP PUSH1 0x20 PUSH2 0x1427 DUP6 DUP3 DUP7 ADD PUSH2 0x13DC JUMP JUMPDEST SWAP2 POP POP SWAP3 POP SWAP3 SWAP1 POP JUMP JUMPDEST PUSH1 0x0 PUSH1 0x20 DUP3 DUP5 SUB SLT ISZERO PUSH2 0x1447 JUMPI PUSH2 0x1446 PUSH2 0x1180 JUMP JUMPDEST JUMPDEST PUSH1 0x0 PUSH2 0x1455 DUP5 DUP3 DUP6 ADD PUSH2 0x13DC JUMP JUMPDEST SWAP2 POP POP SWAP3 SWAP2 POP POP JUMP JUMPDEST PUSH2 0x1467 DUP2 PUSH2 0x1240 JUMP JUMPDEST DUP2 EQ PUSH2 0x1472 JUMPI PUSH1 0x0 DUP1 REVERT JUMPDEST POP JUMP JUMPDEST PUSH1 0x0 DUP2 CALLDATALOAD SWAP1 POP PUSH2 0x1484 DUP2 PUSH2 0x145E JUMP JUMPDEST SWAP3 SWAP2 POP POP JUMP JUMPDEST PUSH1 0x0 PUSH1 0x20 DUP3 DUP5 SUB SLT ISZERO PUSH2 0x14A0 JUMPI PUSH2 0x149F PUSH2 0x1180 JUMP JUMPDEST JUMPDEST PUSH1 0x0 PUSH2 0x14AE DUP5 DUP3 DUP6 ADD PUSH2 0x1475 JUMP JUMPDEST SWAP2 POP POP SWAP3 SWAP2 POP POP JUMP JUMPDEST PUSH2 0x14C0 DUP2 PUSH2 0x13B3 JUMP JUMPDEST DUP3 MSTORE POP POP JUMP JUMPDEST PUSH1 0x0 PUSH1 0x20 DUP3 ADD SWAP1 POP PUSH2 0x14DB PUSH1 0x0 DUP4 ADD DUP5 PUSH2 0x14B7 JUMP JUMPDEST SWAP3 SWAP2 POP POP JUMP JUMPDEST PUSH1 0x0 DUP3 DUP3 MSTORE PUSH1 0x20 DUP3 ADD SWAP1 POP SWAP3 SWAP2 POP POP JUMP JUMPDEST PUSH32 0x4E6F742073616C6520726F756E64000000000000000000000000000000000000 PUSH1 0x0 DUP3 ADD MSTORE POP JUMP JUMPDEST PUSH1 0x0 PUSH2 0x1528 PUSH1 0xE DUP4 PUSH2 0x14E1 JUMP JUMPDEST SWAP2 POP PUSH2 0x1533 DUP3 PUSH2 0x14F2 JUMP JUMPDEST PUSH1 0x20 DUP3 ADD SWAP1 POP SWAP2 SWAP1 POP JUMP JUMPDEST PUSH1 0x0 PUSH1 0x20 DUP3 ADD SWAP1 POP DUP2 DUP2 SUB PUSH1 0x0 DUP4 ADD MSTORE PUSH2 0x1557 DUP2 PUSH2 0x151B JUMP JUMPDEST SWAP1 POP SWAP2 SWAP1 POP JUMP JUMPDEST PUSH32 0x4E487B7100000000000000000000000000000000000000000000000000000000 PUSH1 0x0 MSTORE PUSH1 0x11 PUSH1 0x4 MSTORE PUSH1 0x24 PUSH1 0x0 REVERT JUMPDEST PUSH1 0x0 PUSH2 0x1598 DUP3 PUSH2 0x1240 JUMP JUMPDEST SWAP2 POP PUSH2 0x15A3 DUP4 PUSH2 0x1240 JUMP JUMPDEST SWAP3 POP DUP3 PUSH32 0xFFFFFFFFFFFFFFFFFFFFFFFFFFFFFFFFFFFFFFFFFFFFFFFFFFFFFFFFFFFFFFFF SUB DUP3 GT ISZERO PUSH2 0x15D8 JUMPI PUSH2 0x15D7 PUSH2 0x155E JUMP JUMPDEST JUMPDEST DUP3 DUP3 ADD SWAP1 POP SWAP3 SWAP2 POP POP JUMP JUMPDEST PUSH32 0x53616C6520726F756E642074696D652065787069726564000000000000000000 PUSH1 0x0 DUP3 ADD MSTORE POP JUMP JUMPDEST PUSH1 0x0 PUSH2 0x1619 PUSH1 0x17 DUP4 PUSH2 0x14E1 JUMP JUMPDEST SWAP2 POP PUSH2 0x1624 DUP3 PUSH2 0x15E3 JUMP JUMPDEST PUSH1 0x20 DUP3 ADD SWAP1 POP SWAP2 SWAP1 POP JUMP JUMPDEST PUSH1 0x0 PUSH1 0x20 DUP3 ADD SWAP1 POP DUP2 DUP2 SUB PUSH1 0x0 DUP4 ADD MSTORE PUSH2 0x1648 DUP2 PUSH2 0x160C JUMP JUMPDEST SWAP1 POP SWAP2 SWAP1 POP JUMP JUMPDEST PUSH32 0x4E6F7420656E6F75676820657468657220746F2062757920746F6B656E000000 PUSH1 0x0 DUP3 ADD MSTORE POP JUMP JUMPDEST PUSH1 0x0 PUSH2 0x1685 PUSH1 0x1D DUP4 PUSH2 0x14E1 JUMP JUMPDEST SWAP2 POP PUSH2 0x1690 DUP3 PUSH2 0x164F JUMP JUMPDEST PUSH1 0x20 DUP3 ADD SWAP1 POP SWAP2 SWAP1 POP JUMP JUMPDEST PUSH1 0x0 PUSH1 0x20 DUP3 ADD SWAP1 POP DUP2 DUP2 SUB PUSH1 0x0 DUP4 ADD MSTORE PUSH2 0x16B4 DUP2 PUSH2 0x1678 JUMP JUMPDEST SWAP1 POP SWAP2 SWAP1 POP JUMP JUMPDEST PUSH32 0x4E487B7100000000000000000000000000000000000000000000000000000000 PUSH1 0x0 MSTORE PUSH1 0x12 PUSH1 0x4 MSTORE PUSH1 0x24 PUSH1 0x0 REVERT JUMPDEST PUSH1 0x0 PUSH2 0x16F5 DUP3 PUSH2 0x1240 JUMP JUMPDEST SWAP2 POP PUSH2 0x1700 DUP4 PUSH2 0x1240 JUMP JUMPDEST SWAP3 POP DUP3 PUSH2 0x1710 JUMPI PUSH2 0x170F PUSH2 0x16BB JUMP JUMPDEST JUMPDEST DUP3 DUP3 DIV SWAP1 POP SWAP3 SWAP2 POP POP JUMP JUMPDEST PUSH1 0x0 PUSH1 0x40 DUP3 ADD SWAP1 POP PUSH2 0x1730 PUSH1 0x0 DUP4 ADD DUP6 PUSH2 0x14B7 JUMP JUMPDEST PUSH2 0x173D PUSH1 0x20 DUP4 ADD DUP5 PUSH2 0x124A JUMP JUMPDEST SWAP4 SWAP3 POP POP POP JUMP JUMPDEST PUSH2 0x174D DUP2 PUSH2 0x120A JUMP JUMPDEST DUP2 EQ PUSH2 0x1758 JUMPI PUSH1 0x0 DUP1 REVERT JUMPDEST POP JUMP JUMPDEST PUSH1 0x0 DUP2 MLOAD SWAP1 POP PUSH2 0x176A DUP2 PUSH2 0x1744 JUMP JUMPDEST SWAP3 SWAP2 POP POP JUMP JUMPDEST PUSH1 0x0 PUSH1 0x20 DUP3 DUP5 SUB SLT ISZERO PUSH2 0x1786 JUMPI PUSH2 0x1785 PUSH2 0x1180 JUMP JUMPDEST JUMPDEST PUSH1 0x0 PUSH2 0x1794 DUP5 DUP3 DUP6 ADD PUSH2 0x175B JUMP JUMPDEST SWAP2 POP POP SWAP3 SWAP2 POP POP JUMP JUMPDEST PUSH32 0x416C726561647920737461727465640000000000000000000000000000000000 PUSH1 0x0 DUP3 ADD MSTORE POP JUMP JUMPDEST PUSH1 0x0 PUSH2 0x17D3 PUSH1 0xF DUP4 PUSH2 0x14E1 JUMP JUMPDEST SWAP2 POP PUSH2 0x17DE DUP3 PUSH2 0x179D JUMP JUMPDEST PUSH1 0x20 DUP3 ADD SWAP1 POP SWAP2 SWAP1 POP JUMP JUMPDEST PUSH1 0x0 PUSH1 0x20 DUP3 ADD SWAP1 POP DUP2 DUP2 SUB PUSH1 0x0 DUP4 ADD MSTORE PUSH2 0x1802 DUP2 PUSH2 0x17C6 JUMP JUMPDEST SWAP1 POP SWAP2 SWAP1 POP JUMP JUMPDEST PUSH32 0x416363657373436F6E74726F6C3A2063616E206F6E6C792072656E6F756E6365 PUSH1 0x0 DUP3 ADD MSTORE PUSH32 0x20726F6C657320666F722073656C660000000000000000000000000000000000 PUSH1 0x20 DUP3 ADD MSTORE POP JUMP JUMPDEST PUSH1 0x0 PUSH2 0x1865 PUSH1 0x2F DUP4 PUSH2 0x14E1 JUMP JUMPDEST SWAP2 POP PUSH2 0x1870 DUP3 PUSH2 0x1809 JUMP JUMPDEST PUSH1 0x40 DUP3 ADD SWAP1 POP SWAP2 SWAP1 POP JUMP JUMPDEST PUSH1 0x0 PUSH1 0x20 DUP3 ADD SWAP1 POP DUP2 DUP2 SUB PUSH1 0x0 DUP4 ADD MSTORE PUSH2 0x1894 DUP2 PUSH2 0x1858 JUMP JUMPDEST SWAP1 POP SWAP2 SWAP1 POP JUMP JUMPDEST PUSH32 0x526566666572206E6F7420726567697374657265640000000000000000000000 PUSH1 0x0 DUP3 ADD MSTORE POP JUMP JUMPDEST PUSH1 0x0 PUSH2 0x18D1 PUSH1 0x15 DUP4 PUSH2 0x14E1 JUMP JUMPDEST SWAP2 POP PUSH2 0x18DC DUP3 PUSH2 0x189B JUMP JUMPDEST PUSH1 0x20 DUP3 ADD SWAP1 POP SWAP2 SWAP1 POP JUMP JUMPDEST PUSH1 0x0 PUSH1 0x20 DUP3 ADD SWAP1 POP DUP2 DUP2 SUB PUSH1 0x0 DUP4 ADD MSTORE PUSH2 0x1900 DUP2 PUSH2 0x18C4 JUMP JUMPDEST SWAP1 POP SWAP2 SWAP1 POP JUMP JUMPDEST PUSH32 0x4E487B7100000000000000000000000000000000000000000000000000000000 PUSH1 0x0 MSTORE PUSH1 0x32 PUSH1 0x4 MSTORE PUSH1 0x24 PUSH1 0x0 REVERT JUMPDEST PUSH1 0x0 DUP2 SWAP1 POP SWAP3 SWAP2 POP POP JUMP JUMPDEST PUSH32 0x416363657373436F6E74726F6C3A206163636F756E7420000000000000000000 PUSH1 0x0 DUP3 ADD MSTORE POP JUMP JUMPDEST PUSH1 0x0 PUSH2 0x1977 PUSH1 0x17 DUP4 PUSH2 0x1936 JUMP JUMPDEST SWAP2 POP PUSH2 0x1982 DUP3 PUSH2 0x1941 JUMP JUMPDEST PUSH1 0x17 DUP3 ADD SWAP1 POP SWAP2 SWAP1 POP JUMP JUMPDEST PUSH1 0x0 DUP2 MLOAD SWAP1 POP SWAP2 SWAP1 POP JUMP JUMPDEST PUSH1 0x0 JUMPDEST DUP4 DUP2 LT ISZERO PUSH2 0x19B6 JUMPI DUP1 DUP3 ADD MLOAD DUP2 DUP5 ADD MSTORE PUSH1 0x20 DUP2 ADD SWAP1 POP PUSH2 0x199B JUMP JUMPDEST DUP4 DUP2 GT ISZERO PUSH2 0x19C5 JUMPI PUSH1 0x0 DUP5 DUP5 ADD MSTORE JUMPDEST POP POP POP POP JUMP JUMPDEST PUSH1 0x0 PUSH2 0x19D6 DUP3 PUSH2 0x198D JUMP JUMPDEST PUSH2 0x19E0 DUP2 DUP6 PUSH2 0x1936 JUMP JUMPDEST SWAP4 POP PUSH2 0x19F0 DUP2 DUP6 PUSH1 0x20 DUP7 ADD PUSH2 0x1998 JUMP JUMPDEST DUP1 DUP5 ADD SWAP2 POP POP SWAP3 SWAP2 POP POP JUMP JUMPDEST PUSH32 0x206973206D697373696E6720726F6C6520000000000000000000000000000000 PUSH1 0x0 DUP3 ADD MSTORE POP JUMP JUMPDEST PUSH1 0x0 PUSH2 0x1A32 PUSH1 0x11 DUP4 PUSH2 0x1936 JUMP JUMPDEST SWAP2 POP PUSH2 0x1A3D DUP3 PUSH2 0x19FC JUMP JUMPDEST PUSH1 0x11 DUP3 ADD SWAP1 POP SWAP2 SWAP1 POP JUMP JUMPDEST PUSH1 0x0 PUSH2 0x1A53 DUP3 PUSH2 0x196A JUMP JUMPDEST SWAP2 POP PUSH2 0x1A5F DUP3 DUP6 PUSH2 0x19CB JUMP JUMPDEST SWAP2 POP PUSH2 0x1A6A DUP3 PUSH2 0x1A25 JUMP JUMPDEST SWAP2 POP PUSH2 0x1A76 DUP3 DUP5 PUSH2 0x19CB JUMP JUMPDEST SWAP2 POP DUP2 SWAP1 POP SWAP4 SWAP3 POP POP POP JUMP JUMPDEST PUSH1 0x0 PUSH1 0x1F NOT PUSH1 0x1F DUP4 ADD AND SWAP1 POP SWAP2 SWAP1 POP JUMP JUMPDEST PUSH1 0x0 PUSH2 0x1A9E DUP3 PUSH2 0x198D JUMP JUMPDEST PUSH2 0x1AA8 DUP2 DUP6 PUSH2 0x14E1 JUMP JUMPDEST SWAP4 POP PUSH2 0x1AB8 DUP2 DUP6 PUSH1 0x20 DUP7 ADD PUSH2 0x1998 JUMP JUMPDEST PUSH2 0x1AC1 DUP2 PUSH2 0x1A82 JUMP JUMPDEST DUP5 ADD SWAP2 POP POP SWAP3 SWAP2 POP POP JUMP JUMPDEST PUSH1 0x0 PUSH1 0x20 DUP3 ADD SWAP1 POP DUP2 DUP2 SUB PUSH1 0x0 DUP4 ADD MSTORE PUSH2 0x1AE6 DUP2 DUP5 PUSH2 0x1A93 JUMP JUMPDEST SWAP1 POP SWAP3 SWAP2 POP POP JUMP JUMPDEST PUSH1 0x0 PUSH2 0x1AF9 DUP3 PUSH2 0x1240 JUMP JUMPDEST SWAP2 POP PUSH2 0x1B04 DUP4 PUSH2 0x1240 JUMP JUMPDEST SWAP3 POP DUP2 PUSH32 0xFFFFFFFFFFFFFFFFFFFFFFFFFFFFFFFFFFFFFFFFFFFFFFFFFFFFFFFFFFFFFFFF DIV DUP4 GT DUP3 ISZERO ISZERO AND ISZERO PUSH2 0x1B3D JUMPI PUSH2 0x1B3C PUSH2 0x155E JUMP JUMPDEST JUMPDEST DUP3 DUP3 MUL SWAP1 POP SWAP3 SWAP2 POP POP JUMP JUMPDEST PUSH32 0x4E487B7100000000000000000000000000000000000000000000000000000000 PUSH1 0x0 MSTORE PUSH1 0x41 PUSH1 0x4 MSTORE PUSH1 0x24 PUSH1 0x0 REVERT JUMPDEST PUSH1 0x0 PUSH2 0x1B82 DUP3 PUSH2 0x1240 JUMP JUMPDEST SWAP2 POP PUSH1 0x0 DUP3 SUB PUSH2 0x1B95 JUMPI PUSH2 0x1B94 PUSH2 0x155E JUMP JUMPDEST JUMPDEST PUSH1 0x1 DUP3 SUB SWAP1 POP SWAP2 SWAP1 POP JUMP JUMPDEST PUSH32 0x537472696E67733A20686578206C656E67746820696E73756666696369656E74 PUSH1 0x0 DUP3 ADD MSTORE POP JUMP JUMPDEST PUSH1 0x0 PUSH2 0x1BD6 PUSH1 0x20 DUP4 PUSH2 0x14E1 JUMP JUMPDEST SWAP2 POP PUSH2 0x1BE1 DUP3 PUSH2 0x1BA0 JUMP JUMPDEST PUSH1 0x20 DUP3 ADD SWAP1 POP SWAP2 SWAP1 POP JUMP JUMPDEST PUSH1 0x0 PUSH1 0x20 DUP3 ADD SWAP1 POP DUP2 DUP2 SUB PUSH1 0x0 DUP4 ADD MSTORE PUSH2 0x1C05 DUP2 PUSH2 0x1BC9 JUMP JUMPDEST SWAP1 POP SWAP2 SWAP1 POP JUMP INVALID LOG2 PUSH5 0x6970667358 0x22 SLT KECCAK256 0xB8 0xD3 MSTORE 0xD0 0xDD 0xC2 GASPRICE JUMPDEST 0x2E 0xD3 RETURNDATASIZE PUSH11 0x6A686ECDCFDBB729958940 XOR PUSH17 0x2C76879C7E867464736F6C634300080F00 CALLER "
        },
        "methodIdentifiers": {
          "DAO()": "98fabd3a",
          "DEFAULT_ADMIN_ROLE()": "a217fddf",
          "acdmLiquidityAmount()": "085e5591",
          "buyAcdm()": "0cfd77f6",
          "getRoleAdmin(bytes32)": "248a9ca3",
          "grantRole(bytes32,address)": "2f2ff15d",
          "hasRole(bytes32,address)": "91d14854",
          "refers(address)": "8292afd9",
          "register(address)": "4420e486",
          "registered(address)": "b2dd5c07",
          "renounceRole(bytes32,address)": "36568abe",
          "revokeRole(bytes32,address)": "d547741f",
          "setReffer1RewardPercent(uint256)": "fd69e25a",
          "setReffer2RewardPercent(uint256)": "64807bb7",
          "startPLatform()": "15b86263",
          "startSaleRound()": "b59bfa03",
          "startTradeRound()": "0462fc8e",
          "status()": "200d2ed2",
          "supportsInterface(bytes4)": "01ffc9a7"
        }
      },
      "userdoc": {
        "kind": "user",
        "methods": {
          "buyAcdm()": {
            "notice": "Buy acdm token woth ETH during Sale round"
          },
          "register(address)": {
            "notice": "Registration of users"
          },
          "setReffer1RewardPercent(uint256)": {
            "notice": "DAO sets new reward percent for level 1 reffer"
          },
          "setReffer2RewardPercent(uint256)": {
            "notice": "DAO sets new reward percent for level 2 reffer"
          },
          "startPLatform()": {
            "notice": "Start platform and first sale round"
          }
        },
        "version": 1
      }
    }
  }
}