{
  "_format": "hh-sol-artifact-1",
  "contractName": "Staking",
  "sourceName": "contracts/Staking.sol",
  "abi": [
    {
      "inputs": [
        {
          "internalType": "address",
          "name": "_lpAddress",
          "type": "address"
        },
        {
          "internalType": "address",
          "name": "_rewardAddress",
          "type": "address"
        },
        {
          "internalType": "bytes32",
          "name": "_merkleRoot",
          "type": "bytes32"
        }
      ],
      "stateMutability": "nonpayable",
      "type": "constructor"
    },
    {
      "anonymous": false,
      "inputs": [
        {
          "indexed": true,
          "internalType": "bytes32",
          "name": "role",
          "type": "bytes32"
        },
        {
          "indexed": true,
          "internalType": "bytes32",
          "name": "previousAdminRole",
          "type": "bytes32"
        },
        {
          "indexed": true,
          "internalType": "bytes32",
          "name": "newAdminRole",
          "type": "bytes32"
        }
      ],
      "name": "RoleAdminChanged",
      "type": "event"
    },
    {
      "anonymous": false,
      "inputs": [
        {
          "indexed": true,
          "internalType": "bytes32",
          "name": "role",
          "type": "bytes32"
        },
        {
          "indexed": true,
          "internalType": "address",
          "name": "account",
          "type": "address"
        },
        {
          "indexed": true,
          "internalType": "address",
          "name": "sender",
          "type": "address"
        }
      ],
      "name": "RoleGranted",
      "type": "event"
    },
    {
      "anonymous": false,
      "inputs": [
        {
          "indexed": true,
          "internalType": "bytes32",
          "name": "role",
          "type": "bytes32"
        },
        {
          "indexed": true,
          "internalType": "address",
          "name": "account",
          "type": "address"
        },
        {
          "indexed": true,
          "internalType": "address",
          "name": "sender",
          "type": "address"
        }
      ],
      "name": "RoleRevoked",
      "type": "event"
    },
    {
      "anonymous": false,
      "inputs": [
        {
          "indexed": true,
          "internalType": "address",
          "name": "staker",
          "type": "address"
        },
        {
          "indexed": false,
          "internalType": "uint256",
          "name": "_amount",
          "type": "uint256"
        }
      ],
      "name": "Staked",
      "type": "event"
    },
    {
      "anonymous": false,
      "inputs": [
        {
          "indexed": true,
          "internalType": "address",
          "name": "staker",
          "type": "address"
        },
        {
          "indexed": false,
          "internalType": "uint256",
          "name": "_amount",
          "type": "uint256"
        }
      ],
      "name": "Unstaked",
      "type": "event"
    },
    {
      "inputs": [],
      "name": "DAO",
      "outputs": [
        {
          "internalType": "bytes32",
          "name": "",
          "type": "bytes32"
        }
      ],
      "stateMutability": "view",
      "type": "function"
    },
    {
      "inputs": [],
      "name": "DEFAULT_ADMIN_ROLE",
      "outputs": [
        {
          "internalType": "bytes32",
          "name": "",
          "type": "bytes32"
        }
      ],
      "stateMutability": "view",
      "type": "function"
    },
    {
      "inputs": [],
      "name": "claim",
      "outputs": [],
      "stateMutability": "nonpayable",
      "type": "function"
    },
    {
      "inputs": [],
      "name": "daoAddress",
      "outputs": [
        {
          "internalType": "address",
          "name": "",
          "type": "address"
        }
      ],
      "stateMutability": "view",
      "type": "function"
    },
    {
      "inputs": [
        {
          "internalType": "bytes32",
          "name": "role",
          "type": "bytes32"
        }
      ],
      "name": "getRoleAdmin",
      "outputs": [
        {
          "internalType": "bytes32",
          "name": "",
          "type": "bytes32"
        }
      ],
      "stateMutability": "view",
      "type": "function"
    },
    {
      "inputs": [
        {
          "internalType": "bytes32",
          "name": "role",
          "type": "bytes32"
        },
        {
          "internalType": "address",
          "name": "account",
          "type": "address"
        }
      ],
      "name": "grantRole",
      "outputs": [],
      "stateMutability": "nonpayable",
      "type": "function"
    },
    {
      "inputs": [
        {
          "internalType": "bytes32",
          "name": "role",
          "type": "bytes32"
        },
        {
          "internalType": "address",
          "name": "account",
          "type": "address"
        }
      ],
      "name": "hasRole",
      "outputs": [
        {
          "internalType": "bool",
          "name": "",
          "type": "bool"
        }
      ],
      "stateMutability": "view",
      "type": "function"
    },
    {
      "inputs": [],
      "name": "merkleRoot",
      "outputs": [
        {
          "internalType": "bytes32",
          "name": "",
          "type": "bytes32"
        }
      ],
      "stateMutability": "view",
      "type": "function"
    },
    {
      "inputs": [
        {
          "internalType": "bytes32",
          "name": "role",
          "type": "bytes32"
        },
        {
          "internalType": "address",
          "name": "account",
          "type": "address"
        }
      ],
      "name": "renounceRole",
      "outputs": [],
      "stateMutability": "nonpayable",
      "type": "function"
    },
    {
      "inputs": [
        {
          "internalType": "bytes32",
          "name": "role",
          "type": "bytes32"
        },
        {
          "internalType": "address",
          "name": "account",
          "type": "address"
        }
      ],
      "name": "revokeRole",
      "outputs": [],
      "stateMutability": "nonpayable",
      "type": "function"
    },
    {
      "inputs": [],
      "name": "rewardPercent",
      "outputs": [
        {
          "internalType": "uint256",
          "name": "",
          "type": "uint256"
        }
      ],
      "stateMutability": "view",
      "type": "function"
    },
    {
      "inputs": [
        {
          "internalType": "bytes32",
          "name": "_newRoot",
          "type": "bytes32"
        }
      ],
      "name": "setMerkleRoot",
      "outputs": [],
      "stateMutability": "nonpayable",
      "type": "function"
    },
    {
      "inputs": [
        {
          "internalType": "uint256",
          "name": "_time",
          "type": "uint256"
        }
      ],
      "name": "setTimeToLockLp",
      "outputs": [],
      "stateMutability": "nonpayable",
      "type": "function"
    },
    {
      "inputs": [
        {
          "internalType": "address",
          "name": "_daoAddress",
          "type": "address"
        }
      ],
      "name": "setupDao",
      "outputs": [],
      "stateMutability": "nonpayable",
      "type": "function"
    },
    {
      "inputs": [
        {
          "internalType": "uint256",
          "name": "_amount",
          "type": "uint256"
        },
        {
          "internalType": "bytes32[]",
          "name": "merkleProof",
          "type": "bytes32[]"
        }
      ],
      "name": "stake",
      "outputs": [],
      "stateMutability": "nonpayable",
      "type": "function"
    },
    {
      "inputs": [
        {
          "internalType": "address",
          "name": "_owner",
          "type": "address"
        }
      ],
      "name": "stakeAmount",
      "outputs": [
        {
          "internalType": "uint256",
          "name": "",
          "type": "uint256"
        }
      ],
      "stateMutability": "view",
      "type": "function"
    },
    {
      "inputs": [
        {
          "internalType": "address",
          "name": "",
          "type": "address"
        }
      ],
      "name": "stakes",
      "outputs": [
        {
          "internalType": "uint256",
          "name": "timestamp",
          "type": "uint256"
        },
        {
          "internalType": "uint256",
          "name": "amount",
          "type": "uint256"
        },
        {
          "internalType": "uint256",
          "name": "lastWithdrawTime",
          "type": "uint256"
        }
      ],
      "stateMutability": "view",
      "type": "function"
    },
    {
      "inputs": [],
      "name": "stakingValue",
      "outputs": [
        {
          "internalType": "uint256",
          "name": "",
          "type": "uint256"
        }
      ],
      "stateMutability": "view",
      "type": "function"
    },
    {
      "inputs": [
        {
          "internalType": "bytes4",
          "name": "interfaceId",
          "type": "bytes4"
        }
      ],
      "name": "supportsInterface",
      "outputs": [
        {
          "internalType": "bool",
          "name": "",
          "type": "bool"
        }
      ],
      "stateMutability": "view",
      "type": "function"
    },
    {
      "inputs": [],
      "name": "timeToLockLp",
      "outputs": [
        {
          "internalType": "uint256",
          "name": "",
          "type": "uint256"
        }
      ],
      "stateMutability": "view",
      "type": "function"
    },
    {
      "inputs": [],
      "name": "unstake",
      "outputs": [],
      "stateMutability": "nonpayable",
      "type": "function"
    }
  ],
  "bytecode": "0x60806040526003600155620697806002553480156200001d57600080fd5b506040516200264f3803806200264f8339818101604052810190620000439190620002f2565b620000586000801b33620000ea60201b60201c565b8060038190555082600660006101000a81548173ffffffffffffffffffffffffffffffffffffffff021916908373ffffffffffffffffffffffffffffffffffffffff16021790555081600760006101000a81548173ffffffffffffffffffffffffffffffffffffffff021916908373ffffffffffffffffffffffffffffffffffffffff1602179055505050506200034e565b620000fc8282620001db60201b60201c565b620001d757600160008084815260200190815260200160002060000160008373ffffffffffffffffffffffffffffffffffffffff1673ffffffffffffffffffffffffffffffffffffffff16815260200190815260200160002060006101000a81548160ff0219169083151502179055506200017c6200024560201b60201c565b73ffffffffffffffffffffffffffffffffffffffff168173ffffffffffffffffffffffffffffffffffffffff16837f2f8788117e7eff1d82e926ec794901d17c78024a50270940304540a733656f0d60405160405180910390a45b5050565b600080600084815260200190815260200160002060000160008373ffffffffffffffffffffffffffffffffffffffff1673ffffffffffffffffffffffffffffffffffffffff16815260200190815260200160002060009054906101000a900460ff16905092915050565b600033905090565b600080fd5b600073ffffffffffffffffffffffffffffffffffffffff82169050919050565b60006200027f8262000252565b9050919050565b620002918162000272565b81146200029d57600080fd5b50565b600081519050620002b18162000286565b92915050565b6000819050919050565b620002cc81620002b7565b8114620002d857600080fd5b50565b600081519050620002ec81620002c1565b92915050565b6000806000606084860312156200030e576200030d6200024d565b5b60006200031e86828701620002a0565b93505060206200033186828701620002a0565b92505060406200034486828701620002db565b9150509250925092565b6122f1806200035e6000396000f3fe608060405234801561001057600080fd5b50600436106101375760003560e01c80634d64903a116100b8578063a217fddf1161007c578063a217fddf14610318578063a4eb3aaf14610336578063bf13526714610352578063c6d1e9bd14610382578063d03020511461039e578063d547741f146103bc57610137565b80634d64903a146102865780634e71d92d146102a45780637cb64759146102ae57806391d14854146102ca57806398fabd3a146102fa57610137565b80632c5510cd116100ff5780632c5510cd1461020a5780632def6620146102265780632eb4a7ab146102305780632f2ff15d1461024e57806336568abe1461026a57610137565b806301ffc9a71461013c5780631464473b1461016c57806316934fc41461018a5780632131c68c146101bc578063248a9ca3146101da575b600080fd5b610156600480360381019061015191906116ca565b6103d8565b6040516101639190611712565b60405180910390f35b610174610452565b6040516101819190611746565b60405180910390f35b6101a4600480360381019061019f91906117bf565b610458565b6040516101b3939291906117ec565b60405180910390f35b6101c4610482565b6040516101d19190611832565b60405180910390f35b6101f460048036038101906101ef9190611883565b6104a8565b60405161020191906118bf565b60405180910390f35b610224600480360381019061021f91906117bf565b6104c7565b005b61022e610615565b005b610238610968565b60405161024591906118bf565b60405180910390f35b610268600480360381019061026391906118da565b61096e565b005b610284600480360381019061027f91906118da565b61098f565b005b61028e610a12565b60405161029b9190611746565b60405180910390f35b6102ac610a18565b005b6102c860048036038101906102c39190611883565b610c74565b005b6102e460048036038101906102df91906118da565b610ca9565b6040516102f19190611712565b60405180910390f35b610302610d13565b60405161030f91906118bf565b60405180910390f35b610320610d37565b60405161032d91906118bf565b60405180910390f35b610350600480360381019061034b91906119ab565b610d3e565b005b61036c600480360381019061036791906117bf565b610ff1565b6040516103799190611746565b60405180910390f35b61039c60048036038101906103979190611a0b565b61103d565b005b6103a6611072565b6040516103b39190611746565b60405180910390f35b6103d660048036038101906103d191906118da565b611078565b005b60007f7965db0b000000000000000000000000000000000000000000000000000000007bffffffffffffffffffffffffffffffffffffffffffffffffffffffff1916827bffffffffffffffffffffffffffffffffffffffffffffffffffffffff1916148061044b575061044a82611099565b5b9050919050565b60025481565b60046020528060005260406000206000915090508060000154908060010154908060020154905083565b600960009054906101000a900473ffffffffffffffffffffffffffffffffffffffff1681565b6000806000838152602001908152602001600020600101549050919050565b6000801b6104d481611103565b600073ffffffffffffffffffffffffffffffffffffffff16600960009054906101000a900473ffffffffffffffffffffffffffffffffffffffff1673ffffffffffffffffffffffffffffffffffffffff1614610565576040517f08c379a000000000000000000000000000000000000000000000000000000000815260040161055c90611a95565b60405180910390fd5b81600860006101000a81548173ffffffffffffffffffffffffffffffffffffffff021916908373ffffffffffffffffffffffffffffffffffffffff16021790555081600960006101000a81548173ffffffffffffffffffffffffffffffffffffffff021916908373ffffffffffffffffffffffffffffffffffffffff1602179055506106117fd0a4ad96d49edb1c33461cebc6fb2609190f32c904e3c3f5877edb4488dee91e83611117565b5050565b600254600460003373ffffffffffffffffffffffffffffffffffffffff1673ffffffffffffffffffffffffffffffffffffffff168152602001908152602001600020600001546106659190611ae4565b4210156106a7576040517f08c379a000000000000000000000000000000000000000000000000000000000815260040161069e90611b86565b60405180910390fd5b42600860009054906101000a900473ffffffffffffffffffffffffffffffffffffffff1673ffffffffffffffffffffffffffffffffffffffff166376b467b7336040518263ffffffff1660e01b81526004016107039190611832565b6020604051808303816000875af1158015610722573d6000803e3d6000fd5b505050506040513d601f19601f820116820180604052508101906107469190611bbb565b1115610787576040517f08c379a000000000000000000000000000000000000000000000000000000000815260040161077e90611c34565b60405180910390fd5b6000600460003373ffffffffffffffffffffffffffffffffffffffff1673ffffffffffffffffffffffffffffffffffffffff168152602001908152602001600020600101549050600660009054906101000a900473ffffffffffffffffffffffffffffffffffffffff1673ffffffffffffffffffffffffffffffffffffffff1663a9059cbb33836040518363ffffffff1660e01b815260040161082b929190611c54565b6020604051808303816000875af115801561084a573d6000803e3d6000fd5b505050506040513d601f19601f8201168201806040525081019061086e9190611ca9565b506000600460003373ffffffffffffffffffffffffffffffffffffffff1673ffffffffffffffffffffffffffffffffffffffff1681526020019081526020016000206001018190555042600460003373ffffffffffffffffffffffffffffffffffffffff1673ffffffffffffffffffffffffffffffffffffffff1681526020019081526020016000206002018190555080600560008282546109109190611cd6565b925050819055503373ffffffffffffffffffffffffffffffffffffffff167f0f5bb82176feb1b5e747e28471aa92156a04d9f3ab9f45f28e2d704232b93f758260405161095d9190611746565b60405180910390a250565b60035481565b610977826104a8565b61098081611103565b61098a8383611117565b505050565b6109976111f7565b73ffffffffffffffffffffffffffffffffffffffff168173ffffffffffffffffffffffffffffffffffffffff1614610a04576040517f08c379a00000000000000000000000000000000000000000000000000000000081526004016109fb90611d7c565b60405180910390fd5b610a0e82826111ff565b5050565b60055481565b62093a80600460003373ffffffffffffffffffffffffffffffffffffffff1673ffffffffffffffffffffffffffffffffffffffff1681526020019081526020016000206002015442610a6a9190611cd6565b1015610aab576040517f08c379a0000000000000000000000000000000000000000000000000000000008152600401610aa290611de8565b60405180910390fd5b600062093a8090506000600460003373ffffffffffffffffffffffffffffffffffffffff1673ffffffffffffffffffffffffffffffffffffffff1681526020019081526020016000206002015442610b039190611cd6565b905060008282610b139190611e37565b905060006064600154600460003373ffffffffffffffffffffffffffffffffffffffff1673ffffffffffffffffffffffffffffffffffffffff16815260200190815260200160002060010154610b699190611e68565b610b739190611e37565b905060008282610b839190611e68565b9050600760009054906101000a900473ffffffffffffffffffffffffffffffffffffffff1673ffffffffffffffffffffffffffffffffffffffff1663a9059cbb33836040518363ffffffff1660e01b8152600401610be2929190611c54565b6020604051808303816000875af1158015610c01573d6000803e3d6000fd5b505050506040513d601f19601f82011682018060405250810190610c259190611ca9565b5042600460003373ffffffffffffffffffffffffffffffffffffffff1673ffffffffffffffffffffffffffffffffffffffff168152602001908152602001600020600201819055505050505050565b7fd0a4ad96d49edb1c33461cebc6fb2609190f32c904e3c3f5877edb4488dee91e610c9e81611103565b816003819055505050565b600080600084815260200190815260200160002060000160008373ffffffffffffffffffffffffffffffffffffffff1673ffffffffffffffffffffffffffffffffffffffff16815260200190815260200160002060009054906101000a900460ff16905092915050565b7fd0a4ad96d49edb1c33461cebc6fb2609190f32c904e3c3f5877edb4488dee91e81565b6000801b81565b8181600033604051602001610d539190611f0a565b604051602081830303815290604052805190602001209050610db9838380806020026020016040519081016040528093929190818152602001838360200280828437600081840152601f19601f82011690508083019250505050505050600354836112e0565b610df8576040517f08c379a0000000000000000000000000000000000000000000000000000000008152600401610def90611f71565b60405180910390fd5b600660009054906101000a900473ffffffffffffffffffffffffffffffffffffffff1673ffffffffffffffffffffffffffffffffffffffff166323b872dd3330896040518463ffffffff1660e01b8152600401610e5793929190611f91565b6020604051808303816000875af1158015610e76573d6000803e3d6000fd5b505050506040513d601f19601f82011682018060405250810190610e9a9190611ca9565b5085600460003373ffffffffffffffffffffffffffffffffffffffff1673ffffffffffffffffffffffffffffffffffffffff1681526020019081526020016000206001016000828254610eed9190611ae4565b9250508190555042600460003373ffffffffffffffffffffffffffffffffffffffff1673ffffffffffffffffffffffffffffffffffffffff1681526020019081526020016000206000018190555042600460003373ffffffffffffffffffffffffffffffffffffffff1673ffffffffffffffffffffffffffffffffffffffff168152602001908152602001600020600201819055508560056000828254610f949190611ae4565b925050819055503373ffffffffffffffffffffffffffffffffffffffff167f9e71bc8eea02a63969f509818f2dafb9254532904319f9dbda79b67bd34a5f3d87604051610fe19190611746565b60405180910390a2505050505050565b6000600460008373ffffffffffffffffffffffffffffffffffffffff1673ffffffffffffffffffffffffffffffffffffffff168152602001908152602001600020600101549050919050565b7fd0a4ad96d49edb1c33461cebc6fb2609190f32c904e3c3f5877edb4488dee91e61106781611103565b816002819055505050565b60015481565b611081826104a8565b61108a81611103565b61109483836111ff565b505050565b60007f01ffc9a7000000000000000000000000000000000000000000000000000000007bffffffffffffffffffffffffffffffffffffffffffffffffffffffff1916827bffffffffffffffffffffffffffffffffffffffffffffffffffffffff1916149050919050565b6111148161110f6111f7565b6112f7565b50565b6111218282610ca9565b6111f357600160008084815260200190815260200160002060000160008373ffffffffffffffffffffffffffffffffffffffff1673ffffffffffffffffffffffffffffffffffffffff16815260200190815260200160002060006101000a81548160ff0219169083151502179055506111986111f7565b73ffffffffffffffffffffffffffffffffffffffff168173ffffffffffffffffffffffffffffffffffffffff16837f2f8788117e7eff1d82e926ec794901d17c78024a50270940304540a733656f0d60405160405180910390a45b5050565b600033905090565b6112098282610ca9565b156112dc57600080600084815260200190815260200160002060000160008373ffffffffffffffffffffffffffffffffffffffff1673ffffffffffffffffffffffffffffffffffffffff16815260200190815260200160002060006101000a81548160ff0219169083151502179055506112816111f7565b73ffffffffffffffffffffffffffffffffffffffff168173ffffffffffffffffffffffffffffffffffffffff16837ff6391f5c32d9c69d2a47ea670b442974b53935d1edc7fd64eb21e047a839171b60405160405180910390a45b5050565b6000826112ed8584611394565b1490509392505050565b6113018282610ca9565b611390576113268173ffffffffffffffffffffffffffffffffffffffff1660146113ea565b6113348360001c60206113ea565b6040516020016113459291906120da565b6040516020818303038152906040526040517f08c379a0000000000000000000000000000000000000000000000000000000008152600401611387919061215e565b60405180910390fd5b5050565b60008082905060005b84518110156113df576113ca828683815181106113bd576113bc612180565b5b6020026020010151611626565b915080806113d7906121af565b91505061139d565b508091505092915050565b6060600060028360026113fd9190611e68565b6114079190611ae4565b67ffffffffffffffff8111156114205761141f6121f7565b5b6040519080825280601f01601f1916602001820160405280156114525781602001600182028036833780820191505090505b5090507f30000000000000000000000000000000000000000000000000000000000000008160008151811061148a57611489612180565b5b60200101907effffffffffffffffffffffffffffffffffffffffffffffffffffffffffffff1916908160001a9053507f7800000000000000000000000000000000000000000000000000000000000000816001815181106114ee576114ed612180565b5b60200101907effffffffffffffffffffffffffffffffffffffffffffffffffffffffffffff1916908160001a9053506000600184600261152e9190611e68565b6115389190611ae4565b90505b60018111156115d8577f3031323334353637383961626364656600000000000000000000000000000000600f86166010811061157a57611579612180565b5b1a60f81b82828151811061159157611590612180565b5b60200101907effffffffffffffffffffffffffffffffffffffffffffffffffffffffffffff1916908160001a905350600485901c9450806115d190612226565b905061153b565b506000841461161c576040517f08c379a00000000000000000000000000000000000000000000000000000000081526004016116139061229b565b60405180910390fd5b8091505092915050565b600081831061163e576116398284611651565b611649565b6116488383611651565b5b905092915050565b600082600052816020526040600020905092915050565b600080fd5b600080fd5b60007fffffffff0000000000000000000000000000000000000000000000000000000082169050919050565b6116a781611672565b81146116b257600080fd5b50565b6000813590506116c48161169e565b92915050565b6000602082840312156116e0576116df611668565b5b60006116ee848285016116b5565b91505092915050565b60008115159050919050565b61170c816116f7565b82525050565b60006020820190506117276000830184611703565b92915050565b6000819050919050565b6117408161172d565b82525050565b600060208201905061175b6000830184611737565b92915050565b600073ffffffffffffffffffffffffffffffffffffffff82169050919050565b600061178c82611761565b9050919050565b61179c81611781565b81146117a757600080fd5b50565b6000813590506117b981611793565b92915050565b6000602082840312156117d5576117d4611668565b5b60006117e3848285016117aa565b91505092915050565b60006060820190506118016000830186611737565b61180e6020830185611737565b61181b6040830184611737565b949350505050565b61182c81611781565b82525050565b60006020820190506118476000830184611823565b92915050565b6000819050919050565b6118608161184d565b811461186b57600080fd5b50565b60008135905061187d81611857565b92915050565b60006020828403121561189957611898611668565b5b60006118a78482850161186e565b91505092915050565b6118b98161184d565b82525050565b60006020820190506118d460008301846118b0565b92915050565b600080604083850312156118f1576118f0611668565b5b60006118ff8582860161186e565b9250506020611910858286016117aa565b9150509250929050565b6119238161172d565b811461192e57600080fd5b50565b6000813590506119408161191a565b92915050565b600080fd5b600080fd5b600080fd5b60008083601f84011261196b5761196a611946565b5b8235905067ffffffffffffffff8111156119885761198761194b565b5b6020830191508360208202830111156119a4576119a3611950565b5b9250929050565b6000806000604084860312156119c4576119c3611668565b5b60006119d286828701611931565b935050602084013567ffffffffffffffff8111156119f3576119f261166d565b5b6119ff86828701611955565b92509250509250925092565b600060208284031215611a2157611a20611668565b5b6000611a2f84828501611931565b91505092915050565b600082825260208201905092915050565b7f44616f20616c7265616479207365747465640000000000000000000000000000600082015250565b6000611a7f601283611a38565b9150611a8a82611a49565b602082019050919050565b60006020820190508181036000830152611aae81611a72565b9050919050565b7f4e487b7100000000000000000000000000000000000000000000000000000000600052601160045260246000fd5b6000611aef8261172d565b9150611afa8361172d565b9250827fffffffffffffffffffffffffffffffffffffffffffffffffffffffffffffffff03821115611b2f57611b2e611ab5565b5b828201905092915050565b7f54696d65206c6f636b0000000000000000000000000000000000000000000000600082015250565b6000611b70600983611a38565b9150611b7b82611b3a565b602082019050919050565b60006020820190508181036000830152611b9f81611b63565b9050919050565b600081519050611bb58161191a565b92915050565b600060208284031215611bd157611bd0611668565b5b6000611bdf84828501611ba6565b91505092915050565b7f5761697420666f722064656261746520706572696f6420697320757000000000600082015250565b6000611c1e601c83611a38565b9150611c2982611be8565b602082019050919050565b60006020820190508181036000830152611c4d81611c11565b9050919050565b6000604082019050611c696000830185611823565b611c766020830184611737565b9392505050565b611c86816116f7565b8114611c9157600080fd5b50565b600081519050611ca381611c7d565b92915050565b600060208284031215611cbf57611cbe611668565b5b6000611ccd84828501611c94565b91505092915050565b6000611ce18261172d565b9150611cec8361172d565b925082821015611cff57611cfe611ab5565b5b828203905092915050565b7f416363657373436f6e74726f6c3a2063616e206f6e6c792072656e6f756e636560008201527f20726f6c657320666f722073656c660000000000000000000000000000000000602082015250565b6000611d66602f83611a38565b9150611d7182611d0a565b604082019050919050565b60006020820190508181036000830152611d9581611d59565b9050919050565b7f5761697420666f722031207765656b0000000000000000000000000000000000600082015250565b6000611dd2600f83611a38565b9150611ddd82611d9c565b602082019050919050565b60006020820190508181036000830152611e0181611dc5565b9050919050565b7f4e487b7100000000000000000000000000000000000000000000000000000000600052601260045260246000fd5b6000611e428261172d565b9150611e4d8361172d565b925082611e5d57611e5c611e08565b5b828204905092915050565b6000611e738261172d565b9150611e7e8361172d565b9250817fffffffffffffffffffffffffffffffffffffffffffffffffffffffffffffffff0483118215151615611eb757611eb6611ab5565b5b828202905092915050565b60008160601b9050919050565b6000611eda82611ec2565b9050919050565b6000611eec82611ecf565b9050919050565b611f04611eff82611781565b611ee1565b82525050565b6000611f168284611ef3565b60148201915081905092915050565b7f4e6f742077686974656c69737465640000000000000000000000000000000000600082015250565b6000611f5b600f83611a38565b9150611f6682611f25565b602082019050919050565b60006020820190508181036000830152611f8a81611f4e565b9050919050565b6000606082019050611fa66000830186611823565b611fb36020830185611823565b611fc06040830184611737565b949350505050565b600081905092915050565b7f416363657373436f6e74726f6c3a206163636f756e7420000000000000000000600082015250565b6000612009601783611fc8565b915061201482611fd3565b601782019050919050565b600081519050919050565b60005b8381101561204857808201518184015260208101905061202d565b83811115612057576000848401525b50505050565b60006120688261201f565b6120728185611fc8565b935061208281856020860161202a565b80840191505092915050565b7f206973206d697373696e6720726f6c6520000000000000000000000000000000600082015250565b60006120c4601183611fc8565b91506120cf8261208e565b601182019050919050565b60006120e582611ffc565b91506120f1828561205d565b91506120fc826120b7565b9150612108828461205d565b91508190509392505050565b6000601f19601f8301169050919050565b60006121308261201f565b61213a8185611a38565b935061214a81856020860161202a565b61215381612114565b840191505092915050565b600060208201905081810360008301526121788184612125565b905092915050565b7f4e487b7100000000000000000000000000000000000000000000000000000000600052603260045260246000fd5b60006121ba8261172d565b91507fffffffffffffffffffffffffffffffffffffffffffffffffffffffffffffffff82036121ec576121eb611ab5565b5b600182019050919050565b7f4e487b7100000000000000000000000000000000000000000000000000000000600052604160045260246000fd5b60006122318261172d565b91506000820361224457612243611ab5565b5b600182039050919050565b7f537472696e67733a20686578206c656e67746820696e73756666696369656e74600082015250565b6000612285602083611a38565b91506122908261224f565b602082019050919050565b600060208201905081810360008301526122b481612278565b905091905056fea26469706673582212207930a90052e240d72d6a9d0a2068ca708f15e44344a5e60d27aa263d8001c58264736f6c634300080f0033",
  "linkReferences": {},
  "deployedLinkReferences": {}
}