{
  "_format": "hh-sol-artifact-1",
  "contractName": "Staking",
  "sourceName": "contracts/Staking.sol",
  "abi": [
    {
      "inputs": [
        {
          "internalType": "address",
          "name": "_lpAddress",
          "type": "address"
        },
        {
          "internalType": "address",
          "name": "_rewardAddress",
          "type": "address"
        }
      ],
      "stateMutability": "nonpayable",
      "type": "constructor"
    },
    {
      "anonymous": false,
      "inputs": [
        {
          "indexed": true,
          "internalType": "bytes32",
          "name": "role",
          "type": "bytes32"
        },
        {
          "indexed": true,
          "internalType": "bytes32",
          "name": "previousAdminRole",
          "type": "bytes32"
        },
        {
          "indexed": true,
          "internalType": "bytes32",
          "name": "newAdminRole",
          "type": "bytes32"
        }
      ],
      "name": "RoleAdminChanged",
      "type": "event"
    },
    {
      "anonymous": false,
      "inputs": [
        {
          "indexed": true,
          "internalType": "bytes32",
          "name": "role",
          "type": "bytes32"
        },
        {
          "indexed": true,
          "internalType": "address",
          "name": "account",
          "type": "address"
        },
        {
          "indexed": true,
          "internalType": "address",
          "name": "sender",
          "type": "address"
        }
      ],
      "name": "RoleGranted",
      "type": "event"
    },
    {
      "anonymous": false,
      "inputs": [
        {
          "indexed": true,
          "internalType": "bytes32",
          "name": "role",
          "type": "bytes32"
        },
        {
          "indexed": true,
          "internalType": "address",
          "name": "account",
          "type": "address"
        },
        {
          "indexed": true,
          "internalType": "address",
          "name": "sender",
          "type": "address"
        }
      ],
      "name": "RoleRevoked",
      "type": "event"
    },
    {
      "anonymous": false,
      "inputs": [
        {
          "indexed": true,
          "internalType": "address",
          "name": "staker",
          "type": "address"
        },
        {
          "indexed": false,
          "internalType": "uint256",
          "name": "_amount",
          "type": "uint256"
        }
      ],
      "name": "Staked",
      "type": "event"
    },
    {
      "anonymous": false,
      "inputs": [
        {
          "indexed": true,
          "internalType": "address",
          "name": "staker",
          "type": "address"
        },
        {
          "indexed": false,
          "internalType": "uint256",
          "name": "_amount",
          "type": "uint256"
        }
      ],
      "name": "Unstaked",
      "type": "event"
    },
    {
      "inputs": [],
      "name": "DAO",
      "outputs": [
        {
          "internalType": "bytes32",
          "name": "",
          "type": "bytes32"
        }
      ],
      "stateMutability": "view",
      "type": "function"
    },
    {
      "inputs": [],
      "name": "DEFAULT_ADMIN_ROLE",
      "outputs": [
        {
          "internalType": "bytes32",
          "name": "",
          "type": "bytes32"
        }
      ],
      "stateMutability": "view",
      "type": "function"
    },
    {
      "inputs": [],
      "name": "claim",
      "outputs": [],
      "stateMutability": "nonpayable",
      "type": "function"
    },
    {
      "inputs": [],
      "name": "daoAddress",
      "outputs": [
        {
          "internalType": "address",
          "name": "",
          "type": "address"
        }
      ],
      "stateMutability": "view",
      "type": "function"
    },
    {
      "inputs": [
        {
          "internalType": "bytes32",
          "name": "role",
          "type": "bytes32"
        }
      ],
      "name": "getRoleAdmin",
      "outputs": [
        {
          "internalType": "bytes32",
          "name": "",
          "type": "bytes32"
        }
      ],
      "stateMutability": "view",
      "type": "function"
    },
    {
      "inputs": [
        {
          "internalType": "bytes32",
          "name": "role",
          "type": "bytes32"
        },
        {
          "internalType": "address",
          "name": "account",
          "type": "address"
        }
      ],
      "name": "grantRole",
      "outputs": [],
      "stateMutability": "nonpayable",
      "type": "function"
    },
    {
      "inputs": [
        {
          "internalType": "bytes32",
          "name": "role",
          "type": "bytes32"
        },
        {
          "internalType": "address",
          "name": "account",
          "type": "address"
        }
      ],
      "name": "hasRole",
      "outputs": [
        {
          "internalType": "bool",
          "name": "",
          "type": "bool"
        }
      ],
      "stateMutability": "view",
      "type": "function"
    },
    {
      "inputs": [
        {
          "internalType": "bytes32",
          "name": "role",
          "type": "bytes32"
        },
        {
          "internalType": "address",
          "name": "account",
          "type": "address"
        }
      ],
      "name": "renounceRole",
      "outputs": [],
      "stateMutability": "nonpayable",
      "type": "function"
    },
    {
      "inputs": [
        {
          "internalType": "bytes32",
          "name": "role",
          "type": "bytes32"
        },
        {
          "internalType": "address",
          "name": "account",
          "type": "address"
        }
      ],
      "name": "revokeRole",
      "outputs": [],
      "stateMutability": "nonpayable",
      "type": "function"
    },
    {
      "inputs": [],
      "name": "rewardPercent",
      "outputs": [
        {
          "internalType": "uint256",
          "name": "",
          "type": "uint256"
        }
      ],
      "stateMutability": "view",
      "type": "function"
    },
    {
      "inputs": [
        {
          "internalType": "uint256",
          "name": "_time",
          "type": "uint256"
        }
      ],
      "name": "setTimeToLockLp",
      "outputs": [],
      "stateMutability": "nonpayable",
      "type": "function"
    },
    {
      "inputs": [
        {
          "internalType": "address",
          "name": "_daoAddress",
          "type": "address"
        }
      ],
      "name": "setupDao",
      "outputs": [],
      "stateMutability": "nonpayable",
      "type": "function"
    },
    {
      "inputs": [
        {
          "internalType": "uint256",
          "name": "_amount",
          "type": "uint256"
        }
      ],
      "name": "stake",
      "outputs": [],
      "stateMutability": "nonpayable",
      "type": "function"
    },
    {
      "inputs": [
        {
          "internalType": "address",
          "name": "_owner",
          "type": "address"
        }
      ],
      "name": "stakeAmount",
      "outputs": [
        {
          "internalType": "uint256",
          "name": "",
          "type": "uint256"
        }
      ],
      "stateMutability": "view",
      "type": "function"
    },
    {
      "inputs": [
        {
          "internalType": "address",
          "name": "",
          "type": "address"
        }
      ],
      "name": "stakes",
      "outputs": [
        {
          "internalType": "uint256",
          "name": "timestamp",
          "type": "uint256"
        },
        {
          "internalType": "uint256",
          "name": "amount",
          "type": "uint256"
        },
        {
          "internalType": "uint256",
          "name": "lastWithdrawTime",
          "type": "uint256"
        }
      ],
      "stateMutability": "view",
      "type": "function"
    },
    {
      "inputs": [],
      "name": "stakingValue",
      "outputs": [
        {
          "internalType": "uint256",
          "name": "",
          "type": "uint256"
        }
      ],
      "stateMutability": "view",
      "type": "function"
    },
    {
      "inputs": [
        {
          "internalType": "bytes4",
          "name": "interfaceId",
          "type": "bytes4"
        }
      ],
      "name": "supportsInterface",
      "outputs": [
        {
          "internalType": "bool",
          "name": "",
          "type": "bool"
        }
      ],
      "stateMutability": "view",
      "type": "function"
    },
    {
      "inputs": [],
      "name": "timeToLockLp",
      "outputs": [
        {
          "internalType": "uint256",
          "name": "",
          "type": "uint256"
        }
      ],
      "stateMutability": "view",
      "type": "function"
    },
    {
      "inputs": [],
      "name": "unstake",
      "outputs": [],
      "stateMutability": "nonpayable",
      "type": "function"
    }
  ],
  "bytecode": "0x60806040526003600155620697806002553480156200001d57600080fd5b506040516200221d3803806200221d8339818101604052810190620000439190620002af565b620000586000801b33620000e260201b60201c565b81600560006101000a81548173ffffffffffffffffffffffffffffffffffffffff021916908373ffffffffffffffffffffffffffffffffffffffff16021790555080600660006101000a81548173ffffffffffffffffffffffffffffffffffffffff021916908373ffffffffffffffffffffffffffffffffffffffff1602179055505050620002f6565b620000f48282620001d360201b60201c565b620001cf57600160008084815260200190815260200160002060000160008373ffffffffffffffffffffffffffffffffffffffff1673ffffffffffffffffffffffffffffffffffffffff16815260200190815260200160002060006101000a81548160ff021916908315150217905550620001746200023d60201b60201c565b73ffffffffffffffffffffffffffffffffffffffff168173ffffffffffffffffffffffffffffffffffffffff16837f2f8788117e7eff1d82e926ec794901d17c78024a50270940304540a733656f0d60405160405180910390a45b5050565b600080600084815260200190815260200160002060000160008373ffffffffffffffffffffffffffffffffffffffff1673ffffffffffffffffffffffffffffffffffffffff16815260200190815260200160002060009054906101000a900460ff16905092915050565b600033905090565b600080fd5b600073ffffffffffffffffffffffffffffffffffffffff82169050919050565b600062000277826200024a565b9050919050565b62000289816200026a565b81146200029557600080fd5b50565b600081519050620002a9816200027e565b92915050565b60008060408385031215620002c957620002c862000245565b5b6000620002d98582860162000298565b9250506020620002ec8582860162000298565b9150509250929050565b611f1780620003066000396000f3fe608060405234801561001057600080fd5b50600436106101215760003560e01c80634d64903a116100ad578063a694fc3a11610071578063a694fc3a146102e6578063bf13526714610302578063c6d1e9bd14610332578063d03020511461034e578063d547741f1461036c57610121565b80634d64903a146102525780634e71d92d1461027057806391d148541461027a57806398fabd3a146102aa578063a217fddf146102c857610121565b8063248a9ca3116100f4578063248a9ca3146101c45780632c5510cd146101f45780632def6620146102105780632f2ff15d1461021a57806336568abe1461023657610121565b806301ffc9a7146101265780631464473b1461015657806316934fc4146101745780632131c68c146101a6575b600080fd5b610140600480360381019061013b91906114cc565b610388565b60405161014d9190611514565b60405180910390f35b61015e610402565b60405161016b9190611548565b60405180910390f35b61018e600480360381019061018991906115c1565b610408565b60405161019d939291906115ee565b60405180910390f35b6101ae610432565b6040516101bb9190611634565b60405180910390f35b6101de60048036038101906101d99190611685565b610458565b6040516101eb91906116c1565b60405180910390f35b61020e600480360381019061020991906115c1565b610477565b005b6102186105c5565b005b610234600480360381019061022f91906116dc565b610918565b005b610250600480360381019061024b91906116dc565b610939565b005b61025a6109bc565b6040516102679190611548565b60405180910390f35b6102786109c2565b005b610294600480360381019061028f91906116dc565b610c1e565b6040516102a19190611514565b60405180910390f35b6102b2610c88565b6040516102bf91906116c1565b60405180910390f35b6102d0610cac565b6040516102dd91906116c1565b60405180910390f35b61030060048036038101906102fb9190611748565b610cb3565b005b61031c600480360381019061031791906115c1565b610ea7565b6040516103299190611548565b60405180910390f35b61034c60048036038101906103479190611748565b610ef3565b005b610356610f28565b6040516103639190611548565b60405180910390f35b610386600480360381019061038191906116dc565b610f2e565b005b60007f7965db0b000000000000000000000000000000000000000000000000000000007bffffffffffffffffffffffffffffffffffffffffffffffffffffffff1916827bffffffffffffffffffffffffffffffffffffffffffffffffffffffff191614806103fb57506103fa82610f4f565b5b9050919050565b60025481565b60036020528060005260406000206000915090508060000154908060010154908060020154905083565b600860009054906101000a900473ffffffffffffffffffffffffffffffffffffffff1681565b6000806000838152602001908152602001600020600101549050919050565b6000801b61048481610fb9565b600073ffffffffffffffffffffffffffffffffffffffff16600860009054906101000a900473ffffffffffffffffffffffffffffffffffffffff1673ffffffffffffffffffffffffffffffffffffffff1614610515576040517f08c379a000000000000000000000000000000000000000000000000000000000815260040161050c906117d2565b60405180910390fd5b81600760006101000a81548173ffffffffffffffffffffffffffffffffffffffff021916908373ffffffffffffffffffffffffffffffffffffffff16021790555081600860006101000a81548173ffffffffffffffffffffffffffffffffffffffff021916908373ffffffffffffffffffffffffffffffffffffffff1602179055506105c17fd0a4ad96d49edb1c33461cebc6fb2609190f32c904e3c3f5877edb4488dee91e83610fcd565b5050565b600254600360003373ffffffffffffffffffffffffffffffffffffffff1673ffffffffffffffffffffffffffffffffffffffff168152602001908152602001600020600001546106159190611821565b421015610657576040517f08c379a000000000000000000000000000000000000000000000000000000000815260040161064e906118c3565b60405180910390fd5b42600760009054906101000a900473ffffffffffffffffffffffffffffffffffffffff1673ffffffffffffffffffffffffffffffffffffffff166376b467b7336040518263ffffffff1660e01b81526004016106b39190611634565b6020604051808303816000875af11580156106d2573d6000803e3d6000fd5b505050506040513d601f19601f820116820180604052508101906106f691906118f8565b1115610737576040517f08c379a000000000000000000000000000000000000000000000000000000000815260040161072e90611971565b60405180910390fd5b6000600360003373ffffffffffffffffffffffffffffffffffffffff1673ffffffffffffffffffffffffffffffffffffffff168152602001908152602001600020600101549050600560009054906101000a900473ffffffffffffffffffffffffffffffffffffffff1673ffffffffffffffffffffffffffffffffffffffff1663a9059cbb33836040518363ffffffff1660e01b81526004016107db929190611991565b6020604051808303816000875af11580156107fa573d6000803e3d6000fd5b505050506040513d601f19601f8201168201806040525081019061081e91906119e6565b506000600360003373ffffffffffffffffffffffffffffffffffffffff1673ffffffffffffffffffffffffffffffffffffffff1681526020019081526020016000206001018190555042600360003373ffffffffffffffffffffffffffffffffffffffff1673ffffffffffffffffffffffffffffffffffffffff1681526020019081526020016000206002018190555080600460008282546108c09190611a13565b925050819055503373ffffffffffffffffffffffffffffffffffffffff167f0f5bb82176feb1b5e747e28471aa92156a04d9f3ab9f45f28e2d704232b93f758260405161090d9190611548565b60405180910390a250565b61092182610458565b61092a81610fb9565b6109348383610fcd565b505050565b6109416110ad565b73ffffffffffffffffffffffffffffffffffffffff168173ffffffffffffffffffffffffffffffffffffffff16146109ae576040517f08c379a00000000000000000000000000000000000000000000000000000000081526004016109a590611ab9565b60405180910390fd5b6109b882826110b5565b5050565b60045481565b62093a80600360003373ffffffffffffffffffffffffffffffffffffffff1673ffffffffffffffffffffffffffffffffffffffff1681526020019081526020016000206002015442610a149190611a13565b1015610a55576040517f08c379a0000000000000000000000000000000000000000000000000000000008152600401610a4c90611b25565b60405180910390fd5b600062093a8090506000600360003373ffffffffffffffffffffffffffffffffffffffff1673ffffffffffffffffffffffffffffffffffffffff1681526020019081526020016000206002015442610aad9190611a13565b905060008282610abd9190611b74565b905060006064600154600360003373ffffffffffffffffffffffffffffffffffffffff1673ffffffffffffffffffffffffffffffffffffffff16815260200190815260200160002060010154610b139190611ba5565b610b1d9190611b74565b905060008282610b2d9190611ba5565b9050600660009054906101000a900473ffffffffffffffffffffffffffffffffffffffff1673ffffffffffffffffffffffffffffffffffffffff1663a9059cbb33836040518363ffffffff1660e01b8152600401610b8c929190611991565b6020604051808303816000875af1158015610bab573d6000803e3d6000fd5b505050506040513d601f19601f82011682018060405250810190610bcf91906119e6565b5042600360003373ffffffffffffffffffffffffffffffffffffffff1673ffffffffffffffffffffffffffffffffffffffff168152602001908152602001600020600201819055505050505050565b600080600084815260200190815260200160002060000160008373ffffffffffffffffffffffffffffffffffffffff1673ffffffffffffffffffffffffffffffffffffffff16815260200190815260200160002060009054906101000a900460ff16905092915050565b7fd0a4ad96d49edb1c33461cebc6fb2609190f32c904e3c3f5877edb4488dee91e81565b6000801b81565b600560009054906101000a900473ffffffffffffffffffffffffffffffffffffffff1673ffffffffffffffffffffffffffffffffffffffff166323b872dd3330846040518463ffffffff1660e01b8152600401610d1293929190611bff565b6020604051808303816000875af1158015610d31573d6000803e3d6000fd5b505050506040513d601f19601f82011682018060405250810190610d5591906119e6565b5080600360003373ffffffffffffffffffffffffffffffffffffffff1673ffffffffffffffffffffffffffffffffffffffff1681526020019081526020016000206001016000828254610da89190611821565b9250508190555042600360003373ffffffffffffffffffffffffffffffffffffffff1673ffffffffffffffffffffffffffffffffffffffff1681526020019081526020016000206000018190555042600360003373ffffffffffffffffffffffffffffffffffffffff1673ffffffffffffffffffffffffffffffffffffffff168152602001908152602001600020600201819055508060046000828254610e4f9190611821565b925050819055503373ffffffffffffffffffffffffffffffffffffffff167f9e71bc8eea02a63969f509818f2dafb9254532904319f9dbda79b67bd34a5f3d82604051610e9c9190611548565b60405180910390a250565b6000600360008373ffffffffffffffffffffffffffffffffffffffff1673ffffffffffffffffffffffffffffffffffffffff168152602001908152602001600020600101549050919050565b7fd0a4ad96d49edb1c33461cebc6fb2609190f32c904e3c3f5877edb4488dee91e610f1d81610fb9565b816002819055505050565b60015481565b610f3782610458565b610f4081610fb9565b610f4a83836110b5565b505050565b60007f01ffc9a7000000000000000000000000000000000000000000000000000000007bffffffffffffffffffffffffffffffffffffffffffffffffffffffff1916827bffffffffffffffffffffffffffffffffffffffffffffffffffffffff1916149050919050565b610fca81610fc56110ad565b611196565b50565b610fd78282610c1e565b6110a957600160008084815260200190815260200160002060000160008373ffffffffffffffffffffffffffffffffffffffff1673ffffffffffffffffffffffffffffffffffffffff16815260200190815260200160002060006101000a81548160ff02191690831515021790555061104e6110ad565b73ffffffffffffffffffffffffffffffffffffffff168173ffffffffffffffffffffffffffffffffffffffff16837f2f8788117e7eff1d82e926ec794901d17c78024a50270940304540a733656f0d60405160405180910390a45b5050565b600033905090565b6110bf8282610c1e565b1561119257600080600084815260200190815260200160002060000160008373ffffffffffffffffffffffffffffffffffffffff1673ffffffffffffffffffffffffffffffffffffffff16815260200190815260200160002060006101000a81548160ff0219169083151502179055506111376110ad565b73ffffffffffffffffffffffffffffffffffffffff168173ffffffffffffffffffffffffffffffffffffffff16837ff6391f5c32d9c69d2a47ea670b442974b53935d1edc7fd64eb21e047a839171b60405160405180910390a45b5050565b6111a08282610c1e565b61122f576111c58173ffffffffffffffffffffffffffffffffffffffff166014611233565b6111d38360001c6020611233565b6040516020016111e4929190611d48565b6040516020818303038152906040526040517f08c379a00000000000000000000000000000000000000000000000000000000081526004016112269190611dcc565b60405180910390fd5b5050565b6060600060028360026112469190611ba5565b6112509190611821565b67ffffffffffffffff81111561126957611268611dee565b5b6040519080825280601f01601f19166020018201604052801561129b5781602001600182028036833780820191505090505b5090507f3000000000000000000000000000000000000000000000000000000000000000816000815181106112d3576112d2611e1d565b5b60200101907effffffffffffffffffffffffffffffffffffffffffffffffffffffffffffff1916908160001a9053507f78000000000000000000000000000000000000000000000000000000000000008160018151811061133757611336611e1d565b5b60200101907effffffffffffffffffffffffffffffffffffffffffffffffffffffffffffff1916908160001a905350600060018460026113779190611ba5565b6113819190611821565b90505b6001811115611421577f3031323334353637383961626364656600000000000000000000000000000000600f8616601081106113c3576113c2611e1d565b5b1a60f81b8282815181106113da576113d9611e1d565b5b60200101907effffffffffffffffffffffffffffffffffffffffffffffffffffffffffffff1916908160001a905350600485901c94508061141a90611e4c565b9050611384565b5060008414611465576040517f08c379a000000000000000000000000000000000000000000000000000000000815260040161145c90611ec1565b60405180910390fd5b8091505092915050565b600080fd5b60007fffffffff0000000000000000000000000000000000000000000000000000000082169050919050565b6114a981611474565b81146114b457600080fd5b50565b6000813590506114c6816114a0565b92915050565b6000602082840312156114e2576114e161146f565b5b60006114f0848285016114b7565b91505092915050565b60008115159050919050565b61150e816114f9565b82525050565b60006020820190506115296000830184611505565b92915050565b6000819050919050565b6115428161152f565b82525050565b600060208201905061155d6000830184611539565b92915050565b600073ffffffffffffffffffffffffffffffffffffffff82169050919050565b600061158e82611563565b9050919050565b61159e81611583565b81146115a957600080fd5b50565b6000813590506115bb81611595565b92915050565b6000602082840312156115d7576115d661146f565b5b60006115e5848285016115ac565b91505092915050565b60006060820190506116036000830186611539565b6116106020830185611539565b61161d6040830184611539565b949350505050565b61162e81611583565b82525050565b60006020820190506116496000830184611625565b92915050565b6000819050919050565b6116628161164f565b811461166d57600080fd5b50565b60008135905061167f81611659565b92915050565b60006020828403121561169b5761169a61146f565b5b60006116a984828501611670565b91505092915050565b6116bb8161164f565b82525050565b60006020820190506116d660008301846116b2565b92915050565b600080604083850312156116f3576116f261146f565b5b600061170185828601611670565b9250506020611712858286016115ac565b9150509250929050565b6117258161152f565b811461173057600080fd5b50565b6000813590506117428161171c565b92915050565b60006020828403121561175e5761175d61146f565b5b600061176c84828501611733565b91505092915050565b600082825260208201905092915050565b7f44616f20616c7265616479207365747465640000000000000000000000000000600082015250565b60006117bc601283611775565b91506117c782611786565b602082019050919050565b600060208201905081810360008301526117eb816117af565b9050919050565b7f4e487b7100000000000000000000000000000000000000000000000000000000600052601160045260246000fd5b600061182c8261152f565b91506118378361152f565b9250827fffffffffffffffffffffffffffffffffffffffffffffffffffffffffffffffff0382111561186c5761186b6117f2565b5b828201905092915050565b7f54696d65206c6f636b0000000000000000000000000000000000000000000000600082015250565b60006118ad600983611775565b91506118b882611877565b602082019050919050565b600060208201905081810360008301526118dc816118a0565b9050919050565b6000815190506118f28161171c565b92915050565b60006020828403121561190e5761190d61146f565b5b600061191c848285016118e3565b91505092915050565b7f5761697420666f722064656261746520706572696f6420697320757000000000600082015250565b600061195b601c83611775565b915061196682611925565b602082019050919050565b6000602082019050818103600083015261198a8161194e565b9050919050565b60006040820190506119a66000830185611625565b6119b36020830184611539565b9392505050565b6119c3816114f9565b81146119ce57600080fd5b50565b6000815190506119e0816119ba565b92915050565b6000602082840312156119fc576119fb61146f565b5b6000611a0a848285016119d1565b91505092915050565b6000611a1e8261152f565b9150611a298361152f565b925082821015611a3c57611a3b6117f2565b5b828203905092915050565b7f416363657373436f6e74726f6c3a2063616e206f6e6c792072656e6f756e636560008201527f20726f6c657320666f722073656c660000000000000000000000000000000000602082015250565b6000611aa3602f83611775565b9150611aae82611a47565b604082019050919050565b60006020820190508181036000830152611ad281611a96565b9050919050565b7f5761697420666f722031207765656b0000000000000000000000000000000000600082015250565b6000611b0f600f83611775565b9150611b1a82611ad9565b602082019050919050565b60006020820190508181036000830152611b3e81611b02565b9050919050565b7f4e487b7100000000000000000000000000000000000000000000000000000000600052601260045260246000fd5b6000611b7f8261152f565b9150611b8a8361152f565b925082611b9a57611b99611b45565b5b828204905092915050565b6000611bb08261152f565b9150611bbb8361152f565b9250817fffffffffffffffffffffffffffffffffffffffffffffffffffffffffffffffff0483118215151615611bf457611bf36117f2565b5b828202905092915050565b6000606082019050611c146000830186611625565b611c216020830185611625565b611c2e6040830184611539565b949350505050565b600081905092915050565b7f416363657373436f6e74726f6c3a206163636f756e7420000000000000000000600082015250565b6000611c77601783611c36565b9150611c8282611c41565b601782019050919050565b600081519050919050565b60005b83811015611cb6578082015181840152602081019050611c9b565b83811115611cc5576000848401525b50505050565b6000611cd682611c8d565b611ce08185611c36565b9350611cf0818560208601611c98565b80840191505092915050565b7f206973206d697373696e6720726f6c6520000000000000000000000000000000600082015250565b6000611d32601183611c36565b9150611d3d82611cfc565b601182019050919050565b6000611d5382611c6a565b9150611d5f8285611ccb565b9150611d6a82611d25565b9150611d768284611ccb565b91508190509392505050565b6000601f19601f8301169050919050565b6000611d9e82611c8d565b611da88185611775565b9350611db8818560208601611c98565b611dc181611d82565b840191505092915050565b60006020820190508181036000830152611de68184611d93565b905092915050565b7f4e487b7100000000000000000000000000000000000000000000000000000000600052604160045260246000fd5b7f4e487b7100000000000000000000000000000000000000000000000000000000600052603260045260246000fd5b6000611e578261152f565b915060008203611e6a57611e696117f2565b5b600182039050919050565b7f537472696e67733a20686578206c656e67746820696e73756666696369656e74600082015250565b6000611eab602083611775565b9150611eb682611e75565b602082019050919050565b60006020820190508181036000830152611eda81611e9e565b905091905056fea264697066735822122044512a4b7fa849edde1a2feb8efe0411b9777e3fef30ebe20d6480c35544b06664736f6c634300080f0033",
  "linkReferences": {},
  "deployedLinkReferences": {}
}