{
  "_format": "hh-sol-artifact-1",
  "contractName": "ACDMPlatform",
  "sourceName": "contracts/ACDMPlatform.sol",
  "abi": [
    {
      "inputs": [
        {
          "internalType": "address",
          "name": "_acdmToken",
          "type": "address"
        }
      ],
      "stateMutability": "nonpayable",
      "type": "constructor"
    },
    {
      "anonymous": false,
      "inputs": [
        {
          "indexed": false,
          "internalType": "uint256",
          "name": "_id",
          "type": "uint256"
        }
      ],
      "name": "OrderExecuted",
      "type": "event"
    },
    {
      "anonymous": false,
      "inputs": [
        {
          "indexed": false,
          "internalType": "uint256",
          "name": "id",
          "type": "uint256"
        },
        {
          "indexed": false,
          "internalType": "uint256",
          "name": "amount",
          "type": "uint256"
        },
        {
          "indexed": false,
          "internalType": "uint256",
          "name": "price",
          "type": "uint256"
        }
      ],
      "name": "OrderPlaced",
      "type": "event"
    },
    {
      "anonymous": false,
      "inputs": [
        {
          "indexed": false,
          "internalType": "uint256",
          "name": "_id",
          "type": "uint256"
        }
      ],
      "name": "OrderRemoved",
      "type": "event"
    },
    {
      "anonymous": false,
      "inputs": [
        {
          "indexed": false,
          "internalType": "uint256",
          "name": "_id",
          "type": "uint256"
        },
        {
          "indexed": false,
          "internalType": "uint256",
          "name": "amount",
          "type": "uint256"
        }
      ],
      "name": "OrderUpdated",
      "type": "event"
    },
    {
      "anonymous": false,
      "inputs": [
        {
          "indexed": true,
          "internalType": "bytes32",
          "name": "role",
          "type": "bytes32"
        },
        {
          "indexed": true,
          "internalType": "bytes32",
          "name": "previousAdminRole",
          "type": "bytes32"
        },
        {
          "indexed": true,
          "internalType": "bytes32",
          "name": "newAdminRole",
          "type": "bytes32"
        }
      ],
      "name": "RoleAdminChanged",
      "type": "event"
    },
    {
      "anonymous": false,
      "inputs": [
        {
          "indexed": true,
          "internalType": "bytes32",
          "name": "role",
          "type": "bytes32"
        },
        {
          "indexed": true,
          "internalType": "address",
          "name": "account",
          "type": "address"
        },
        {
          "indexed": true,
          "internalType": "address",
          "name": "sender",
          "type": "address"
        }
      ],
      "name": "RoleGranted",
      "type": "event"
    },
    {
      "anonymous": false,
      "inputs": [
        {
          "indexed": true,
          "internalType": "bytes32",
          "name": "role",
          "type": "bytes32"
        },
        {
          "indexed": true,
          "internalType": "address",
          "name": "account",
          "type": "address"
        },
        {
          "indexed": true,
          "internalType": "address",
          "name": "sender",
          "type": "address"
        }
      ],
      "name": "RoleRevoked",
      "type": "event"
    },
    {
      "inputs": [],
      "name": "DAO",
      "outputs": [
        {
          "internalType": "bytes32",
          "name": "",
          "type": "bytes32"
        }
      ],
      "stateMutability": "view",
      "type": "function"
    },
    {
      "inputs": [],
      "name": "DEFAULT_ADMIN_ROLE",
      "outputs": [
        {
          "internalType": "bytes32",
          "name": "",
          "type": "bytes32"
        }
      ],
      "stateMutability": "view",
      "type": "function"
    },
    {
      "inputs": [],
      "name": "acdmEmission",
      "outputs": [
        {
          "internalType": "uint256",
          "name": "",
          "type": "uint256"
        }
      ],
      "stateMutability": "view",
      "type": "function"
    },
    {
      "inputs": [
        {
          "internalType": "uint256",
          "name": "_amount",
          "type": "uint256"
        },
        {
          "internalType": "uint256",
          "name": "_price",
          "type": "uint256"
        }
      ],
      "name": "addOrder",
      "outputs": [],
      "stateMutability": "nonpayable",
      "type": "function"
    },
    {
      "inputs": [],
      "name": "buyAcdm",
      "outputs": [],
      "stateMutability": "payable",
      "type": "function"
    },
    {
      "inputs": [
        {
          "internalType": "bytes32",
          "name": "role",
          "type": "bytes32"
        }
      ],
      "name": "getRoleAdmin",
      "outputs": [
        {
          "internalType": "bytes32",
          "name": "",
          "type": "bytes32"
        }
      ],
      "stateMutability": "view",
      "type": "function"
    },
    {
      "inputs": [
        {
          "internalType": "bytes32",
          "name": "role",
          "type": "bytes32"
        },
        {
          "internalType": "address",
          "name": "account",
          "type": "address"
        }
      ],
      "name": "grantRole",
      "outputs": [],
      "stateMutability": "nonpayable",
      "type": "function"
    },
    {
      "inputs": [
        {
          "internalType": "bytes32",
          "name": "role",
          "type": "bytes32"
        },
        {
          "internalType": "address",
          "name": "account",
          "type": "address"
        }
      ],
      "name": "hasRole",
      "outputs": [
        {
          "internalType": "bool",
          "name": "",
          "type": "bool"
        }
      ],
      "stateMutability": "view",
      "type": "function"
    },
    {
      "inputs": [],
      "name": "lastPrice",
      "outputs": [
        {
          "internalType": "uint256",
          "name": "",
          "type": "uint256"
        }
      ],
      "stateMutability": "view",
      "type": "function"
    },
    {
      "inputs": [
        {
          "internalType": "uint256",
          "name": "",
          "type": "uint256"
        }
      ],
      "name": "orders",
      "outputs": [
        {
          "internalType": "bool",
          "name": "executed",
          "type": "bool"
        },
        {
          "internalType": "address",
          "name": "seller",
          "type": "address"
        },
        {
          "internalType": "uint256",
          "name": "amount",
          "type": "uint256"
        },
        {
          "internalType": "uint256",
          "name": "price",
          "type": "uint256"
        }
      ],
      "stateMutability": "view",
      "type": "function"
    },
    {
      "inputs": [
        {
          "internalType": "uint256",
          "name": "_id",
          "type": "uint256"
        }
      ],
      "name": "redeemOrder",
      "outputs": [],
      "stateMutability": "payable",
      "type": "function"
    },
    {
      "inputs": [],
      "name": "referralRewardBank",
      "outputs": [
        {
          "internalType": "uint256",
          "name": "",
          "type": "uint256"
        }
      ],
      "stateMutability": "view",
      "type": "function"
    },
    {
      "inputs": [
        {
          "internalType": "address",
          "name": "",
          "type": "address"
        }
      ],
      "name": "refers",
      "outputs": [
        {
          "internalType": "address",
          "name": "",
          "type": "address"
        }
      ],
      "stateMutability": "view",
      "type": "function"
    },
    {
      "inputs": [
        {
          "internalType": "address",
          "name": "_refer",
          "type": "address"
        }
      ],
      "name": "register",
      "outputs": [],
      "stateMutability": "nonpayable",
      "type": "function"
    },
    {
      "inputs": [
        {
          "internalType": "address",
          "name": "",
          "type": "address"
        }
      ],
      "name": "registered",
      "outputs": [
        {
          "internalType": "bool",
          "name": "",
          "type": "bool"
        }
      ],
      "stateMutability": "view",
      "type": "function"
    },
    {
      "inputs": [
        {
          "internalType": "uint256",
          "name": "_id",
          "type": "uint256"
        }
      ],
      "name": "removeOrder",
      "outputs": [],
      "stateMutability": "nonpayable",
      "type": "function"
    },
    {
      "inputs": [
        {
          "internalType": "bytes32",
          "name": "role",
          "type": "bytes32"
        },
        {
          "internalType": "address",
          "name": "account",
          "type": "address"
        }
      ],
      "name": "renounceRole",
      "outputs": [],
      "stateMutability": "nonpayable",
      "type": "function"
    },
    {
      "inputs": [
        {
          "internalType": "bytes32",
          "name": "role",
          "type": "bytes32"
        },
        {
          "internalType": "address",
          "name": "account",
          "type": "address"
        }
      ],
      "name": "revokeRole",
      "outputs": [],
      "stateMutability": "nonpayable",
      "type": "function"
    },
    {
      "inputs": [
        {
          "internalType": "uint256",
          "name": "",
          "type": "uint256"
        }
      ],
      "name": "saleRoundReferRewards",
      "outputs": [
        {
          "internalType": "uint256",
          "name": "",
          "type": "uint256"
        }
      ],
      "stateMutability": "view",
      "type": "function"
    },
    {
      "inputs": [
        {
          "internalType": "uint256",
          "name": "_newPercent1",
          "type": "uint256"
        },
        {
          "internalType": "uint256",
          "name": "_newPercent2",
          "type": "uint256"
        }
      ],
      "name": "setSaleRoundReferRewards",
      "outputs": [],
      "stateMutability": "nonpayable",
      "type": "function"
    },
    {
      "inputs": [
        {
          "internalType": "uint256",
          "name": "_newPercent1",
          "type": "uint256"
        },
        {
          "internalType": "uint256",
          "name": "_newPercent2",
          "type": "uint256"
        }
      ],
      "name": "setTradeRoundReferRewards",
      "outputs": [],
      "stateMutability": "nonpayable",
      "type": "function"
    },
    {
      "inputs": [],
      "name": "startPlatform",
      "outputs": [],
      "stateMutability": "nonpayable",
      "type": "function"
    },
    {
      "inputs": [],
      "name": "startSaleRound",
      "outputs": [],
      "stateMutability": "nonpayable",
      "type": "function"
    },
    {
      "inputs": [],
      "name": "startTradeRound",
      "outputs": [],
      "stateMutability": "nonpayable",
      "type": "function"
    },
    {
      "inputs": [],
      "name": "status",
      "outputs": [
        {
          "internalType": "enum ACDMPlatform.Status",
          "name": "",
          "type": "uint8"
        }
      ],
      "stateMutability": "view",
      "type": "function"
    },
    {
      "inputs": [
        {
          "internalType": "bytes4",
          "name": "interfaceId",
          "type": "bytes4"
        }
      ],
      "name": "supportsInterface",
      "outputs": [
        {
          "internalType": "bool",
          "name": "",
          "type": "bool"
        }
      ],
      "stateMutability": "view",
      "type": "function"
    },
    {
      "inputs": [
        {
          "internalType": "uint256",
          "name": "",
          "type": "uint256"
        }
      ],
      "name": "tradeRoundReferRewards",
      "outputs": [
        {
          "internalType": "uint256",
          "name": "",
          "type": "uint256"
        }
      ],
      "stateMutability": "view",
      "type": "function"
    },
    {
      "inputs": [],
      "name": "tradeRoundVolume",
      "outputs": [
        {
          "internalType": "uint256",
          "name": "",
          "type": "uint256"
        }
      ],
      "stateMutability": "view",
      "type": "function"
    },
    {
      "inputs": [],
      "name": "withdraw",
      "outputs": [],
      "stateMutability": "nonpayable",
      "type": "function"
    }
  ],
  "bytecode": "0x60806040526040518060400160405280603260ff168152602001601e60ff16815250600290600262000033929190620002f9565b506040518060400160405280601960ff168152602001601960ff16815250600490600262000063929190620002f9565b50605060065560326007556203f480600955670de0b6b3a7640000600a556509184e72a000600b5562989680600c55620186a0600d55348015620000a657600080fd5b5060405162003edc38038062003edc8339818101604052810190620000cc9190620003cc565b806001806101000a81548173ffffffffffffffffffffffffffffffffffffffff021916908373ffffffffffffffffffffffffffffffffffffffff160217905550620001216000801b336200018060201b60201c565b6001601360003373ffffffffffffffffffffffffffffffffffffffff1673ffffffffffffffffffffffffffffffffffffffff16815260200190815260200160002060006101000a81548160ff02191690831515021790555050620003fe565b6200019282826200019660201b60201c565b5050565b620001a882826200028760201b60201c565b6200028357600160008084815260200190815260200160002060000160008373ffffffffffffffffffffffffffffffffffffffff1673ffffffffffffffffffffffffffffffffffffffff16815260200190815260200160002060006101000a81548160ff02191690831515021790555062000228620002f160201b60201c565b73ffffffffffffffffffffffffffffffffffffffff168173ffffffffffffffffffffffffffffffffffffffff16837f2f8788117e7eff1d82e926ec794901d17c78024a50270940304540a733656f0d60405160405180910390a45b5050565b600080600084815260200190815260200160002060000160008373ffffffffffffffffffffffffffffffffffffffff1673ffffffffffffffffffffffffffffffffffffffff16815260200190815260200160002060009054906101000a900460ff16905092915050565b600033905090565b826002810192821562000330579160200282015b828111156200032f578251829060ff169055916020019190600101906200030d565b5b5090506200033f919062000343565b5090565b5b808211156200035e57600081600090555060010162000344565b5090565b600080fd5b600073ffffffffffffffffffffffffffffffffffffffff82169050919050565b6000620003948262000367565b9050919050565b620003a68162000387565b8114620003b257600080fd5b50565b600081519050620003c6816200039b565b92915050565b600060208284031215620003e557620003e462000362565b5b6000620003f584828501620003b5565b91505092915050565b613ace806200040e6000396000f3fe6080604052600436106101c25760003560e01c806346935bf3116100f7578063a217fddf11610095578063c76beb9011610064578063c76beb90146105ef578063d547741f1461061a578063f0a063e514610643578063f28db6c414610680576101c2565b8063a217fddf14610530578063a85c38ef1461055b578063b2dd5c071461059b578063b59bfa03146105d8576101c2565b80638292afd9116100d15780638292afd91461046257806391d148541461049f5780639645337a146104dc57806398fabd3a14610505576101c2565b806346935bf3146103de5780634a58ca0e1461041b5780637df0b17e14610437576101c2565b8063248a9ca31161016457806336568abe1161013e57806336568abe1461034c5780633ccfd60b146103755780633eed6af51461038c5780634420e486146103b5576101c2565b8063248a9ca3146102bd5780632f2ff15d146102fa5780633430071114610323576101c2565b806305dcb3a4116101a057806305dcb3a4146102465780630cfd77f6146102715780631f2e7c221461027b578063200d2ed214610292576101c2565b806301ffc9a7146101c75780630462fc8e14610204578063053f14da1461021b575b600080fd5b3480156101d357600080fd5b506101ee60048036038101906101e991906129b7565b6106a9565b6040516101fb91906129ff565b60405180910390f35b34801561021057600080fd5b50610219610723565b005b34801561022757600080fd5b506102306108cc565b60405161023d9190612a33565b60405180910390f35b34801561025257600080fd5b5061025b6108d2565b6040516102689190612a33565b60405180910390f35b6102796108d8565b005b34801561028757600080fd5b50610290610a9d565b005b34801561029e57600080fd5b506102a7610c89565b6040516102b49190612ac5565b60405180910390f35b3480156102c957600080fd5b506102e460048036038101906102df9190612b16565b610c9c565b6040516102f19190612b52565b60405180910390f35b34801561030657600080fd5b50610321600480360381019061031c9190612bcb565b610cbb565b005b34801561032f57600080fd5b5061034a60048036038101906103459190612c37565b610cdc565b005b34801561035857600080fd5b50610373600480360381019061036e9190612bcb565b610d53565b005b34801561038157600080fd5b5061038a610dd6565b005b34801561039857600080fd5b506103b360048036038101906103ae9190612c37565b610e40565b005b3480156103c157600080fd5b506103dc60048036038101906103d79190612c77565b610eb7565b005b3480156103ea57600080fd5b5061040560048036038101906104009190612ca4565b61101c565b6040516104129190612a33565b60405180910390f35b61043560048036038101906104309190612ca4565b611037565b005b34801561044357600080fd5b5061044c61140d565b6040516104599190612a33565b60405180910390f35b34801561046e57600080fd5b5061048960048036038101906104849190612c77565b611413565b6040516104969190612ce0565b60405180910390f35b3480156104ab57600080fd5b506104c660048036038101906104c19190612bcb565b611446565b6040516104d391906129ff565b60405180910390f35b3480156104e857600080fd5b5061050360048036038101906104fe9190612ca4565b6114b0565b005b34801561051157600080fd5b5061051a61172b565b6040516105279190612b52565b60405180910390f35b34801561053c57600080fd5b5061054561174f565b6040516105529190612b52565b60405180910390f35b34801561056757600080fd5b50610582600480360381019061057d9190612ca4565b611756565b6040516105929493929190612cfb565b60405180910390f35b3480156105a757600080fd5b506105c260048036038101906105bd9190612c77565b6117c3565b6040516105cf91906129ff565b60405180910390f35b3480156105e457600080fd5b506105ed6117e3565b005b3480156105fb57600080fd5b50610604611c0f565b6040516106119190612a33565b60405180910390f35b34801561062657600080fd5b50610641600480360381019061063c9190612bcb565b611c15565b005b34801561064f57600080fd5b5061066a60048036038101906106659190612ca4565b611c36565b6040516106779190612a33565b60405180910390f35b34801561068c57600080fd5b506106a760048036038101906106a29190612c37565b611c51565b005b60007f7965db0b000000000000000000000000000000000000000000000000000000007bffffffffffffffffffffffffffffffffffffffffffffffffffffffff1916827bffffffffffffffffffffffffffffffffffffffffffffffffffffffff1916148061071c575061071b82611eec565b5b9050919050565b6001600281111561073757610736612a4e565b5b601160009054906101000a900460ff16600281111561075957610758612a4e565b5b14610799576040517f08c379a000000000000000000000000000000000000000000000000000000000815260040161079090612d9d565b60405180910390fd5b426203f480600e546107ab9190612dec565b1115806108515750600060018054906101000a900473ffffffffffffffffffffffffffffffffffffffff1673ffffffffffffffffffffffffffffffffffffffff166370a08231306040518263ffffffff1660e01b815260040161080e9190612ce0565b602060405180830381865afa15801561082b573d6000803e3d6000fd5b505050506040513d601f19601f8201168201806040525081019061084f9190612e57565b145b610890576040517f08c379a000000000000000000000000000000000000000000000000000000000815260040161088790612ed0565b60405180910390fd5b6000600a8190555042600e819055506002601160006101000a81548160ff021916908360028111156108c5576108c4612a4e565b5b0217905550565b600b5481565b600a5481565b600160028111156108ec576108eb612a4e565b5b601160009054906101000a900460ff16600281111561090e5761090d612a4e565b5b1461094e576040517f08c379a000000000000000000000000000000000000000000000000000000000815260040161094590612d9d565b60405180910390fd5b426203f480600e546109609190612dec565b10156109a1576040517f08c379a000000000000000000000000000000000000000000000000000000000815260040161099890612f3c565b60405180910390fd5b600c5434116109e5576040517f08c379a00000000000000000000000000000000000000000000000000000000081526004016109dc90612fa8565b60405180910390fd5b60018054906101000a900473ffffffffffffffffffffffffffffffffffffffff1673ffffffffffffffffffffffffffffffffffffffff1663a9059cbb33600c5434610a309190612ff7565b6040518363ffffffff1660e01b8152600401610a4d929190613028565b6020604051808303816000875af1158015610a6c573d6000803e3d6000fd5b505050506040513d601f19601f82011682018060405250810190610a90919061307d565b50610a9b3334611f56565b565b6000801b610aaa81612148565b60006002811115610abe57610abd612a4e565b5b601160009054906101000a900460ff166002811115610ae057610adf612a4e565b5b14610b20576040517f08c379a0000000000000000000000000000000000000000000000000000000008152600401610b17906130f6565b60405180910390fd5b42600e8190555060018054906101000a900473ffffffffffffffffffffffffffffffffffffffff1673ffffffffffffffffffffffffffffffffffffffff1663a0712d6860018054906101000a900473ffffffffffffffffffffffffffffffffffffffff1673ffffffffffffffffffffffffffffffffffffffff1663313ce5676040518163ffffffff1660e01b81526004016020604051808303816000875af1158015610bd0573d6000803e3d6000fd5b505050506040513d601f19601f82011682018060405250810190610bf4919061314f565b600a610c0091906132af565b600d54610c0d91906132fa565b6040518263ffffffff1660e01b8152600401610c299190612a33565b600060405180830381600087803b158015610c4357600080fd5b505af1158015610c57573d6000803e3d6000fd5b505050506001601160006101000a81548160ff02191690836002811115610c8157610c80612a4e565b5b021790555050565b601160009054906101000a900460ff1681565b6000806000838152602001908152602001600020600101549050919050565b610cc482610c9c565b610ccd81612148565b610cd7838361215c565b505050565b7fd0a4ad96d49edb1c33461cebc6fb2609190f32c904e3c3f5877edb4488dee91e610d0681612148565b826002600060028110610d1c57610d1b613354565b5b0181905550816002600160028110610d3757610d36613354565b5b01819055508183610d489190612dec565b600681905550505050565b610d5b61223c565b73ffffffffffffffffffffffffffffffffffffffff168173ffffffffffffffffffffffffffffffffffffffff1614610dc8576040517f08c379a0000000000000000000000000000000000000000000000000000000008152600401610dbf906133f5565b60405180910390fd5b610dd28282612244565b5050565b6000801b610de381612148565b600060085447610df39190613415565b90503373ffffffffffffffffffffffffffffffffffffffff166108fc829081150290604051600060405180830381858888f19350505050158015610e3b573d6000803e3d6000fd5b505050565b7fd0a4ad96d49edb1c33461cebc6fb2609190f32c904e3c3f5877edb4488dee91e610e6a81612148565b826004600060028110610e8057610e7f613354565b5b0181905550816004600160028110610e9b57610e9a613354565b5b01819055508183610eac9190612dec565b600781905550505050565b601360008273ffffffffffffffffffffffffffffffffffffffff1673ffffffffffffffffffffffffffffffffffffffff16815260200190815260200160002060009054906101000a900460ff16610f43576040517f08c379a0000000000000000000000000000000000000000000000000000000008152600401610f3a90613495565b60405180910390fd5b6001601360003373ffffffffffffffffffffffffffffffffffffffff1673ffffffffffffffffffffffffffffffffffffffff16815260200190815260200160002060006101000a81548160ff02191690831515021790555080601260003373ffffffffffffffffffffffffffffffffffffffff1673ffffffffffffffffffffffffffffffffffffffff16815260200190815260200160002060006101000a81548173ffffffffffffffffffffffffffffffffffffffff021916908373ffffffffffffffffffffffffffffffffffffffff16021790555050565b6004816002811061102c57600080fd5b016000915090505481565b60028081111561104a57611049612a4e565b5b601160009054906101000a900460ff16600281111561106c5761106b612a4e565b5b146110ac576040517f08c379a00000000000000000000000000000000000000000000000000000000081526004016110a390613501565b60405180910390fd5b426203f480600e546110be9190612dec565b10156110ff576040517f08c379a00000000000000000000000000000000000000000000000000000000081526004016110f69061356d565b60405180910390fd5b60006010828154811061111557611114613354565b5b906000526020600020906003020190508060000160009054906101000a900460ff1615611177576040517f08c379a000000000000000000000000000000000000000000000000000000000815260040161116e906135d9565b60405180910390fd5b60008160020154346111899190612ff7565b905080826001015410156111d2576040517f08c379a00000000000000000000000000000000000000000000000000000000081526004016111c990613645565b60405180910390fd5b60018054906101000a900473ffffffffffffffffffffffffffffffffffffffff1673ffffffffffffffffffffffffffffffffffffffff1663a9059cbb33836040518363ffffffff1660e01b815260040161122d929190613028565b6020604051808303816000875af115801561124c573d6000803e3d6000fd5b505050506040513d601f19601f82011682018060405250810190611270919061307d565b50808260010160008282546112859190613415565b9250508190555060008260010154036112f15760018260000160006101000a81548160ff0219169083151502179055507ff03ed60bf824bdd2c1387f3534cb0fd2ab10270e8ce0cb8b2daec90068eb943e836040516112e49190612a33565b60405180910390a161132f565b7f8e73a807b83fde44e6e12224a9b4fade736ffe96ab8d511abd64e9a1b4e8c0ca838360010154604051611326929190613665565b60405180910390a15b34600a60008282546113419190612dec565b925050819055508160000160019054906101000a900473ffffffffffffffffffffffffffffffffffffffff1673ffffffffffffffffffffffffffffffffffffffff166108fc6103e86007546103e86113999190613415565b346113a491906132fa565b6113ae9190612ff7565b9081150290604051600060405180830381858888f193505050501580156113d9573d6000803e3d6000fd5b506114088260000160019054906101000a900473ffffffffffffffffffffffffffffffffffffffff1634612325565b505050565b600d5481565b60126020528060005260406000206000915054906101000a900473ffffffffffffffffffffffffffffffffffffffff1681565b600080600084815260200190815260200160002060000160008373ffffffffffffffffffffffffffffffffffffffff1673ffffffffffffffffffffffffffffffffffffffff16815260200190815260200160002060009054906101000a900460ff16905092915050565b6002808111156114c3576114c2612a4e565b5b601160009054906101000a900460ff1660028111156114e5576114e4612a4e565b5b14611525576040517f08c379a000000000000000000000000000000000000000000000000000000000815260040161151c90613501565b60405180910390fd5b426203f480600e546115379190612dec565b1015611578576040517f08c379a000000000000000000000000000000000000000000000000000000000815260040161156f9061356d565b60405180910390fd5b60006010828154811061158e5761158d613354565b5b906000526020600020906003020190503373ffffffffffffffffffffffffffffffffffffffff168160000160019054906101000a900473ffffffffffffffffffffffffffffffffffffffff1673ffffffffffffffffffffffffffffffffffffffff1614611630576040517f08c379a0000000000000000000000000000000000000000000000000000000008152600401611627906136da565b60405180910390fd5b60018160000160006101000a81548160ff02191690831515021790555060018054906101000a900473ffffffffffffffffffffffffffffffffffffffff1673ffffffffffffffffffffffffffffffffffffffff1663a9059cbb3383600101546040518363ffffffff1660e01b81526004016116ac929190613028565b6020604051808303816000875af11580156116cb573d6000803e3d6000fd5b505050506040513d601f19601f820116820180604052508101906116ef919061307d565b507f2114a52d297f01ee99b38a96fbd79c650bf37e10c29e0967c6621187fbe253228260405161171f9190612a33565b60405180910390a15050565b7fd0a4ad96d49edb1c33461cebc6fb2609190f32c904e3c3f5877edb4488dee91e81565b6000801b81565b6010818154811061176657600080fd5b90600052602060002090600302016000915090508060000160009054906101000a900460ff16908060000160019054906101000a900473ffffffffffffffffffffffffffffffffffffffff16908060010154908060020154905084565b60136020528060005260406000206000915054906101000a900460ff1681565b6002808111156117f6576117f5612a4e565b5b601160009054906101000a900460ff16600281111561181857611817612a4e565b5b14611858576040517f08c379a000000000000000000000000000000000000000000000000000000000815260040161184f90613501565b60405180910390fd5b426203f480600e5461186a9190612dec565b11156118ab576040517f08c379a00000000000000000000000000000000000000000000000000000000081526004016118a290613746565b60405180910390fd5b60005b6010805490508110156119d3576000601082815481106118d1576118d0613354565b5b906000526020600020906003020190508060000160009054906101000a900460ff166119bf5760018054906101000a900473ffffffffffffffffffffffffffffffffffffffff1673ffffffffffffffffffffffffffffffffffffffff1663a9059cbb8260000160019054906101000a900473ffffffffffffffffffffffffffffffffffffffff1683600101546040518363ffffffff1660e01b815260040161197a929190613028565b6020604051808303816000875af1158015611999573d6000803e3d6000fd5b505050506040513d601f19601f820116820180604052508101906119bd919061307d565b505b5080806119cb90613766565b9150506118ae565b50601060006119e291906128d4565b6119ea612517565b60018054906101000a900473ffffffffffffffffffffffffffffffffffffffff1673ffffffffffffffffffffffffffffffffffffffff1663313ce5676040518163ffffffff1660e01b81526004016020604051808303816000875af1158015611a57573d6000803e3d6000fd5b505050506040513d601f19601f82011682018060405250810190611a7b919061314f565b600a611a8791906132af565b600c54600a54611a979190612ff7565b611aa19190612ff7565b600d8190555060018054906101000a900473ffffffffffffffffffffffffffffffffffffffff1673ffffffffffffffffffffffffffffffffffffffff1663a0712d6860018054906101000a900473ffffffffffffffffffffffffffffffffffffffff1673ffffffffffffffffffffffffffffffffffffffff1663313ce5676040518163ffffffff1660e01b81526004016020604051808303816000875af1158015611b50573d6000803e3d6000fd5b505050506040513d601f19601f82011682018060405250810190611b74919061314f565b600a611b8091906132af565b600d54611b8d91906132fa565b6040518263ffffffff1660e01b8152600401611ba99190612a33565b600060405180830381600087803b158015611bc357600080fd5b505af1158015611bd7573d6000803e3d6000fd5b5050505042600e819055506001601160006101000a81548160ff02191690836002811115611c0857611c07612a4e565b5b0217905550565b60085481565b611c1e82610c9c565b611c2781612148565b611c318383612244565b505050565b60028160028110611c4657600080fd5b016000915090505481565b600280811115611c6457611c63612a4e565b5b601160009054906101000a900460ff166002811115611c8657611c85612a4e565b5b14611cc6576040517f08c379a0000000000000000000000000000000000000000000000000000000008152600401611cbd90613501565b60405180910390fd5b426203f480600e54611cd89190612dec565b1015611d19576040517f08c379a0000000000000000000000000000000000000000000000000000000008152600401611d109061356d565b60405180910390fd5b60018054906101000a900473ffffffffffffffffffffffffffffffffffffffff1673ffffffffffffffffffffffffffffffffffffffff166323b872dd3330856040518463ffffffff1660e01b8152600401611d76939291906137ae565b6020604051808303816000875af1158015611d95573d6000803e3d6000fd5b505050506040513d601f19601f82011682018060405250810190611db9919061307d565b50601060405180608001604052806000151581526020013373ffffffffffffffffffffffffffffffffffffffff16815260200184815260200183815250908060018154018082558091505060019003906000526020600020906003020160009091909190915060008201518160000160006101000a81548160ff02191690831515021790555060208201518160000160016101000a81548173ffffffffffffffffffffffffffffffffffffffff021916908373ffffffffffffffffffffffffffffffffffffffff160217905550604082015181600101556060820151816002015550507f4e3753386201ff4fa2fe7c9a2bdce7cea2028030bb57c7596e089ec9aa5feadb6001601080549050611ecf9190613415565b8383604051611ee0939291906137e5565b60405180910390a15050565b60007f01ffc9a7000000000000000000000000000000000000000000000000000000007bffffffffffffffffffffffffffffffffffffffffffffffffffffffff1916827bffffffffffffffffffffffffffffffffffffffffffffffffffffffff1916149050919050565b6000601260008473ffffffffffffffffffffffffffffffffffffffff1673ffffffffffffffffffffffffffffffffffffffff16815260200190815260200160002060009054906101000a900473ffffffffffffffffffffffffffffffffffffffff16905060005b60028110156121425760006103e860028360028110611fdf57611fde613354565b5b015485611fec91906132fa565b611ff69190612ff7565b90508473ffffffffffffffffffffffffffffffffffffffff168373ffffffffffffffffffffffffffffffffffffffff16141580156120615750600073ffffffffffffffffffffffffffffffffffffffff168373ffffffffffffffffffffffffffffffffffffffff1614155b156120b2578273ffffffffffffffffffffffffffffffffffffffff166108fc829081150290604051600060405180830381858888f193505050501580156120ac573d6000803e3d6000fd5b506120cc565b80600860008282546120c49190612dec565b925050819055505b601260008473ffffffffffffffffffffffffffffffffffffffff1673ffffffffffffffffffffffffffffffffffffffff16815260200190815260200160002060009054906101000a900473ffffffffffffffffffffffffffffffffffffffff16925050808061213a90613766565b915050611fbd565b50505050565b6121598161215461223c565b6125fb565b50565b6121668282611446565b61223857600160008084815260200190815260200160002060000160008373ffffffffffffffffffffffffffffffffffffffff1673ffffffffffffffffffffffffffffffffffffffff16815260200190815260200160002060006101000a81548160ff0219169083151502179055506121dd61223c565b73ffffffffffffffffffffffffffffffffffffffff168173ffffffffffffffffffffffffffffffffffffffff16837f2f8788117e7eff1d82e926ec794901d17c78024a50270940304540a733656f0d60405160405180910390a45b5050565b600033905090565b61224e8282611446565b1561232157600080600084815260200190815260200160002060000160008373ffffffffffffffffffffffffffffffffffffffff1673ffffffffffffffffffffffffffffffffffffffff16815260200190815260200160002060006101000a81548160ff0219169083151502179055506122c661223c565b73ffffffffffffffffffffffffffffffffffffffff168173ffffffffffffffffffffffffffffffffffffffff16837ff6391f5c32d9c69d2a47ea670b442974b53935d1edc7fd64eb21e047a839171b60405160405180910390a45b5050565b6000601260008473ffffffffffffffffffffffffffffffffffffffff1673ffffffffffffffffffffffffffffffffffffffff16815260200190815260200160002060009054906101000a900473ffffffffffffffffffffffffffffffffffffffff16905060005b60028110156125115760006103e8600483600281106123ae576123ad613354565b5b0154856123bb91906132fa565b6123c59190612ff7565b90508473ffffffffffffffffffffffffffffffffffffffff168373ffffffffffffffffffffffffffffffffffffffff16141580156124305750600073ffffffffffffffffffffffffffffffffffffffff168373ffffffffffffffffffffffffffffffffffffffff1614155b15612481578273ffffffffffffffffffffffffffffffffffffffff166108fc829081150290604051600060405180830381858888f1935050505015801561247b573d6000803e3d6000fd5b5061249b565b80600860008282546124939190612dec565b925050819055505b601260008473ffffffffffffffffffffffffffffffffffffffff1673ffffffffffffffffffffffffffffffffffffffff16815260200190815260200160002060009054906101000a900473ffffffffffffffffffffffffffffffffffffffff16925050808061250990613766565b91505061238c565b50505050565b6503a35294400060646067600b5461252f91906132fa565b6125399190612ff7565b6125439190612dec565b600b8190555060018054906101000a900473ffffffffffffffffffffffffffffffffffffffff1673ffffffffffffffffffffffffffffffffffffffff1663313ce5676040518163ffffffff1660e01b81526004016020604051808303816000875af11580156125b6573d6000803e3d6000fd5b505050506040513d601f19601f820116820180604052508101906125da919061314f565b600a6125e691906132af565b600b546125f39190612ff7565b600c81905550565b6126058282611446565b6126945761262a8173ffffffffffffffffffffffffffffffffffffffff166014612698565b6126388360001c6020612698565b60405160200161264992919061392e565b6040516020818303038152906040526040517f08c379a000000000000000000000000000000000000000000000000000000000815260040161268b91906139b2565b60405180910390fd5b5050565b6060600060028360026126ab91906132fa565b6126b59190612dec565b67ffffffffffffffff8111156126ce576126cd6139d4565b5b6040519080825280601f01601f1916602001820160405280156127005781602001600182028036833780820191505090505b5090507f30000000000000000000000000000000000000000000000000000000000000008160008151811061273857612737613354565b5b60200101907effffffffffffffffffffffffffffffffffffffffffffffffffffffffffffff1916908160001a9053507f78000000000000000000000000000000000000000000000000000000000000008160018151811061279c5761279b613354565b5b60200101907effffffffffffffffffffffffffffffffffffffffffffffffffffffffffffff1916908160001a905350600060018460026127dc91906132fa565b6127e69190612dec565b90505b6001811115612886577f3031323334353637383961626364656600000000000000000000000000000000600f86166010811061282857612827613354565b5b1a60f81b82828151811061283f5761283e613354565b5b60200101907effffffffffffffffffffffffffffffffffffffffffffffffffffffffffffff1916908160001a905350600485901c94508061287f90613a03565b90506127e9565b50600084146128ca576040517f08c379a00000000000000000000000000000000000000000000000000000000081526004016128c190613a78565b60405180910390fd5b8091505092915050565b50805460008255600302906000526020600020908101906128f591906128f8565b50565b5b8082111561295657600080820160006101000a81549060ff02191690556000820160016101000a81549073ffffffffffffffffffffffffffffffffffffffff021916905560018201600090556002820160009055506003016128f9565b5090565b600080fd5b60007fffffffff0000000000000000000000000000000000000000000000000000000082169050919050565b6129948161295f565b811461299f57600080fd5b50565b6000813590506129b18161298b565b92915050565b6000602082840312156129cd576129cc61295a565b5b60006129db848285016129a2565b91505092915050565b60008115159050919050565b6129f9816129e4565b82525050565b6000602082019050612a1460008301846129f0565b92915050565b6000819050919050565b612a2d81612a1a565b82525050565b6000602082019050612a486000830184612a24565b92915050565b7f4e487b7100000000000000000000000000000000000000000000000000000000600052602160045260246000fd5b60038110612a8e57612a8d612a4e565b5b50565b6000819050612a9f82612a7d565b919050565b6000612aaf82612a91565b9050919050565b612abf81612aa4565b82525050565b6000602082019050612ada6000830184612ab6565b92915050565b6000819050919050565b612af381612ae0565b8114612afe57600080fd5b50565b600081359050612b1081612aea565b92915050565b600060208284031215612b2c57612b2b61295a565b5b6000612b3a84828501612b01565b91505092915050565b612b4c81612ae0565b82525050565b6000602082019050612b676000830184612b43565b92915050565b600073ffffffffffffffffffffffffffffffffffffffff82169050919050565b6000612b9882612b6d565b9050919050565b612ba881612b8d565b8114612bb357600080fd5b50565b600081359050612bc581612b9f565b92915050565b60008060408385031215612be257612be161295a565b5b6000612bf085828601612b01565b9250506020612c0185828601612bb6565b9150509250929050565b612c1481612a1a565b8114612c1f57600080fd5b50565b600081359050612c3181612c0b565b92915050565b60008060408385031215612c4e57612c4d61295a565b5b6000612c5c85828601612c22565b9250506020612c6d85828601612c22565b9150509250929050565b600060208284031215612c8d57612c8c61295a565b5b6000612c9b84828501612bb6565b91505092915050565b600060208284031215612cba57612cb961295a565b5b6000612cc884828501612c22565b91505092915050565b612cda81612b8d565b82525050565b6000602082019050612cf56000830184612cd1565b92915050565b6000608082019050612d1060008301876129f0565b612d1d6020830186612cd1565b612d2a6040830185612a24565b612d376060830184612a24565b95945050505050565b600082825260208201905092915050565b7f4e6f742073616c6520726f756e64000000000000000000000000000000000000600082015250565b6000612d87600e83612d40565b9150612d9282612d51565b602082019050919050565b60006020820190508181036000830152612db681612d7a565b9050919050565b7f4e487b7100000000000000000000000000000000000000000000000000000000600052601160045260246000fd5b6000612df782612a1a565b9150612e0283612a1a565b9250827fffffffffffffffffffffffffffffffffffffffffffffffffffffffffffffffff03821115612e3757612e36612dbd565b5b828201905092915050565b600081519050612e5181612c0b565b92915050565b600060208284031215612e6d57612e6c61295a565b5b6000612e7b84828501612e42565b91505092915050565b7f53616c6520726f756e64206973206e6f74206f76657220796574000000000000600082015250565b6000612eba601a83612d40565b9150612ec582612e84565b602082019050919050565b60006020820190508181036000830152612ee981612ead565b9050919050565b7f53616c6520726f756e642074696d652065787069726564000000000000000000600082015250565b6000612f26601783612d40565b9150612f3182612ef0565b602082019050919050565b60006020820190508181036000830152612f5581612f19565b9050919050565b7f4e6f7420656e6f75676820657468657220746f2062757920746f6b656e000000600082015250565b6000612f92601d83612d40565b9150612f9d82612f5c565b602082019050919050565b60006020820190508181036000830152612fc181612f85565b9050919050565b7f4e487b7100000000000000000000000000000000000000000000000000000000600052601260045260246000fd5b600061300282612a1a565b915061300d83612a1a565b92508261301d5761301c612fc8565b5b828204905092915050565b600060408201905061303d6000830185612cd1565b61304a6020830184612a24565b9392505050565b61305a816129e4565b811461306557600080fd5b50565b60008151905061307781613051565b92915050565b6000602082840312156130935761309261295a565b5b60006130a184828501613068565b91505092915050565b7f416c726561647920737461727465640000000000000000000000000000000000600082015250565b60006130e0600f83612d40565b91506130eb826130aa565b602082019050919050565b6000602082019050818103600083015261310f816130d3565b9050919050565b600060ff82169050919050565b61312c81613116565b811461313757600080fd5b50565b60008151905061314981613123565b92915050565b6000602082840312156131655761316461295a565b5b60006131738482850161313a565b91505092915050565b60008160011c9050919050565b6000808291508390505b60018511156131d3578086048111156131af576131ae612dbd565b5b60018516156131be5780820291505b80810290506131cc8561317c565b9450613193565b94509492505050565b6000826131ec57600190506132a8565b816131fa57600090506132a8565b8160018114613210576002811461321a57613249565b60019150506132a8565b60ff84111561322c5761322b612dbd565b5b8360020a91508482111561324357613242612dbd565b5b506132a8565b5060208310610133831016604e8410600b841016171561327e5782820a90508381111561327957613278612dbd565b5b6132a8565b61328b8484846001613189565b925090508184048111156132a2576132a1612dbd565b5b81810290505b9392505050565b60006132ba82612a1a565b91506132c583613116565b92506132f27fffffffffffffffffffffffffffffffffffffffffffffffffffffffffffffffff84846131dc565b905092915050565b600061330582612a1a565b915061331083612a1a565b9250817fffffffffffffffffffffffffffffffffffffffffffffffffffffffffffffffff048311821515161561334957613348612dbd565b5b828202905092915050565b7f4e487b7100000000000000000000000000000000000000000000000000000000600052603260045260246000fd5b7f416363657373436f6e74726f6c3a2063616e206f6e6c792072656e6f756e636560008201527f20726f6c657320666f722073656c660000000000000000000000000000000000602082015250565b60006133df602f83612d40565b91506133ea82613383565b604082019050919050565b6000602082019050818103600083015261340e816133d2565b9050919050565b600061342082612a1a565b915061342b83612a1a565b92508282101561343e5761343d612dbd565b5b828203905092915050565b7f526566666572206e6f7420726567697374657265640000000000000000000000600082015250565b600061347f601583612d40565b915061348a82613449565b602082019050919050565b600060208201905081810360008301526134ae81613472565b9050919050565b7f4e6f7420747261646520726f756e640000000000000000000000000000000000600082015250565b60006134eb600f83612d40565b91506134f6826134b5565b602082019050919050565b6000602082019050818103600083015261351a816134de565b9050919050565b7f547261646520726f756e642074696d65206973206f7665720000000000000000600082015250565b6000613557601883612d40565b915061356282613521565b602082019050919050565b600060208201905081810360008301526135868161354a565b9050919050565b7f4f72646572206578656375746564000000000000000000000000000000000000600082015250565b60006135c3600e83612d40565b91506135ce8261358d565b602082019050919050565b600060208201905081810360008301526135f2816135b6565b9050919050565b7f4e6f7420656e6f75676820746f6b656e73000000000000000000000000000000600082015250565b600061362f601183612d40565b915061363a826135f9565b602082019050919050565b6000602082019050818103600083015261365e81613622565b9050919050565b600060408201905061367a6000830185612a24565b6136876020830184612a24565b9392505050565b7f596f7520617265206e6f7420612073656c6c6572000000000000000000000000600082015250565b60006136c4601483612d40565b91506136cf8261368e565b602082019050919050565b600060208201905081810360008301526136f3816136b7565b9050919050565b7f547261646520726f756e64206973206e6f74206f766572207965740000000000600082015250565b6000613730601b83612d40565b915061373b826136fa565b602082019050919050565b6000602082019050818103600083015261375f81613723565b9050919050565b600061377182612a1a565b91507fffffffffffffffffffffffffffffffffffffffffffffffffffffffffffffffff82036137a3576137a2612dbd565b5b600182019050919050565b60006060820190506137c36000830186612cd1565b6137d06020830185612cd1565b6137dd6040830184612a24565b949350505050565b60006060820190506137fa6000830186612a24565b6138076020830185612a24565b6138146040830184612a24565b949350505050565b600081905092915050565b7f416363657373436f6e74726f6c3a206163636f756e7420000000000000000000600082015250565b600061385d60178361381c565b915061386882613827565b601782019050919050565b600081519050919050565b60005b8381101561389c578082015181840152602081019050613881565b838111156138ab576000848401525b50505050565b60006138bc82613873565b6138c6818561381c565b93506138d681856020860161387e565b80840191505092915050565b7f206973206d697373696e6720726f6c6520000000000000000000000000000000600082015250565b600061391860118361381c565b9150613923826138e2565b601182019050919050565b600061393982613850565b915061394582856138b1565b91506139508261390b565b915061395c82846138b1565b91508190509392505050565b6000601f19601f8301169050919050565b600061398482613873565b61398e8185612d40565b935061399e81856020860161387e565b6139a781613968565b840191505092915050565b600060208201905081810360008301526139cc8184613979565b905092915050565b7f4e487b7100000000000000000000000000000000000000000000000000000000600052604160045260246000fd5b6000613a0e82612a1a565b915060008203613a2157613a20612dbd565b5b600182039050919050565b7f537472696e67733a20686578206c656e67746820696e73756666696369656e74600082015250565b6000613a62602083612d40565b9150613a6d82613a2c565b602082019050919050565b60006020820190508181036000830152613a9181613a55565b905091905056fea264697066735822122015357f3f4c53715ff5f24bf364ba55fbaa4e85fe19860b60be930d7a8131ee1364736f6c634300080f0033",
  "linkReferences": {},
  "deployedLinkReferences": {}
}