{
  "_format": "hh-sol-artifact-1",
  "contractName": "ACDMPlatform",
  "sourceName": "contracts/ACDMPlatform.sol",
  "abi": [
    {
      "inputs": [
        {
          "internalType": "address",
          "name": "_acdmToken",
          "type": "address"
        }
      ],
      "stateMutability": "nonpayable",
      "type": "constructor"
    },
    {
      "anonymous": false,
      "inputs": [
        {
          "indexed": false,
          "internalType": "uint256",
          "name": "_id",
          "type": "uint256"
        }
      ],
      "name": "OrderCanceled",
      "type": "event"
    },
    {
      "anonymous": false,
      "inputs": [
        {
          "indexed": false,
          "internalType": "uint256",
          "name": "id",
          "type": "uint256"
        },
        {
          "indexed": false,
          "internalType": "uint256",
          "name": "amount",
          "type": "uint256"
        },
        {
          "indexed": false,
          "internalType": "uint256",
          "name": "price",
          "type": "uint256"
        }
      ],
      "name": "OrderPlaced",
      "type": "event"
    },
    {
      "anonymous": false,
      "inputs": [
        {
          "indexed": false,
          "internalType": "uint256",
          "name": "_id",
          "type": "uint256"
        }
      ],
      "name": "OrderRedeemed",
      "type": "event"
    },
    {
      "anonymous": false,
      "inputs": [
        {
          "indexed": false,
          "internalType": "uint256",
          "name": "_id",
          "type": "uint256"
        },
        {
          "indexed": false,
          "internalType": "uint256",
          "name": "amount",
          "type": "uint256"
        }
      ],
      "name": "OrderUpdated",
      "type": "event"
    },
    {
      "anonymous": false,
      "inputs": [
        {
          "indexed": true,
          "internalType": "bytes32",
          "name": "role",
          "type": "bytes32"
        },
        {
          "indexed": true,
          "internalType": "bytes32",
          "name": "previousAdminRole",
          "type": "bytes32"
        },
        {
          "indexed": true,
          "internalType": "bytes32",
          "name": "newAdminRole",
          "type": "bytes32"
        }
      ],
      "name": "RoleAdminChanged",
      "type": "event"
    },
    {
      "anonymous": false,
      "inputs": [
        {
          "indexed": true,
          "internalType": "bytes32",
          "name": "role",
          "type": "bytes32"
        },
        {
          "indexed": true,
          "internalType": "address",
          "name": "account",
          "type": "address"
        },
        {
          "indexed": true,
          "internalType": "address",
          "name": "sender",
          "type": "address"
        }
      ],
      "name": "RoleGranted",
      "type": "event"
    },
    {
      "anonymous": false,
      "inputs": [
        {
          "indexed": true,
          "internalType": "bytes32",
          "name": "role",
          "type": "bytes32"
        },
        {
          "indexed": true,
          "internalType": "address",
          "name": "account",
          "type": "address"
        },
        {
          "indexed": true,
          "internalType": "address",
          "name": "sender",
          "type": "address"
        }
      ],
      "name": "RoleRevoked",
      "type": "event"
    },
    {
      "inputs": [],
      "name": "DAO",
      "outputs": [
        {
          "internalType": "bytes32",
          "name": "",
          "type": "bytes32"
        }
      ],
      "stateMutability": "view",
      "type": "function"
    },
    {
      "inputs": [],
      "name": "DEFAULT_ADMIN_ROLE",
      "outputs": [
        {
          "internalType": "bytes32",
          "name": "",
          "type": "bytes32"
        }
      ],
      "stateMutability": "view",
      "type": "function"
    },
    {
      "inputs": [],
      "name": "acdmEmission",
      "outputs": [
        {
          "internalType": "uint256",
          "name": "",
          "type": "uint256"
        }
      ],
      "stateMutability": "view",
      "type": "function"
    },
    {
      "inputs": [
        {
          "internalType": "uint256",
          "name": "_amount",
          "type": "uint256"
        },
        {
          "internalType": "uint256",
          "name": "_price",
          "type": "uint256"
        }
      ],
      "name": "addOrder",
      "outputs": [],
      "stateMutability": "nonpayable",
      "type": "function"
    },
    {
      "inputs": [],
      "name": "buyAcdm",
      "outputs": [],
      "stateMutability": "payable",
      "type": "function"
    },
    {
      "inputs": [
        {
          "internalType": "bytes32",
          "name": "role",
          "type": "bytes32"
        }
      ],
      "name": "getRoleAdmin",
      "outputs": [
        {
          "internalType": "bytes32",
          "name": "",
          "type": "bytes32"
        }
      ],
      "stateMutability": "view",
      "type": "function"
    },
    {
      "inputs": [
        {
          "internalType": "bytes32",
          "name": "role",
          "type": "bytes32"
        },
        {
          "internalType": "address",
          "name": "account",
          "type": "address"
        }
      ],
      "name": "grantRole",
      "outputs": [],
      "stateMutability": "nonpayable",
      "type": "function"
    },
    {
      "inputs": [
        {
          "internalType": "bytes32",
          "name": "role",
          "type": "bytes32"
        },
        {
          "internalType": "address",
          "name": "account",
          "type": "address"
        }
      ],
      "name": "hasRole",
      "outputs": [
        {
          "internalType": "bool",
          "name": "",
          "type": "bool"
        }
      ],
      "stateMutability": "view",
      "type": "function"
    },
    {
      "inputs": [],
      "name": "lastPrice",
      "outputs": [
        {
          "internalType": "uint256",
          "name": "",
          "type": "uint256"
        }
      ],
      "stateMutability": "view",
      "type": "function"
    },
    {
      "inputs": [
        {
          "internalType": "uint256",
          "name": "_id",
          "type": "uint256"
        }
      ],
      "name": "redeemOrder",
      "outputs": [],
      "stateMutability": "payable",
      "type": "function"
    },
    {
      "inputs": [],
      "name": "referralRewardBank",
      "outputs": [
        {
          "internalType": "uint256",
          "name": "",
          "type": "uint256"
        }
      ],
      "stateMutability": "view",
      "type": "function"
    },
    {
      "inputs": [
        {
          "internalType": "address",
          "name": "",
          "type": "address"
        }
      ],
      "name": "refers",
      "outputs": [
        {
          "internalType": "address",
          "name": "",
          "type": "address"
        }
      ],
      "stateMutability": "view",
      "type": "function"
    },
    {
      "inputs": [
        {
          "internalType": "address",
          "name": "_refer",
          "type": "address"
        }
      ],
      "name": "register",
      "outputs": [],
      "stateMutability": "nonpayable",
      "type": "function"
    },
    {
      "inputs": [
        {
          "internalType": "address",
          "name": "",
          "type": "address"
        }
      ],
      "name": "registered",
      "outputs": [
        {
          "internalType": "bool",
          "name": "",
          "type": "bool"
        }
      ],
      "stateMutability": "view",
      "type": "function"
    },
    {
      "inputs": [
        {
          "internalType": "uint256",
          "name": "_id",
          "type": "uint256"
        }
      ],
      "name": "removeOrder",
      "outputs": [],
      "stateMutability": "nonpayable",
      "type": "function"
    },
    {
      "inputs": [
        {
          "internalType": "bytes32",
          "name": "role",
          "type": "bytes32"
        },
        {
          "internalType": "address",
          "name": "account",
          "type": "address"
        }
      ],
      "name": "renounceRole",
      "outputs": [],
      "stateMutability": "nonpayable",
      "type": "function"
    },
    {
      "inputs": [
        {
          "internalType": "bytes32",
          "name": "role",
          "type": "bytes32"
        },
        {
          "internalType": "address",
          "name": "account",
          "type": "address"
        }
      ],
      "name": "revokeRole",
      "outputs": [],
      "stateMutability": "nonpayable",
      "type": "function"
    },
    {
      "inputs": [
        {
          "internalType": "uint256",
          "name": "",
          "type": "uint256"
        }
      ],
      "name": "saleRoundReferRewards",
      "outputs": [
        {
          "internalType": "uint256",
          "name": "",
          "type": "uint256"
        }
      ],
      "stateMutability": "view",
      "type": "function"
    },
    {
      "inputs": [
        {
          "internalType": "uint256",
          "name": "_newPercent1",
          "type": "uint256"
        },
        {
          "internalType": "uint256",
          "name": "_newPercent2",
          "type": "uint256"
        }
      ],
      "name": "setSaleRoundReferRewards",
      "outputs": [],
      "stateMutability": "nonpayable",
      "type": "function"
    },
    {
      "inputs": [
        {
          "internalType": "uint256",
          "name": "_newPercent1",
          "type": "uint256"
        },
        {
          "internalType": "uint256",
          "name": "_newPercent2",
          "type": "uint256"
        }
      ],
      "name": "setTradeRoundReferRewards",
      "outputs": [],
      "stateMutability": "nonpayable",
      "type": "function"
    },
    {
      "inputs": [],
      "name": "startPlatform",
      "outputs": [],
      "stateMutability": "nonpayable",
      "type": "function"
    },
    {
      "inputs": [],
      "name": "startSaleRound",
      "outputs": [],
      "stateMutability": "nonpayable",
      "type": "function"
    },
    {
      "inputs": [],
      "name": "startTradeRound",
      "outputs": [],
      "stateMutability": "nonpayable",
      "type": "function"
    },
    {
      "inputs": [],
      "name": "status",
      "outputs": [
        {
          "internalType": "enum ACDMPlatform.PlatformStatus",
          "name": "",
          "type": "uint8"
        }
      ],
      "stateMutability": "view",
      "type": "function"
    },
    {
      "inputs": [
        {
          "internalType": "bytes4",
          "name": "interfaceId",
          "type": "bytes4"
        }
      ],
      "name": "supportsInterface",
      "outputs": [
        {
          "internalType": "bool",
          "name": "",
          "type": "bool"
        }
      ],
      "stateMutability": "view",
      "type": "function"
    },
    {
      "inputs": [
        {
          "internalType": "uint256",
          "name": "",
          "type": "uint256"
        }
      ],
      "name": "tradeRoundReferRewards",
      "outputs": [
        {
          "internalType": "uint256",
          "name": "",
          "type": "uint256"
        }
      ],
      "stateMutability": "view",
      "type": "function"
    },
    {
      "inputs": [],
      "name": "tradeRoundVolume",
      "outputs": [
        {
          "internalType": "uint256",
          "name": "",
          "type": "uint256"
        }
      ],
      "stateMutability": "view",
      "type": "function"
    },
    {
      "inputs": [],
      "name": "withdraw",
      "outputs": [],
      "stateMutability": "nonpayable",
      "type": "function"
    }
  ],
  "bytecode": "0x60806040526040518060400160405280603260ff168152602001601e60ff16815250600390600262000033929190620002fc565b506040518060400160405280601960ff168152602001601960ff16815250600590600262000063929190620002fc565b50605060075560326008556203f480600a55670de0b6b3a7640000600b556509184e72a000600c5562989680600d5564174876e800600e55348015620000a857600080fd5b5060405162003bb638038062003bb68339818101604052810190620000ce9190620003cf565b80600260016101000a81548173ffffffffffffffffffffffffffffffffffffffff021916908373ffffffffffffffffffffffffffffffffffffffff160217905550620001246000801b336200018360201b60201c565b6001601460003373ffffffffffffffffffffffffffffffffffffffff1673ffffffffffffffffffffffffffffffffffffffff16815260200190815260200160002060006101000a81548160ff0219169083151502179055505062000401565b6200019582826200019960201b60201c565b5050565b620001ab82826200028a60201b60201c565b6200028657600160008084815260200190815260200160002060000160008373ffffffffffffffffffffffffffffffffffffffff1673ffffffffffffffffffffffffffffffffffffffff16815260200190815260200160002060006101000a81548160ff0219169083151502179055506200022b620002f460201b60201c565b73ffffffffffffffffffffffffffffffffffffffff168173ffffffffffffffffffffffffffffffffffffffff16837f2f8788117e7eff1d82e926ec794901d17c78024a50270940304540a733656f0d60405160405180910390a45b5050565b600080600084815260200190815260200160002060000160008373ffffffffffffffffffffffffffffffffffffffff1673ffffffffffffffffffffffffffffffffffffffff16815260200190815260200160002060009054906101000a900460ff16905092915050565b600033905090565b826002810192821562000333579160200282015b8281111562000332578251829060ff1690559160200191906001019062000310565b5b50905062000342919062000346565b5090565b5b808211156200036157600081600090555060010162000347565b5090565b600080fd5b600073ffffffffffffffffffffffffffffffffffffffff82169050919050565b600062000397826200036a565b9050919050565b620003a9816200038a565b8114620003b557600080fd5b50565b600081519050620003c9816200039e565b92915050565b600060208284031215620003e857620003e762000365565b5b6000620003f884828501620003b8565b91505092915050565b6137a580620004116000396000f3fe6080604052600436106101b75760003560e01c806346935bf3116100ec578063a217fddf1161008a578063c76beb9011610064578063c76beb90146105a4578063d547741f146105cf578063f0a063e5146105f8578063f28db6c414610635576101b7565b8063a217fddf14610525578063b2dd5c0714610550578063b59bfa031461058d576101b7565b80638292afd9116100c65780638292afd91461045757806391d14854146104945780639645337a146104d157806398fabd3a146104fa576101b7565b806346935bf3146103d35780634a58ca0e146104105780637df0b17e1461042c576101b7565b8063248a9ca31161015957806336568abe1161013357806336568abe146103415780633ccfd60b1461036a5780633eed6af5146103815780634420e486146103aa576101b7565b8063248a9ca3146102b25780632f2ff15d146102ef5780633430071114610318576101b7565b806305dcb3a41161019557806305dcb3a41461023b5780630cfd77f6146102665780631f2e7c2214610270578063200d2ed214610287576101b7565b806301ffc9a7146101bc5780630462fc8e146101f9578063053f14da14610210575b600080fd5b3480156101c857600080fd5b506101e360048036038101906101de9190612667565b61065e565b6040516101f091906126af565b60405180910390f35b34801561020557600080fd5b5061020e6106d8565b005b34801561021c57600080fd5b50610225610883565b60405161023291906126e3565b60405180910390f35b34801561024757600080fd5b50610250610889565b60405161025d91906126e3565b60405180910390f35b61026e61088f565b005b34801561027c57600080fd5b50610285610a56565b005b34801561029357600080fd5b5061029c610b9d565b6040516102a99190612775565b60405180910390f35b3480156102be57600080fd5b506102d960048036038101906102d491906127c6565b610bb0565b6040516102e69190612802565b60405180910390f35b3480156102fb57600080fd5b506103166004803603810190610311919061287b565b610bcf565b005b34801561032457600080fd5b5061033f600480360381019061033a91906128e7565b610bf0565b005b34801561034d57600080fd5b506103686004803603810190610363919061287b565b610c67565b005b34801561037657600080fd5b5061037f610cea565b005b34801561038d57600080fd5b506103a860048036038101906103a391906128e7565b610d54565b005b3480156103b657600080fd5b506103d160048036038101906103cc9190612927565b610dcb565b005b3480156103df57600080fd5b506103fa60048036038101906103f59190612954565b610f30565b60405161040791906126e3565b60405180910390f35b61042a60048036038101906104259190612954565b610f4b565b005b34801561043857600080fd5b506104416113ab565b60405161044e91906126e3565b60405180910390f35b34801561046357600080fd5b5061047e60048036038101906104799190612927565b6113b1565b60405161048b9190612990565b60405180910390f35b3480156104a057600080fd5b506104bb60048036038101906104b6919061287b565b6113e4565b6040516104c891906126af565b60405180910390f35b3480156104dd57600080fd5b506104f860048036038101906104f39190612954565b61144e565b005b34801561050657600080fd5b5061050f611718565b60405161051c9190612802565b60405180910390f35b34801561053157600080fd5b5061053a61173c565b6040516105479190612802565b60405180910390f35b34801561055c57600080fd5b5061057760048036038101906105729190612927565b611743565b60405161058491906126af565b60405180910390f35b34801561059957600080fd5b506105a2611763565b005b3480156105b057600080fd5b506105b961190c565b6040516105c691906126e3565b60405180910390f35b3480156105db57600080fd5b506105f660048036038101906105f1919061287b565b611912565b005b34801561060457600080fd5b5061061f600480360381019061061a9190612954565b611933565b60405161062c91906126e3565b60405180910390f35b34801561064157600080fd5b5061065c600480360381019061065791906128e7565b61194e565b005b60007f7965db0b000000000000000000000000000000000000000000000000000000007bffffffffffffffffffffffffffffffffffffffffffffffffffffffff1916827bffffffffffffffffffffffffffffffffffffffffffffffffffffffff191614806106d157506106d082611bfc565b5b9050919050565b600160028111156106ec576106eb6126fe565b5b601260009054906101000a900460ff16600281111561070e5761070d6126fe565b5b1461074e576040517f08c379a000000000000000000000000000000000000000000000000000000000815260040161074590612a08565b60405180910390fd5b426203f480600f546107609190612a57565b11158061080857506000600260019054906101000a900473ffffffffffffffffffffffffffffffffffffffff1673ffffffffffffffffffffffffffffffffffffffff166370a08231306040518263ffffffff1660e01b81526004016107c59190612990565b602060405180830381865afa1580156107e2573d6000803e3d6000fd5b505050506040513d601f19601f820116820180604052508101906108069190612ac2565b145b610847576040517f08c379a000000000000000000000000000000000000000000000000000000000815260040161083e90612b3b565b60405180910390fd5b6000600b8190555042600f819055506002601260006101000a81548160ff0219169083600281111561087c5761087b6126fe565b5b0217905550565b600c5481565b600b5481565b600160028111156108a3576108a26126fe565b5b601260009054906101000a900460ff1660028111156108c5576108c46126fe565b5b14610905576040517f08c379a00000000000000000000000000000000000000000000000000000000081526004016108fc90612a08565b60405180910390fd5b426203f480600f546109179190612a57565b1015610958576040517f08c379a000000000000000000000000000000000000000000000000000000000815260040161094f90612ba7565b60405180910390fd5b600d54341161099c576040517f08c379a000000000000000000000000000000000000000000000000000000000815260040161099390612c13565b60405180910390fd5b600260019054906101000a900473ffffffffffffffffffffffffffffffffffffffff1673ffffffffffffffffffffffffffffffffffffffff1663a9059cbb33600d54346109e99190612c62565b6040518363ffffffff1660e01b8152600401610a06929190612c93565b6020604051808303816000875af1158015610a25573d6000803e3d6000fd5b505050506040513d601f19601f82011682018060405250810190610a499190612ce8565b50610a543334611c66565b565b6000801b610a6381611e58565b60006002811115610a7757610a766126fe565b5b601260009054906101000a900460ff166002811115610a9957610a986126fe565b5b14610ad9576040517f08c379a0000000000000000000000000000000000000000000000000000000008152600401610ad090612d61565b60405180910390fd5b42600f81905550600260019054906101000a900473ffffffffffffffffffffffffffffffffffffffff1673ffffffffffffffffffffffffffffffffffffffff1663a0712d68600e546040518263ffffffff1660e01b8152600401610b3d91906126e3565b600060405180830381600087803b158015610b5757600080fd5b505af1158015610b6b573d6000803e3d6000fd5b505050506001601260006101000a81548160ff02191690836002811115610b9557610b946126fe565b5b021790555050565b601260009054906101000a900460ff1681565b6000806000838152602001908152602001600020600101549050919050565b610bd882610bb0565b610be181611e58565b610beb8383611e6c565b505050565b7fd0a4ad96d49edb1c33461cebc6fb2609190f32c904e3c3f5877edb4488dee91e610c1a81611e58565b826003600060028110610c3057610c2f612d81565b5b0181905550816003600160028110610c4b57610c4a612d81565b5b01819055508183610c5c9190612a57565b600781905550505050565b610c6f611f4c565b73ffffffffffffffffffffffffffffffffffffffff168173ffffffffffffffffffffffffffffffffffffffff1614610cdc576040517f08c379a0000000000000000000000000000000000000000000000000000000008152600401610cd390612e22565b60405180910390fd5b610ce68282611f54565b5050565b6000801b610cf781611e58565b600060095447610d079190612e42565b90503373ffffffffffffffffffffffffffffffffffffffff166108fc829081150290604051600060405180830381858888f19350505050158015610d4f573d6000803e3d6000fd5b505050565b7fd0a4ad96d49edb1c33461cebc6fb2609190f32c904e3c3f5877edb4488dee91e610d7e81611e58565b826005600060028110610d9457610d93612d81565b5b0181905550816005600160028110610daf57610dae612d81565b5b01819055508183610dc09190612a57565b600881905550505050565b601460008273ffffffffffffffffffffffffffffffffffffffff1673ffffffffffffffffffffffffffffffffffffffff16815260200190815260200160002060009054906101000a900460ff16610e57576040517f08c379a0000000000000000000000000000000000000000000000000000000008152600401610e4e90612ec2565b60405180910390fd5b6001601460003373ffffffffffffffffffffffffffffffffffffffff1673ffffffffffffffffffffffffffffffffffffffff16815260200190815260200160002060006101000a81548160ff02191690831515021790555080601360003373ffffffffffffffffffffffffffffffffffffffff1673ffffffffffffffffffffffffffffffffffffffff16815260200190815260200160002060006101000a81548173ffffffffffffffffffffffffffffffffffffffff021916908373ffffffffffffffffffffffffffffffffffffffff16021790555050565b60058160028110610f4057600080fd5b016000915090505481565b600280811115610f5e57610f5d6126fe565b5b601260009054906101000a900460ff166002811115610f8057610f7f6126fe565b5b14610fc0576040517f08c379a0000000000000000000000000000000000000000000000000000000008152600401610fb790612f2e565b60405180910390fd5b610fca6001612035565b81111561100c576040517f08c379a000000000000000000000000000000000000000000000000000000000815260040161100390612f9a565b60405180910390fd5b426203f480600f5461101e9190612a57565b101561105f576040517f08c379a000000000000000000000000000000000000000000000000000000000815260040161105690613006565b60405180910390fd5b60006011600083815260200190815260200160002090506000600281111561108a576110896126fe565b5b8160000160009054906101000a900460ff1660028111156110ae576110ad6126fe565b5b146110ee576040517f08c379a00000000000000000000000000000000000000000000000000000000081526004016110e590613072565b60405180910390fd5b8060020154341115611135576040517f08c379a000000000000000000000000000000000000000000000000000000000815260040161112c906130de565b60405180910390fd5b60008160010154826002015461114b9190612c62565b90506000813461115b9190612c62565b9050600260019054906101000a900473ffffffffffffffffffffffffffffffffffffffff1673ffffffffffffffffffffffffffffffffffffffff1663a9059cbb33836040518363ffffffff1660e01b81526004016111ba929190612c93565b6020604051808303816000875af11580156111d9573d6000803e3d6000fd5b505050506040513d601f19601f820116820180604052508101906111fd9190612ce8565b50808360010160008282546112129190612e42565b92505081905550600083600101540361128e5760018360000160006101000a81548160ff0219169083600281111561124d5761124c6126fe565b5b02179055507f18eeb09af8466f749c2eeee3bd8fd12376e14ec2e53840f4fd3d3fc19492acfc8460405161128191906126e3565b60405180910390a16112cc565b7f8e73a807b83fde44e6e12224a9b4fade736ffe96ab8d511abd64e9a1b4e8c0ca8484600101546040516112c39291906130fe565b60405180910390a15b34600b60008282546112de9190612a57565b925050819055508260000160019054906101000a900473ffffffffffffffffffffffffffffffffffffffff1673ffffffffffffffffffffffffffffffffffffffff166108fc6103e86008546103e86113369190612e42565b346113419190613127565b61134b9190612c62565b9081150290604051600060405180830381858888f19350505050158015611376573d6000803e3d6000fd5b506113a58360000160019054906101000a900473ffffffffffffffffffffffffffffffffffffffff1634612043565b50505050565b600e5481565b60136020528060005260406000206000915054906101000a900473ffffffffffffffffffffffffffffffffffffffff1681565b600080600084815260200190815260200160002060000160008373ffffffffffffffffffffffffffffffffffffffff1673ffffffffffffffffffffffffffffffffffffffff16815260200190815260200160002060009054906101000a900460ff16905092915050565b600280811115611461576114606126fe565b5b601260009054906101000a900460ff166002811115611483576114826126fe565b5b146114c3576040517f08c379a00000000000000000000000000000000000000000000000000000000081526004016114ba90612f2e565b60405180910390fd5b6114cd6001612035565b81111561150f576040517f08c379a000000000000000000000000000000000000000000000000000000000815260040161150690612f9a565b60405180910390fd5b426203f480600f546115219190612a57565b1015611562576040517f08c379a000000000000000000000000000000000000000000000000000000000815260040161155990613006565b60405180910390fd5b60006011600083815260200190815260200160002090503373ffffffffffffffffffffffffffffffffffffffff168160000160019054906101000a900473ffffffffffffffffffffffffffffffffffffffff1673ffffffffffffffffffffffffffffffffffffffff161461160b576040517f08c379a0000000000000000000000000000000000000000000000000000000008152600401611602906131cd565b60405180910390fd5b60028160000160006101000a81548160ff02191690836002811115611633576116326126fe565b5b0217905550600260019054906101000a900473ffffffffffffffffffffffffffffffffffffffff1673ffffffffffffffffffffffffffffffffffffffff1663a9059cbb3383600101546040518363ffffffff1660e01b8152600401611699929190612c93565b6020604051808303816000875af11580156116b8573d6000803e3d6000fd5b505050506040513d601f19601f820116820180604052508101906116dc9190612ce8565b507fc41f4ceb2938876c35e61b705e9d2f18a02c4a26ce5e049a6308a943d46851b38260405161170c91906126e3565b60405180910390a15050565b7fd0a4ad96d49edb1c33461cebc6fb2609190f32c904e3c3f5877edb4488dee91e81565b6000801b81565b60146020528060005260406000206000915054906101000a900460ff1681565b600280811115611776576117756126fe565b5b601260009054906101000a900460ff166002811115611798576117976126fe565b5b146117d8576040517f08c379a00000000000000000000000000000000000000000000000000000000081526004016117cf90612f2e565b60405180910390fd5b426203f480600f546117ea9190612a57565b111561182b576040517f08c379a000000000000000000000000000000000000000000000000000000000815260040161182290613239565b60405180910390fd5b611833612235565b600d54600b546118439190612c62565b600e81905550600260019054906101000a900473ffffffffffffffffffffffffffffffffffffffff1673ffffffffffffffffffffffffffffffffffffffff1663a0712d68600e546040518263ffffffff1660e01b81526004016118a691906126e3565b600060405180830381600087803b1580156118c057600080fd5b505af11580156118d4573d6000803e3d6000fd5b5050505042600f819055506001601260006101000a81548160ff02191690836002811115611905576119046126fe565b5b0217905550565b60095481565b61191b82610bb0565b61192481611e58565b61192e8383611f54565b505050565b6003816002811061194357600080fd5b016000915090505481565b600280811115611961576119606126fe565b5b601260009054906101000a900460ff166002811115611983576119826126fe565b5b146119c3576040517f08c379a00000000000000000000000000000000000000000000000000000000081526004016119ba90612f2e565b60405180910390fd5b426203f480600f546119d59190612a57565b1015611a16576040517f08c379a0000000000000000000000000000000000000000000000000000000008152600401611a0d90613006565b60405180910390fd5b600260019054906101000a900473ffffffffffffffffffffffffffffffffffffffff1673ffffffffffffffffffffffffffffffffffffffff166323b872dd3330856040518463ffffffff1660e01b8152600401611a7593929190613259565b6020604051808303816000875af1158015611a94573d6000803e3d6000fd5b505050506040513d601f19601f82011682018060405250810190611ab89190612ce8565b506000611ac56001612035565b9050604051806080016040528060006002811115611ae657611ae56126fe565b5b81526020013373ffffffffffffffffffffffffffffffffffffffff168152602001848152602001838152506011600083815260200190815260200160002060008201518160000160006101000a81548160ff02191690836002811115611b4f57611b4e6126fe565b5b021790555060208201518160000160016101000a81548173ffffffffffffffffffffffffffffffffffffffff021916908373ffffffffffffffffffffffffffffffffffffffff16021790555060408201518160010155606082015181600201559050507f4e3753386201ff4fa2fe7c9a2bdce7cea2028030bb57c7596e089ec9aa5feadb818484604051611be593929190613290565b60405180910390a1611bf7600161231b565b505050565b60007f01ffc9a7000000000000000000000000000000000000000000000000000000007bffffffffffffffffffffffffffffffffffffffffffffffffffffffff1916827bffffffffffffffffffffffffffffffffffffffffffffffffffffffff1916149050919050565b6000601360008473ffffffffffffffffffffffffffffffffffffffff1673ffffffffffffffffffffffffffffffffffffffff16815260200190815260200160002060009054906101000a900473ffffffffffffffffffffffffffffffffffffffff16905060005b6002811015611e525760006103e860038360028110611cef57611cee612d81565b5b015485611cfc9190613127565b611d069190612c62565b90508473ffffffffffffffffffffffffffffffffffffffff168373ffffffffffffffffffffffffffffffffffffffff1614158015611d715750600073ffffffffffffffffffffffffffffffffffffffff168373ffffffffffffffffffffffffffffffffffffffff1614155b15611dc2578273ffffffffffffffffffffffffffffffffffffffff166108fc829081150290604051600060405180830381858888f19350505050158015611dbc573d6000803e3d6000fd5b50611ddc565b8060096000828254611dd49190612a57565b925050819055505b601360008473ffffffffffffffffffffffffffffffffffffffff1673ffffffffffffffffffffffffffffffffffffffff16815260200190815260200160002060009054906101000a900473ffffffffffffffffffffffffffffffffffffffff169250508080611e4a906132c7565b915050611ccd565b50505050565b611e6981611e64611f4c565b612331565b50565b611e7682826113e4565b611f4857600160008084815260200190815260200160002060000160008373ffffffffffffffffffffffffffffffffffffffff1673ffffffffffffffffffffffffffffffffffffffff16815260200190815260200160002060006101000a81548160ff021916908315150217905550611eed611f4c565b73ffffffffffffffffffffffffffffffffffffffff168173ffffffffffffffffffffffffffffffffffffffff16837f2f8788117e7eff1d82e926ec794901d17c78024a50270940304540a733656f0d60405160405180910390a45b5050565b600033905090565b611f5e82826113e4565b1561203157600080600084815260200190815260200160002060000160008373ffffffffffffffffffffffffffffffffffffffff1673ffffffffffffffffffffffffffffffffffffffff16815260200190815260200160002060006101000a81548160ff021916908315150217905550611fd6611f4c565b73ffffffffffffffffffffffffffffffffffffffff168173ffffffffffffffffffffffffffffffffffffffff16837ff6391f5c32d9c69d2a47ea670b442974b53935d1edc7fd64eb21e047a839171b60405160405180910390a45b5050565b600081600001549050919050565b6000601360008473ffffffffffffffffffffffffffffffffffffffff1673ffffffffffffffffffffffffffffffffffffffff16815260200190815260200160002060009054906101000a900473ffffffffffffffffffffffffffffffffffffffff16905060005b600281101561222f5760006103e8600583600281106120cc576120cb612d81565b5b0154856120d99190613127565b6120e39190612c62565b90508473ffffffffffffffffffffffffffffffffffffffff168373ffffffffffffffffffffffffffffffffffffffff161415801561214e5750600073ffffffffffffffffffffffffffffffffffffffff168373ffffffffffffffffffffffffffffffffffffffff1614155b1561219f578273ffffffffffffffffffffffffffffffffffffffff166108fc829081150290604051600060405180830381858888f19350505050158015612199573d6000803e3d6000fd5b506121b9565b80600960008282546121b19190612a57565b925050819055505b601360008473ffffffffffffffffffffffffffffffffffffffff1673ffffffffffffffffffffffffffffffffffffffff16815260200190815260200160002060009054906101000a900473ffffffffffffffffffffffffffffffffffffffff169250508080612227906132c7565b9150506120aa565b50505050565b6503a35294400060646067600c5461224d9190613127565b6122579190612c62565b6122619190612a57565b600c81905550600260019054906101000a900473ffffffffffffffffffffffffffffffffffffffff1673ffffffffffffffffffffffffffffffffffffffff1663313ce5676040518163ffffffff1660e01b81526004016020604051808303816000875af11580156122d6573d6000803e3d6000fd5b505050506040513d601f19601f820116820180604052508101906122fa9190613348565b600a61230691906134a8565b600c546123139190612c62565b600d81905550565b6001816000016000828254019250508190555050565b61233b82826113e4565b6123ca576123608173ffffffffffffffffffffffffffffffffffffffff1660146123ce565b61236e8360001c60206123ce565b60405160200161237f929190613605565b6040516020818303038152906040526040517f08c379a00000000000000000000000000000000000000000000000000000000081526004016123c19190613689565b60405180910390fd5b5050565b6060600060028360026123e19190613127565b6123eb9190612a57565b67ffffffffffffffff811115612404576124036136ab565b5b6040519080825280601f01601f1916602001820160405280156124365781602001600182028036833780820191505090505b5090507f30000000000000000000000000000000000000000000000000000000000000008160008151811061246e5761246d612d81565b5b60200101907effffffffffffffffffffffffffffffffffffffffffffffffffffffffffffff1916908160001a9053507f7800000000000000000000000000000000000000000000000000000000000000816001815181106124d2576124d1612d81565b5b60200101907effffffffffffffffffffffffffffffffffffffffffffffffffffffffffffff1916908160001a905350600060018460026125129190613127565b61251c9190612a57565b90505b60018111156125bc577f3031323334353637383961626364656600000000000000000000000000000000600f86166010811061255e5761255d612d81565b5b1a60f81b82828151811061257557612574612d81565b5b60200101907effffffffffffffffffffffffffffffffffffffffffffffffffffffffffffff1916908160001a905350600485901c9450806125b5906136da565b905061251f565b5060008414612600576040517f08c379a00000000000000000000000000000000000000000000000000000000081526004016125f79061374f565b60405180910390fd5b8091505092915050565b600080fd5b60007fffffffff0000000000000000000000000000000000000000000000000000000082169050919050565b6126448161260f565b811461264f57600080fd5b50565b6000813590506126618161263b565b92915050565b60006020828403121561267d5761267c61260a565b5b600061268b84828501612652565b91505092915050565b60008115159050919050565b6126a981612694565b82525050565b60006020820190506126c460008301846126a0565b92915050565b6000819050919050565b6126dd816126ca565b82525050565b60006020820190506126f860008301846126d4565b92915050565b7f4e487b7100000000000000000000000000000000000000000000000000000000600052602160045260246000fd5b6003811061273e5761273d6126fe565b5b50565b600081905061274f8261272d565b919050565b600061275f82612741565b9050919050565b61276f81612754565b82525050565b600060208201905061278a6000830184612766565b92915050565b6000819050919050565b6127a381612790565b81146127ae57600080fd5b50565b6000813590506127c08161279a565b92915050565b6000602082840312156127dc576127db61260a565b5b60006127ea848285016127b1565b91505092915050565b6127fc81612790565b82525050565b600060208201905061281760008301846127f3565b92915050565b600073ffffffffffffffffffffffffffffffffffffffff82169050919050565b60006128488261281d565b9050919050565b6128588161283d565b811461286357600080fd5b50565b6000813590506128758161284f565b92915050565b600080604083850312156128925761289161260a565b5b60006128a0858286016127b1565b92505060206128b185828601612866565b9150509250929050565b6128c4816126ca565b81146128cf57600080fd5b50565b6000813590506128e1816128bb565b92915050565b600080604083850312156128fe576128fd61260a565b5b600061290c858286016128d2565b925050602061291d858286016128d2565b9150509250929050565b60006020828403121561293d5761293c61260a565b5b600061294b84828501612866565b91505092915050565b60006020828403121561296a5761296961260a565b5b6000612978848285016128d2565b91505092915050565b61298a8161283d565b82525050565b60006020820190506129a56000830184612981565b92915050565b600082825260208201905092915050565b7f4e6f742073616c6520726f756e64000000000000000000000000000000000000600082015250565b60006129f2600e836129ab565b91506129fd826129bc565b602082019050919050565b60006020820190508181036000830152612a21816129e5565b9050919050565b7f4e487b7100000000000000000000000000000000000000000000000000000000600052601160045260246000fd5b6000612a62826126ca565b9150612a6d836126ca565b9250827fffffffffffffffffffffffffffffffffffffffffffffffffffffffffffffffff03821115612aa257612aa1612a28565b5b828201905092915050565b600081519050612abc816128bb565b92915050565b600060208284031215612ad857612ad761260a565b5b6000612ae684828501612aad565b91505092915050565b7f53616c6520726f756e64206973206e6f74206f76657220796574000000000000600082015250565b6000612b25601a836129ab565b9150612b3082612aef565b602082019050919050565b60006020820190508181036000830152612b5481612b18565b9050919050565b7f53616c6520726f756e642074696d652065787069726564000000000000000000600082015250565b6000612b916017836129ab565b9150612b9c82612b5b565b602082019050919050565b60006020820190508181036000830152612bc081612b84565b9050919050565b7f4e6f7420656e6f75676820657468657220746f2062757920746f6b656e000000600082015250565b6000612bfd601d836129ab565b9150612c0882612bc7565b602082019050919050565b60006020820190508181036000830152612c2c81612bf0565b9050919050565b7f4e487b7100000000000000000000000000000000000000000000000000000000600052601260045260246000fd5b6000612c6d826126ca565b9150612c78836126ca565b925082612c8857612c87612c33565b5b828204905092915050565b6000604082019050612ca86000830185612981565b612cb560208301846126d4565b9392505050565b612cc581612694565b8114612cd057600080fd5b50565b600081519050612ce281612cbc565b92915050565b600060208284031215612cfe57612cfd61260a565b5b6000612d0c84828501612cd3565b91505092915050565b7f416c726561647920737461727465640000000000000000000000000000000000600082015250565b6000612d4b600f836129ab565b9150612d5682612d15565b602082019050919050565b60006020820190508181036000830152612d7a81612d3e565b9050919050565b7f4e487b7100000000000000000000000000000000000000000000000000000000600052603260045260246000fd5b7f416363657373436f6e74726f6c3a2063616e206f6e6c792072656e6f756e636560008201527f20726f6c657320666f722073656c660000000000000000000000000000000000602082015250565b6000612e0c602f836129ab565b9150612e1782612db0565b604082019050919050565b60006020820190508181036000830152612e3b81612dff565b9050919050565b6000612e4d826126ca565b9150612e58836126ca565b925082821015612e6b57612e6a612a28565b5b828203905092915050565b7f526566666572206e6f7420726567697374657265640000000000000000000000600082015250565b6000612eac6015836129ab565b9150612eb782612e76565b602082019050919050565b60006020820190508181036000830152612edb81612e9f565b9050919050565b7f4e6f7420747261646520726f756e640000000000000000000000000000000000600082015250565b6000612f18600f836129ab565b9150612f2382612ee2565b602082019050919050565b60006020820190508181036000830152612f4781612f0b565b9050919050565b7f496e76616c6964206f7264657220696400000000000000000000000000000000600082015250565b6000612f846010836129ab565b9150612f8f82612f4e565b602082019050919050565b60006020820190508181036000830152612fb381612f77565b9050919050565b7f547261646520726f756e642074696d65206973206f7665720000000000000000600082015250565b6000612ff06018836129ab565b9150612ffb82612fba565b602082019050919050565b6000602082019050818103600083015261301f81612fe3565b9050919050565b7f4f72646572206578656375746564000000000000000000000000000000000000600082015250565b600061305c600e836129ab565b915061306782613026565b602082019050919050565b6000602082019050818103600083015261308b8161304f565b9050919050565b7f4e6f7420656e6f75676820746f6b656e73000000000000000000000000000000600082015250565b60006130c86011836129ab565b91506130d382613092565b602082019050919050565b600060208201905081810360008301526130f7816130bb565b9050919050565b600060408201905061311360008301856126d4565b61312060208301846126d4565b9392505050565b6000613132826126ca565b915061313d836126ca565b9250817fffffffffffffffffffffffffffffffffffffffffffffffffffffffffffffffff048311821515161561317657613175612a28565b5b828202905092915050565b7f596f7520617265206e6f7420612073656c6c6572000000000000000000000000600082015250565b60006131b76014836129ab565b91506131c282613181565b602082019050919050565b600060208201905081810360008301526131e6816131aa565b9050919050565b7f547261646520726f756e64206973206e6f74206f766572207965740000000000600082015250565b6000613223601b836129ab565b915061322e826131ed565b602082019050919050565b6000602082019050818103600083015261325281613216565b9050919050565b600060608201905061326e6000830186612981565b61327b6020830185612981565b61328860408301846126d4565b949350505050565b60006060820190506132a560008301866126d4565b6132b260208301856126d4565b6132bf60408301846126d4565b949350505050565b60006132d2826126ca565b91507fffffffffffffffffffffffffffffffffffffffffffffffffffffffffffffffff820361330457613303612a28565b5b600182019050919050565b600060ff82169050919050565b6133258161330f565b811461333057600080fd5b50565b6000815190506133428161331c565b92915050565b60006020828403121561335e5761335d61260a565b5b600061336c84828501613333565b91505092915050565b60008160011c9050919050565b6000808291508390505b60018511156133cc578086048111156133a8576133a7612a28565b5b60018516156133b75780820291505b80810290506133c585613375565b945061338c565b94509492505050565b6000826133e557600190506134a1565b816133f357600090506134a1565b8160018114613409576002811461341357613442565b60019150506134a1565b60ff84111561342557613424612a28565b5b8360020a91508482111561343c5761343b612a28565b5b506134a1565b5060208310610133831016604e8410600b84101617156134775782820a90508381111561347257613471612a28565b5b6134a1565b6134848484846001613382565b9250905081840481111561349b5761349a612a28565b5b81810290505b9392505050565b60006134b3826126ca565b91506134be8361330f565b92506134eb7fffffffffffffffffffffffffffffffffffffffffffffffffffffffffffffffff84846133d5565b905092915050565b600081905092915050565b7f416363657373436f6e74726f6c3a206163636f756e7420000000000000000000600082015250565b60006135346017836134f3565b915061353f826134fe565b601782019050919050565b600081519050919050565b60005b83811015613573578082015181840152602081019050613558565b83811115613582576000848401525b50505050565b60006135938261354a565b61359d81856134f3565b93506135ad818560208601613555565b80840191505092915050565b7f206973206d697373696e6720726f6c6520000000000000000000000000000000600082015250565b60006135ef6011836134f3565b91506135fa826135b9565b601182019050919050565b600061361082613527565b915061361c8285613588565b9150613627826135e2565b91506136338284613588565b91508190509392505050565b6000601f19601f8301169050919050565b600061365b8261354a565b61366581856129ab565b9350613675818560208601613555565b61367e8161363f565b840191505092915050565b600060208201905081810360008301526136a38184613650565b905092915050565b7f4e487b7100000000000000000000000000000000000000000000000000000000600052604160045260246000fd5b60006136e5826126ca565b9150600082036136f8576136f7612a28565b5b600182039050919050565b7f537472696e67733a20686578206c656e67746820696e73756666696369656e74600082015250565b60006137396020836129ab565b915061374482613703565b602082019050919050565b600060208201905081810360008301526137688161372c565b905091905056fea2646970667358221220558f223c16a5b6c7191f271c2c4e3d8ab1297fddc1bf9219c0c58e4749d070d664736f6c634300080f0033",
  "linkReferences": {},
  "deployedLinkReferences": {}
}