{
  "_format": "hh-sol-artifact-1",
  "contractName": "ACDMToken",
  "sourceName": "contracts/ACDMToken.sol",
  "abi": [
    {
      "inputs": [],
      "stateMutability": "nonpayable",
      "type": "constructor"
    },
    {
      "anonymous": false,
      "inputs": [
        {
          "indexed": true,
          "internalType": "address",
          "name": "owner",
          "type": "address"
        },
        {
          "indexed": true,
          "internalType": "address",
          "name": "spender",
          "type": "address"
        },
        {
          "indexed": false,
          "internalType": "uint256",
          "name": "value",
          "type": "uint256"
        }
      ],
      "name": "Approval",
      "type": "event"
    },
    {
      "anonymous": false,
      "inputs": [
        {
          "indexed": true,
          "internalType": "bytes32",
          "name": "role",
          "type": "bytes32"
        },
        {
          "indexed": true,
          "internalType": "bytes32",
          "name": "previousAdminRole",
          "type": "bytes32"
        },
        {
          "indexed": true,
          "internalType": "bytes32",
          "name": "newAdminRole",
          "type": "bytes32"
        }
      ],
      "name": "RoleAdminChanged",
      "type": "event"
    },
    {
      "anonymous": false,
      "inputs": [
        {
          "indexed": true,
          "internalType": "bytes32",
          "name": "role",
          "type": "bytes32"
        },
        {
          "indexed": true,
          "internalType": "address",
          "name": "account",
          "type": "address"
        },
        {
          "indexed": true,
          "internalType": "address",
          "name": "sender",
          "type": "address"
        }
      ],
      "name": "RoleGranted",
      "type": "event"
    },
    {
      "anonymous": false,
      "inputs": [
        {
          "indexed": true,
          "internalType": "bytes32",
          "name": "role",
          "type": "bytes32"
        },
        {
          "indexed": true,
          "internalType": "address",
          "name": "account",
          "type": "address"
        },
        {
          "indexed": true,
          "internalType": "address",
          "name": "sender",
          "type": "address"
        }
      ],
      "name": "RoleRevoked",
      "type": "event"
    },
    {
      "anonymous": false,
      "inputs": [
        {
          "indexed": true,
          "internalType": "address",
          "name": "from",
          "type": "address"
        },
        {
          "indexed": true,
          "internalType": "address",
          "name": "to",
          "type": "address"
        },
        {
          "indexed": false,
          "internalType": "uint256",
          "name": "value",
          "type": "uint256"
        }
      ],
      "name": "Transfer",
      "type": "event"
    },
    {
      "inputs": [],
      "name": "DEFAULT_ADMIN_ROLE",
      "outputs": [
        {
          "internalType": "bytes32",
          "name": "",
          "type": "bytes32"
        }
      ],
      "stateMutability": "view",
      "type": "function"
    },
    {
      "inputs": [],
      "name": "MINTER_BURNER",
      "outputs": [
        {
          "internalType": "bytes32",
          "name": "",
          "type": "bytes32"
        }
      ],
      "stateMutability": "view",
      "type": "function"
    },
    {
      "inputs": [
        {
          "internalType": "address",
          "name": "owner",
          "type": "address"
        },
        {
          "internalType": "address",
          "name": "spender",
          "type": "address"
        }
      ],
      "name": "allowance",
      "outputs": [
        {
          "internalType": "uint256",
          "name": "",
          "type": "uint256"
        }
      ],
      "stateMutability": "view",
      "type": "function"
    },
    {
      "inputs": [
        {
          "internalType": "address",
          "name": "spender",
          "type": "address"
        },
        {
          "internalType": "uint256",
          "name": "amount",
          "type": "uint256"
        }
      ],
      "name": "approve",
      "outputs": [
        {
          "internalType": "bool",
          "name": "",
          "type": "bool"
        }
      ],
      "stateMutability": "nonpayable",
      "type": "function"
    },
    {
      "inputs": [
        {
          "internalType": "address",
          "name": "account",
          "type": "address"
        }
      ],
      "name": "balanceOf",
      "outputs": [
        {
          "internalType": "uint256",
          "name": "",
          "type": "uint256"
        }
      ],
      "stateMutability": "view",
      "type": "function"
    },
    {
      "inputs": [
        {
          "internalType": "uint256",
          "name": "_amount",
          "type": "uint256"
        }
      ],
      "name": "burn",
      "outputs": [],
      "stateMutability": "nonpayable",
      "type": "function"
    },
    {
      "inputs": [
        {
          "internalType": "address",
          "name": "account",
          "type": "address"
        },
        {
          "internalType": "uint256",
          "name": "amount",
          "type": "uint256"
        }
      ],
      "name": "burnFrom",
      "outputs": [],
      "stateMutability": "nonpayable",
      "type": "function"
    },
    {
      "inputs": [],
      "name": "decimals",
      "outputs": [
        {
          "internalType": "uint8",
          "name": "",
          "type": "uint8"
        }
      ],
      "stateMutability": "pure",
      "type": "function"
    },
    {
      "inputs": [
        {
          "internalType": "address",
          "name": "spender",
          "type": "address"
        },
        {
          "internalType": "uint256",
          "name": "subtractedValue",
          "type": "uint256"
        }
      ],
      "name": "decreaseAllowance",
      "outputs": [
        {
          "internalType": "bool",
          "name": "",
          "type": "bool"
        }
      ],
      "stateMutability": "nonpayable",
      "type": "function"
    },
    {
      "inputs": [
        {
          "internalType": "bytes32",
          "name": "role",
          "type": "bytes32"
        }
      ],
      "name": "getRoleAdmin",
      "outputs": [
        {
          "internalType": "bytes32",
          "name": "",
          "type": "bytes32"
        }
      ],
      "stateMutability": "view",
      "type": "function"
    },
    {
      "inputs": [
        {
          "internalType": "bytes32",
          "name": "role",
          "type": "bytes32"
        },
        {
          "internalType": "address",
          "name": "account",
          "type": "address"
        }
      ],
      "name": "grantRole",
      "outputs": [],
      "stateMutability": "nonpayable",
      "type": "function"
    },
    {
      "inputs": [
        {
          "internalType": "bytes32",
          "name": "role",
          "type": "bytes32"
        },
        {
          "internalType": "address",
          "name": "account",
          "type": "address"
        }
      ],
      "name": "hasRole",
      "outputs": [
        {
          "internalType": "bool",
          "name": "",
          "type": "bool"
        }
      ],
      "stateMutability": "view",
      "type": "function"
    },
    {
      "inputs": [
        {
          "internalType": "address",
          "name": "spender",
          "type": "address"
        },
        {
          "internalType": "uint256",
          "name": "addedValue",
          "type": "uint256"
        }
      ],
      "name": "increaseAllowance",
      "outputs": [
        {
          "internalType": "bool",
          "name": "",
          "type": "bool"
        }
      ],
      "stateMutability": "nonpayable",
      "type": "function"
    },
    {
      "inputs": [
        {
          "internalType": "uint256",
          "name": "_amount",
          "type": "uint256"
        }
      ],
      "name": "mint",
      "outputs": [],
      "stateMutability": "nonpayable",
      "type": "function"
    },
    {
      "inputs": [],
      "name": "name",
      "outputs": [
        {
          "internalType": "string",
          "name": "",
          "type": "string"
        }
      ],
      "stateMutability": "view",
      "type": "function"
    },
    {
      "inputs": [
        {
          "internalType": "bytes32",
          "name": "role",
          "type": "bytes32"
        },
        {
          "internalType": "address",
          "name": "account",
          "type": "address"
        }
      ],
      "name": "renounceRole",
      "outputs": [],
      "stateMutability": "nonpayable",
      "type": "function"
    },
    {
      "inputs": [
        {
          "internalType": "bytes32",
          "name": "role",
          "type": "bytes32"
        },
        {
          "internalType": "address",
          "name": "account",
          "type": "address"
        }
      ],
      "name": "revokeRole",
      "outputs": [],
      "stateMutability": "nonpayable",
      "type": "function"
    },
    {
      "inputs": [
        {
          "internalType": "bytes4",
          "name": "interfaceId",
          "type": "bytes4"
        }
      ],
      "name": "supportsInterface",
      "outputs": [
        {
          "internalType": "bool",
          "name": "",
          "type": "bool"
        }
      ],
      "stateMutability": "view",
      "type": "function"
    },
    {
      "inputs": [],
      "name": "symbol",
      "outputs": [
        {
          "internalType": "string",
          "name": "",
          "type": "string"
        }
      ],
      "stateMutability": "view",
      "type": "function"
    },
    {
      "inputs": [],
      "name": "totalSupply",
      "outputs": [
        {
          "internalType": "uint256",
          "name": "",
          "type": "uint256"
        }
      ],
      "stateMutability": "view",
      "type": "function"
    },
    {
      "inputs": [
        {
          "internalType": "address",
          "name": "to",
          "type": "address"
        },
        {
          "internalType": "uint256",
          "name": "amount",
          "type": "uint256"
        }
      ],
      "name": "transfer",
      "outputs": [
        {
          "internalType": "bool",
          "name": "",
          "type": "bool"
        }
      ],
      "stateMutability": "nonpayable",
      "type": "function"
    },
    {
      "inputs": [
        {
          "internalType": "address",
          "name": "from",
          "type": "address"
        },
        {
          "internalType": "address",
          "name": "to",
          "type": "address"
        },
        {
          "internalType": "uint256",
          "name": "amount",
          "type": "uint256"
        }
      ],
      "name": "transferFrom",
      "outputs": [
        {
          "internalType": "bool",
          "name": "",
          "type": "bool"
        }
      ],
      "stateMutability": "nonpayable",
      "type": "function"
    }
  ],
  "bytecode": "0x60806040523480156200001157600080fd5b506040518060400160405280600a81526020017f414341444d20436f696e000000000000000000000000000000000000000000008152506040518060400160405280600481526020017f4143444d0000000000000000000000000000000000000000000000000000000081525081600390816200008f91906200053d565b508060049081620000a191906200053d565b505050620000d87f3555ffc32dd06dd7ade0e6dff56bc2928267d6b185e09dffaf46b440640fa05260001b6200015b60201b60201c565b6200010c7f1916fa152271296f0441eaafcccdd071218193225d71c2889ff58e12cd691dd960001b6200015b60201b60201c565b620001407f93f8d5879c437d499430cb9709f2527b0d44cbc193729ca77c66e3775664e54960001b6200015b60201b60201c565b620001556000801b336200015e60201b60201c565b62000624565b50565b6200017082826200025060201b60201c565b6200024c5760016005600084815260200190815260200160002060000160008373ffffffffffffffffffffffffffffffffffffffff1673ffffffffffffffffffffffffffffffffffffffff16815260200190815260200160002060006101000a81548160ff021916908315150217905550620001f1620002bb60201b60201c565b73ffffffffffffffffffffffffffffffffffffffff168173ffffffffffffffffffffffffffffffffffffffff16837f2f8788117e7eff1d82e926ec794901d17c78024a50270940304540a733656f0d60405160405180910390a45b5050565b60006005600084815260200190815260200160002060000160008373ffffffffffffffffffffffffffffffffffffffff1673ffffffffffffffffffffffffffffffffffffffff16815260200190815260200160002060009054906101000a900460ff16905092915050565b600033905090565b600081519050919050565b7f4e487b7100000000000000000000000000000000000000000000000000000000600052604160045260246000fd5b7f4e487b7100000000000000000000000000000000000000000000000000000000600052602260045260246000fd5b600060028204905060018216806200034557607f821691505b6020821081036200035b576200035a620002fd565b5b50919050565b60008190508160005260206000209050919050565b60006020601f8301049050919050565b600082821b905092915050565b600060088302620003c57fffffffffffffffffffffffffffffffffffffffffffffffffffffffffffffffff8262000386565b620003d1868362000386565b95508019841693508086168417925050509392505050565b6000819050919050565b6000819050919050565b60006200041e620004186200041284620003e9565b620003f3565b620003e9565b9050919050565b6000819050919050565b6200043a83620003fd565b62000452620004498262000425565b84845462000393565b825550505050565b600090565b620004696200045a565b620004768184846200042f565b505050565b5b818110156200049e57620004926000826200045f565b6001810190506200047c565b5050565b601f821115620004ed57620004b78162000361565b620004c28462000376565b81016020851015620004d2578190505b620004ea620004e18562000376565b8301826200047b565b50505b505050565b600082821c905092915050565b60006200051260001984600802620004f2565b1980831691505092915050565b60006200052d8383620004ff565b9150826002028217905092915050565b6200054882620002c3565b67ffffffffffffffff811115620005645762000563620002ce565b5b6200057082546200032c565b6200057d828285620004a2565b600060209050601f831160018114620005b55760008415620005a0578287015190505b620005ac85826200051f565b8655506200061c565b601f198416620005c58662000361565b60005b82811015620005ef57848901518255600182019150602085019450602081019050620005c8565b868310156200060f57848901516200060b601f891682620004ff565b8355505b6001600288020188555050505b505050505050565b61270a80620006346000396000f3fe608060405234801561001057600080fd5b50600436106101425760003560e01c80635197ec41116100b8578063a0712d681161007c578063a0712d681461039d578063a217fddf146103b9578063a457c2d7146103d7578063a9059cbb14610407578063d547741f14610437578063dd62ed3e1461045357610142565b80635197ec41146102e557806370a082311461030357806379cc67901461033357806391d148541461034f57806395d89b411461037f57610142565b8063248a9ca31161010a578063248a9ca3146102135780632f2ff15d14610243578063313ce5671461025f57806336568abe1461027d578063395093511461029957806342966c68146102c957610142565b806301ffc9a71461014757806306fdde0314610177578063095ea7b31461019557806318160ddd146101c557806323b872dd146101e3575b600080fd5b610161600480360381019061015c9190611959565b610483565b60405161016e91906119a1565b60405180910390f35b61017f6104fd565b60405161018c9190611a55565b60405180910390f35b6101af60048036038101906101aa9190611b0b565b61058f565b6040516101bc91906119a1565b60405180910390f35b6101cd6105b2565b6040516101da9190611b5a565b60405180910390f35b6101fd60048036038101906101f89190611b75565b6105bc565b60405161020a91906119a1565b60405180910390f35b61022d60048036038101906102289190611bfe565b6105eb565b60405161023a9190611c3a565b60405180910390f35b61025d60048036038101906102589190611c55565b61060b565b005b61026761062c565b6040516102749190611cb1565b60405180910390f35b61029760048036038101906102929190611c55565b6106b9565b005b6102b360048036038101906102ae9190611b0b565b61073c565b6040516102c091906119a1565b60405180910390f35b6102e360048036038101906102de9190611ccc565b610773565b005b6102ed610836565b6040516102fa9190611c3a565b60405180910390f35b61031d60048036038101906103189190611cf9565b61085a565b60405161032a9190611b5a565b60405180910390f35b61034d60048036038101906103489190611b0b565b6108a2565b005b61036960048036038101906103649190611c55565b6108c2565b60405161037691906119a1565b60405180910390f35b61038761092d565b6040516103949190611a55565b60405180910390f35b6103b760048036038101906103b29190611ccc565b6109bf565b005b6103c1610a7b565b6040516103ce9190611c3a565b60405180910390f35b6103f160048036038101906103ec9190611b0b565b610a82565b6040516103fe91906119a1565b60405180910390f35b610421600480360381019061041c9190611b0b565b610af9565b60405161042e91906119a1565b60405180910390f35b610451600480360381019061044c9190611c55565b610b1c565b005b61046d60048036038101906104689190611d26565b610b3d565b60405161047a9190611b5a565b60405180910390f35b60007f7965db0b000000000000000000000000000000000000000000000000000000007bffffffffffffffffffffffffffffffffffffffffffffffffffffffff1916827bffffffffffffffffffffffffffffffffffffffffffffffffffffffff191614806104f657506104f582610bc4565b5b9050919050565b60606003805461050c90611d95565b80601f016020809104026020016040519081016040528092919081815260200182805461053890611d95565b80156105855780601f1061055a57610100808354040283529160200191610585565b820191906000526020600020905b81548152906001019060200180831161056857829003601f168201915b5050505050905090565b60008061059a610c2e565b90506105a7818585610c36565b600191505092915050565b6000600254905090565b6000806105c7610c2e565b90506105d4858285610dff565b6105df858585610e8b565b60019150509392505050565b600060056000838152602001908152602001600020600101549050919050565b610614826105eb565b61061d8161110a565b610627838361111e565b505050565b600061065a7f2f204b632ca22449222d9e193427e7f292a5009422d0a521ec55ebe7b0602ee660001b6111ff565b6106867f34776760a258a4d6a477c2f8d1acff162cb65140b51aeb103bf25c7bced9169e60001b6111ff565b6106b27f51f3b8748ddd49a86b48f3740e52a6953f37ffb67b770cace6fc965fb3215df960001b6111ff565b6006905090565b6106c1610c2e565b73ffffffffffffffffffffffffffffffffffffffff168173ffffffffffffffffffffffffffffffffffffffff161461072e576040517f08c379a000000000000000000000000000000000000000000000000000000000815260040161072590611e38565b60405180910390fd5b6107388282611202565b5050565b600080610747610c2e565b90506107688185856107598589610b3d565b6107639190611e87565b610c36565b600191505092915050565b7f35e43c822922c4b6c27ed629e75b34bfd2905755c320bae6efcbadb8d2a4205861079d8161110a565b6107c97f7d853d3e74007286e57506ad6e7dd83d52b35e8e43bf7d607c0069b4222fa48860001b6111ff565b6107f57f34056dfaa6d0112b7f060e5f1aa64e533088aad9afc03b3ce87eadf1d74c2f5d60001b6111ff565b6108217fdb264cccfedacf8b8d37e58fa2df9902fb5716a5cbceb955737b9e6f27eb95c060001b6111ff565b61083261082c610c2e565b836112e4565b5050565b7f35e43c822922c4b6c27ed629e75b34bfd2905755c320bae6efcbadb8d2a4205881565b60008060008373ffffffffffffffffffffffffffffffffffffffff1673ffffffffffffffffffffffffffffffffffffffff168152602001908152602001600020549050919050565b6108b4826108ae610c2e565b83610dff565b6108be82826112e4565b5050565b60006005600084815260200190815260200160002060000160008373ffffffffffffffffffffffffffffffffffffffff1673ffffffffffffffffffffffffffffffffffffffff16815260200190815260200160002060009054906101000a900460ff16905092915050565b60606004805461093c90611d95565b80601f016020809104026020016040519081016040528092919081815260200182805461096890611d95565b80156109b55780601f1061098a576101008083540402835291602001916109b5565b820191906000526020600020905b81548152906001019060200180831161099857829003601f168201915b5050505050905090565b7f35e43c822922c4b6c27ed629e75b34bfd2905755c320bae6efcbadb8d2a420586109e98161110a565b610a157f125ca83a4bf7920c2eba9c4dafc2df3c78405184e54ad8c4e6acfc74a16c8b9760001b6111ff565b610a417f4fe1c3067e5002b96834e607692361ce7a1b5bb551482a4ab4ea73399a972ead60001b6111ff565b610a6d7fa7ba3fb33b663e3f321255473e8246c9795a5a06633068591a6b43ab534470e460001b6111ff565b610a7733836114ba565b5050565b6000801b81565b600080610a8d610c2e565b90506000610a9b8286610b3d565b905083811015610ae0576040517f08c379a0000000000000000000000000000000000000000000000000000000008152600401610ad790611f4f565b60405180910390fd5b610aed8286868403610c36565b60019250505092915050565b600080610b04610c2e565b9050610b11818585610e8b565b600191505092915050565b610b25826105eb565b610b2e8161110a565b610b388383611202565b505050565b6000600160008473ffffffffffffffffffffffffffffffffffffffff1673ffffffffffffffffffffffffffffffffffffffff16815260200190815260200160002060008373ffffffffffffffffffffffffffffffffffffffff1673ffffffffffffffffffffffffffffffffffffffff16815260200190815260200160002054905092915050565b60007f01ffc9a7000000000000000000000000000000000000000000000000000000007bffffffffffffffffffffffffffffffffffffffffffffffffffffffff1916827bffffffffffffffffffffffffffffffffffffffffffffffffffffffff1916149050919050565b600033905090565b600073ffffffffffffffffffffffffffffffffffffffff168373ffffffffffffffffffffffffffffffffffffffff1603610ca5576040517f08c379a0000000000000000000000000000000000000000000000000000000008152600401610c9c90611fe1565b60405180910390fd5b600073ffffffffffffffffffffffffffffffffffffffff168273ffffffffffffffffffffffffffffffffffffffff1603610d14576040517f08c379a0000000000000000000000000000000000000000000000000000000008152600401610d0b90612073565b60405180910390fd5b80600160008573ffffffffffffffffffffffffffffffffffffffff1673ffffffffffffffffffffffffffffffffffffffff16815260200190815260200160002060008473ffffffffffffffffffffffffffffffffffffffff1673ffffffffffffffffffffffffffffffffffffffff168152602001908152602001600020819055508173ffffffffffffffffffffffffffffffffffffffff168373ffffffffffffffffffffffffffffffffffffffff167f8c5be1e5ebec7d5bd14f71427d1e84f3dd0314c0f7b2291e5b200ac8c7c3b92583604051610df29190611b5a565b60405180910390a3505050565b6000610e0b8484610b3d565b90507fffffffffffffffffffffffffffffffffffffffffffffffffffffffffffffffff8114610e855781811015610e77576040517f08c379a0000000000000000000000000000000000000000000000000000000008152600401610e6e906120df565b60405180910390fd5b610e848484848403610c36565b5b50505050565b600073ffffffffffffffffffffffffffffffffffffffff168373ffffffffffffffffffffffffffffffffffffffff1603610efa576040517f08c379a0000000000000000000000000000000000000000000000000000000008152600401610ef190612171565b60405180910390fd5b600073ffffffffffffffffffffffffffffffffffffffff168273ffffffffffffffffffffffffffffffffffffffff1603610f69576040517f08c379a0000000000000000000000000000000000000000000000000000000008152600401610f6090612203565b60405180910390fd5b610f74838383611619565b60008060008573ffffffffffffffffffffffffffffffffffffffff1673ffffffffffffffffffffffffffffffffffffffff16815260200190815260200160002054905081811015610ffa576040517f08c379a0000000000000000000000000000000000000000000000000000000008152600401610ff190612295565b60405180910390fd5b8181036000808673ffffffffffffffffffffffffffffffffffffffff1673ffffffffffffffffffffffffffffffffffffffff16815260200190815260200160002081905550816000808573ffffffffffffffffffffffffffffffffffffffff1673ffffffffffffffffffffffffffffffffffffffff168152602001908152602001600020600082825461108d9190611e87565b925050819055508273ffffffffffffffffffffffffffffffffffffffff168473ffffffffffffffffffffffffffffffffffffffff167fddf252ad1be2c89b69c2b068fc378daa952ba7f163c4a11628f55a4df523b3ef846040516110f19190611b5a565b60405180910390a361110484848461161e565b50505050565b61111b81611116610c2e565b611623565b50565b61112882826108c2565b6111fb5760016005600084815260200190815260200160002060000160008373ffffffffffffffffffffffffffffffffffffffff1673ffffffffffffffffffffffffffffffffffffffff16815260200190815260200160002060006101000a81548160ff0219169083151502179055506111a0610c2e565b73ffffffffffffffffffffffffffffffffffffffff168173ffffffffffffffffffffffffffffffffffffffff16837f2f8788117e7eff1d82e926ec794901d17c78024a50270940304540a733656f0d60405160405180910390a45b5050565b50565b61120c82826108c2565b156112e05760006005600084815260200190815260200160002060000160008373ffffffffffffffffffffffffffffffffffffffff1673ffffffffffffffffffffffffffffffffffffffff16815260200190815260200160002060006101000a81548160ff021916908315150217905550611285610c2e565b73ffffffffffffffffffffffffffffffffffffffff168173ffffffffffffffffffffffffffffffffffffffff16837ff6391f5c32d9c69d2a47ea670b442974b53935d1edc7fd64eb21e047a839171b60405160405180910390a45b5050565b600073ffffffffffffffffffffffffffffffffffffffff168273ffffffffffffffffffffffffffffffffffffffff1603611353576040517f08c379a000000000000000000000000000000000000000000000000000000000815260040161134a90612327565b60405180910390fd5b61135f82600083611619565b60008060008473ffffffffffffffffffffffffffffffffffffffff1673ffffffffffffffffffffffffffffffffffffffff168152602001908152602001600020549050818110156113e5576040517f08c379a00000000000000000000000000000000000000000000000000000000081526004016113dc906123b9565b60405180910390fd5b8181036000808573ffffffffffffffffffffffffffffffffffffffff1673ffffffffffffffffffffffffffffffffffffffff16815260200190815260200160002081905550816002600082825461143c91906123d9565b92505081905550600073ffffffffffffffffffffffffffffffffffffffff168373ffffffffffffffffffffffffffffffffffffffff167fddf252ad1be2c89b69c2b068fc378daa952ba7f163c4a11628f55a4df523b3ef846040516114a19190611b5a565b60405180910390a36114b58360008461161e565b505050565b600073ffffffffffffffffffffffffffffffffffffffff168273ffffffffffffffffffffffffffffffffffffffff1603611529576040517f08c379a000000000000000000000000000000000000000000000000000000000815260040161152090612459565b60405180910390fd5b61153560008383611619565b80600260008282546115479190611e87565b92505081905550806000808473ffffffffffffffffffffffffffffffffffffffff1673ffffffffffffffffffffffffffffffffffffffff168152602001908152602001600020600082825461159c9190611e87565b925050819055508173ffffffffffffffffffffffffffffffffffffffff16600073ffffffffffffffffffffffffffffffffffffffff167fddf252ad1be2c89b69c2b068fc378daa952ba7f163c4a11628f55a4df523b3ef836040516116019190611b5a565b60405180910390a36116156000838361161e565b5050565b505050565b505050565b61162d82826108c2565b6116bc576116528173ffffffffffffffffffffffffffffffffffffffff1660146116c0565b6116608360001c60206116c0565b60405160200161167192919061254d565b6040516020818303038152906040526040517f08c379a00000000000000000000000000000000000000000000000000000000081526004016116b39190611a55565b60405180910390fd5b5050565b6060600060028360026116d39190612587565b6116dd9190611e87565b67ffffffffffffffff8111156116f6576116f56125e1565b5b6040519080825280601f01601f1916602001820160405280156117285781602001600182028036833780820191505090505b5090507f3000000000000000000000000000000000000000000000000000000000000000816000815181106117605761175f612610565b5b60200101907effffffffffffffffffffffffffffffffffffffffffffffffffffffffffffff1916908160001a9053507f7800000000000000000000000000000000000000000000000000000000000000816001815181106117c4576117c3612610565b5b60200101907effffffffffffffffffffffffffffffffffffffffffffffffffffffffffffff1916908160001a905350600060018460026118049190612587565b61180e9190611e87565b90505b60018111156118ae577f3031323334353637383961626364656600000000000000000000000000000000600f8616601081106118505761184f612610565b5b1a60f81b82828151811061186757611866612610565b5b60200101907effffffffffffffffffffffffffffffffffffffffffffffffffffffffffffff1916908160001a905350600485901c9450806118a79061263f565b9050611811565b50600084146118f2576040517f08c379a00000000000000000000000000000000000000000000000000000000081526004016118e9906126b4565b60405180910390fd5b8091505092915050565b600080fd5b60007fffffffff0000000000000000000000000000000000000000000000000000000082169050919050565b61193681611901565b811461194157600080fd5b50565b6000813590506119538161192d565b92915050565b60006020828403121561196f5761196e6118fc565b5b600061197d84828501611944565b91505092915050565b60008115159050919050565b61199b81611986565b82525050565b60006020820190506119b66000830184611992565b92915050565b600081519050919050565b600082825260208201905092915050565b60005b838110156119f65780820151818401526020810190506119db565b83811115611a05576000848401525b50505050565b6000601f19601f8301169050919050565b6000611a27826119bc565b611a3181856119c7565b9350611a418185602086016119d8565b611a4a81611a0b565b840191505092915050565b60006020820190508181036000830152611a6f8184611a1c565b905092915050565b600073ffffffffffffffffffffffffffffffffffffffff82169050919050565b6000611aa282611a77565b9050919050565b611ab281611a97565b8114611abd57600080fd5b50565b600081359050611acf81611aa9565b92915050565b6000819050919050565b611ae881611ad5565b8114611af357600080fd5b50565b600081359050611b0581611adf565b92915050565b60008060408385031215611b2257611b216118fc565b5b6000611b3085828601611ac0565b9250506020611b4185828601611af6565b9150509250929050565b611b5481611ad5565b82525050565b6000602082019050611b6f6000830184611b4b565b92915050565b600080600060608486031215611b8e57611b8d6118fc565b5b6000611b9c86828701611ac0565b9350506020611bad86828701611ac0565b9250506040611bbe86828701611af6565b9150509250925092565b6000819050919050565b611bdb81611bc8565b8114611be657600080fd5b50565b600081359050611bf881611bd2565b92915050565b600060208284031215611c1457611c136118fc565b5b6000611c2284828501611be9565b91505092915050565b611c3481611bc8565b82525050565b6000602082019050611c4f6000830184611c2b565b92915050565b60008060408385031215611c6c57611c6b6118fc565b5b6000611c7a85828601611be9565b9250506020611c8b85828601611ac0565b9150509250929050565b600060ff82169050919050565b611cab81611c95565b82525050565b6000602082019050611cc66000830184611ca2565b92915050565b600060208284031215611ce257611ce16118fc565b5b6000611cf084828501611af6565b91505092915050565b600060208284031215611d0f57611d0e6118fc565b5b6000611d1d84828501611ac0565b91505092915050565b60008060408385031215611d3d57611d3c6118fc565b5b6000611d4b85828601611ac0565b9250506020611d5c85828601611ac0565b9150509250929050565b7f4e487b7100000000000000000000000000000000000000000000000000000000600052602260045260246000fd5b60006002820490506001821680611dad57607f821691505b602082108103611dc057611dbf611d66565b5b50919050565b7f416363657373436f6e74726f6c3a2063616e206f6e6c792072656e6f756e636560008201527f20726f6c657320666f722073656c660000000000000000000000000000000000602082015250565b6000611e22602f836119c7565b9150611e2d82611dc6565b604082019050919050565b60006020820190508181036000830152611e5181611e15565b9050919050565b7f4e487b7100000000000000000000000000000000000000000000000000000000600052601160045260246000fd5b6000611e9282611ad5565b9150611e9d83611ad5565b9250827fffffffffffffffffffffffffffffffffffffffffffffffffffffffffffffffff03821115611ed257611ed1611e58565b5b828201905092915050565b7f45524332303a2064656372656173656420616c6c6f77616e63652062656c6f7760008201527f207a65726f000000000000000000000000000000000000000000000000000000602082015250565b6000611f396025836119c7565b9150611f4482611edd565b604082019050919050565b60006020820190508181036000830152611f6881611f2c565b9050919050565b7f45524332303a20617070726f76652066726f6d20746865207a65726f2061646460008201527f7265737300000000000000000000000000000000000000000000000000000000602082015250565b6000611fcb6024836119c7565b9150611fd682611f6f565b604082019050919050565b60006020820190508181036000830152611ffa81611fbe565b9050919050565b7f45524332303a20617070726f766520746f20746865207a65726f20616464726560008201527f7373000000000000000000000000000000000000000000000000000000000000602082015250565b600061205d6022836119c7565b915061206882612001565b604082019050919050565b6000602082019050818103600083015261208c81612050565b9050919050565b7f45524332303a20696e73756666696369656e7420616c6c6f77616e6365000000600082015250565b60006120c9601d836119c7565b91506120d482612093565b602082019050919050565b600060208201905081810360008301526120f8816120bc565b9050919050565b7f45524332303a207472616e736665722066726f6d20746865207a65726f20616460008201527f6472657373000000000000000000000000000000000000000000000000000000602082015250565b600061215b6025836119c7565b9150612166826120ff565b604082019050919050565b6000602082019050818103600083015261218a8161214e565b9050919050565b7f45524332303a207472616e7366657220746f20746865207a65726f206164647260008201527f6573730000000000000000000000000000000000000000000000000000000000602082015250565b60006121ed6023836119c7565b91506121f882612191565b604082019050919050565b6000602082019050818103600083015261221c816121e0565b9050919050565b7f45524332303a207472616e7366657220616d6f756e742065786365656473206260008201527f616c616e63650000000000000000000000000000000000000000000000000000602082015250565b600061227f6026836119c7565b915061228a82612223565b604082019050919050565b600060208201905081810360008301526122ae81612272565b9050919050565b7f45524332303a206275726e2066726f6d20746865207a65726f2061646472657360008201527f7300000000000000000000000000000000000000000000000000000000000000602082015250565b60006123116021836119c7565b915061231c826122b5565b604082019050919050565b6000602082019050818103600083015261234081612304565b9050919050565b7f45524332303a206275726e20616d6f756e7420657863656564732062616c616e60008201527f6365000000000000000000000000000000000000000000000000000000000000602082015250565b60006123a36022836119c7565b91506123ae82612347565b604082019050919050565b600060208201905081810360008301526123d281612396565b9050919050565b60006123e482611ad5565b91506123ef83611ad5565b92508282101561240257612401611e58565b5b828203905092915050565b7f45524332303a206d696e7420746f20746865207a65726f206164647265737300600082015250565b6000612443601f836119c7565b915061244e8261240d565b602082019050919050565b6000602082019050818103600083015261247281612436565b9050919050565b600081905092915050565b7f416363657373436f6e74726f6c3a206163636f756e7420000000000000000000600082015250565b60006124ba601783612479565b91506124c582612484565b601782019050919050565b60006124db826119bc565b6124e58185612479565b93506124f58185602086016119d8565b80840191505092915050565b7f206973206d697373696e6720726f6c6520000000000000000000000000000000600082015250565b6000612537601183612479565b915061254282612501565b601182019050919050565b6000612558826124ad565b915061256482856124d0565b915061256f8261252a565b915061257b82846124d0565b91508190509392505050565b600061259282611ad5565b915061259d83611ad5565b9250817fffffffffffffffffffffffffffffffffffffffffffffffffffffffffffffffff04831182151516156125d6576125d5611e58565b5b828202905092915050565b7f4e487b7100000000000000000000000000000000000000000000000000000000600052604160045260246000fd5b7f4e487b7100000000000000000000000000000000000000000000000000000000600052603260045260246000fd5b600061264a82611ad5565b91506000820361265d5761265c611e58565b5b600182039050919050565b7f537472696e67733a20686578206c656e67746820696e73756666696369656e74600082015250565b600061269e6020836119c7565b91506126a982612668565b602082019050919050565b600060208201905081810360008301526126cd81612691565b905091905056fea2646970667358221220e2fc4186d527516f7c02937f09ce3a76b4b1d7a4d1cb58face3c254b0bfaa68264736f6c634300080f0033",
  "linkReferences": {},
  "deployedLinkReferences": {}
}